:020000040800F2
:10000000D8FE0220390300084D7A01084122010878
:1000100005700108F5B70008EDDD010800000000DB
:1000200000000000000000000000000079AA0108A4
:1000300069CA00080000000013040008D9B20108D2
:100040007303000873030008730300081D9B010875
:1000500073030008730300087303000873030008A8
:100060007303000873030008730300087303000898
:100070007303000873030008730300087303000888
:100080007303000873030008730300087303000878
:100090007303000873030008730300087303000868
:1000A0007303000873030008730300087303000858
:1000B00051B301085DB3010873030008730300081E
:1000C0007303000873030008730300087303000838
:1000D000730300089DC4010873030008B5C4010838
:1000E0007303000865980108730300087303000890
:1000F000A5B3010873030008730300087303000825
:10010000730300087303000869B301087303000850
:10011000730300087303000875B301088DB3010869
:100120007303000875C6000873030008F5C60008CD
:1001300073030008730300087303000873030008C7
:10014000730300087303000873030008C58E0108D9
:1001500075C70008730300087303000873030008E1
:100160007303000873030008730300087303000897
:100170007303000873030008DDC5000800000000D9
:100180007303000873030008730300087303000877
:100190007303000873030008730300087303000867
:1001A00073030008730300087303000800F002F8EB
:1001B00000F0B2F80AA090E8000C82448344AAF14F
:1001C0000107DA4501D100F0A7F8AFF2090EBAE84D
:1001D0000F0013F0010F18BFFB1A43F0010318477B
:1001E000406C0700606C07000A444FF0000C10F8E8
:1001F000013B13F0070408BF10F8014B1D1108BFA5
:1002000010F8015B641E05D010F8016B641E01F844
:10021000016BF9D113F0080F1EBF10F8014BAD1C94
:100220000C1B09D16D1E58BF01F801CBFAD505E0B2
:1002300014F8016B01F8016B6D1EF9D59142D6D30C
:10024000704700000023002400250026103A28BF34
:1002500078C1FBD8520728BF30C148BF0B60704738
:100260006E2908F0AF81702908F0D382662910F05A
:1002700058A5652910F055A5672910F052A56129E8
:1002800010F051A503681B0A28BF41F080016929BD
:1002900008F05C81642908F05981752908F05681BD
:1002A0006F2908F06182782908F09F82E92908F017
:1002B000FB81E42908F0F881F52908F0F581EF29A0
:1002C00008F05E82F82908F09E820368DB0928BFE7
:1002D00041F08001632909F00882732909F00D8239
:1002E000E32909F02B82F32909F0308200207047BE
:1002F0001FB550F0C0FC09F0A9FA0400002000214D
:100300004FF06CFD401C6060002000214FF050FD5C
:10031000E0601FBD10B510BD09F0FAFC1146FFF7F3
:10032000E7FF37F0D1FD09F06BFF03B4FFF7F2FFF1
:1003300003BC21F04CFA000011488047DFF844006C
:10034000016841F470010160BFF34F8FDFF838009E
:10035000016821F040410160BFF36F8F0B480047F7
:10036000FEE7FEE7FEE7FEE7FEE7FEE7FEE7FEE765
:10037000FEE7FEE706480749054A074B70470000BD
:10038000FDB2010888ED00E034EF00E0AD010008A7
:10039000D8FA0220D8FE0220D8FA0220EFF3098111
:1003A00041B1F1EE101A40F8041D20ED200A294950
:1003B0000A6810607047B0EC200A02C8E1EE101A1B
:1003C00025490A6810607047EFF3108072B67047D5
:1003D00080F31088704721484FF6FF7101700020AC
:1003E00080F309881E48016881F308881D480121AF
:1003F00001701D484FF08051016062B6FEE71A4857
:100400004FF080510160704717484FF080510160F4
:10041000704772B6EFF3098028B1203880E8F00FFA
:100420000C490968086000B5104880475DF804EB86
:100430000F4810490A780270064807490A680260A6
:10044000106890E8F00F203080F309884EF0F40E29
:1004500062B67047D4010020DC01002022ED00E0EC
:1004600010020020BB01002004ED00E01986010805
:10047000B8010020B901002081FB0020704701462F
:100480004FF0000081EAE170A0EBE17070470000DE
:100490002DE9F04F82B001904FF000744FF00078DA
:1004A0004FF000054FF0000952F804CB52F804EB6E
:1004B0000868CB6DC0FB0C45D1F88000CEF1000E72
:1004C000C3FB0E45D1F8DC30C0FB0C89C3FB0E89A1
:1004D00052F804CB52F804EB48688B6DC0FB0C4516
:1004E000D1F88400CEF1000EC3FB0E45D1F8D83010
:1004F000C0FB0C89C3FB0E8952F804CB52F804EB05
:1005000088684B6DC0FB0C45D1F88800CEF1000E19
:10051000C3FB0E45D1F8D430C0FB0C89C3FB0E8958
:1005200052F804CB52F804EBC8680B6DC0FB0C45C5
:10053000D1F88C00CEF1000EC3FB0E45D1F8D030BF
:10054000C0FB0C89C3FB0E8952F804CB52F804EBB4
:100550000869CB6CC0FB0C45D1F89000CEF1000EC1
:10056000C3FB0E45D1F8CC30C0FB0C89C3FB0E8910
:1005700052F804CB52F804EB48698B6CC0FB0C4575
:10058000D1F89400CEF1000EC3FB0E45D1F8C8306F
:10059000C0FB0C89C3FB0E8952F804CB52F804EB64
:1005A00088694B6CC0FB0C45D1F89800CEF1000E69
:1005B000C3FB0E45D1F8C430C0FB0C89C3FB0E89C8
:1005C00052F804CB52F804EBC8690B6CC0FB0C4525
:1005D000D1F89C00CEF1000EC3FB0E45D1F8C0301F
:1005E000C0FB0C89C3FB0E8901984FF4FE4E4EF000
:1005F000FF0E4FEA946444EA85144FEAE47CBCEBB6
:10060000E43F18BF8CEA0E044FEA986848EA89185C
:100610004FEAE87CBCEBE83F18BF8CEA0E08048088
:10062000A0F8028002F5707201F580514FF000745D
:100630004FF000784FF000054FF0000952F804CB5E
:100640000868D1F88030C0FB0C45C3FB0C8952F818
:1006500004CB4868D1F88430C0FB0C45C3FB0C893F
:1006600052F804CB8868D1F88830C0FB0C45C3FB36
:100670000C8952F804CBC868D1F88C30C0FB0C450B
:10068000C3FB0C8952F804CB0869D1F89030C0FB49
:100690000C45C3FB0C8952F804CB4869D1F894305F
:1006A000C0FB0C45C3FB0C8952F804CB8869D1F818
:1006B0009830C0FB0C45C3FB0C8952F804CBC869C9
:1006C000D1F89C30C0FB0C45C3FB0C8901984FF45A
:1006D000FE4E4EF0FF0E4FEA946444EA85144FEA52
:1006E000E47CBCEBE43F18BF8CEA0E044FEA986848
:1006F00048EA89184FEAE87CBCEBE83F18BF8CEA6F
:100700000E08A0F84040A0F84280A2F57872A1F54A
:1007100070614FF00F0C00F10400CDF800C00190A3
:100720004FF000744FF000784FF000764FF0007AF1
:100730004FF000054FF000094FF000074FF0000B9D
:1007400052F804CB52F804EB0868CB6DC0FB0C45A3
:10075000C0FB0E67CEF1000EC3FB0C67C3FB0E455A
:10076000D1F8DC30D1F88000C3FB0E89C3FB0CABA1
:10077000CEF1000EC0FB0C89C0FB0EAB52F804CBCF
:1007800052F804EB48688B6DC0FB0C45C0FB0E674C
:10079000CEF1000EC3FB0C67C3FB0E45D1F8D83079
:1007A000D1F88400C3FB0E89C3FB0CABCEF1000E65
:1007B000C0FB0C89C0FB0EAB52F804CB52F804EB23
:1007C00088684B6DC0FB0C45C0FB0E67CEF1000E78
:1007D000C3FB0C67C3FB0E45D1F8D430D1F88800B9
:1007E000C3FB0E89C3FB0CABCEF1000EC0FB0C8922
:1007F000C0FB0EAB52F804CB52F804EBC8680B6D8B
:10080000C0FB0C45C0FB0E67CEF1000EC3FB0C67AE
:10081000C3FB0E45D1F8D030D1F88C00C3FB0E8954
:10082000C3FB0CABCEF1000EC0FB0C89C0FB0EABC2
:1008300052F804CB52F804EB0869CB6CC0FB0C45B2
:10084000C0FB0E67CEF1000EC3FB0C67C3FB0E4569
:10085000D1F8CC30D1F89000C3FB0E89C3FB0CABB0
:10086000CEF1000EC0FB0C89C0FB0EAB52F804CBDE
:1008700052F804EB48698B6CC0FB0C45C0FB0E675B
:10088000CEF1000EC3FB0C67C3FB0E45D1F8C83098
:10089000D1F89400C3FB0E89C3FB0CABCEF1000E64
:1008A000C0FB0C89C0FB0EAB52F804CB52F804EB32
:1008B00088694B6CC0FB0C45C0FB0E67CEF1000E87
:1008C000C3FB0C67C3FB0E45D1F8C430D1F89800C8
:1008D000C3FB0E89C3FB0CABCEF1000EC0FB0C8931
:1008E000C0FB0EAB52F804CB52F804EBC8690B6C9A
:1008F000C0FB0C45C0FB0E67CEF1000EC3FB0C67BE
:10090000C3FB0E45D1F8C030D1F89C00C3FB0E8963
:10091000C3FB0CABCEF1000EC0FB0C89C0FB0EABD1
:1009200001F5807101984FF4FE4E4EF0FF0E4FEA34
:10093000946444EA85144FEAE47CBCEBE43F18BFBE
:100940008CEA0E044FEA986848EA89184FEAE87C76
:10095000BCEBE83F18BF8CEA0E084FEA966646EA01
:1009600087164FEAE67CBCEBE63F18BF8CEA0E0622
:100970004FEA9A6A4AEA8B1A4FEAEA7CBCEBEA3FF2
:1009800018BF8CEA0E0ADDF800C000EBCC0E2EF882
:10099000026B2EF802AB20F8024B20F8028BBCF160
:1009A000010C7FF4BAAE02B0BDE8F08F2DE9F04F34
:1009B00082B001904FF000744FF0000552F804CB64
:1009C00052F804EB0868CB6DCEF1000EC0FB0C456D
:1009D000C3FB0E4552F804CB52F804EB48688B6D0C
:1009E000CEF1000EC0FB0C45C3FB0E4552F804CB04
:1009F00052F804EB88684B6DCEF1000EC0FB0C453D
:100A0000C3FB0E4552F804CB52F804EBC8680B6DDB
:100A1000CEF1000EC0FB0C45C3FB0E4552F804CBD3
:100A200052F804EB0869CB6CCEF1000EC0FB0C450C
:100A3000C3FB0E4552F804CB52F804EB48698B6CAB
:100A4000CEF1000EC0FB0C45C3FB0E4552F804CBA3
:100A500052F804EB88694B6CCEF1000EC0FB0C45DC
:100A6000C3FB0E4552F804CB52F804EBC8690B6C7B
:100A7000CEF1000EC0FB0C45C3FB0E4501984FF4B0
:100A8000FE4E4EF0FF0E4FEA946444EA85144FEA9E
:100A9000E47CBCEBE43F18BF8CEA0E04048002F552
:100AA000707201F580514FF000744FF0000552F85C
:100AB00004CB0868C0FB0C4552F804CB4868C0FB67
:100AC0000C4552F804CB8868C0FB0C4552F804CBA7
:100AD000C868C0FB0C4552F804CB0869C0FB0C4544
:100AE00052F804CB4869C0FB0C4552F804CB886926
:100AF000C0FB0C4552F804CBC869C0FB0C450198FB
:100B00004FF4FE4E4EF0FF0E4FEA946444EA851413
:100B10004FEAE47CBCEBE43F18BF8CEA0E0404848B
:100B2000A2F57872A1F570614FF00F0C00F1020090
:100B3000CDF800C001904FF000744FF000764FF0F8
:100B400000054FF0000752F804CB52F804EB086898
:100B5000CB6DC0FB0C45C0FB0E67CEF1000EC3FB96
:100B60000E45C3FB0C6752F804CB52F804EB4868FF
:100B70008B6DC0FB0C45C0FB0E67CEF1000EC3FBB6
:100B80000E45C3FB0C6752F804CB52F804EB88689F
:100B90004B6DC0FB0C45C0FB0E67CEF1000EC3FBD6
:100BA0000E45C3FB0C6752F804CB52F804EBC8683F
:100BB0000B6DC0FB0C45C0FB0E67CEF1000EC3FBF6
:100BC0000E45C3FB0C6752F804CB52F804EB0869DE
:100BD000CB6CC0FB0C45C0FB0E67CEF1000EC3FB17
:100BE0000E45C3FB0C6752F804CB52F804EB48697E
:100BF0008B6CC0FB0C45C0FB0E67CEF1000EC3FB37
:100C00000E45C3FB0C6752F804CB52F804EB88691D
:100C10004B6CC0FB0C45C0FB0E67CEF1000EC3FB56
:100C20000E45C3FB0C6752F804CB52F804EBC869BD
:100C30000B6CC0FB0C45C0FB0E67CEF1000EC3FB76
:100C40000E45C3FB0C6701F5807101984FF4FE4E11
:100C50004EF0FF0E4FEA946444EA85144FEAE47CB8
:100C6000BCEBE43F18BF8CEA0E044FEA966646EAF6
:100C700087164FEAE67CBCEBE63F18BF8CEA0E060F
:100C8000DDF800C000EB8C0E2EF8026B20F8024B52
:100C9000BCF1010C7FF44CAF02B0BDE8F08F000056
:100CA0002DE9FE4F8446D0F800E0DCF804B00EF1E8
:100CB000BC0292E80C040CF11C0696E8C003BBEBE6
:100CC0000A0ACEF8C4A0CEF8C8B00BFB06F00AFBA7
:100CD000070003FB080002FB0900C8BF6FF0000A11
:100CE000B8BF4FF0010ABBF1000FC8BF6FF0000B97
:100CF000B8BF4FF0010BCEF844A0CEF848B0DCF8F6
:100D00000C60DCF810700EF1980292E81C04C6EB3F
:100D10004616A7EB661BCCF80C700CF13C0595E869
:100D2000E003BBEB0A0ACEF8A4A0CEF8A8B00BFBF8
:100D300005F10AFB061104FB071103FB081102FB76
:100D40000911C8BF6FF0000AB8BF4FF0010ABBF12C
:100D5000000FC8BF6FF0000BB8BF4FF0010BCEF80B
:100D600024A0CEF828B0009A00EB6100DCF818400F
:100D70001368C4EB441403EBA021CCF8041001EB7E
:100D80006411CCF8181042F8041B0092002B39D0E3
:100D90000EF118021CCA1EDBA5EB0B05A6EB0A061A
:100DA000A9EB0209A8EB0308A7EB04070CF13C0030
:100DB00080E8E0030CF11C0191E83C000EF13C06D8
:100DC00096E8C003A5EB0605A4EB0704A3EB080314
:100DD000A2EB090214E05D44564491449844274430
:100DE0000CF13C0080E8E0030CF11C0191E83C00B0
:100DF0000EF13C0696E8C00335443C4443444A4463
:100E000081E83C00DCF808B00EF17C0292E80C04AA
:100E10000CF12C0696E8C003BBEB0A0ACEF884A0BE
:100E2000CEF888B00BFB06F00AFB070003FB0800B6
:100E300002FB0900C8BF6FF0000AB8BF4FF0010AFB
:100E4000BBF1000FC8BF6FF0000BB8BF4FF0010B34
:100E5000CEF834A0CEF838B0DCF81460DCF81870A6
:100E60000EF1580292E81C04C6EB4616A7EB661B6F
:100E7000CCF814700CF1500595E8E003BBEB0A0ABE
:100E8000CEF864A0CEF868B00BFB05F10AFB0611A2
:100E900004FB071103FB081102FB0911C8BF6FF027
:100EA000000AB8BF4FF0010ABBF1000FC8BF6FF0D6
:100EB000000BB8BF4FF0010BCEF810A0CEF814B065
:100EC000019A00EB6100DCF810401368C4EB441495
:100ED00003EBA021CCF8081001EB6411CCF8101042
:100EE00042F8041B0192002B39D00EF104021CCAF7
:100EF0001EDBA5EB0B05A6EB0A06A9EB0209A8EB86
:100F00000308A7EB04070CF1500080E8E0030CF1A4
:100F10002C0191E83C000EF12C0696E8C003A5EBED
:100F20000605A4EB0704A3EB0803A2EB090214E0F7
:100F30005D4456449144984427440CF1500080E8A5
:100F4000E0030CF12C0191E83C000EF12C0696E830
:100F5000C00335443C4443444A4481E83C000EF11C
:100F6000040E0CF1640BAEF5006A0298DA4509D064
:100F7000401E18BF02907FF498AECCF800E003B09A
:100F8000BDE8F08FBEE8FF03ABE8FF03BEE8FF0358
:100F9000ABE8FF03BEE8FF03ABE8FF03BEE8FF03D7
:100FA000ABE8FF03BEE8FF03ABE8FF0302980CF1D8
:100FB000640E401E18BF02907FF477AEDDE72DE986
:100FC000F64F8446D0F800E0DCF804B00EF1BC0225
:100FD00092E80C040CF11C0595E8C003BBEB0A0A6F
:100FE000CEF8C4A0CEF8C8B00BFB06F00AFB070091
:100FF00003FB080002FB0900C8BF6FF0000AB8BF7E
:101000004FF0010ABBF1000FC8BF6FF0000BB8BF73
:101010004FF0010BCEF844A0CEF848B0009ADCF8AF
:1010200018401368C4EB441403EBA021CCF804105F
:1010300001EB6411CCF8181042F8041B0092002B4D
:1010400013D0DEF83C20DEF8403008DBA6EB0B06C0
:10105000A7EB0A07A9EB0209A8EB030803E05E442B
:1010600057449144984485E8C0030EF1040E0CF1F6
:10107000640BAEF5006A0198DA4508D0401E18BF2F
:101080000190A1D1CCF800E002B0BDE8F08FBEE83D
:10109000FF03ABE8FF03BEE8FF03ABE8FF03BEE8D6
:1010A000FF03ABE8FF03BEE8FF03ABE8FF03BEE8C6
:1010B000FF03ABE8FF0301980CF1640E401E18BF5C
:1010C000019081D1DEE7000010B5FF48006821F0F3
:1010D0001BFBFE48006821F017FBFD48006821F06B
:1010E00013FBFC48006821F00FFBFB48006821F06F
:1010F0000BFBFA48006821F007FBF948006821F073
:1011000003FB10BD10B500244FF4007021F000FB6C
:10111000ED4908600846006800B901244FF40070EA
:1011200021F0F6FAE94908600846006800B9012490
:101130004FF4007021F0ECFAE549086008460068B9
:1011400000B90124A02021F0E3FAE2490860084632
:10115000006800B90124402021F0DAFADE49086075
:101160000846006800B90124402021F0D1FADB498B
:1011700008600846006800B901244FF4F87021F0B7
:10118000C7FAD74908600846006800B901240CB1C5
:10119000FFF79AFF204610BD2DE9F04704460D46A3
:1011A0001646701B00EBD07105EB610954F83970DD
:1011B00004EBC90148684FF0B8FC804654F835008C
:1011C00044F8390004EBC500406804EBC9014860ED
:1011D000A94605F1010A1DE054F83A0039464FF0DE
:1011E000E3FC15D854F83A0044F8390004EBCA007F
:1011F000406804EBC901486009F1010954F839005D
:1012000044F83A0004EBC900406804EBCA014860A6
:101210000AF1010AB245DFDDA9EB0500012805DD71
:10122000A9F1010229462046FFF7B6FFA6EB090007
:10123000012805DD324609F101012046FFF7ACFF28
:1012400044F8397040464FF077FC04EBC901486020
:10125000BDE8F0872DE9F84F04460D4616461F46B7
:101260004FF0000828E04FF0000920E04FF0000B9D
:10127000DA4612E00B9A0AFB029255F822100A9AFB
:1012800008FB02A254F822004FF0A6FC5946009039
:101290004FF02DFC83460AF1010A0A988245E9DBEA
:1012A0000B9808FB009046F820B009F101090B9853
:1012B0008145DBDB08F10108B845D4DBBDE8F88FD8
:1012C000024612B909B900207047002A02DD09B9A7
:1012D0000020F9E7002903DD8A4201DD0120F3E760
:1012E000002A03DD914201D10220EDE7002A03DD4F
:1012F0008A4201DA0320E7E71AB9002901DD042058
:10130000E2E7002A08DA101E01DB034600E0434250
:101310008B4201DA0520D7E7002A08DA101E01DB2C
:10132000034600E043428B4201D10620CCE7002A6D
:101330000ADA101E01DB034600E043428B4203DD64
:10134000002901DD0720BFE719B9002A01DA0820CA
:10135000BAE7002903DA914201DD0920B4E7002A47
:1013600003DA914201D10A20AEE7002A03DA914262
:1013700001DA0B20A8E71AB9002901DA0C20A3E74B
:1013800000290ADA081E01DB034600E043429342CB
:1013900003DD002A01DD0D2096E7002908DA081E8A
:1013A00001DB034600E04342934201D10E208BE76C
:1013B000002908DA081E01DB034600E0434293429D
:1013C00001DA0F2080E700207EE730B5034601B147
:1013D0000AB9002030BD412901D0412A01D10020A5
:1013E000F8E7491E521E03EBC20000EBE10004784F
:1013F00001F007050120A840044201D00120E9E7DF
:101400000020E7E72DE9FE4F04460D4616461F462D
:1014100000200190781C82000021324821F07CF9E4
:10142000781C82000021304821F076F94FF0000846
:1014300019E04FF0000912E004EBC80000EBE900EE
:10144000017809F0070201209040014205D04FF0D9
:101450007E5101984FF04BFB019009F10109B14514
:10146000EADB08F10108A845E3DB38464FF064FBEE
:101470008246014601984FF04FFB019001200290F7
:1014800049E04FF0000AD0463AE04FF0000912E080
:1014900004EBC90000EBE800017808F00702012026
:1014A0009040014205D04FF07E5150464FF01FFB57
:1014B000824609F10109A945EADB02984FF03CFB9D
:1014C0000090019912E00000AC060020B006002058
:1014D000B4060020B8060020BC060020C00600208C
:1014E000C4060020CCE90220E0E902204FF074FBA2
:1014F000834651464FF058FB00D804E008F101083C
:10150000701E4045C1DC00BFFD48029940F82180B3
:101510000298401C0290781C02998142B1DB0120A4
:10152000029035E04FF0000AD14626E04FF0000867
:1015300012E004EBC90000EBE800017808F00702B4
:1015400001209040014205D04FF07E5150464FF0AF
:10155000CEFA824608F10108B045EADB02984FF066
:10156000EBFA009001994FF037FB834651464FF05C
:101570001BFB00D804E009F10109681E4845D5DCD1
:1015800000BFE049029841F820900298401C029068
:10159000781C02998142C5DB0020029032E002995A
:1015A00091FBF7F1D74A52F82120029991FBF7F10C
:1015B000491CD44B53F82110501800EBD07149103E
:1015C000D14A1268029B42F82310029991FBF7F26C
:1015D00007FB1211CA4A52F82120029991FBF7F336
:1015E00007FB1311491CC64B53F82110501800EB90
:1015F000D0714910C54A1268029B42F82310029824
:10160000401C029007FB07F002998842C7DCBDE846
:10161000FE8F2DE9F34F8FB0402440200A90102513
:10162000AA000021B948006821F076F8AA0000213C
:10163000B548006821F070F8042321460A9A0F98F3
:10164000FFF7E0FEE2000021B148006821F064F8F5
:1016500000200B9060E3AC4801680B9851F8200023
:101660000290AA4801680B9851F820000190029856
:101670000830402801DD402001E002980830089041
:1016800001980830402801DD402001E00198083031
:1016900006900298083801D5002001E00298083829
:1016A00009900198083801D5002001E00198083818
:1016B000079009980E9027E307980D901CE3DDE949
:1016C0000D120F98FFF781FE8146DDE90D12491CCE
:1016D0000F98FFF77AFE022101FB0099DDE90D1258
:1016E000891C0F98FFF771FE81440E9A921C0D9988
:1016F0000F98FFF76AFEA9EB00090E9A921C0D994C
:10170000491C0F98FFF761FE022101FB10990E9A08
:10171000921C0D99891C0F98FFF757FEA9EB00004A
:1017200007B2DDE90D12891C0F98FFF74EFE8146C6
:101730000E9A521C0D99891C0F98FFF746FE022144
:1017400001FB00990E9A921C0D99891C0F98FFF7C6
:101750003CFE8144DDE90D120F98FFF736FEA9EB40
:1017600000090E9A521C0D990F98FFF72EFE0221C8
:1017700001FB10990E9A921C0D990F98FFF725FE08
:10178000A9EB00000FFA80F8002F02DBB8F1000F80
:1017900000DA00BF41463846FFF792FD03900398F8
:1017A00041100B9801FB05060398401C40100B9953
:1017B00000FB0510059002990E98401A083000EBC6
:1017C0000010019A0D99891A08440830514951F8BE
:1017D00020000490039810281CD2DFE800F0081CB9
:1017E0004A629FB3F2F0EFEEEDECEBEAE9E838463F
:1017F0004FF0A2F9824604994FF0EEF98146444831
:10180000006850F8261048464FF071F940490968C1
:1018100041F826006CE2A7EB08004FF08DF98246F4
:1018200004994FF0D9F981463948006850F82610DC
:1018300048464FF05CF93649096841F826004046B1
:101840004FF07AF9834634494FF0C6F9824604993D
:101850004FF0C2F981462E480268059852F82010D0
:1018600048464FF044F92A490968059A41F8220090
:101870003EE240464FF060F9834627494FF0ACF90D
:10188000824604994FF0A8F981462148006850F833
:10189000261048464FF02BF91D49096841F82600EB
:1018A00026E238464FF048F983461B494FF094F939
:1018B000824604994FF090F981461548006850F827
:1018C000261048464FF013F91149096841F82600DF
:1018D000A8EB07004FF030F9824604994FF07CF9ED
:1018E00081460B480268059852F8201048464FF090
:1018F000FEF807490A68059942F82100F8E100005E
:10190000CCE90220E0E90220C0060020BC0600204D
:10191000B0060020489A0608F704B53F40464FF04D
:101920000BF9824604994FF057F98146FE4800684A
:1019300050F8261048464FF0DAF8FB49096841F89C
:101940002600D5E107EB08004FF0F6F8824604992F
:101950004FF042F98146F448006850F82610484696
:101960004FF0C5F8F049096841F82600B7F10009C1
:1019700001DB494601E0C9F1000108464FF0DCF8FF
:10198000EA4900904FF028F9834604994FF024F972
:101990008246E5480068059A50F8221050464FF0FC
:1019A000A6F8E1490968059A41F82200A0E166E13C
:1019B0004DE111E1F5E0BFE09FE069E04DE018E0A6
:1019C000FFE740464FF0B8F88346D8494FF004F996
:1019D000824604994FF000F98146D348006850F8D8
:1019E000261048464FF083F8CF49096841F8260091
:1019F0007EE140464FF0A0F88346CC494FF0ECF82A
:101A0000824604994FF0E8F88146C748006850F8CC
:101A1000261048464FF06BF8C349096841F8260084
:101A200017EB080901D4494601E0C9F10001084655
:101A30004FF082F8834604994FF0CEF88246BA48B8
:101A40000068059A50F8221050464FF050F8B649F9
:101A50000968059A41F822004AE1B7F1000901DB63
:101A6000494601E0C9F1000108464FF065F8834698
:101A700004994FF0B1F88246AB48006850F8261040
:101A800050464FF034F8A849096841F826002FE184
:101A9000A8EB07004FF050F8824604994FF09CF8ED
:101AA0008146A148006850F8261048464FF01FF8BC
:101AB0009D49096841F82600B8F1000901DB494653
:101AC00001E0C9F1000108464FF036F8974900904F
:101AD0004FF082F8834604994FF07EF88246924890
:101AE0000068059A50F8221050464FF000F88E49D1
:101AF0000A68059942F82100FAE0B8F1000901DB13
:101B0000494601E0C9F1000108464FF015F8874940
:101B100000904FF061F8834604994FF05DF88246DB
:101B20008148006850F8261050464EF0E0FF7E498C
:101B3000096841F82600DBE0B7F1000901DB4946FE
:101B400001E0C9F1000108464EF0F6FF7749009028
:101B50004FF042F8834604994FF03EF882467248AF
:101B6000006850F8261050464EF0C1FF6E490968D3
:101B700041F82600A7EB08004EF0DEFF82460499EC
:101B80004FF02AF8814668480268059852F82010FC
:101B900048464EF0ACFF64490A68059942F82100B6
:101BA000A6E0B8F1000901DB494601E0C9F10001F6
:101BB00008464EF0C1FF834604994FF00DF8824667
:101BC0005948006850F8261050464EF090FF56498C
:101BD000096841F826008BE017EB080901D4494653
:101BE00001E0C9F1000108464EF0A6FF83460499C2
:101BF0004EF0F2FF82464C48006850F826105046DE
:101C00004EF075FF4849096841F82600B7F1000910
:101C100001DB494601E0C9F1000108464EF08CFFA6
:101C2000424900904EF0D8FF834604994EF0D4FF0D
:101C300082463D480068059A50F8221050464EF002
:101C400056FF39490A68059942F8210050E03846A4
:101C50004EF072FF834635494EF0BEFF824604992E
:101C60004EF0BAFF81463048006850F826104846CA
:101C70004EF03DFF2C49096841F8260038E0B8F1E4
:101C8000000901DB494601E0C9F1000108464EF0B8
:101C900053FF264900904EF09FFF834604994EF073
:101CA0009BFF82462048006850F8261050464EF0B0
:101CB0001EFF1D49096841F8260017EB080901D4E9
:101CC000494601E0C9F1000108464EF035FF834660
:101CD00004994EF081FF82461348006850F82610A0
:101CE00050464EF004FF1049096841F8260000BF35
:101CF00000BF0D98401C0D9006990D9888427FF703
:101D0000DEAC0E98401C0E9008990E9888427FF722
:101D1000D3AC0B98401C0B900B98A8427FF49BAC63
:101D200000200B901FE00000B0060020F704B53F34
:101D300000200C9011E0DDE90B0101FB0506FF49D5
:101D4000096851F82600FE493BF0FEFBFD49096891
:101D500041F826000C98401C0C900C980828EADBEF
:101D60000B98401C0B900B981028E1DB11B0BDE8DC
:101D7000F08F2DE9FF4F8BB004460D461E46199F8C
:101D80000020079090E2079805EB80000088ADF8EE
:101D90002800079805EB80004088ADF82A000798D6
:101DA000401C05EB80000088ADF824000798401C1B
:101DB00005EB80004088ADF82600BDF92800BDF98C
:101DC0002410884272D1BDF92A00089067E0002EE5
:101DD00041D04FF0FF383AE04FF0FF30069031E04D
:101DE000089810EB08002AD4089800EB080118980E
:101DF000814224DABDF92800069940181FD4BDF9A4
:101E0000281006980844B84219DABDF92810069837
:101E1000084405900898404404EBC000059900EB85
:101E2000E100007801F00702012191400843089980
:101E3000414404EBC101059A01EBE20108700698E8
:101E4000401C069006980228CAD108F10108B8F192
:101E5000020FC1D116E0BDF928000590089804EBE7
:101E6000C001059801EBE0000078059901F0070238
:101E7000012191400843089904EBC102059902EB46
:101E8000E1010870BDF92600BDF92A10884203DD82
:101E90000898401C089002E00898401E0890BDF980
:101EA00026100898814292D1FBE1FFE7BDF92A0094
:101EB000BDF92610884275D1BDF9280008906AE066
:101EC000002E42D04FF0FF383BE04FF0FF3006903D
:101ED00032E00699089840182BD4069908980844CF
:101EE0001899884225DABDF92A0010EB080020D4A1
:101EF000BDF92A004044B8421BDA06990898084404
:101F00000590BDF92A00404404EBC001059801EB9F
:101F1000E0000078059901F0070201219140084393
:101F2000BDF92A10414404EBC102059902EBE1011D
:101F300008700698401C069006980228C9D108F13E
:101F40000108B8F1020FC0D118E008980590BDF95A
:101F50002A0004EBC001059801EBE0000178059828
:101F600000F00702012090400143C8B2BDF92A10D9
:101F700004EBC101059A01EBE2010870BDF92400F0
:101F8000BDF92810884203DD0898401C089002E043
:101F90000898401E0890BDF92410089881428FD1FE
:101FA0007FE1FFE7BDF92410BDF92820881A4EF023
:101FB000C3FD8246BDF92610BDF92A20881A4EF0CD
:101FC000BBFD834651464EF0A7FD81464EF064FDB1
:101FD000CDE9020121F00041CDE900015AA00CC871
:101FE00000984EF027FA13D2BDF92410BDF928202D
:101FF000881A4EF0A1FD8146BDF92610BDF92A20B0
:10200000881A4EF099FD824649464EF085FD12E051
:10201000BDF92610BDF92A20881A4EF08DFD8146A3
:10202000BDF92410BDF92820881A4EF085FD82469E
:1020300049464EF071FD0490BDF92420BDF92830C9
:10204000D01ABDF92620BDF92A30D11A01D40B4689
:1020500000E04B42002801DB024600E0424293428E
:102060006BDA002008907EE008984EF065FD039042
:1020700004994EF0B1FD83464EF057FDBDF92A108C
:1020800000EB0109BDF92800089900EB010A002EB8
:102090003CD04FF0FF3835E04FF0FF3006902CE099
:1020A00019EB080026D409EB08001899884221DAB8
:1020B00006981AEB00001DD406985044B84219DA6D
:1020C0000AF10100059009EB080004EBC000059936
:1020D00000EBE1000178059800F007020120904034
:1020E0000143C8B209EB080104EBC101059A01EBF9
:1020F000E20108700698401C069006980228CFD18D
:1021000008F10108B8F1020FC6D113E0CDF814A010
:1021100004EBC900DDF814A000EBEA0001780AF036
:102120000702012090400143C8B204EBC90101EB52
:10213000EA010870BDF924000AE01EE0B0060020A4
:1021400085EBD13EB4060020000000000000F03F07
:10215000BDF92810884203DD0898401C089002E071
:102160000898401E0890BDF92400BDF92810401AB7
:10217000089988427FF478AF92E0BDF92420BDF938
:102180002830D01ABDF92620BDF92A30D11A01D441
:102190000B4600E04B42002801DB024600E04242D1
:1021A00093427DDB0020089072E0BDF92A10089868
:1021B00001EB000908984EF0BFFC039004994EF023
:1021C0000BFD83464EF0B1FCBDF9281000EB010A6F
:1021D000002E3CD04FF0FF3835E04FF0FF30069036
:1021E0002CE019EB080026D409EB0801189881426D
:1021F00021DA06981AEB00001DD406985044B84224
:1022000019DA06985044059009EB080004EBC00069
:10221000059900EBE1000178059800F00702012024
:1022200090400143C8B209EB080104EBC101059AD3
:1022300001EBE20108700698401C069006980228FF
:10224000CFD108F10108B8F1020FC6D113E0CDF8E3
:1022500014A004EBC900DDF814A000EBEA0001783B
:102260000AF00702012090400143C8B204EBC90103
:1022700001EBEA010870BDF92600BDF92A10884279
:1022800003DD0898401C089002E00898401E089062
:10229000BDF92600BDF92A10411A0898814284D15F
:1022A00000BF0798401C07900D98411E0798814277
:1022B0007FF469AD0FB0BDE8F08F2DE9F04F099CB8
:1022C00015464FF0FF360F46B4464FF0000935E093
:1022D00000EB890ABAF902A0BA4504DA00EB890AD0
:1022E000BAF902A000E0BA46574600EB890ABAF9EB
:1022F00000A0AA4504DA00EB890ABAF900A000E0C0
:10230000AA46554600EB890ABAF902A0E24504DD67
:1023100000EB890ABAF902A000E0E246D44600EBDD
:10232000890ABAF900A0B24504DD00EB890ABAF9BE
:1023300000A000E0B246564609F10109DDF828A0E8
:10234000D145C5DBACEB070A0AF1010A93FBFAFAA7
:102350000AF1010EA6EB050A0AF1010A94FBFAFA4A
:102360000AF101084FF000092BE000EB890ABAF9E5
:1023700002A0AAEB070A0AFB03FAACEB070B0BF16E
:10238000010B9AFBFBFAF2440FFA8AFA00EB890B75
:10239000ABF802A000EB890ABAF900A0AAEB050A83
:1023A0000AFB04FAA6EB050B0BF1010B9AFBFBFAF7
:1023B000C2440FFA8AFA00EB890BABF800A009F1CE
:1023C0000109DDF828A0D145CFDBBDE8F08F2DE96C
:1023D000FF4784B014461D46BDF91000BDF9141026
:1023E000884223D1002619E0BDF81000296804EBCB
:1023F00081010880BDF81200304400B2296804EB66
:10240000810148802868401C2860BDF91600BDF98C
:102410001210884201DD761C00E0761EBDF9160020
:10242000BDF91210401AB042DED1E9E0BDF9120048
:10243000BDF91610884223D1002619E0BDF812001C
:10244000296804EB81014880BDF81000304400B2D7
:10245000296804EB810108802868401C2860BDF9C8
:102460001400BDF91010884201DD761C00E0761ED4
:10247000BDF91400BDF91010401AB042DED1BFE022
:10248000BDF91410BDF91020881A4EF055FB814695
:10249000BDF91610BDF91220881A4EF04DFB824688
:1024A00049464EF039FB80464EF0F6FACDE902017E
:1024B00021F00041CDE90001AFF274300CC8009862
:1024C0004DF0B8FF13D2BDF91410BDF91020881AD1
:1024D0004EF032FB8046BDF91610BDF91220881A65
:1024E0004EF02AFB814641464EF016FB12E0BDF944
:1024F0001610BDF91220881A4EF01EFB8046BDF959
:102500001410BDF91020881A4EF016FB8146414682
:102510004EF002FB0746BDF91420BDF91030D01A69
:10252000BDF91620BDF91230D11A01D40B4600E0D6
:102530004B42002801DB024600E0424293422FDC7E
:10254000002625E0BDF81000304400B2296804EBF5
:102550008101088030464EF0EFFA814639464EF050
:102560003BFB80464EF0E1FABDF81210084400B281
:10257000296804EB810148802868401C2860BDF967
:102580001400BDF91010884201DD761C00E0761EB3
:10259000BDF91400BDF91010401AB042D2D12EE09E
:1025A000002625E0BDF81200304400B2296804EB93
:1025B0008101488030464EF0BFFA814639464EF0E0
:1025C0000BFB80464EF0B1FABDF81010084400B283
:1025D000296804EB810108802868401C2860BDF947
:1025E0001600BDF91210884201DD761C00E0761E4F
:1025F000BDF91600BDF91210401AB042D2D100BF89
:1026000008B0BDE8F0872DE9F84F04460D461646A0
:10261000701E00EBD0714FEA6109A5EB0900009034
:10262000CA46A80020F074F88346AA0021465846FE
:1026300006F0C8FBB54205DB06EBD6714910B6EBD8
:10264000410101D1BDE8F88F4F463CE0002004EB8A
:102650008701088004EB87014880CAF100081BE06D
:1026600004EB8700008807EB08010BEB8101098868
:10267000084400B204EB8701088004EB870040881F
:1026800007EB08010BEB81014988084400B204EB19
:102690008701488008F10108D045E1DD04EB87009F
:1026A000B0F9000090FBF6F000B204EB870108805F
:1026B00004EB8700B0F9020090FBF6F000B204EBE7
:1026C000870148807F1C00988742BFDB584620F076
:1026D0001BF8B7E72DE9FF4F91B004460D461E9E4B
:1026E0000327802010900F9040200E900D90002026
:1026F0000B900A908146802009900520049029467D
:102700002046049AFFF77FFF4FF0010A29E004EB0F
:102710008A01B1F90010AAF1010204EB8202B2F9B8
:102720000020881A01D4014600E04142089104EBE0
:102730008A01B1F90210AAF1010204EB8202B2F996
:102740000220881A01D4014600E041420791DDE9E8
:102750000710884201DB089800E0079881440AF1DD
:10276000010AAA45D3DB4FEA89001FF0D1FF80465A
:102770004FEA8902002140461FF0CEFF4FF0000AC9
:1027800015E00AF1010004EB8001042203A806F021
:1027900019FB04EB8A01042202A806F013FB0AAB22
:1027A0004246DDE90201FFF712FE0AF1010A681E46
:1027B0005045E6D14FEA8900B0FBF7F003901FF0D7
:1027C000A7FF0C904FEA8900B0FBF7F0024600210A
:1027D00003900C981FF0A0FF4FF0000A13E008EBE5
:1027E0008A000088DDE90B2101EB8201088008EBFB
:1027F0008A004088DDE90B2101EB820148800B98BB
:10280000401C0B90BA44CA45E9DB40461FF07CFFF0
:102810000B9B0E9ACDE90023DDE90C03DDE90F12D5
:10282000FFF74BFD4FF400720021FD4800681FF0D8
:1028300073FFDDE90D23CDE900230123F848DDE92D
:102840000B210068FFF795FA0C981FF05DFFF44824
:1028500009990068FEF7DDFE2823099ACDE90023D7
:102860000123F048F0490268F0480068FEF7F2FCE6
:102870001498012806D0022809D003280CD0042877
:1028800014D10EE0002006900A20059012E00A20E4
:102890000690242005900DE0242006903E2005900F
:1028A00008E0002006903E20059003E0002015B0CF
:1028B000BDE8F08F00BF4FF4F8720021DC480068DB
:1028C0001FF02AFF4FF0000A40E04FF0000B30E00D
:1028D000069A524402EB8202D64B03EB421252F8A4
:1028E0002B10D04A126852F82B004EF0CEF902900D
:1028F000069A524402EB8202CE4B03EB421252F88C
:102900002B10C84A126852F82B004EF0BEF9019005
:1029100002994EF061F90390C548006850F83A10EA
:1029200003984EF0E4F8C249096841F83A000BF107
:10293000010BBBF1280FCBD150464EF0FDF8BC493E
:10294000096801EBCA0148600AF1010ADDE90501E5
:10295000401A5045B9D1DDE90501401A421E002157
:10296000B3480068FEF718FC4FF0000A0EE0B049CB
:10297000096801EBCA0148684EF0D7F80699084487
:10298000AD49085C06F80A000AF1010A139882456D
:10299000EDDB002006F80A00307888E72DE9F84FD3
:1029A00004460D4616461F46DDF828804FF0000904
:1029B0004FF6FF7AD346012D02DCC846BDE8F88FFA
:1029C0004FF000091CE004EB8900B0F9001009F198
:1029D000010004EB8000B0F9000081420BD104EB50
:1029E0008900B0F9021009F1010004EB8000B0F990
:1029F0000200814200D006E009F101001FFA80F9CF
:102A0000681E4845DFDC00BF681E484500D1D5E799
:102A10004FF0000919E004EB8900B0F900005045BF
:102A200004DA04EB890000881FFA80FA04EB8900BD
:102A3000B0F90200584504DA04EB890040881FFA17
:102A400080FB09F101001FFA80F9A945E3DB4FF093
:102A5000000915E004EB89000088A0EB0A0000B231
:102A600004EB8901088004EB89004088A0EB0B008F
:102A700000B204EB8901488009F101001FFA80F9D6
:102A8000A945E7DB3B46324629462046CDF8008083
:102A9000FFF720FE92E72DE9F84F4FF00009C3F849
:102AA00000900124EBE0A4F1010900EB8909B9F9D8
:102AB000005000EB8409B9F900A0CDF800A0A4F102
:102AC000010900EB8909B9F9026000EB8409B9F941
:102AD0000270DDF800A0BAEB050901D4CA4601E096
:102AE000C9F1000AD446B7EB060901D4CA4601E091
:102AF000C9F1000AD646F44559DD4FF0000853E00D
:102B0000DDF80090A9450ADD05EB08090FFA89F9FF
:102B1000D3F800A002EB8A0AAAF8009009E0A5EB1E
:102B200008090FFA89F9D3F800A002EB8A0AAAF87B
:102B30000090B7421ADDD3F800A002EB8A0ABAF976
:102B400000A0BAEB050901D4CA4601E0C9F1000AA8
:102B50000AFB0EFA9AFBFCFAB2440FFA8AFAD3F88F
:102B600000B002EB8B0BABF802A01AE0D3F800A088
:102B700002EB8A0ABAF900A0BAEB050901D4CA46E9
:102B800001E0C9F1000A0AFB0EFA9AFBFCFAA6EB77
:102B90000A0A0FFA8AFAD3F800B002EB8B0BABF8F3
:102BA00002A01B1D08F10108E045A9DB66E04FF01B
:102BB000000861E0B7420ADD06EB08090FFA89F95F
:102BC000D3F800A002EB8A0AAAF8029009E0A6EB6B
:102BD00008090FFA89F9D3F800A002EB8A0AAAF8CB
:102BE0000290DDF80090A94528DDD3F800A002EBA3
:102BF0008A0ABAF902A0BAEB060901D4CA4601E072
:102C0000C9F1000A0AFB0CFA9AFBFEFAAA440FFA71
:102C10008AFAD3F800B002EB8B0BABF800A028E0E7
:102C2000AC060020B80600200CA40608B40600205C
:102C3000C40600200CF40608CC1A0708D3F800A03C
:102C400002EB8A0ABAF902A0BAEB060901D4CA4615
:102C500001E0C9F1000A0AFB0CFA9AFBFEFAA5EBA7
:102C60000A0A0FFA8AFAD3F800B002EB8B0BABF822
:102C700000A01B1D08F10108F0459BDB641C8C4281
:102C8000FFF611AFBDE8F88FFE4880ED3A0A7047B5
:102C90002DE9F047DFF8EC9300262DED0A8B044672
:102CA000B0EE408AF0EE608A884635463746D9F85D
:102CB000AC004DF094FB53EC182B4DF0BBFB6FD3E5
:102CC000D9F8B0004DF08BFB53EC182B4DF0ECFC19
:102CD000F5D3B4F90000B4F90610401A4DF07FFBAB
:102CE00053EC182B4DF0A6FB00D20126B4F90E00D0
:102CF000B4F91410401A4DF072FB53EC182B4DF040
:102D000099FB00D2761CB4F91C00B4F92210401AC9
:102D10004DF065FB53EC182B4DF08CFB00D2761C6C
:102D20009FEDD90B012E3BDC53EC102B51EC180B13
:102D30004DF0BCFB8946064649EC180BB4F900007F
:102D4000B4F90610401A4DF04AFB53EC182B4DF025
:102D5000ABFC00D20125B4F90E00B4F9141049EC13
:102D6000186B401A4DF03BFB53EC182B4DF09CFCBC
:102D700000D26D1CB4F91C00B4F9221049EC186B98
:102D8000401A4DF02CFB53EC182B4DF08DFC00D26B
:102D90006D1C002D05DD0220BDEC0A8BBDE8F0871F
:102DA00065E000269FEDBACB06EB460904EB8905EA
:102DB000B5F90A004DF013FB98ED048B53EC182B7A
:102DC0004DF080FD41EC190BB5F904004DF007FB07
:102DD00053EC182B4DF076FD53EC192B4DF066FBA0
:102DE00041EC190BB5F908004DF0F9FA98ED028B9A
:102DF00053EC182B4DF066FD41EC1A0BB5F90200AF
:102E00004DF0EDFA53EC182B4DF05CFD53EC1A2B02
:102E10004DF04CFB41EC1A0BB5F906004DF0DFFA12
:102E200098ED008B53EC182B4DF04CFD41EC1B0B37
:102E300034F929004DF0D3FA53EC182B4DF042FD34
:102E400053EC1B2B4DF032FB53EC1A2B4DF01AF8C0
:102E500053EC192B4DF016F853EC1C2B4DF0EAFAFD
:102E600000D27F1C761C032E9EDB022F01DA01208C
:102E700092E7002090E788490A684B68D00180EA11
:102E8000D20080EA031048608B68520380EAC303D3
:102E900082EA5312520282EAD0208B6008607047A7
:102EA00010B52DED048BF0EE408AFFF7E4FF00EE45
:102EB000100AB8EE400ADFED790A20EE200A9FEDF5
:102EC000789A20EE090A1BF083FEB0EE408AFFF7E5
:102ED000D2FF00EE100AB8EE400A20EE090AB5EE65
:102EE000C00AF1EE10FA01D1B7EE000A10EE100A96
:102EF0004DF0D2FD41EC100B1BF086FF9FED691BDE
:102F000051EC100B53EC112B4DF0D0FA4CF088FF24
:102F100000EE100A1DF0B9FC20EE280A20EE080A87
:102F2000BDEC048B10BD2DE9F04105462DED048B61
:102F3000B0EE608AF0EE408A0F4618EE100A4DF0AF
:102F4000ABFD97ED301B53EC112B4DF0AFFA41EC7C
:102F5000190B18EE900A4DF09FFD95ED301B53ECC8
:102F6000112B4DF0A3FA53EC192B4CF08BFF0024DE
:102F7000C5E9300118EE100A4DF08EFD07EBC408CC
:102F800098ED001B53EC112B4DF090FA41EC190B0E
:102F900018EE900A4DF080FD05EBC40696ED001B7F
:102FA00053EC112B4DF082FA53EC192B4CF06AFFC5
:102FB000C6E9000118EE100A4DF06EFD98ED241BD5
:102FC00053EC112B4DF072FA41EC190B18EE900AEC
:102FD0004DF062FD96ED241B53EC112B4DF066FA7B
:102FE00053EC192B4CF04EFF641CC6E92401062C4F
:102FF000C0DB002418EE100A4DF04EFD41EC100B22
:1030000007EBC40090ED121B51EC100B53EC112B8D
:103010004DF04CFA41EC190B18EE900A4DF03CFDC6
:1030200005EBC40696ED121B53EC112B4DF03EFA46
:1030300053EC192B4CF026FF641CC6E91201092C35
:10304000D8DB002418EE100A4DF026FD41EC100BE1
:1030500007EBC40090ED0C1B51EC100B53EC112B43
:103060004DF024FA41EC190B18EE900A4DF014FDC6
:1030700005EBC40696ED0C1B53EC112B4DF016FA24
:1030800014E00000C0EC022000000000000004403A
:103090000000000000000000D8060020DB0FC9403F
:1030A0000000802F00000000000000C053EC192B2E
:1030B0004CF0E8FE641CC6E90C01032CC2DBBDEC3D
:1030C000048BBDE8F0812DE9F04F04462DED068B11
:1030D00083B00D4608684DF082F941EC1A0B686820
:1030E0004DF07DF941EC190BA8684DF078F941ECF1
:1030F000180B94ED300B9FEDFE1B51EC100B53ECB5
:10310000112B4CF0BFFEC4E9300194ED0C0B53ECD5
:103110001A2B51EC100B4CF0B5FEC4E90C0194EDE8
:103120000E0B53EC192B51EC100B4CF0ABFEC4E919
:103130000E0194ED100B53EC182B51EC100B4CF0CE
:10314000A1FEC4E9100153EC1A2B51EC1A0B4DF0FF
:10315000ADF9029194ED001B064653EC112B4CF097
:1031600091FEC4E9000153EC192B51EC1A0B4DF000
:103170009DF9894649EC100B94ED021B054653EC72
:10318000112B51EC100B4CF07DFEC4E9020153EC05
:10319000182B51EC1A0B4DF089F98B464BEC100BA8
:1031A00094ED041B804653EC112B51EC100B4CF0AA
:1031B00069FEC4E9040153EC192B51EC190B4DF0D5
:1031C00075F9019194ED061B074653EC112B4CF059
:1031D00059FEC4E9060153EC182B51EC190B4DF0C4
:1031E00065F9009194ED081B824653EC112B4CF0CD
:1031F00049FEC4E9080153EC182B51EC180B4DF0B3
:1032000055F994ED0A1B53EC112B4CF03BFEC4E92D
:103210000A01029953EC1A2B41EC106B51EC100B84
:103220004DF044F994ED121B53EC112B4CF02AFE97
:1032300049EC105BC4E9120153EC192B51EC100B53
:103240004DF034F994ED141B53EC112B4CF01AFE95
:103250004BEC108BC4E9140153EC182B51EC100B00
:103260004DF024F994ED161B53EC112B4CF00AFE93
:1032700049EC105BC4E9160153EC1A2B51EC100B0E
:103280004DF014F994ED181B53EC112B4CF0FAFD92
:10329000C4E91801019953EC192B41EC107B51EC56
:1032A000100B4DF003F994ED1A1B53EC112B4CF05D
:1032B000E9FDC4E91A010099554641EC10AB0E46F0
:1032C00053EC182B51EC100B4DF0F0F894ED1C1B47
:1032D00053EC112B4CF0D6FDC4E91C0153EC1A2B16
:1032E00051EC180B4DF0E2F853EC1A2B4DF0DEF8D0
:1032F00094ED1E1B53EC112B4CF0C4FD46EC105BFF
:10330000C4E91E0153EC192B51EC100B4DF0CEF813
:1033100094ED201B53EC112B4CF0B4FDC4E92001BB
:1033200053EC182B51EC180B4DF0C0F8894649ECC2
:10333000100B074653EC182B51EC100B4DF0B6F860
:1033400094ED221B53EC112B4CF09CFDC4E922019F
:1033500053EC1A2B51EC1A0B4DF0A8F8884648ECA8
:10336000100B054653EC1A2B51EC100B4DF09EF848
:1033700053EC1A2B4DF09AF894ED241B53EC112BBF
:103380004CF080FDC4E9240153EC192B51EC190BCE
:103390004DF08CF88A464AEC100B064653EC192B7C
:1033A00051EC100B4DF082F853EC192B4DF07EF8D8
:1033B00094ED261B53EC112B4CF064FD49EC107B73
:1033C000C4E9260153EC182B51EC100B4DF06EF8AC
:1033D00053EC182B4DF06AF894ED281B53EC112B8D
:1033E0004CF050FD48EC105BC4E9280153EC192B5C
:1033F00051EC100B4DF05AF853EC192B4DF056F8D8
:1034000094ED2A1B53EC112B4CF03CFD48EC105B67
:10341000C4E92A0153EC182B51EC100B4DF046F87F
:1034200053EC182B4DF042F894ED2C1B53EC112B60
:103430004CF028FD4AEC106BC4E92C0153EC182B1E
:1034400051EC100B4DF032F853EC182B4DF02EF8D8
:1034500094ED2E1B53EC112B4CF014FDC4E92E01FE
:1034600003B0BDEC068BBDE8F08F2DE9F04F93461D
:103470002DED108B0D46044693B090ED0CEB53EC04
:103480001E2B51EC1E0B4DF011F894ED000B41EC8E
:10349000190B8DED080B94ED308B53EC102B51EC88
:1034A000180B4DF003F853EC192B4DF00BFA94ED7B
:1034B0000EDB41EC1F0B53EC1D2B51EC1D0B4CF0A4
:1034C000F5FF94ED060B41EC190B8DED060B53EC5B
:1034D000102B51EC180B4CF0E9FF53EC192B4DF06D
:1034E000F1F941EC100B8DED040B94ED10CB03E0E2
:1034F000000000000000F03F53EC1C2B51EC1C0BB3
:103500004CF0D4FF94ED0A0B41EC190B8DED020B3E
:1035100053EC102B51EC180B4CF0C8FF53EC192B4B
:103520004DF0D0F941EC110B53EC1D2B8DED001B30
:1035300051EC1E0B4CF0BAFF94ED020B41EC190B51
:1035400053EC102B51EC180B4CF0B0FF53EC192B33
:103550004DF0B8F941EC1B0B53EC1C2B51EC1E0B3E
:103560004CF0A4FF94ED040B41EC190B53EC102B21
:1035700051EC180B4CF09AFF53EC192B4DF0A2F9BB
:1035800041EC1A0B53EC1C2B51EC1D0B4CF08EFF35
:1035900094ED080B41EC190B53EC102B51EC180B6C
:1035A0004CF084FF53EC192B4DF08CF99DED020B80
:1035B00041EC190B53EC102B51EC1E0B4CF076FF29
:1035C00041EC110B51EC180B8DED101B94ED160B0B
:1035D00053EC102B4CF06AFF41EC110B51EC1E0B1D
:1035E0008DED0E1B9DED060B53EC102B4CF05EFF8A
:1035F00041EC110B51EC180B8DED0C1B94ED140BE1
:1036000053EC102B4CF052FF41EC110B51EC1E0B04
:103610008DED0A1B9DED080B53EC102B4CF046FF73
:1036200094ED120B41EC1E0B53EC102B51EC180BCC
:103630004CF03CFF53EC1E2B4DF044F99DED0A1B62
:1036400053EC112B4CF01EFC9DED0C1B53EC112B7D
:103650004DF038F99DED0E1B53EC112B4CF012FC84
:103660009DED101B53EC112B4DF02CF99FEDFE1B23
:1036700053EC112B4CF01AFF9DED020B41EC1E0B8D
:1036800053EC102B51EC1D0B4CF010FF41EC110BC7
:1036900051EC180B8DED101B94ED1C0B53EC102B03
:1036A0004CF004FF41EC110B51EC1D0B8DED0E1B8A
:1036B0009DED060B53EC102B4CF0F8FE41EC110B7A
:1036C00051EC180B8DED0C1B94ED1A0B53EC102BD9
:1036D0004CF0ECFE41EC110B51EC1D0B8DED0A1B77
:1036E0009DED080B53EC102B4CF0E0FE94ED180B05
:1036F00041EC1D0B53EC102B51EC180B4CF0D6FE8B
:1037000053EC1D2B4DF0DEF89DED0A1B53EC112BF5
:103710004CF0B8FB9DED0C1B53EC112B4DF0D2F887
:103720009DED0E1B53EC112B4CF0ACFB9DED101BD3
:1037300053EC112B4DF0C6F89FEDCB1B53EC112B26
:103740004CF0B4FE9DED020B41EC1D0B53EC102B25
:1037500051EC1C0B4CF0AAFE41EC110B51EC180B78
:103760008DED021B94ED220B53EC102B4CF09EFEC2
:1037700041EC110B51EC1C0B8DED0A1B9DED060B62
:1037800053EC102B4CF092FE41EC110B51EC180B4A
:103790008DED0C1B94ED200B53EC102B4CF086FEA2
:1037A00041EC110B51EC1C0B8DED061B9DED080B34
:1037B00053EC102B4CF07AFE94ED1E0B41EC1C0BDD
:1037C00053EC102B51EC180B4CF070FE53EC1C2BEF
:1037D0004DF078F89DED061B53EC112B4CF052FB8D
:1037E0009DED0C1B53EC112B4DF06CF89DED0A1B5D
:1037F00053EC112B4CF046FB9DED021B53EC112BAF
:103800004DF060F89FED981B53EC112B4CF04EFEE1
:103810009DED040B41EC180B53EC102B51EC1F0BDE
:103820004CF044FE10919DED001B824653EC112B91
:103830004CF03CFE41EC110B53EC192B8DED0A1BA7
:1038400051EC1F0B4CF032FE53EC192B4CF02EFEBA
:1038500041EC110B53EC1A2B8DED081B9DED040B65
:1038600051EC100B4CF022FE814653EC1A2B1191B7
:103870004CF01CFE41EC110B8DED061B9FED7C0BFB
:1038800051EC1B0B53EC102B4CF010FE53EC1A2B8D
:103890004CF00CFE53EC192B4CF008FE9DED001B78
:1038A00041EC1C0B53EC1B2B51EC110B4CF0FEFDAF
:1038B000074653EC1B2B02914CF0F8FD53EC1C2BEC
:1038C0004DF000F89DED061B53EC112B4CF0DAFA8D
:1038D0009DED081B53EC112B4CF0D4FA9DED0A1B07
:1038E00053EC112B4CF0EEFF41EC1C0B9FED620BE7
:1038F00053EC102B4CF0DAFC7DD053EC192B51EC2F
:103900001B0B4CF0D3FD53EC182B4CF0CFFD41ECCE
:10391000110B53EC1D2B8DED0E1B029941EC107B0E
:1039200051EC100B4CF0C2FD41EC110B8DED0C1B5A
:103930009DED000B53EC102B9DED040B51EC100B87
:103940004CF0B4FD53EC1E2B4CF0B0FD41EC110BD0
:1039500053EC192B8DED081B51EC190B4CF0A6FD07
:1039600053EC1E2B4CF0A2FD41EC110B53EC1D2B24
:103970008DED0A1B51EC190B4CF098FD41EC110B2D
:1039800053EC182B8DED061B9DED040B51EC100B29
:103990004CF08CFD9DED061B53EC112B4CF092FF6F
:1039A00053EC1A2B4CF082FD9DED0A1B53EC112BAE
:1039B0004CF068FA9DED081B53EC112B4CF082FF84
:1039C0009DED0C1B53EC112B4CF05CFA9DED0E1B86
:1039D00053EC112B4CF076FF41EC100B53EC1A2BEF
:1039E0008DED060B51EC1B0B4CF060FD8846064636
:1039F00048EC100B00E065E153EC182B51EC100B78
:103A00004CF054FD41EC110B53EC1E2B8DED041BBF
:103A1000029941EC107B51EC100B4CF047FD41EC4E
:103A2000110B51EC1F0B8DED021B9DED000B53ECA8
:103A3000102B4CF03BFD53EC1D2B4CF037FD41ECB3
:103A4000110B53EC1A2B8DED081B51EC1A0B4CF09B
:103A50002DFD53EC1D2B4CF029FD41EC110B53ECCB
:103A60001E2B8DED001B0BE0000000000000E03F6E
:103A70000000000000000040000000000000000006
:103A800051EC1A0B4CF012FD41EC1A0B53EC182BB5
:103A900051EC1F0B4CF00AFD53EC1A2B4CF012FFAB
:103AA00053EC192B4CF002FD9DED001B53EC112B38
:103AB0004CF0E8F99DED081B53EC112B4CF002FF84
:103AC0009DED021B53EC112B4CF0DCF99DED041B1A
:103AD00053EC112B4CF0F6FE41EC100B53EC1D2B6C
:103AE0008DED040B48EC106B51EC100B4CF0DEFC30
:103AF00041EC110B53EC1E2B8DED001B119941EC89
:103B0000109B51EC100B4CF0D1FC41EC110B53EC21
:103B1000182B8DED021B109941EC10AB51EC100BE2
:103B20004CF0C4FC41EC1A0B53EC1B2B51EC1B0B5F
:103B30004CF0BCFC53EC182B4CF0B8FC41EC180BCF
:103B400053EC1E2B51EC1B0B4CF0B0FC41EC1B0B4F
:103B500053EC1D2B51EC1F0B4CF0A8FC53EC1B2B12
:103B60004CF0B0FE53EC192B4CF0A0FC53EC182B8E
:103B70004CF088F953EC1A2B4CF0A4FE9DED021B7F
:103B800053EC112B4CF07EF99DED001B53EC112BE7
:103B90004CF098FE9DED060B41EC190B53EC1C2BE1
:103BA00051EC100B4CF02AFA41EC180B53EC1C2B87
:103BB00085ED008B9DED040B51EC100B4CF01EFAC3
:103BC00041EC1A0B53EC1C2B85ED02AB51EC190B9D
:103BD0004CF014FA41EC190B85ED049B94ED100B9D
:103BE00053EC102B4CF062FC94ED0E0B41EC1B0BD4
:103BF00053EC102B51EC1A0B4CF058FC94ED0C0BC1
:103C000041EC1C0B53EC102B51EC180B4CF04EFC00
:103C100053EC1C2B4CF036F953EC1B2B4CF032F9C7
:103C20001FED6D1B53EC112B4CF040FC94ED061B6B
:103C300094ED000B41EC1B0B53EC112B51EC100BD2
:103C40004CF020F994ED0A1B53EC112B4CF01AF9AF
:103C500053EC1B2B4CF036FE94ED301B53EC112B28
:103C60004CF0CCF941EC1B0B53EC192B51EC190B1C
:103C70004CF01CFC41EC190B53EC1A2B51EC1A0BB9
:103C80004CF014FC41EC1A0B53EC182B51EC180BB4
:103C90004CF00CFC53EC1A2B4CF0F4F853EC192BB1
:103CA0004CF0F0F853EC1B2B4CF0ECF841EC100B03
:103CB0001CF0AEFD8BED000B012013B0BDEC108BA2
:103CC000BDE8F08F0020F8E72DE9F04F0D462DED0F
:103CD000108B04468BB091ED00AB53EC1A2B51ECDA
:103CE0001A0B4CF0E3FB94ED0CCB53EC1C2B4CF07B
:103CF000DDFB53EC1C2B4CF0D9FB94ED30FB41EC7D
:103D0000180B53EC1A2B51EC1F0B4CF0CFFB8B46CE
:103D10004BEC100B074653EC1A2B51EC100B4CF0EC
:103D2000C5FB94ED00EB53EC1E2B4CF0BFFB53ECAA
:103D3000182B4CF0C7FD41EC190B53EC1E2B51EC2A
:103D40001A0B4CF0B3FB53EC1C2B4CF0AFFB4BECC1
:103D5000107B94ED121B41EC180B53EC112B51EC22
:103D6000100B4CF0A3FB53EC192B4CF0D3FC53EC91
:103D7000182B4CF087F841EC1B0B1FEDC30B51ECDB
:103D80001A0B53EC102B4CF091FB894649EC100BAD
:103D900095ED029B064653EC192B51EC100B4CF0A1
:103DA00085FB53EC1C2B4CF081FB94ED0EDB53ECAC
:103DB0001D2B4CF07BFB41EC180B1FEDD30B51EC92
:103DC0001F0B53EC102B4CF071FB824653EC1A2B5B
:103DD00006914CF06BFB53EC192B4CF067FB94ED08
:103DE000021B53EC112B4CF061FB53EC1B2B4CF0E2
:103DF00049F853EC182B4CF065FD41EC180B53ECD3
:103E00001C2B51EC1A0B4CF051FB049194ED06BBAA
:103E1000804653EC1B2B4CF049FB41EC110B4BEC57
:103E2000107B8DED001B94ED141B51EC100B53EC2B
:103E3000112B4CF03BFB53EC182B4CF06BFC9DED25
:103E4000001B53EC112B4CF01DF841EC110B49EC0D
:103E5000106B8DED001B95ED048B51EC100B53ECAA
:103E6000182B4CF023FB53EC1C2B4CF01FFB94ED58
:103E700010CB53EC1C2B4CF019FB41EC110B53EC09
:103E80001A2B8DED021B069941EC10AB51EC100B77
:103E90004CF00CFB53EC182B4CF008FB94ED041B7E
:103EA00053EC112B4CF002FB9DED001B53EC112B3E
:103EB0004BF0E8FF9DED021B53EC112B4CF002FD83
:103EC00041EC100B8DED000B049994ED0AAB41EC25
:103ED000108B53EC1A2B51EC100B4CF0E7FA41EC21
:103EE000110B4BEC107B8DED021B94ED161B51EC6E
:103EF000100B53EC112B4CF0D9FA9DED001B53EC39
:103F0000112B4CF007FC9DED021B53EC112B4BF0D9
:103F1000B9FF41EC110B8DED001B9FEDFE0B51EC39
:103F20001E0B53EC102B4CF0C1FA53EC1E2B4CF033
:103F3000BDFA41EC110B8DED021B9FEDF60B51EC20
:103F40001F0B53EC102B4CF0B1FA059194ED241B90
:103F5000814653EC112B4CF0A9FA9DED001B53EC5C
:103F6000112B4BF08FFF9DED021B53EC112B4CF0EE
:103F7000A9FC41EC110B53EC1E2B8DED001B51ECF9
:103F8000190B4CF093FA53EC1D2B4CF08FFA41ECCB
:103F9000110B53EC192B8DED081B51EC1F0B4CF042
:103FA00085FA039194ED181B064653EC112B4CF047
:103FB0007DFA9DED001B53EC112B4CF0ABFB9DEDFE
:103FC000081B53EC112B4BF05DFF41EC110B8DEDF9
:103FD000001B9FEDD20B51EC1E0B53EC102B4CF041
:103FE00065FA8B464BEC100B054653EC1B2B51EC42
:103FF000100B4CF05BFA41EC110B8DED081B9FEDA3
:10400000C70B51EC1F0B53EC102B4CF04FFA0491E3
:1040100094ED2A1B804653EC112B4CF047FA9DED92
:10402000001B53EC112B4BF02DFF9DED081B53ECA7
:10403000112B4CF047FC41EC110B53EC1E2B8DED7A
:10404000001B51EC180B4CF031FA53EC1C2B4CF0CC
:104050002DFA41EC1E0B53EC182B51EC1F0B4CF0BE
:1040600025FA029194ED1E1B074653EC112B4CF0E0
:104070001DFA9DED001B53EC112B4CF04BFB53EC48
:104080001E2B4BF0FFFE4BEC105B41EC1F0B53EC77
:104090001A2B51EC100B4CF009FA41EC1E0B049951
:1040A00094ED2C1B41EC108B53EC112B51EC100BAD
:1040B0004CF0FCF953EC1F2B4BF0E4FE53EC1E2BA1
:1040C0004CF000FC41EC1F0B53EC192B51EC190B7D
:1040D0004CF0ECF953EC1D2B4CF0E8F953EC1D2B94
:1040E0004CF0E4F941EC1E0B039953EC192B41EC15
:1040F000106B51EC100B4CF0D9F953EC1B2B4CF01E
:10410000D5F953EC1F2B4BF0BDFE53EC1E2B4CF09E
:10411000D9FB41EC1F0B53EC1B2B51EC190B4CF052
:10412000C5F953EC1D2B4CF0C1F941EC1E0B039962
:1041300094ED1A1B41EC106B53EC112B51EC100B4E
:104140004CF0B4F953EC1F2B4CF0E4FA53EC1E2B5B
:104150004BF098FE41EC1F0B9FED720B51EC190BCD
:1041600053EC102B4CF0A2F953EC182B4CF09EF9A9
:1041700053EC1D2B4CF09AF953EC1C2B4CF096F998
:1041800041EC1E0B069953EC192B41EC10AB51EC92
:10419000100B4CF08BF953EC182B4CF087F994ED85
:1041A000081B53EC112B4CF081F953EC1F2B4BF0F7
:1041B00069FE53EC1E2B4CF085FB41EC1E0B53ECBF
:1041C0001D2B51EC190B4CF071F953EC1A2B4CF0E0
:1041D0006DF941EC190B039994ED1C1B41EC106B2C
:1041E00053EC112B51EC100B4CF060F953EC1E2BDF
:1041F0004CF090FA53EC192B4BF044FE41EC1D0BA4
:104200009FED44EB51EC1B0B53EC1E2B4CF04EF985
:1042100053EC1B2B4CF04AF941EC190B059994ED2A
:10422000261B41EC109B53EC112B51EC100B4CF066
:104230003DF953EC1D2B4BF025FE53EC192B4CF0A4
:1042400041FB41EC1D0B53EC1B2B51EC180B4CF0BC
:104250002DF953EC1C2B4CF029F941EC190B029968
:1042600094ED201B41EC107B53EC112B51EC100B07
:104270004CF01CF953EC1D2B4CF04CFA53EC192B61
:104280004BF000FE9FED250B41EC190B53EC102B6E
:1042900051EC1B0B4CF00AF953EC1A2B4CF006F9BD
:1042A00041EC1B0B049994ED2E1B41EC108B53EC4D
:1042B000112B51EC100B4CF0F9F853EC192B4BF07F
:1042C000E1FD53EC1B2B4CF0FDFA41EC1B0B53ECC6
:1042D000182B51EC180B4CF0E9F853EC1C2B4CF05C
:1042E000E5F853EC1C2B4CF0E1F841EC190B02996A
:1042F00053EC182B41EC107B51EC100B4CF0D6F822
:1043000053EC1A2B4CF0D2F853EC1B2B4BF0BAFDAC
:104310000CE00000000000000000D03F00000000A2
:104320000000E03F000000000000004053EC192BAB
:104330004CF0C8FA41EC190B53EC1A2B51EC180B4A
:104340004CF0B4F853EC1C2B4CF0B0F841EC180BCB
:10435000029994ED221B41EC107B53EC112B51EC94
:10436000100B4CF0A3F853EC192B4CF0D3F953EC91
:10437000182B4BF087FD41EC180B53EC1E2B51EC26
:104380001A0B4CF093F853EC1A2B4CF08FF841ECCD
:10439000190B059994ED281B41EC109B53EC112B44
:1043A00051EC100B4CF082F853EC182B4BF06AFDDB
:1043B00053EC192B4CF086FA41EC100B0BB07DE45A
:1043C00030B50446B0F88C0089B000040690B4F80B
:1043D0008E000D4600040790B4F890008834000465
:1043E000089002A830F090FF029906982B46401AD8
:1043F00006900399079806AA401A0790049908980E
:10440000401A08902088616A80B230F029FE09B015
:1044100030BDF0B50D462DED048B87B06946FFF732
:10442000CFFF9FEDFE8B00246F469FEDFE9A03AEFB
:1044300057F8240000EE100A06EB8400B8EEC00A1C
:1044400020EE090A80ED000A20EE000A10EE100AA4
:104450004CF022FB53EC182B4BF014FD41EC180BE5
:10446000641C032CE4DBB0EE480AF0EE680A1CF092
:10447000CFF9B0EE408AF0EE608A002456F82400AE
:104480004CF00AFB53EC182B4BF0B8FD4BF0C8FC7A
:1044900000EE100A05EB8400641CD0ED000A032C2A
:1044A00030EE200A80ED000AE8DB686D401C68658C
:1044B00031F094F9E86707B0BDEC048BF0BD2DE94D
:1044C000F041044630F0BCFF40BB30F049FF042807
:1044D00024D0D54920460E46FFF79BFFD34DD5E9A2
:1044E0005C01814205DB304603F0E5FB0020C5F8A6
:1044F0007401208E4FF00406C00515D504F1180094
:1045000030F092FF8009B0F5C87F0AD2D5F8B80024
:10451000002850DD401EC5F8B8004AE00120BDE883
:10452000F081C5F8B86044E0D4F8A010D5F81401C3
:10453000081A01D4034600E04342BB4A4FF4A02CC2
:10454000583A634505DDD4E929035365C2E91310E0
:104550002FE00312D4F8A470D5F818015B43381A81
:1045600001D4864601E0C0F1000EE64505DDD4F831
:10457000A800D164C2E914701BE0001200FB0033F4
:10458000D4F8A800D5F81C11401A01D4014600E067
:10459000414261450DDC001200FB0030B0F5403FA8
:1045A000B4DBA034C5F8B86094E80B004C3282E864
:1045B0000B000020B3E70220B1E72DE9F04F9B4C40
:1045C0002DED028B93B0D4F8A81090ED000B04EB06
:1045D000C10181ED000BD4F8A810491CC4F8A81043
:1045E00090ED020B04EBC10181ED000BD4F8A81093
:1045F000491CC4F8A81090ED040B04EBC10080ED39
:10460000000BD4F8A800401CC4F8A800152802DB51
:104610000020C4F8A800182284490CA804F059FC12
:104620001822824904A804F054FC01260DF1300A36
:104630000DF1100BA146002406EB460808EB04011F
:1046400009EBC1050AEBC40795ED001B97ED000BC4
:1046500053EC112B51EC100B4CF026F803D295EDD6
:10466000000B87ED000B0BEBC40795ED001B97EDDE
:10467000000B53EC112B51EC100B4BF0DBFE03D273
:1046800095ED000B87ED000B641C032CD6DB761C2C
:10469000072ED0DB9DED0C1B9DED040B53EC112B75
:1046A00051EC100B4CF00EF99DED0E1B9DED060B21
:1046B00041EC180B53EC112B51EC100B4CF002F9A0
:1046C00053EC182B4BF0B6FE0BD39DED0E1B9DED5E
:1046D000060B53EC112B51EC100B4CF0F3F841ECA2
:1046E000180B9DED101B9DED080B53EC112B51EC9D
:1046F000100B4CF0E7F853EC182B4BF09BFE0BD350
:104700009DED101B9DED080B53EC112B51EC100B84
:104710004CF0D8F841EC180B13B0B0EE480AF0EEAC
:10472000680ABDEC028BBDE8F08F10B504462DED94
:10473000068B9CB0002155200E91CDE90F101190F1
:104740009FED3B8B0AA830F0ADFD12A90AA831F00D
:104750002DF916AA0EA912A831F04BF96A460AA93A
:1047600016A831F046F90198B2EE059A00F5967058
:1047700001900298B0EE490A00F5967002900398F5
:1047800000F596700390FEF78BFBBDEEC00A019911
:1047900010EE100AB0EE490A08440190FEF780FBC3
:1047A000BDEEC00A029810EE101AB0EE490A084495
:1047B0000290FEF775FBBDEEC00A039910EE100AD9
:1047C00008440390204601A9FEF77DFC94ED300BD0
:1047D0009FED191B51EC100B53EC112B4BF064FFA8
:1047E0005DD21AAA04A92046FEF73FFE60B39DEDF4
:1047F000080B9FED138B51EC100B53EC182B4CF066
:1048000061F841EC100B53EC102B4BF04FFE41ECD8
:10481000190B9DED060B53EC182B16E00000000061
:104820000000000000008037E0ED0220C0EC022014
:104830000000000000408F400000000000003440F5
:104840000000000000C0724029E051EC100B4CF059
:1048500039F841EC100B53EC102B4BF027FE9DED7B
:10486000040B41EC1A0B53EC182B51EC100B4CF0D1
:1048700029F841EC100B53EC102B4BF017FE53ECC6
:104880001A2B4BF0FFFA53EC192B4BF0FBFA41ECCF
:10489000100B1BF0BDFFB0EE408AF0EE608A9FED7A
:1048A000FD0B51EC180B53EC102B4BF0A7FB1CB07D
:1048B00041EC100BBDEC068B10BD10B5E821F7489C
:1048C00004F0A0FBF648F74920F8BC1F4A0CC28050
:1048D000C181828281834284F048E821E83004F07B
:1048E00091FBEF490020C1F8B40010BD2DE9F04361
:1048F000EB4D04462DED108BC3B0006BC5F8A00145
:104900002046FFF7DCFD00287ED1D5F8941105F193
:10491000BC08012911D1B4F98C003D90B4F98E0086
:104920003E90B4F990003F903DA9DC48FEF7CBFBE8
:1049300004F18C01404600F0A4FB1FED48DB9FED25
:10494000DABB9FEDDBCB9FEDDCAB9FEDDDEBD34E18
:10495000D5F80801E83E002802DD401EC5F8080130
:1049600096ED300B53EC1D2B51EC100B4BF09CFED5
:104970007DD2CA49E822E839684604F0AAFAC74855
:104980003DA9E838FEF79FFBC44940AA20390F46ED
:10499000A1F1C800FEF769FD00287BD0BF48394669
:1049A000E838FFF791F9B0EE408AF0EE608A95EDB5
:1049B000400B51EC180B53EC102B4BF083FF96ED92
:1049C000300B41EC190B53EC1B2B51EC100B4BF043
:1049D00079FF41EC100B51EC190B53EC102B4BF001
:1049E0000DFB41EC100B1BF013FF96ED30FBB0EE0E
:1049F000409AF0EE609A53EC1B2B51EC1F0B4BF0DE
:104A000061FF53EC1F2B00E0E9E04BF04FFD41EC60
:104A10001F0B53EC1C2B51EC180B4BF047FD53ECC8
:104A20001F2B4BF0EBFA41EC100B1BF0F1FED5F80D
:104A3000E8004CF031F895ED381B53EC112B4BF09E
:104A400035FD53EC192B4BF0F5FC03D3D5F80801D9
:104A5000002826DD9148E8226946E83804F039FA52
:104A6000D5F8E8004CF018F895ED381B01E010E09F
:104A700010E053EC112B4BF019FD53EC192B4BF0BC
:104A8000D9FC5CD24FF4FA7001F03CFE0A20C5F864
:104A9000080154E08148E8226946E83804F019FA30
:104AA0004DE0D5F89801012849D1D5F8B400401C53
:104AB000C5F8B400002031F04FFB96ED320B53ECFB
:104AC0001A2B51EC100B4BF0F1FC4BF02BFC3A90F5
:104AD00096ED340B53EC1A2B51EC100B4BF0E6FC1B
:104AE0004BF020FC3B9096ED360B53EC1A2B51EC1F
:104AF000100B4BF0DBFC4BF015FC3C9003213AA86B
:104B000031F09CFA96ED300B53EC1E2B51EC100B50
:104B10004BF0CAFD11D29FED6C0A6049E839F0EE06
:104B2000400A0846FEF7FFF95C483946E838FFF7C7
:104B3000CBF8B0EE408AF0EE608A85ED408B208E97
:104B4000564FC0050CD5B4F87400C00508D507F160
:104B5000E800FFF7EAFDB0EE408AF0EE608A01E07F
:104B60009FED4C8B97ED300B1FEDCD1B51EC100BD7
:104B700053EC112B4BF05EFC31D3484940AAC831AD
:104B800089464648FEF771FC00287CD0D4F8AC007A
:104B90004BF025FC41EC100B53EC102B9FED4B0B15
:104BA00051EC100B4BF02AFA41EC1F0B4846FFF773
:104BB00004FDB0EE409AF0EE609A53EC1F2B51ECDE
:104BC000190B4BF071FD0BD29FED420B51EC180B02
:104BD00053EC102B4BF02EFC02D2FFF76EFEDBE104
:104BE00053EC1F2B51EC190B4BF024FC51D251EC20
:104BF000180B9FED3A9B53EC192B4BF01BFCF5D295
:104C000097ED300B9FED371B51EC100B53EC112B34
:104C10004BF04AFDEAD296ED300B53EC1D2B51ECD4
:104C2000100B4BF043FB7CD149461C48FFF74CF876
:104C3000B0EE408AF0EE608A85ED408B97ED309BB8
:104C400053EC1B2B51EC190B4BF03CFE53EC192B86
:104C50004BF02CFC41EC190B53EC1C2B51EC180BBA
:104C60004BF024FC53EC192B4BF0C8F941EC100B22
:104C70001BF0CEFDB0EE408AF0EE608AD5F8E80079
:104C80004BF00AFF00E088E195ED381B53EC112B47
:104C90002CE078E10000000000000840F0EA02206B
:104CA000C0EC02200080FFFF000000000000F03F89
:104CB0000000000000000040000000000000F04084
:104CC0000000000000409F406666E63E9A99999970
:104CD0009999A941000000000000F83F0000000081
:104CE000000010400000000000003E404BF0DEFBE2
:104CF00053EC182B4BF09EFBFFF46FAF9DED400B78
:104D000049464046FDF7C4FF02283FF466AF00283D
:104D10007ED1D5F898010128FAD1002031F01CFA93
:104D200000E02FE097ED320B53EC1A2B51EC100BF7
:104D30004BF0BCFB4BF0F6FA3A9097ED340B53EC8A
:104D40001A2B51EC100B4BF0B1FB4BF0EBFA3B90F4
:104D500097ED360B53EC1A2B51EC100B4BF0A6FBD6
:104D60004BF0E0FA3C9003213AA831F067F90120BA
:104D700031F090F91920009001900290684631F0CE
:104D800081F9F6E0D5F8B4004BF029FB97ED301B24
:104D900053EC112B4BF032F99FEDE71B53EC112B29
:104DA0004BF082FCA8D34946E548FEF78DFF97ED0E
:104DB00030DBB0EE408AF0EE608A53EC1B2B51ECF6
:104DC0001D0B4BF07FFD53EC1D2B4BF06FFB41ECAB
:104DD0001B0B53EC1C2B51EC180B4BF067FB53ECEB
:104DE0001B2B4BF00BF941EC100B1BF011FDB0EE3F
:104DF00040BAF0EE60BAD5F8E8004BF04DFE95ED04
:104E0000381B53EC112B4BF051FB53EC1B2B00E0E8
:104E100087E04BF00FFBC5D39DED400B4946404664
:104E2000FDF736FF00287CD196ED361B97ED360B4B
:104E300053EC112B51EC100B4BF044FD41EC100BDB
:104E400053EC102B4BF032FB96ED341B97ED340BEB
:104E500041EC1B0B53EC112B51EC100B4BF032FDC2
:104E600041EC100B53EC102B4BF020FB96ED321B5A
:104E700097ED320B41EC1C0B53EC112B51EC100B4A
:104E80004BF020FD41EC100B53EC102B4BF00EFBC4
:104E900053EC1C2B4AF0F6FF53EC1B2B4AF0F2FFAD
:104EA00041EC100B1BF0B4FCB0EE40BAF0EE60BA6F
:104EB000D4F8AC004BF093FA53EC1B2B4BF0F6FA02
:104EC0009FEDA01B53EC112B4BF0F0FA41EC1B0BA8
:104ED00053EC192B4BF0E8FB1AD39FED9C0B51ECD4
:104EE0001B0B53EC102B4BF0DFFBBFF476AED5F869
:104EF000B4004BF074FA97ED301B53EC112B4BF0D0
:104F00007DF89FED941B53EC112B4BF093FAECD2F0
:104F1000D5F8980101287FF460AE002031F01CF92B
:104F200000E039E085ED408B97ED320B53EC1A2B06
:104F300051EC100B4BF0BAFA4BF0F4F93A9097EDB4
:104F4000340B53EC1A2B51EC100B4BF0AFFA4BF027
:104F5000E9F93B9097ED360B53EC1A2B51EC100B03
:104F60004BF0A4FA4BF0DEF93C9003213AA831F063
:104F700065F8F7EE000A9FED790A7149A1F1E800A2
:104F8000FDF7D1FF29E697ED300B53EC1E2B51ECCA
:104F9000100B4BF089FBF5D3002043B0BDEC108B18
:104FA000BDE8F08370B56E4C0546D4F80C0110B91D
:104FB000284600F091F8D5F8B01044F62060814200
:104FC0000ADAD4F8102111448142C4F810114FF0CC
:104FD000000005DBC4F810012846BDE8704085E4F8
:104FE00070BD04224FF4C871AFF2470030F0EABE42
:104FF000AFF24F0031F0AEB9514810B5E821E838B2
:1050000004F000F8FFF759FC4FF4D471544803F052
:10501000F9FF534CB7EE000A04F5907084ED3A0A9C
:1050200002F095FD0A20C4F87001B2EE000A84ED8A
:10503000570A1E209FED4B0AC4F87C0184ED620ADA
:105040009FED490A84ED610A9FED480A002084ED36
:10505000630A10BD10B5FFF7CFFF002805D1AFF2EE
:105060007D00BDE8104030F035BF10BD10B5AFF287
:10507000CB0031F06FF9AFF29500BDE8104031F090
:105080008FB930B50022C2EBC20331F9124030F9BA
:105090001350AC420ADD02EB42040D8820F8245084
:1050A00000EB84044D8865808D88A58000EB430368
:1050B00031F91240B3F906309C4209DA02EB42039F
:1050C00000EB83030C88DC804C881C818C885C811D
:1050D000521C032AD7DB30BD70B5214DD0F8AC206F
:1050E0000446EAB1D3170020192103F075F945F8F9
:1050F000AC0F54F8AC2F0020D317052103F06CF946
:10510000686022680020D317962103F065F94BF000
:1051100066F9C5E90D01AC3D0120C5F80C0170BD73
:105120006FF00040C5F8AC009FED110BC5F8B00062
:1051300085ED380BF0E700000AD7A3703D0AE73F82
:10514000F0EA0220000000000000103E0000000015
:1051500000000440333333333333C33F00000000D7
:10516000C0EC0220CDCCCC3E3333333F9A99193F6B
:105170000000C0FFFFFFDF4110B5FF49C4074FF03B
:1051800040434FF0804205D08B66CB66C1E91C32AC
:105190008A67CA67840709D5C1F80031C1F80431AC
:1051A000C1E94232C1F81021C1F81421400709D5E4
:1051B000C1F89831C1F89C31C1E96832C1F8A82121
:1051C000C1F8AC2110BD2DE9F14F002082B082461C
:1051D00081460298806F00287ED000220020401C6B
:1051E0000428FCDB029800EBC203D3E90010A1FB0A
:1051F0000167D3E9065400FB017701FB0077AB465A
:10520000AD1BCDE900670326A5FB06C8A64664EBE7
:10521000070404FB0684002705FB0745DDE900675A
:105220001CEB06047D41A4FB016705FB017504FB33
:105230000055D3E90C47341B65EB0705CDE9004564
:105240005D46A5FB05670324A6FB04580EFB0B7700
:105250000BFB0E7707FB04844FF0000C06FB0C449D
:10526000D3E91263761B63EB04034C18A4FB017CA7
:1052700040EB000505FB01C504FB0055A7FB014CF5
:1052800005FB01C507FB0055A4FB017C05FB01C51F
:1052900004FB0054F6196341DDE90045AD0045EA21
:1052A0009475A400A4FB017C05FB01C104FB001460
:1052B000F01B73EB040103D50023404263EB0101B3
:1052C000BAEB000479EB010301DA82468946521CED
:1052D000032A83DB504600E016E049464BF036FCDB
:1052E00000EE900AA54890ED0E1A80EE810A10EEAD
:1052F000100A4BF0D3FCA04AD2F80C2203B0920063
:10530000BDE8F04F03F055B8002003B00146BDE8FA
:10531000F08F2DE9F14F0020009A0146926FE2B321
:1053200000240022521C042AFCDB009A02EBC40574
:10533000AA46D5E90029A2FB023CD5E906769E469D
:10534000FB1A0325A3FB057809FB02CC02FB09CB62
:1053500066EB0B0606FB05854FF0000C03FB0C56B5
:1053600017EB0E03A3FB027C46EB0B0606FB02C207
:1053700003FB0923DAE90C25BA1AAB4103D5002552
:10538000524265EB0303851A71EB030501DA1046FF
:105390001946641C032CC4DB00E015E04BF0D6FB7F
:1053A00000EE900A754890ED0E1A80EE810A10EE1C
:1053B000100A4BF073FC704AD2F80C22BDE8F84F8B
:1053C00002EB420202F0F5BF00200146BDE8F88F73
:1053D0002DE9FE43684D80460024D5F810626F46E3
:1053E00005EBC4013246D1E9020102F0CFFF05EB23
:1053F0008401B1F884100904401847F8240004F12E
:105400000104032CECDB5C489821083003F0FAFD22
:105410000120FFF7B1FE95F8E8010199042807D1B2
:10542000D5F81802B0F5201F02DD052085F8E80147
:10543000524C0098636AC11A01D40E4600E01E1A4D
:105440000198A26A801A01D4074601E0019FD71B88
:10545000BE4206DD002901D4084606E00098181A6D
:1054600003E0002801D50198101A029AE16A521A45
:1054700001D4134601E0029BCB1A834205DB002ACC
:1054800001D4104601E00298081AD8F8241030F030
:1054900054FAD5F81812814206DD0321684630F02F
:1054A000A1FE022030F0F0FE009860620198A06238
:1054B0000298E062BDE8FE83304AC2E9020170470B
:1054C0002E4AC2E9060170472C4AC2E9040170471E
:1054D000294AD2F8E0310360D2E97402C1E900023E
:1054E0007047254AD2F8E0310360D2E97602C1E97B
:1054F000000270472DE9FE4781460020EA468A6F88
:1055000022B901EB800339F91020DA6701EB800240
:1055100039F91030D46F1D1B4AF82050136E9D428C
:1055200000DD1566D36E9D4200DAD56601230024A6
:1055300022464FEAE578A3FB056704FB057403FBED
:105540000844334602EB420601EBC60606EBC00CEC
:10555000DCE90076FF186641CCE90076521C042A8B
:10556000E9DB401C0328CADB886F401C88670120E8
:10557000C1F89000BDE8FE8768EE0220C8F0022066
:1055800030B5002302EB830550F823405B1CEC662A
:10559000032BF7DBC2F88810916F79B1002102EB81
:1055A000810450F82130E56F5B1B00D55B42256E0E
:1055B0009D4200DA2366491C0329F0DB906F401CF2
:1055C00090670120C2F8900030BD10B500210B4655
:1055D00000EB8102491CD46ED46713660329F7DB04
:1055E000D0F8881040F8783FC0E9051310BDD0E925
:1055F0002210081A70470146D1E91802824200DBE6
:105600001046896E814200DB084670472DE9F0475D
:105610008046501E012686408946C2F1200740463A
:1056200002F0C7FE04460D46404649463A4602F09F
:10563000ADFE3A4602F0BDFEB04203DD641C45F10A
:10564000000505E07142884202DA641E45F1FF352B
:1056500020462946BDE8F087F749002008624862E5
:105660008862C862086448648864C86408634863E0
:105670008863C863086548658865C865704730B544
:10568000EE4AD2F8483223B1D2E990542D1A8C4117
:1056900001DAC2E990015B1CC2F8483230BD30B576
:1056A000E64AD2F8583223B1D2E994542D1A8C41EB
:1056B00001DAC2E994015B1CC2F8583230BD30B542
:1056C000DE4AD2F828322BB1D2E98845041B71EBAF
:1056D000050401DAC2E988015B1CC2F8283230BD3A
:1056E00030B5D64AD2F838322BB1D2E98C45041BFA
:1056F00071EB050401DAC2E98C015B1CC2F8383297
:1057000030BD2DE9F0470246CC48012508308046DF
:10571000C36E016E046FC91A436E1B1B8B4200DB04
:105720001946836ED8F87400181A884200DB0146C7
:10573000C14F6037F86B884204DA002400F010FA99
:10574000204687E7108E0124BC4EC0054FF00001B3
:105750000ED5D6F880303068834209DBB2F8742069
:10576000D20506D5D6F8B021824201DB052400E03F
:105770000C4674B3600719D5AF48C8388146FFF7A7
:1057800022FD000D40EA01300915C6E97601D7E98E
:1057900004321B1A8A4102DA0025FFF7A1FF982183
:1057A000484603F02FFC0420FFF7E6FCE0070ED08C
:1057B0004046FFF708FDC6E97C01D7E906340246FA
:1057C000181A8C4103DA00251046FFF778FF2846A7
:1057D00040E7FFE702203DE71EB5044690F83000A1
:1057E000C0F38110032804D19449201D0831FFF72C
:1057F00081FE94F87400C0F38110032805D18E490E
:1058000004F14800C839FFF775FED4F8B8008B4A98
:10581000C0F38113A0326946032B0FD0C0F34110AF
:1058200003281AD1002004EB8003D3F8A0309B1387
:1058300041F82030401C0328F5DB09E0002004EB90
:105840004003B3F98C3041F82030401C0328F6DBCC
:105850006846D4F8C010FFF793FE1EBD2DE9F0474F
:1058600005460020296BCA056AD501F05001402980
:1058700000D1012095F8741001F05001402900D1A9
:10588000012095F8B8106D4C01F05001402900D06E
:1058900030B100F065F90020C4F8E00184F8E801B7
:1058A000654ED4F80812E86A6036814228D0C4F800
:1058B00008020A28306B0CDA40002060716B00EEA1
:1058C000100A491CC4F80C12B8EEC00A1AF0DDFF29
:1058D00005E02060706BC4F80C0296ED0E0A84EDB2
:1058E000850AD4F80C02C0F11000C4F810024FF47D
:1058F0008040C4F8180296F8341019208840F063EC
:105900002846FFF769FF94F8E811DFF83091052782
:105910004FF0020809F1A009072911D2DFE801F0D0
:10592000041127305E7E8500D4F8E001411CC4F8E4
:10593000E0110A2804DB00F013F9012084F8E801E3
:1059400086E0D4F89800012810D12846FFF7D9FE48
:1059500010B1012803D004E084F8E87101E084F874
:10596000E8814846FFF731FEFFF776FE70E003203E
:1059700084F8E8012846FFF72BFD00F0F1F867E016
:105980002846FFF7BEFEE8B3012861D1B5F8B8009C
:105990004FF00403C00515D54846FFF72CFE01461D
:1059A000C017C4E97410D6E902C2BCEB0101824100
:1059B00002DA84F8E87108E04846FFF718FE316A19
:1059C000884202D384F8E83124E0F4E97601FFF755
:1059D00066FED4E90601FFF752FE39E0B5F8B800DB
:1059E000C0050BD54846FFF706FE0146C017C4E9BF
:1059F0007410D6E90232591A824108DB2846FFF7B3
:105A000080FE00E003E010B1012803D020E084F81C
:105A1000E8711DE02846FFF7DBFCD6E7062084F896
:105A2000E801012030F030FC0DE02846FFF769FE68
:105A3000012805D038B10BE068F0022068EE0220A2
:105A400084F8E88104E000F08BF84846FFF7BDFDDC
:105A50000020FFE510B500214010002802D001F120
:105A60000101F9DC4FF0010001F1010100FA01F040
:105A7000434C00EE100AC4E90C01B8EEC00A1AF05B
:105A800004FF84ED0E0A94F8341019208840E06376
:105A900010BD10B54FF418713A4803F0B3FA402125
:105AA000374803F0AFFA0720FFF766FB344840F2AF
:105AB000DC510022C0E906121421C0E902124FF4A1
:105AC0001671C0E9041230492E4C01620120C4F85D
:105AD000E4011920FFF7BEFF0020C4F8080210BD42
