:020000040800F2
:1000000010FC022039030008055901085D030108AE
:10001000BD4E010835B50008A9AB0108000000007D
:10002000000000000000000000000000F17F010857
:1000300019C20008000000001704000841820108EE
:10004000730300087303000873030008C1720108FA
:1000500073030008730300087303000873030008A8
:100060007303000873030008730300087303000898
:100070007303000873030008730300087303000888
:100080007303000873030008730300087303000878
:100090007303000873030008730300087303000868
:1000A0007303000873030008730300087303000858
:1000B0007303000873030008730300087303000848
:1000C0007303000873030008730300087303000838
:1000D0007303000859920108730300087192010824
:1000E0007303000809700108730300087303000814
:1000F0007303000873030008730300087303000808
:1001000073030008730300087303000873030008F7
:1001100073030008730300087303000873030008E7
:10012000730300087303000873030008CDBE0008C2
:1001300073030008730300087303000873030008C7
:10014000730300087303000873030008F16C0108CF
:100150004DBF000873030008730300087303000811
:100160007303000873030008730300087303000897
:100170007303000873030008730300080000000005
:100180007303000873030008730300087303000877
:100190007303000873030008730300087303000867
:1001A00073030008730300087303000800F002F8EB
:1001B00000F0B2F80AA090E8000C82448344AAF14F
:1001C0000107DA4501D100F0A7F8AFF2090EBAE84D
:1001D0000F0013F0010F18BFFB1A43F0010318477B
:1001E000185F0600385F06000A444FF0000C10F854
:1001F000013B13F0070408BF10F8014B1D1108BFA5
:1002000010F8015B641E05D010F8016B641E01F844
:10021000016BF9D113F0080F1EBF10F8014BAD1C94
:100220000C1B09D16D1E58BF01F801CBFAD505E0B2
:1002300014F8016B01F8016B6D1EF9D59142D6D30C
:10024000704700000023002400250026103A28BF34
:1002500078C1FBD8520728BF30C148BF0B60704738
:100260006E2908F03486702908F01982662903F097
:10027000C4A0652903F0C1A0672903F0BEA06129CD
:1002800003F0BDA003681B0A28BF41F08001692963
:1002900008F04C81642908F04981752908F04681ED
:1002A0006F2909F0FB80782908F0E581E92908F039
:1002B0007981E42908F07681F52908F07381EF2926
:1002C00009F0F880F82908F0E4810368DB0928BF09
:1002D00041F08001632909F04280732909F04780C9
:1002E000E32909F01B83F32909F0208300207047DC
:1002F0001FB543F02CF809F037F904000020002165
:1003000042F0D8F8401C60600020002142F0BCF8A8
:10031000E0601FBD10B510BD09F0C2FB1146FFF72C
:10032000E7FF31F069FE09F03BFE03B4FFF7F2FF8F
:1003300003BC1EF02CF9000011488047DFF8440090
:10034000016841F470010160BFF34F8FDFF838009E
:10035000016821F040410160BFF36F8F0B480047F7
:10036000FEE7FEE7FEE7FEE7FEE7FEE7FEE7FEE765
:10037000FEE7FEE706480749074A084B70470000BA
:100380006582010888ED00E034EF00E0AD0100086F
:1003900010F6022010FC022010F8022010F80220B3
:1003A000EFF3098141B1F1EE101A40F8041D20ED80
:1003B000200A29490A6810607047B0EC200A02C878
:1003C000E1EE101A25490A6810607047EFF31080BB
:1003D00072B6704780F31088704721484FF6FF715E
:1003E0000170002080F309881E48016881F30888A5
:1003F0001D48012101701D484FF08051016062B617
:10040000FEE71A484FF080510160704717484FF0DF
:1004100080510160704772B6EFF3098028B120382F
:1004200080E8F00F0C490968086000B51048804763
:100430005DF804EB0F4810490A7802700648074936
:100440000A680260106890E8F00F203080F3098895
:100450004EF0F40E62B67047740100207C0100205B
:1004600022ED00E0B00100205B01002004ED00E07F
:1004700045640108580100205901002081FB00203B
:10048000704701464FF0000081EAE170A0EBE17097
:10049000704700002DE9F04F82B001904FF00074DA
:1004A0004FF000784FF000054FF0000952F804CBF0
:1004B00052F804EB0868CB6DC0FB0C45D1F8800006
:1004C000CEF1000EC3FB0E45D1F8DC30C0FB0C8929
:1004D000C3FB0E8952F804CB52F804EB48688B6DCD
:1004E000C0FB0C45D1F88400CEF1000EC3FB0E45D5
:1004F000D1F8D830C0FB0C89C3FB0E8952F804CB6D
:1005000052F804EB88684B6DC0FB0C45D1F88800AD
:10051000CEF1000EC3FB0E45D1F8D430C0FB0C89E0
:10052000C3FB0E8952F804CB52F804EBC8680B6D7C
:10053000C0FB0C45D1F88C00CEF1000EC3FB0E457C
:10054000D1F8D030C0FB0C89C3FB0E8952F804CB24
:1005500052F804EB0869CB6CC0FB0C45D1F8900055
:10056000CEF1000EC3FB0E45D1F8CC30C0FB0C8998
:10057000C3FB0E8952F804CB52F804EB48698B6C2C
:10058000C0FB0C45D1F89400CEF1000EC3FB0E4524
:10059000D1F8C830C0FB0C89C3FB0E8952F804CBDC
:1005A00052F804EB88694B6CC0FB0C45D1F89800FD
:1005B000CEF1000EC3FB0E45D1F8C430C0FB0C8950
:1005C000C3FB0E8952F804CB52F804EBC8690B6CDC
:1005D000C0FB0C45D1F89C00CEF1000EC3FB0E45CC
:1005E000D1F8C030C0FB0C89C3FB0E8901984FF4D1
:1005F000FE4E4EF0FF0E4FEA946444EA85144FEA33
:10060000E47CBCEBE43F18BF8CEA0E044FEA986828
:1006100048EA89184FEAE87CBCEBE83F18BF8CEA4F
:100620000E080480A0F8028002F5707201F5805176
:100630004FF000744FF000784FF000054FF00009C4
:1006400052F804CB0868D1F88030C0FB0C45C3FBDE
:100650000C8952F804CB4868D1F88430C0FB0C45B3
:10066000C3FB0C8952F804CB8868D1F88830C0FBF2
:100670000C45C3FB0C8952F804CBC868D1F88C3008
:10068000C0FB0C45C3FB0C8952F804CB0869D1F8B8
:100690009030C0FB0C45C3FB0C8952F804CB486971
:1006A000D1F89430C0FB0C45C3FB0C8952F804CB45
:1006B0008869D1F89830C0FB0C45C3FB0C8952F80F
:1006C00004CBC869D1F89C30C0FB0C45C3FB0C8936
:1006D00001984FF4FE4E4EF0FF0E4FEA946444EA48
:1006E00085144FEAE47CBCEBE43F18BF8CEA0E04AF
:1006F0004FEA986848EA89184FEAE87CBCEBE83F83
:1007000018BF8CEA0E08A0F84040A0F84280A2F57D
:100710007872A1F570614FF00F0C00F10400CDF874
:1007200000C001904FF000744FF000784FF0007659
:100730004FF0007A4FF000054FF000094FF000072E
:100740004FF0000B52F804CB52F804EB0868CB6D65
:10075000C0FB0C45C0FB0E67CEF1000EC3FB0C675F
:10076000C3FB0E45D1F8DC30D1F88000C3FB0E8905
:10077000C3FB0CABCEF1000EC0FB0C89C0FB0EAB73
:1007800052F804CB52F804EB48688B6DC0FB0C4563
:10079000C0FB0E67CEF1000EC3FB0C67C3FB0E451A
:1007A000D1F8D830D1F88400C3FB0E89C3FB0CAB61
:1007B000CEF1000EC0FB0C89C0FB0EAB52F804CB8F
:1007C00052F804EB88684B6DC0FB0C45C0FB0E670C
:1007D000CEF1000EC3FB0C67C3FB0E45D1F8D4303D
:1007E000D1F88800C3FB0E89C3FB0CABCEF1000E21
:1007F000C0FB0C89C0FB0EAB52F804CB52F804EBE3
:10080000C8680B6DC0FB0C45C0FB0E67CEF1000E37
:10081000C3FB0C67C3FB0E45D1F8D030D1F88C0078
:10082000C3FB0E89C3FB0CABCEF1000EC0FB0C89E1
:10083000C0FB0EAB52F804CB52F804EB0869CB6C4A
:10084000C0FB0C45C0FB0E67CEF1000EC3FB0C676E
:10085000C3FB0E45D1F8CC30D1F89000C3FB0E8914
:10086000C3FB0CABCEF1000EC0FB0C89C0FB0EAB82
:1008700052F804CB52F804EB48698B6CC0FB0C4572
:10088000C0FB0E67CEF1000EC3FB0C67C3FB0E4529
:10089000D1F8C830D1F89400C3FB0E89C3FB0CAB70
:1008A000CEF1000EC0FB0C89C0FB0EAB52F804CB9E
:1008B00052F804EB88694B6CC0FB0C45C0FB0E671B
:1008C000CEF1000EC3FB0C67C3FB0E45D1F8C4305C
:1008D000D1F89800C3FB0E89C3FB0CABCEF1000E20
:1008E000C0FB0C89C0FB0EAB52F804CB52F804EBF2
:1008F000C8690B6CC0FB0C45C0FB0E67CEF1000E47
:10090000C3FB0C67C3FB0E45D1F8C030D1F89C0087
:10091000C3FB0E89C3FB0CABCEF1000EC0FB0C89F0
:10092000C0FB0EAB01F5807101984FF4FE4E4EF006
:10093000FF0E4FEA946444EA85144FEAE47CBCEB72
:10094000E43F18BF8CEA0E044FEA986848EA891819
:100950004FEAE87CBCEBE83F18BF8CEA0E084FEA90
:10096000966646EA87164FEAE67CBCEBE63F18BF80
:100970008CEA0E064FEA9A6A4AEA8B1A4FEAEA7C38
:10098000BCEBEA3F18BF8CEA0E0ADDF800C000EBB2
:10099000CC0E2EF8026B2EF802AB20F8024B20F89A
:1009A000028BBCF1010C7FF4BAAE02B0BDE8F08F4F
:1009B0002DE9F04F82B001904FF000744FF0000528
:1009C00052F804CB52F804EB0868CB6DCEF1000E60
:1009D000C0FB0C45C3FB0E4552F804CB52F804EBA8
:1009E00048688B6DCEF1000EC0FB0C45C3FB0E4575
:1009F00052F804CB52F804EB88684B6DCEF1000E30
:100A0000C0FB0C45C3FB0E4552F804CB52F804EB77
:100A1000C8680B6DCEF1000EC0FB0C45C3FB0E4544
:100A200052F804CB52F804EB0869CB6CCEF1000EFF
:100A3000C0FB0C45C3FB0E4552F804CB52F804EB47
:100A400048698B6CCEF1000EC0FB0C45C3FB0E4514
:100A500052F804CB52F804EB88694B6CCEF1000ECF
:100A6000C0FB0C45C3FB0E4552F804CB52F804EB17
:100A7000C8690B6CCEF1000EC0FB0C45C3FB0E45E4
:100A800001984FF4FE4E4EF0FF0E4FEA946444EA94
:100A900085144FEAE47CBCEBE43F18BF8CEA0E04FB
:100AA000048002F5707201F580514FF000744FF030
:100AB000000552F804CB0868C0FB0C4552F804CB83
:100AC0004868C0FB0C4552F804CB8868C0FB0C4555
:100AD00052F804CBC868C0FB0C4552F804CB086937
:100AE000C0FB0C4552F804CB4869C0FB0C4552F8DA
:100AF00004CB8869C0FB0C4552F804CBC869C0FB25
:100B00000C4501984FF4FE4E4EF0FF0E4FEA9464F0
:100B100044EA85144FEAE47CBCEBE43F18BF8CEA5E
:100B20000E040484A2F57872A1F570614FF00F0CE9
:100B300000F10200CDF800C001904FF000744FF0BA
:100B400000764FF000054FF0000752F804CB52F842
:100B500004EB0868CB6DC0FB0C45C0FB0E67CEF103
:100B6000000EC3FB0E45C3FB0C6752F804CB52F8D2
:100B700004EB48688B6DC0FB0C45C0FB0E67CEF1E3
:100B8000000EC3FB0E45C3FB0C6752F804CB52F8B2
:100B900004EB88684B6DC0FB0C45C0FB0E67CEF1C3
:100BA000000EC3FB0E45C3FB0C6752F804CB52F892
:100BB00004EBC8680B6DC0FB0C45C0FB0E67CEF1A3
:100BC000000EC3FB0E45C3FB0C6752F804CB52F872
:100BD00004EB0869CB6CC0FB0C45C0FB0E67CEF183
:100BE000000EC3FB0E45C3FB0C6752F804CB52F852
:100BF00004EB48698B6CC0FB0C45C0FB0E67CEF163
:100C0000000EC3FB0E45C3FB0C6752F804CB52F831
:100C100004EB88694B6CC0FB0C45C0FB0E67CEF142
:100C2000000EC3FB0E45C3FB0C6752F804CB52F811
:100C300004EBC8690B6CC0FB0C45C0FB0E67CEF122
:100C4000000EC3FB0E45C3FB0C6701F580710198D4
:100C50004FF4FE4E4EF0FF0E4FEA946444EA8514C2
:100C60004FEAE47CBCEBE43F18BF8CEA0E044FEA89
:100C7000966646EA87164FEAE67CBCEBE63F18BF6D
:100C80008CEA0E06DDF800C000EB8C0E2EF8026B2D
:100C900020F8024BBCF1010C7FF44CAF02B0BDE870
:100CA000F08F00002DE9FE4F8446D0F800E0DCF81C
:100CB00004B00EF1BC0292E80C040CF11C0696E89C
:100CC000C003BBEB0A0ACEF8C4A0CEF8C8B00BFB39
:100CD00006F00AFB070003FB080002FB0900C8BF7F
:100CE0006FF0000AB8BF4FF0010ABBF1000FC8BF98
:100CF0006FF0000BB8BF4FF0010BCEF844A0CEF858
:100D000048B0DCF80C60DCF810700EF1980292E844
:100D10001C04C6EB4616A7EB661BCCF80C700CF156
:100D20003C0595E8E003BBEB0A0ACEF8A4A0CEF898
:100D3000A8B00BFB05F10AFB061104FB071103FB2E
:100D4000081102FB0911C8BF6FF0000AB8BF4FF0CD
:100D5000010ABBF1000FC8BF6FF0000BB8BF4FF026
:100D6000010BCEF824A0CEF828B0009A00EB610069
:100D7000DCF818401368C4EB441403EBA021CCF852
:100D8000041001EB6411CCF8181042F8041B009217
:100D9000002B39D00EF118021CCA1EDBA5EB0B0587
:100DA000A6EB0A06A9EB0209A8EB0308A7EB0407C8
:100DB0000CF13C0080E8E0030CF11C0191E83C00E0
:100DC0000EF13C0696E8C003A5EB0605A4EB07046C
:100DD000A3EB0803A2EB090214E05D4456449144DE
:100DE000984427440CF13C0080E8E0030CF11C011E
:100DF00091E83C000EF13C0696E8C00335443C44C3
:100E000043444A4481E83C00DCF808B00EF17C021F
:100E100092E80C040CF12C0696E8C003BBEB0A0A1E
:100E2000CEF884A0CEF888B00BFB06F00AFB0700D2
:100E300003FB080002FB0900C8BF6FF0000AB8BF3F
:100E40004FF0010ABBF1000FC8BF6FF0000BB8BF35
:100E50004FF0010BCEF834A0CEF838B0DCF81460B7
:100E6000DCF818700EF1580292E81C04C6EB461626
:100E7000A7EB661BCCF814700CF1500595E8E00365
:100E8000BBEB0A0ACEF864A0CEF868B00BFB05F104
:100E90000AFB061104FB071103FB081102FB0911F1
:100EA000C8BF6FF0000AB8BF4FF0010ABBF1000FD6
:100EB000C8BF6FF0000BB8BF4FF0010BCEF810A009
:100EC000CEF814B0019A00EB6100DCF81040136812
:100ED000C4EB441403EBA021CCF8081001EB64111F
:100EE000CCF8101042F8041B0192002B39D00EF1FF
:100EF00004021CCA1EDBA5EB0B05A6EB0A06A9EB38
:100F00000209A8EB0308A7EB04070CF1500080E8E6
:100F1000E0030CF12C0191E83C000EF12C0696E860
:100F2000C003A5EB0605A4EB0704A3EB0803A2EBA3
:100F3000090214E05D4456449144984427440CF15E
:100F4000500080E8E0030CF12C0191E83C000EF128
:100F50002C0696E8C00335443C4443444A4481E8A7
:100F60003C000EF1040E0CF1640BAEF5006A029821
:100F7000DA4509D0401E18BF02907FF498AECCF835
:100F800000E003B0BDE8F08FBEE8FF03ABE8FF036D
:100F9000BEE8FF03ABE8FF03BEE8FF03ABE8FF03D7
:100FA000BEE8FF03ABE8FF03BEE8FF03ABE8FF03C7
:100FB00002980CF1640E401E18BF02907FF477AEC9
:100FC000DDE72DE9F64F8446D0F800E0DCF804B008
:100FD0000EF1BC0292E80C040CF11C0595E8C0036C
:100FE000BBEB0A0ACEF8C4A0CEF8C8B00BFB06F0E3
:100FF0000AFB070003FB080002FB0900C8BF6FF0F3
:10100000000AB8BF4FF0010ABBF1000FC8BF6FF074
:10101000000BB8BF4FF0010BCEF844A0CEF848B09B
:10102000009ADCF818401368C4EB441403EBA021C9
:10103000CCF8041001EB6411CCF8181042F8041B32
:101040000092002B13D0DEF83C20DEF8403008DBA5
:10105000A6EB0B06A7EB0A07A9EB0209A8EB03080E
:1010600003E05E4457449144984485E8C0030EF180
:10107000040E0CF1640BAEF5006A0198DA4508D055
:10108000401E18BF0190A1D1CCF800E002B0BDE82D
:10109000F08FBEE8FF03ABE8FF03BEE8FF03ABE859
:1010A000FF03BEE8FF03ABE8FF03BEE8FF03ABE8C6
:1010B000FF03BEE8FF03ABE8FF0301980CF1640EE9
:1010C000401E18BF019081D1DEE70000FE4880ED90
:1010D0003A0A70472DE9F047DFF8EC9300262DED32
:1010E0000A8B0446B0EE408AF0EE608A88463546A8
:1010F0003746D9F8AC0041F0DEFC53EC182B41F038
:1011000005FD6FD3D9F8B00041F0D5FC53EC182B96
:1011100041F036FEF5D3B4F90000B4F90610401AD8
:1011200041F0C9FC53EC182B41F0F0FC00D2012631
:10113000B4F90E00B4F91410401A41F0BCFC53ECA1
:10114000182B41F0E3FC00D2761CB4F91C00B4F972
:101150002210401A41F0AFFC53EC182B41F0D6FCA2
:1011600000D2761C9FEDD90B012E3BDC53EC102BEB
:1011700051EC180B41F006FD8946064649EC180B68
:10118000B4F90000B4F90610401A41F094FC53EC95
:10119000182B41F0F5FD00D20125B4F90E00B4F989
:1011A000141049EC186B401A41F085FC53EC182BD5
:1011B00041F0E6FD00D26D1CB4F91C00B4F9221018
:1011C00049EC186B401A41F076FC53EC182B41F0B7
:1011D000D7FD00D26D1C002D05DD0220BDEC0A8B71
:1011E000BDE8F08765E000269FEDBACB06EB460927
:1011F00004EB8905B5F90A0041F05DFC98ED048B1C
:1012000053EC182B41F0CAFE41EC190BB5F9040060
:1012100041F051FC53EC182B41F0C0FE53EC192B5C
:1012200041F0B0FC41EC190BB5F9080041F043FC6A
:1012300098ED028B53EC182B41F0B0FE41EC1A0BE9
:10124000B5F9020041F037FC53EC182B41F0A6FE33
:1012500053EC1A2B41F096FC41EC1A0BB5F9060041
:1012600041F029FC98ED008B53EC182B41F096FED1
:1012700041EC1B0B34F9290041F01DFC53EC182BF9
:1012800041F08CFE53EC1B2B41F07CFC53EC1A2BF1
:1012900041F064F953EC192B41F060F953EC1C2B2D
:1012A00041F034FC00D27F1C761C032E9EDB022F03
:1012B00001DA012092E7002090E788490A684B682C
:1012C000D00180EAD20080EA031048608B685203A4
:1012D00080EAC30382EA5312520282EAD0208B6072
:1012E0000860704710B52DED048BF0EE408AFFF7D3
:1012F000E4FF00EE100AB8EE400ADFED790A20EEB6
:10130000200A9FED789A20EE090A1AF041FBB0EE10
:10131000408AFFF7D2FF00EE100AB8EE400A20EE36
:10132000090AB5EEC00AF1EE10FA01D1B7EE000AD3
:1013300010EE100A41F01CFF41EC100B1AF044FCB7
:101340009FED691B51EC100B53EC112B41F01AFC73
:1013500041F0D2F800EE100A1CF077F920EE280ACE
:1013600020EE080ABDEC048B10BD2DE9F0410546C6
:101370002DED048BB0EE608AF0EE408A0F4618EE39
:10138000100A41F0F5FE97ED301B53EC112B41F0A4
:10139000F9FB41EC190B18EE900A41F0E9FE95EDCE
:1013A000301B53EC112B41F0EDFB53EC192B41F0AA
:1013B000D5F80024C5E9300118EE100A41F0D8FE36
:1013C00007EBC40898ED001B53EC112B41F0DAFB3E
:1013D00041EC190B18EE900A41F0CAFE05EBC40669
:1013E00096ED001B53EC112B41F0CCFB53EC192B69
:1013F00041F0B4F8C6E9000118EE100A41F0B8FE59
:1014000098ED241B53EC112B41F0BCFB41EC190B64
:1014100018EE900A41F0ACFE96ED241B53EC112B14
:1014200041F0B0FB53EC192B41F098F8641CC6E96D
:101430002401062CC0DB002418EE100A41F098FEAF
:1014400041EC100B07EBC40090ED121B51EC100B9C
:1014500053EC112B41F096FB41EC190B18EE900A5E
:1014600041F086FE05EBC40696ED121B53EC112BE2
:1014700041F088FB53EC192B41F070F8641CC6E96D
:101480001201092CD8DB002418EE100A41F070FE7E
:1014900041EC100B07EBC40090ED0C1B51EC100B52
:1014A00053EC112B41F06EFB41EC190B18EE900A36
:1014B00041F05EFE05EBC40696ED0C1B53EC112BC0
:1014C00041F060FB14E0000068E80220000000002A
:1014D000000004400000000000000000340500206F
:1014E000DB0FC9400000802F00000000000000C09A
:1014F00053EC192B41F032F8641CC6E90C01032CA3
:10150000C2DBBDEC048BBDE8F0812DE9F04F044651
:101510002DED068B83B00D46086841F0CCFA41EC06
:101520001A0B686841F0C7FA41EC190BA86841F042
:10153000C2FA41EC180B94ED300B9FEDFE1B51EC01
:10154000100B53EC112B41F009F8C4E9300194ED74
:101550000C0B53EC1A2B51EC100B40F0FFFFC4E9BD
:101560000C0194ED0E0B53EC192B51EC100B40F0C9
:10157000F5FFC4E90E0194ED100B53EC182B51EC60
:10158000100B40F0EBFFC4E9100153EC1A2B51ECA7
:101590001A0B41F0F7FA029194ED001B064653EC4A
:1015A000112B40F0DBFFC4E9000153EC192B51EC87
:1015B0001A0B41F0E7FA894649EC100B94ED021B37
:1015C000054653EC112B51EC100B40F0C7FFC4E95A
:1015D000020153EC182B51EC1A0B41F0D3FA8B4655
:1015E0004BEC100B94ED041B804653EC112B51EC8B
:1015F000100B40F0B3FFC4E9040153EC192B51EC7C
:10160000190B41F0BFFA019194ED061B074653EC0C
:10161000112B40F0A3FFC4E9060153EC182B51EC49
:10162000190B41F0AFFA009194ED081B824653EC80
:10163000112B40F093FFC4E9080153EC182B51EC37
:10164000180B41F09FFA94ED0A1B53EC112B40F05C
:1016500085FFC4E90A01029953EC1A2B41EC106B87
:1016600051EC100B41F08EFA94ED121B53EC112B40
:1016700040F074FF49EC105BC4E9120153EC192BE4
:1016800051EC100B41F07EFA94ED141B53EC112B2E
:1016900040F064FF4BEC108BC4E9140153EC182BA1
:1016A00051EC100B41F06EFA94ED161B53EC112B1C
:1016B00040F054FF49EC105BC4E9160153EC1A2BBF
:1016C00051EC100B41F05EFA94ED181B53EC112B0A
:1016D00040F044FFC4E91801019953EC192B41EC87
:1016E000107B51EC100B41F04DFA94ED1A1B53ECAA
:1016F000112B40F033FFC4E91A010099554641EC23
:1017000010AB0E4653EC182B51EC100B41F03AFA8B
:1017100094ED1C1B53EC112B40F020FFC4E91C017D
:1017200053EC1A2B51EC180B41F02CFA53EC1A2BFA
:1017300041F028FA94ED1E1B53EC112B40F00EFFE4
:1017400046EC105BC4E91E0153EC192B51EC100B55
:1017500041F018FA94ED201B53EC112B40F0FEFEE3
:10176000C4E9200153EC182B51EC180B41F00AFA94
:10177000894649EC100B074653EC182B51EC100B23
:1017800041F000FA94ED221B53EC112B40F0E6FEE1
:10179000C4E9220153EC1A2B51EC1A0B41F0F2F977
:1017A000884648EC100B054653EC1A2B51EC100BF5
:1017B00041F0E8F953EC1A2B41F0E4F994ED241BC5
:1017C00053EC112B40F0CAFEC4E9240153EC192B51
:1017D00051EC190B41F0D6F98A464AEC100B06463B
:1017E00053EC192B51EC100B41F0CCF953EC192BA5
:1017F00041F0C8F994ED261B53EC112B40F0AEFEDE
:1018000049EC107BC4E9260153EC182B51EC100B6A
:1018100041F0B8F953EC182B41F0B4F994ED281BC2
:1018200053EC112B40F09AFE48EC105BC4E9280100
:1018300053EC192B51EC100B41F0A4F953EC192B7C
:1018400041F0A0F994ED2A1B53EC112B40F086FED9
:1018500048EC105BC4E92A0153EC182B51EC100B37
:1018600041F090F953EC182B41F08CF994ED2C1BBE
:1018700053EC112B40F072FE4AEC106BC4E92C01C2
:1018800053EC182B51EC100B41F07CF953EC182B56
:1018900041F078F994ED2E1B53EC112B40F05EFED5
:1018A000C4E92E0103B0BDEC068BBDE8F08F2DE935
:1018B000F04F93462DED108B0D46044693B090EDFE
:1018C0000CEB53EC1E2B51EC1E0B41F05BF994ED2D
:1018D000000B41EC190B8DED080B94ED308B53ECA4
:1018E000102B51EC180B41F04DF953EC192B41F032
:1018F00055FB94ED0EDB41EC1F0B53EC1D2B51EC13
:101900001D0B41F03FF994ED060B41EC190B8DEDE9
:10191000060B53EC102B51EC180B41F033F953EC40
:10192000192B41F03BFB41EC100B8DED040B94EDBA
:1019300010CB03E0000000000000F03F53EC1C2B34
:1019400051EC1C0B41F01EF994ED0A0B41EC190B04
:101950008DED020B53EC102B51EC180B41F012F9EA
:1019600053EC192B41F01AFB41EC110B53EC1D2BDE
:101970008DED001B51EC1E0B41F004F994ED020BB0
:1019800041EC190B53EC102B51EC180B41F0FAF809
:1019900053EC192B41F002FB41EC1B0B53EC1C2BBD
:1019A00051EC1E0B41F0EEF894ED040B41EC190BD9
:1019B00053EC102B51EC180B41F0E4F853EC192BBD
:1019C00041F0ECFA41EC1A0B53EC1C2B51EC1D0BC3
:1019D00041F0D8F894ED080B41EC190B53EC102BA7
:1019E00051EC180B41F0CEF853EC192B41F0D6FA1C
:1019F0009DED020B41EC190B53EC102B51EC1E0B1F
:101A000041F0C0F841EC110B51EC180B8DED101B9F
:101A100094ED160B53EC102B41F0B4F841EC110B84
:101A200051EC1E0B8DED0E1B9DED060B53EC102B98
:101A300041F0A8F841EC110B51EC180B8DED0C1B8B
:101A400094ED140B53EC102B41F09CF841EC110B6E
:101A500051EC1E0B8DED0A1B9DED080B53EC102B6A
:101A600041F090F894ED120B41EC1E0B53EC102B4F
:101A700051EC180B41F086F853EC1E2B41F08EFA16
:101A80009DED0A1B53EC112B40F068FD9DED0C1BE6
:101A900053EC112B41F082FA9DED0E1B53EC112BF0
:101AA00040F05CFD9DED101B53EC112B41F076FADC
:101AB0009FEDFE1B53EC112B41F064F89DED020BE2
:101AC00041EC1E0B53EC102B51EC1D0B41F05AF85E
:101AD00041EC110B51EC180B8DED101B94ED1C0B10
:101AE00053EC102B41F04EF841EC110B51EC1D0B57
:101AF0008DED0E1B9DED060B53EC102B41F042F8C3
:101B000041EC110B51EC180B8DED0C1B94ED1A0BE5
:101B100053EC102B41F036F841EC110B51EC1D0B3E
:101B20008DED0A1B9DED080B53EC102B41F02AF8AC
:101B300094ED180B41EC1D0B53EC102B51EC180BD2
:101B400041F020F853EC1D2B41F028FA9DED0A1BC3
:101B500053EC112B40F002FD9DED0C1B53EC112BAF
:101B600041F01CFA9DED0E1B53EC112B40F0F6FCDE
:101B70009DED101B53EC112B41F010FA9FEDCB1B88
:101B800053EC112B40F0FEFF9DED020B41EC1D0BC1
:101B900053EC102B51EC1C0B40F0F4FF41EC110BFB
:101BA00051EC180B8DED021B94ED220B53EC102B16
:101BB00040F0E8FF41EC110B51EC1C0B8DED0A1BC2
:101BC0009DED060B53EC102B40F0DCFF41EC110BAC
:101BD00051EC180B8DED0C1B94ED200B53EC102BDE
:101BE00040F0D0FF41EC110B51EC1C0B8DED061BAE
:101BF0009DED080B53EC102B40F0C4FF94ED1E0B31
:101C000041EC1C0B53EC102B51EC180B40F0BAFFBD
:101C100053EC1C2B41F0C2F99DED061B53EC112B2C
:101C200040F09CFC9DED0C1B53EC112B41F0B6F9E0
:101C30009DED0A1B53EC112B40F090FC9DED021B17
:101C400053EC112B41F0AAF99FED981B53EC112B8B
:101C500040F098FF9DED040B41EC180B53EC102B5A
:101C600051EC1F0B40F08EFF10919DED001B824642
:101C700053EC112B40F086FF41EC110B53EC192B68
:101C80008DED0A1B51EC1F0B40F07CFF53EC192B20
:101C900040F078FF41EC110B53EC1A2B8DED081B33
:101CA0009DED040B51EC100B40F06CFF814653ECA2
:101CB0001A2B119140F066FF41EC110B8DED061BC4
:101CC0009FED7C0B51EC1B0B53EC102B40F05AFF9B
:101CD00053EC1A2B40F056FF53EC192B40F052FFF7
:101CE0009DED001B41EC1C0B53EC1B2B51EC110B1D
:101CF00040F048FF074653EC1B2B029140F042FF97
:101D000053EC1C2B41F04AF99DED061B53EC112BB3
:101D100040F024FC9DED081B53EC112B40F01EFC01
:101D20009DED0A1B53EC112B41F038F941EC1C0BD3
:101D30009FED620B53EC102B40F024FE7DD053EC52
:101D4000192B51EC1B0B40F01DFF53EC182B40F0EE
:101D500019FF41EC110B53EC1D2B8DED0E1B02995D
:101D600041EC107B51EC100B40F00CFF41EC110BDF
:101D70008DED0C1B9DED000B53EC102B9DED040B1A
:101D800051EC100B40F0FEFE53EC1E2B40F0FAFE1F
:101D900041EC110B53EC192B8DED081B51EC190B79
:101DA00040F0F0FE53EC1E2B40F0ECFE41EC110B2A
:101DB00053EC1D2B8DED0A1B51EC190B40F0E2FE8C
:101DC00041EC110B53EC182B8DED061B9DED040B14
:101DD00051EC100B40F0D6FE9DED061B53EC112B81
:101DE00041F0DCF853EC1A2B40F0CCFE9DED0A1BC1
:101DF00053EC112B40F0B2FB9DED081B53EC112B63
:101E000041F0CCF89DED0C1B53EC112B40F0A6FBE0
:101E10009DED0E1B53EC112B41F0C0F841EC100B63
:101E200053EC1A2B8DED060B51EC1B0B40F0AAFE68
:101E30008846064648EC100B00E065E153EC182B91
:101E400051EC100B40F09EFE41EC110B53EC1E2B9D
:101E50008DED041B029941EC107B51EC100B40F00E
:101E600091FE41EC110B51EC1F0B8DED021B9DED12
:101E7000000B53EC102B40F085FE53EC1D2B40F073
:101E800081FE41EC110B53EC1A2B8DED081B51EC2C
:101E90001A0B40F077FE53EC1D2B40F073FE41EC23
:101EA000110B53EC1E2B8DED001B0BE0000000000E
:101EB0000000E03F000000000000004000000000C3
:101EC0000000000051EC1A0B40F05CFE41EC1A0BD4
:101ED00053EC182B51EC1F0B40F054FE53EC1A2B13
:101EE00041F05CF853EC192B40F04CFE9DED001BCB
:101EF00053EC112B40F032FB9DED081B53EC112BE2
:101F000041F04CF89DED021B53EC112B40F026FBE9
:101F10009DED041B53EC112B41F040F841EC100BEC
:101F200053EC1D2B8DED040B48EC106B51EC100B9A
:101F300040F028FE41EC110B53EC1E2B8DED001BE5
:101F4000119941EC109B51EC100B40F01BFE41EC41
:101F5000110B53EC182B8DED021B109941EC10ABBB
:101F600051EC100B40F00EFE41EC1A0B53EC1B2B06
:101F700051EC1B0B40F006FE53EC182B40F002FE18
:101F800041EC180B53EC1E2B51EC1B0B40F0FAFDEF
:101F900041EC1B0B53EC1D2B51EC1F0B40F0F2FDE1
:101FA00053EC1B2B40F0FAFF53EC192B40F0EAFDE9
:101FB00053EC182B40F0D2FA53EC1A2B40F0EEFF02
:101FC0009DED021B53EC112B40F0C8FA9DED001B58
:101FD00053EC112B40F0E2FF9DED060B41EC190B89
:101FE00053EC1C2B51EC100B40F074FB41EC180B24
:101FF00053EC1C2B85ED008B9DED040B51EC100B6D
:1020000040F068FB41EC1A0B53EC1C2B85ED02AB46
:1020100051EC190B40F05EFB41EC190B85ED049B74
:1020200094ED100B53EC102B40F0ACFD94ED0E0B27
:1020300041EC1B0B53EC102B51EC1A0B40F0A2FDA2
:1020400094ED0C0B41EC1C0B53EC102B51EC180BCA
:1020500040F098FD53EC1C2B40F080FA53EC1B2B06
:1020600040F07CFA1FED6D1B53EC112B40F08AFD04
:1020700094ED061B94ED000B41EC1B0B53EC112B64
:1020800051EC100B40F06AFA94ED0A1B53EC112B43
:1020900040F064FA53EC1B2B40F080FF94ED301BB2
:1020A00053EC112B40F016FB41EC1B0B53EC192B9E
:1020B00051EC190B40F066FD41EC190B53EC1A2B57
:1020C00051EC1A0B40F05EFD41EC1A0B53EC182B4F
:1020D00051EC180B40F056FD53EC1A2B40F03EFA31
:1020E00053EC192B40F03AFA53EC1B2B40F036FA24
:1020F00041EC100B1BF06CFA8BED000B012013B0C0
:10210000BDEC108BBDE8F08F0020F8E72DE9F04F13
:102110000D462DED108B04468BB091ED00AB53ECCA
:102120001A2B51EC1A0B40F02DFD94ED0CCB53EC17
:102130001C2B40F027FD53EC1C2B40F023FD94EDAD
:1021400030FB41EC180B53EC1A2B51EC1F0B40F0F9
:1021500019FD8B464BEC100B074653EC1A2B51EC38
:10216000100B40F00FFD94ED00EB53EC1E2B40F0F4
:1021700009FD53EC182B40F011FF41EC190B53EC07
:102180001E2B51EC1A0B40F0FDFC53EC1C2B40F0C5
:10219000F9FC4BEC107B94ED121B41EC180B53EC4B
:1021A000112B51EC100B40F0EDFC53EC192B40F0CF
:1021B0001DFE53EC182B40F0D1F941EC1B0B1FED29
:1021C000C30B51EC1A0B53EC102B40F0DBFC89468F
:1021D00049EC100B95ED029B064653EC192B51EC84
:1021E000100B40F0CFFC53EC1C2B40F0CBFC94EDDB
:1021F0000EDB53EC1D2B40F0C5FC41EC180B1FED22
:10220000D30B51EC1F0B53EC102B40F0BBFC824660
:1022100053EC1A2B069140F0B5FC53EC192B40F00F
:10222000B1FC94ED021B53EC112B40F0ABFC53ECD2
:102230001B2B40F093F953EC182B40F0AFFE41EC10
:10224000180B53EC1C2B51EC1A0B40F09BFC049127
:1022500094ED06BB804653EC1B2B40F093FC41EC05
:10226000110B4BEC107B8DED001B94ED141B51EC0E
:10227000100B53EC112B40F085FC53EC182B40F065
:10228000B5FD9DED001B53EC112B40F067F941ECBF
:10229000110B49EC106B8DED001B95ED048B51EC8F
:1022A000100B53EC182B40F06DFC53EC1C2B40F042
:1022B00069FC94ED10CB53EC1C2B40F063FC41EC1B
:1022C000110B53EC1A2B8DED021B069941EC10AB50
:1022D00051EC100B40F056FC53EC182B40F052FC24
:1022E00094ED041B53EC112B40F04CFC9DED001BB6
:1022F00053EC112B40F032F99DED021B53EC112BE6
:1023000040F04CFE41EC100B8DED000B049994ED68
:102310000AAB41EC108B53EC1A2B51EC100B40F034
:1023200031FC41EC110B4BEC107B8DED021B94ED5D
:10233000161B51EC100B53EC112B40F023FC9DEDC0
:10234000001B53EC112B40F051FD9DED021B53EC93
:10235000112B40F003F941EC110B8DED001B9FEDAB
:10236000FE0B51EC1E0B53EC102B40F00BFC53EC0E
:102370001E2B40F007FC41EC110B8DED021B9FED75
:10238000F60B51EC1F0B53EC102B40F0FBFB0591AF
:1023900094ED241B814653EC112B40F0F3FB9DED93
:1023A000001B53EC112B40F0D9F89DED021B53ECB0
:1023B000112B40F0F3FD41EC110B53EC1E2B8DED76
:1023C000001B51EC190B40F0DDFB53EC1D2B40F0D2
:1023D000D9FB41EC110B53EC192B8DED081B51EC83
:1023E0001F0B40F0CFFB039194ED181B064653ECF6
:1023F000112B40F0C7FB9DED001B53EC112B40F05F
:10240000F5FC9DED081B53EC112B40F0A7F841ECB7
:10241000110B8DED001B9FEDD20B51EC1E0B53ECFD
:10242000102B40F0AFFB8B464BEC100B054653ECEA
:102430001B2B51EC100B40F0A5FB41EC110B8DED6B
:10244000081B9FEDC70B51EC1F0B53EC102B40F0FA
:1024500099FB049194ED2A1B804653EC112B40F01C
:1024600091FB9DED001B53EC112B40F077F89DED97
:10247000081B53EC112B40F091FD41EC110B53EC78
:102480001E2B8DED001B51EC180B40F07BFB53EC29
:102490001C2B40F077FB41EC1E0B53EC182B51EC3E
:1024A0001F0B40F06FFB029194ED1E1B074653EC8F
:1024B000112B40F067FB9DED001B53EC112B40F0FE
:1024C00095FC53EC1E2B40F049F84BEC105B41ECB3
:1024D0001F0B53EC1A2B51EC100B40F053FB41EC4B
:1024E0001E0B049994ED2C1B41EC108B53EC112B1B
:1024F00051EC100B40F046FB53EC1F2B40F02EF834
:1025000053EC1E2B40F04AFD41EC1F0B53EC192BF2
:1025100051EC190B40F036FB53EC1D2B40F032FB15
:1025200053EC1D2B40F02EFB41EC1E0B039953EC9A
:10253000192B41EC106B51EC100B40F023FB53ECCA
:102540001B2B40F01FFB53EC1F2B40F007F853EC04
:102550001E2B40F023FD41EC1F0B53EC1B2B51ECC9
:10256000190B40F00FFB53EC1D2B40F00BFB41EC23
:102570001E0B039994ED1A1B41EC106B53EC112BBD
:1025800051EC100B40F0FEFA53EC1F2B40F02EFCE8
:1025900053EC1E2B3FF0E2FF41EC1F0B9FED720B43
:1025A00051EC190B53EC102B40F0ECFA53EC182BB8
:1025B00040F0E8FA53EC1D2B40F0E4FA53EC1C2BEE
:1025C00040F0E0FA41EC1E0B069953EC192B41EC5C
:1025D00010AB51EC100B40F0D5FA53EC182B40F037
:1025E000D1FA94ED081B53EC112B40F0CBFA53ECCD
:1025F0001F2B3FF0B3FF53EC1E2B40F0CFFC41EC00
:102600001E0B53EC1D2B51EC190B40F0BBFA53EC95
:102610001A2B40F0B7FA41EC190B039994ED1C1BEF
:1026200041EC106B53EC112B51EC100B40F0AAFA5B
:1026300053EC1E2B40F0DAFB53EC192B3FF08EFFCE
:1026400041EC1D0B9FED44EB51EC1B0B53EC1E2B8F
:1026500040F098FA53EC1B2B40F094FA41EC190B24
:10266000059994ED261B41EC109B53EC112B51EC7A
:10267000100B40F087FA53EC1D2B3FF06FFF53EC2B
:10268000192B40F08BFC41EC1D0B53EC1B2B51EC38
:10269000180B40F077FA53EC1C2B40F073FA41EC26
:1026A000190B029994ED201B41EC107B53EC112B7C
:1026B00051EC100B40F066FA53EC1D2B40F096FBEA
:1026C00053EC192B3FF04AFF9FED250B41EC190B02
:1026D00053EC102B51EC1B0B40F054FA53EC1A2B1B
:1026E00040F050FA41EC1B0B049994ED2E1B41EC89
:1026F000108B53EC112B51EC100B40F043FA53ECC0
:10270000192B3FF02BFF53EC1B2B40F047FC41EC07
:102710001B0B53EC182B51EC180B40F033FA53EC15
:102720001C2B40F02FFA53EC1C2B40F02BFA41EC01
:10273000190B029953EC182B41EC107B51EC100B48
:1027400040F020FA53EC1A2B40F01CFA53EC1B2BF0
:102750003FF004FF0CE00000000000000000D03F4C
:10276000000000000000E03F00000000000000400A
:1027700053EC192B40F012FC41EC190B53EC1A2BC3
:1027800051EC180B40F0FEF953EC1C2B40F0FAF919
:1027900041EC180B029994ED221B41EC107B53EC99
:1027A000112B51EC100B40F0EDF953EC192B40F0CC
:1027B0001DFB53EC182B3FF0D1FE41EC180B53ECF2
:1027C0001E2B51EC1A0B40F0DDF953EC1A2B40F0A4
:1027D000D9F941EC190B059994ED281B41EC109B9C
:1027E00053EC112B51EC100B40F0CCF953EC182B9F
:1027F0003FF0B4FE53EC192B40F0D0FB41EC100B32
:102800000BB07DE430B50446B0F88C0089B000040C
:102810000690B4F88E000D4600040790B4F89000BE
:1028200088340004089002A82DF082F802990698D6
:102830002B46401A06900399079806AA401A07905B
:1028400004990898401A08902088616A80B22CF098
:102850001BFF09B030BDF0B50D462DED048B87B0E0
:102860006946FFF7CFFF9FEDFE8B00246F469FED7B
:10287000FE9A03AE57F8240000EE100A06EB84001F
:10288000B8EEC00A20EE090A80ED000A20EE000A28
:1028900010EE100A40F06CFC53EC182B3FF05EFE7B
:1028A00041EC180B641C032CE4DBB0EE480AF0EE9C
:1028B000680A1AF08DFEB0EE408AF0EE608A0024BD
:1028C00056F8240040F054FC53EC182B3FF002FF64
:1028D0003FF012FE00EE100A05EB8400641CD0ED00
:1028E000000A032C30EE200A80ED000AE8DB686D58
:1028F000401C68652DF086FAE86707B0BDEC048BD4
:10290000F0BD2DE9F04104462DF0AEF840BB2DF0AE
:102910003BF8042824D0D54920460E46FFF79BFFFC
:10292000D34DD5E95C01814205DB304605F0C5F9A0
:102930000020C5F87401208E4FF00406C00515D59F
:1029400004F118002DF084F88009B0F5C87F0AD290
:10295000D5F8B800002850DD401EC5F8B8004AE0A0
:102960000120BDE8F081C5F8B86044E0D4F8A010BB
:10297000D5F81401081A01D4034600E04342BB4ACB
:102980004FF4A02C583A634505DDD4E9290353657B
:10299000C2E913102FE00312D4F8A470D5F818017F
:1029A0005B43381A01D4864601E0C0F1000EE645CB
:1029B00005DDD4F8A800D164C2E914701BE0001250
:1029C00000FB0033D4F8A800D5F81C11401A01D43C
:1029D000014600E0414261450DDC001200FB003081
:1029E000B0F5403FB4DBA034C5F8B86094E80B0004
:1029F0004C3282E80B000020B3E70220B1E72DE95A
:102A0000F04F9B4C2DED028B93B0D4F8A81090EDB5
:102A1000000B04EBC10181ED000BD4F8A810491C98
:102A2000C4F8A81090ED020B04EBC10181ED000B7E
:102A3000D4F8A810491CC4F8A81090ED040B04EBBE
:102A4000C10080ED000BD4F8A800401CC4F8A80019
:102A5000152802DB0020C4F8A800182284490CA81D
:102A600006F04BF81822824904A806F046F8012621
:102A70000DF1300A0DF1100BA146002406EB4608BB
:102A800008EB040109EBC1050AEBC40795ED001B37
:102A900097ED000B53EC112B51EC100B40F070F93B
:102AA00003D295ED000B87ED000B0BEBC40795ED02
:102AB000001B97ED000B53EC112B51EC100B40F069
:102AC00025F803D295ED000B87ED000B641C032C59
:102AD000D6DB761C072ED0DB9DED0C1B9DED040B89
:102AE00053EC112B51EC100B40F058FA9DED0E1BDE
:102AF0009DED060B41EC180B53EC112B51EC100B18
:102B000040F04CFA53EC182B40F000F80BD39DED3D
:102B10000E1B9DED060B53EC112B51EC100B40F0EE
:102B20003DFA41EC180B9DED101B9DED080B53EC8D
:102B3000112B51EC100B40F031FA53EC182B3FF0F5
:102B4000E5FF0BD39DED101B9DED080B53EC112BF6
:102B500051EC100B40F022FA41EC180B13B0B0EE20
:102B6000480AF0EE680ABDEC028BBDE8F08F10B5A4
:102B700004462DED068B9CB0002155200E91CDE929
:102B80000F1011909FED3B8B0AA82CF09FFE12A90D
:102B90000AA82DF015FA16AA0EA912A82DF033FADC
:102BA0006A460AA916A82DF02EFA0198B2EE059AE7
:102BB00000F5967001900298B0EE490A00F5967003
:102BC0000290039800F596700390FEF78BFBBDEE24
:102BD000C00A019910EE100AB0EE490A08440190AB
:102BE000FEF780FBBDEEC00A029810EE101AB0EEA0
:102BF000490A08440290FEF775FBBDEEC00A03992E
:102C000010EE100A08440390204601A9FEF77DFC4F
:102C100094ED300B9FED191B51EC100B53EC112B65
:102C200040F0AEF85DD21AAA04A92046FEF73FFE96
:102C300060B39DED080B9FED138B51EC100B53EC23
:102C4000182B40F0ABF941EC100B53EC102B3FF07C
:102C500099FF41EC190B9DED060B53EC182B16E078
:102C600000000000000000000000803788E902201A
:102C700068E802200000000000408F4000000000D3
:102C8000000034400000000000C0724029E051EC18
:102C9000100B40F083F941EC100B53EC102B3FF07C
:102CA00071FF9DED040B41EC1A0B53EC182B51EC0A
:102CB000100B40F073F941EC100B53EC102B3FF06C
:102CC00061FF53EC1A2B3FF049FC53EC192B3FF0FA
:102CD00045FC41EC100B1AF07BFCB0EE408AF0EEA4
:102CE000608A9FEDFD0B51EC180B53EC102B3FF05D
:102CF000F1FC1CB041EC100BBDEC068B10BD10B507
:102D0000E821F74805F092FFF648F74920F8BC1F84
:102D10004A0CC280C181828281834284F048E821CA
:102D2000E83005F083FFEF490020C1F8B40010BD82
:102D30002DE9F043EB4D04462DED108BC3B0006B35
:102D4000C5F8A0012046FFF7DCFD00287ED1D5F8AC
:102D5000941105F1BC08012911D1B4F98C003D9002
:102D6000B4F98E003E90B4F990003F903DA9DC4844
:102D7000FEF7CBFB04F18C01404600F0A4FB1FEDF5
:102D800048DB9FEDDABB9FEDDBCB9FEDDCAB9FED2E
:102D9000DDEBD34ED5F80801E83E002802DD401EE9
:102DA000C5F8080196ED300B53EC1D2B51EC100BC0
:102DB0003FF0E6FF7DD2CA49E822E839684605F0CF
:102DC0009CFEC7483DA9E838FEF79FFBC44940AACE
:102DD00020390F46A1F1C800FEF769FD00287BD01D
:102DE000BF483946E838FFF791F9B0EE408AF0EE77
:102DF000608A95ED400B51EC180B53EC102B40F012
:102E0000CDF896ED300B41EC190B53EC1B2B51EC2C
:102E1000100B40F0C3F841EC100B51EC190B53ECC4
:102E2000102B3FF057FC41EC100B1AF0D1FB96ED44
:102E300030FBB0EE409AF0EE609A53EC1B2B51EC55
:102E40001F0B40F0ABF853EC1F2B00E0E9E03FF024
:102E500099FE41EC1F0B53EC1C2B51EC180B3FF06F
:102E600091FE53EC1F2B3FF035FC41EC100B1AF098
:102E7000AFFBD5F8E80040F07BF995ED381B53EC3B
:102E8000112B3FF07FFE53EC192B3FF03FFE03D395
:102E9000D5F80801002826DD9148E8226946E8387F
:102EA00005F02BFED5F8E80040F062F995ED381BEF
:102EB00001E010E010E053EC112B3FF063FE53EC07
:102EC000192B3FF023FE5CD24FF4FA7001F03CFE68
:102ED0000A20C5F8080154E08148E8226946E8382C
:102EE00005F00BFE4DE0D5F89801012849D1D5F841
:102EF000B400401CC5F8B40000202DF037FC96ED5E
:102F0000320B53EC1A2B51EC100B3FF03BFE3FF011
:102F100075FD3A9096ED340B53EC1A2B51EC100BD7
:102F20003FF030FE3FF06AFD3B9096ED360B53ECE0
:102F30001A2B51EC100B3FF025FE3FF05FFD3C904B
:102F400003213AA82DF084FB96ED300B53EC1E2B99
:102F500051EC100B3FF014FF11D29FED6C0A604949
:102F6000E839F0EE400A0846FEF7FFF95C483946BA
:102F7000E838FFF7CBF8B0EE408AF0EE608A85EDD6
:102F8000408B208E564FC0050CD5B4F87400C00598
:102F900008D507F1E800FFF7EAFDB0EE408AF0EE51
:102FA000608A01E09FED4C8B97ED300B1FEDCD1B40
:102FB00051EC100B53EC112B3FF0A8FD31D34849D5
:102FC00040AAC83189464648FEF771FC00287CD0EB
:102FD000D4F8AC003FF06FFD41EC100B53EC102B1C
:102FE0009FED4B0B51EC100B3FF074FB41EC1F0BB2
:102FF0004846FFF704FDB0EE409AF0EE609A53ECBD
:103000001F2B51EC190B3FF0BBFE0BD29FED420B77
:1030100051EC180B53EC102B3FF078FD02D2FFF768
:103020006EFEDBE153EC1F2B51EC190B3FF06EFDF4
:1030300051D251EC180B9FED3A9B53EC192B3FF0FA
:1030400065FDF5D297ED300B9FED371B51EC100B62
:1030500053EC112B3FF094FEEAD296ED300B53EC7B
:103060001D2B51EC100B3FF08DFC7CD149461C48C8
:10307000FFF74CF8B0EE408AF0EE608A85ED408BA9
:1030800097ED309B53EC1B2B51EC190B3FF086FF57
:1030900053EC192B3FF076FD41EC190B53EC1C2B34
:1030A00051EC180B3FF06EFD53EC192B3FF012FB67
:1030B00041EC100B1AF08CFAB0EE408AF0EE608A08
:1030C000D5F8E80040F054F800E088E195ED381BB1
:1030D00053EC112B2CE078E10000000000000840C8
:1030E00098E6022068E802200080FFFF0000000050
:1030F0000000F03F00000000000000400000000061
:103100000000F0400000000000409F406666E63E80
:103110009A9999999999A941000000000000F83FF7
:1031200000000000000010400000000000003E40D1
:103130003FF028FD53EC182B3FF0E8FCFFF46FAF95
:103140009DED400B49464046FDF7C4FF02283FF481
:1031500066AF00287ED1D5F898010128FAD1002069
:103160002DF004FB00E02FE097ED320B53EC1A2B0F
:1031700051EC100B3FF006FD3FF040FC3A9097ED0C
:10318000340B53EC1A2B51EC100B3FF0FBFC3FF0CF
:1031900035FC3B9097ED360B53EC1A2B51EC100B92
:1031A0003FF0F0FC3FF02AFC3C9003213AA82DF0C0
:1031B0004FFA01202DF078FA19200090019002902A
:1031C00068462DF069FAF6E0D5F8B4003FF073FCDC
:1031D00097ED301B53EC112B3FF07CFA9FEDE71B72
:1031E00053EC112B3FF0CCFDA8D34946E548FEF740
:1031F0008DFF97ED30DBB0EE408AF0EE608A53EC45
:103200001B2B51EC1D0B3FF0C9FE53EC1D2B3FF067
:10321000B9FC41EC1B0B53EC1C2B51EC180B3FF091
:10322000B1FC53EC1B2B3FF055FA41EC100B1AF09C
:10323000CFF9B0EE40BAF0EE60BAD5F8E8003FF052
:1032400097FF95ED381B53EC112B3FF09BFC53EC93
:103250001B2B00E087E03FF059FCC5D39DED400BF0
:1032600049464046FDF736FF00287CD196ED361BD7
:1032700097ED360B53EC112B51EC100B3FF08EFEFB
:1032800041EC100B53EC102B3FF07CFC96ED341B03
:1032900097ED340B41EC1B0B53EC112B51EC100B45
:1032A0003FF07CFE41EC100B53EC102B3FF06AFC1E
:1032B00096ED321B97ED320B41EC1C0B53EC112BAE
:1032C00051EC100B3FF06AFE41EC100B53EC102B4D
:1032D0003FF058FC53EC1C2B3FF040F953EC1B2BF8
:1032E0003FF03CF941EC100B1AF072F9B0EE40BA25
:1032F000F0EE60BAD4F8AC003FF0DDFB53EC1B2BD2
:103300003FF040FC9FEDA01B53EC112B3FF03AFC2B
:1033100041EC1B0B53EC192B3FF032FD1AD39FED00
:103320009C0B51EC1B0B53EC102B3FF029FDBFF411
:1033300076AED5F8B4003FF0BEFB97ED301B53ECF2
:10334000112B3FF0C7F99FED941B53EC112B3FF06D
:10335000DDFBECD2D5F8980101287FF460AE0020A7
:103360002DF004FA00E039E085ED408B97ED320B4B
:1033700053EC1A2B51EC100B3FF004FC3FF03EFBDA
:103380003A9097ED340B53EC1A2B51EC100B3FF0A5
:10339000F9FB3FF033FB3B9097ED360B53EC1A2BC8
:1033A00051EC100B3FF0EEFB3FF028FB3C9003216B
:1033B0003AA82DF04DF9F7EE000A9FED790A714910
:1033C000A1F1E800FDF7D1FF29E697ED300B53ECB2
:1033D0001E2B51EC100B3FF0D3FCF5D3002043B073
:1033E000BDEC108BBDE8F08370B56E4C0546D4F88B
:1033F0000C0110B9284600F091F8D5F8B01044F649
:10340000206081420ADAD4F8102111448142C4F8C4
:1034100010114FF0000005DBC4F810012846BDE88C
:10342000704085E470BD04224FF4C871AFF24700CC
:103430002CF0D2BFAFF24F002DF08CBA514810B52E
:10344000E821E83805F0F2FBFFF759FC4FF4D4719E
:10345000544805F0EBFB534CB7EE000A04F59070AE
:1034600084ED3A0A04F075FB0A20C4F87001B2EE4C
:10347000000A84ED570A1E209FED4B0AC4F87C0118
:1034800084ED620A9FED490A84ED610A9FED480AC6
:10349000002084ED630A10BD10B5FFF7CFFF0028B0
:1034A00005D1AFF27D00BDE810402DF01DB810BD74
:1034B00010B5AFF2CB002DF04DFAAFF29500BDE89C
:1034C00010402DF06DBA30B50022C2EBC20331F9C5
:1034D000124030F91350AC420ADD02EB42040D8871
:1034E00020F8245000EB84044D8865808D88A580E9
:1034F00000EB430331F91240B3F906309C4209DA7C
:1035000002EB420300EB83030C88DC804C881C81B7
:103510008C885C81521C032AD7DB30BD70B5214DED
:10352000D0F8AC200446EAB1D3170020192104F0EA
:1035300055FF45F8AC0F54F8AC2F0020D3170521E8
:1035400004F04CFF686022680020D317962104F035
:1035500045FF3FF0B0FAC5E90D01AC3D0120C5F8CB
:103560000C0170BD6FF00040C5F8AC009FED110B71
:10357000C5F8B00085ED380BF0E700000AD7A3705E
:103580003D0AE73F98E60220000000000000103EE0
:103590000000000000000440333333333333C33FB3
:1035A0000000000068E80220CDCCCC3E3333333F2E
:1035B0009A99193F0000C0FFFFFFDF4110B5FF4996
:1035C000C4074FF040434FF0804205D08B66CB6676
:1035D000C1E91C328A67CA67840709D5C1F800317E
:1035E000C1F80431C1E94232C1F81021C1F81421F7
:1035F000400709D5C1F89831C1F89C31C1E968325A
:10360000C1F8A821C1F8AC2110BD2DE9F14F00206F
:1036100082B0824681460298806F00287ED00022C8
:103620000020401C0428FCDB029800EBC203D3E915
:103630000010A1FB0167D3E9065400FB017701FBF1
:103640000077AB46AD1BCDE900670326A5FB06C896
:10365000A64664EB070404FB0684002705FB074528
:10366000DDE900671CEB06047D41A4FB016705FB57
:10367000017504FB0055D3E90C47341B65EB0705C6
:10368000CDE900455D46A5FB05670324A6FB04586C
:103690000EFB0B770BFB0E7707FB04844FF0000C3F
:1036A00006FB0C44D3E91263761B63EB04034C184E
:1036B000A4FB017C40EB000505FB01C504FB0055A4
:1036C000A7FB014C05FB01C507FB0055A4FB017CD2
:1036D00005FB01C504FB0054F6196341DDE9004513
:1036E000AD0045EA9475A400A4FB017C05FB01C173
:1036F00004FB0014F01B73EB040103D500234042CC
:1037000063EB0101BAEB000479EB010301DA8246B5
:103710008946521C032A83DB504600E016E04946E6
:103720003FF080FD00EE900AA54890ED0E1A80EE65
:10373000810A10EE100A3FF01DFEA04AD2F80C22BA
:1037400003B09200BDE8F04F04F035BE002003B096
:103750000146BDE8F08F2DE9F14F0020009A0146A7
:10376000926FE2B300240022521C042AFCDB009A70
:1037700002EBC405AA46D5E90029A2FB023CD5E923
:1037800006769E46FB1A0325A3FB057809FB02CCAF
:1037900002FB09CB66EB0B0606FB05854FF0000C20
:1037A00003FB0C5617EB0E03A3FB027C46EB0B0648
:1037B00006FB02C203FB0923DAE90C25BA1AAB4166
:1037C00003D50025524265EB0303851A71EB03050F
:1037D00001DA10461946641C032CC4DB00E015E036
:1037E0003FF020FD00EE900A754890ED0E1A80EE35
:1037F000810A10EE100A3FF0BDFD704AD2F80C228B
:10380000BDE8F84F02EB420204F0D5BD00200146AE
:10381000BDE8F88F2DE9FE43684D80460024D5F8B9
:1038200010626F4605EBC4013246D1E9020104F093
:10383000AFFD05EB8401B1F884100904401847F886
:10384000240004F10104032CECDB5C4898210830CF
:1038500005F0ECF90120FFF7B1FE95F8E8010199B8
:10386000042807D1D5F81802B0F5201F02DD052085
:1038700085F8E801524C0098636AC11A01D40E46DB
:1038800000E01E1A0198A26A801A01D4074601E0DE
:10389000019FD71BBE4206DD002901D4084606E081
:1038A0000098181A03E0002801D50198101A029A0E
:1038B000E16A521A01D4134601E0029BCB1A8342FB
:1038C00005DB002A01D4104601E00298081AD8F856
:1038D00024102CF03CFBD5F81812814206DD0321A0
:1038E00068462CF089FF02202CF0D8FF0098606217
:1038F0000198A0620298E062BDE8FE83304AC2E906
:10390000020170472E4AC2E9060170472C4AC2E9FB
:1039100004017047294AD2F8E0310360D2E9740209
:10392000C1E900027047254AD2F8E0310360D2E9CC
:103930007602C1E9000270472DE9FE47814600206A
:10394000EA468A6F22B901EB800339F91020DA6761
:1039500001EB800239F91030D46F1D1B4AF820505A
:10396000136E9D4200DD1566D36E9D4200DAD5666A
:103970000123002422464FEAE578A3FB056704FBF8
:10398000057403FB0844334602EB420601EBC6060E
:1039900006EBC00CDCE90076FF186641CCE9007646
:1039A000521C042AE9DB401C0328CADB886F401C38
:1039B00088670120C1F89000BDE8FE8710EA022068
:1039C00070EC022030B5002302EB830550F8234051
:1039D0005B1CEC66032BF7DBC2F88810916F79B1A2
:1039E000002102EB810450F82130E56F5B1B00D50C
:1039F0005B42256E9D4200DA2366491C0329F0DBF9
:103A0000906F401C90670120C2F8900030BD10B547
:103A100000210B4600EB8102491CD46ED46713666B
:103A20000329F7DBD0F8881040F8783FC0E9051388
:103A300010BDD0E92210081A70470146D1E91802DA
:103A4000824200DB1046896E814200DB08467047E7
:103A50002DE9F0478046501E012686408946C2F176
:103A60002007404604F0A7FC04460D464046494660
:103A70003A4604F08DFC3A4604F09DFCB04203DD6A
:103A8000641C45F1000505E07142884202DA641EBB
:103A900045F1FF3520462946BDE8F087F74900206B
:103AA000086248628862C862086448648864C864BE
:103AB000086348638863C863086548658865C865A6
:103AC000704730B5EE4AD2F8483223B1D2E990546B
:103AD0002D1A8C4101DAC2E990015B1CC2F8483210
:103AE00030BD30B5E64AD2F8583223B1D2E9945409
:103AF0002D1A8C4101DAC2E994015B1CC2F85832DC
:103B000030BD30B5DE4AD2F828322BB1D2E9884533
:103B1000041B71EB050401DAC2E988015B1CC2F8E1
:103B2000283230BD30B5D64AD2F838322BB1D2E97E
:103B30008C45041B71EB050401DAC2E98C015B1CA6
:103B4000C2F8383230BD2DE9F0470246CC48012595
:103B500008308046C36E016E046FC91A436E1B1B8A
:103B60008B4200DB1946836ED8F87400181A88421D
:103B700000DB0146C14F6037F86B884204DA00244D
:103B800000F010FA204687E7108E0124BC4EC005D5
:103B90004FF000010ED5D6F880303068834209DB43
:103BA000B2F87420D20506D5D6F8B021824201DBE6
:103BB000052400E00C4674B3600719D5AF48C83837
:103BC0008146FFF722FD000D40EA01300915C6E9E4
:103BD0007601D7E904321B1A8A4102DA0025FFF781
:103BE000A1FF9821484605F021F80420FFF7E6FCE4
:103BF000E0070ED04046FFF708FDC6E97C01D7E993
:103C000006340246181A8C4103DA00251046FFF7E5
:103C100078FF284640E7FFE702203DE71EB504464F
:103C200090F83000C0F38110032804D19449201D7E
:103C30000831FFF781FE94F87400C0F38110032867
:103C400005D18E4904F14800C839FFF775FED4F854
:103C5000B8008B4AC0F38113A0326946032B0FD002
:103C6000C0F3411003281AD1002004EB8003D3F8DD
:103C7000A0309B1341F82030401C0328F5DB09E0FD
:103C8000002004EB4003B3F98C3041F82030401C95
:103C90000328F6DB6846D4F8C010FFF793FE1EBD7C
:103CA0002DE9F04705460020296BCA056AD501F0C9
:103CB0005001402900D1012095F8741001F0500105
:103CC000402900D1012095F8B8106D4C01F0500149
:103CD000402900D030B100F065F90020C4F8E001BF
:103CE00084F8E801654ED4F80812E86A603681422B
:103CF00028D0C4F808020A28306B0CDA4000206093
:103D0000716B00EE100A491CC4F80C12B8EEC00A20
:103D100019F09BFC05E02060706BC4F80C0296ED76
:103D20000E0A84ED850AD4F80C02C0F11000C4F824
:103D300010024FF48040C4F8180296F8341019208D
:103D40008840F0632846FFF769FF94F8E811DFF830
:103D5000309105274FF0020809F1A009072911D277
:103D6000DFE801F0041127305E7E8500D4F8E00121
:103D7000411CC4F8E0110A2804DB00F013F901200B
:103D800084F8E80186E0D4F89800012810D128468C
:103D9000FFF7D9FE10B1012803D004E084F8E871E0
:103DA00001E084F8E8814846FFF731FEFFF776FE30
:103DB00070E0032084F8E8012846FFF72BFD00F0AF
:103DC000F1F867E02846FFF7BEFEE8B3012861D1AD
:103DD000B5F8B8004FF00403C00515D54846FFF705
:103DE0002CFE0146C017C4E97410D6E902C2BCEB30
:103DF0000101824102DA84F8E87108E04846FFF7E1
:103E000018FE316A884202D384F8E83124E0F4E9EC
:103E10007601FFF766FED4E90601FFF752FE39E0AE
:103E2000B5F8B800C0050BD54846FFF706FE0146B9
:103E3000C017C4E97410D6E90232591A824108DB6E
:103E40002846FFF780FE00E003E010B1012803D010
:103E500020E084F8E8711DE02846FFF7DBFCD6E798
:103E6000062084F8E80101202CF018FD0DE028461A
:103E7000FFF769FE012805D038B10BE010EC0220F5
:103E800010EA022084F8E88104E000F08BF848464C
:103E9000FFF7BDFD0020FFE510B500214010002810
:103EA00002D001F10101F9DC4FF0010001F1010143
:103EB00000FA01F0434C00EE100AC4E90C01B8EE20
:103EC000C00A19F0C2FB84ED0E0A94F834101920D0
:103ED0008840E06310BD10B54FF418713A4804F003
:103EE000A5FE4021374804F0A1FE0720FFF766FB3E
:103EF000344840F2DC510022C0E906121421C0E926
:103F000002124FF41671C0E9041230492E4C0162BE
:103F10000120C4F8E4011920FFF7BEFF0020C4F817
:103F2000080210BD10B54FF41871274804F07EFE4A
:103F30000720FFF743FB244801210022C0F8E411C9
:103F400080F8E811032101202CF09EFC0722642157
:103F5000AFF2B320BDE810402CF03EBA10B50120FE
:103F60002CF09CFCAFF2C720BDE810402CF0F2BC56
:103F700010B5FFF7B0FF002805D1AFF25700BDE83C
:103F800010402CF0B1BA10BD10B5FFF7E7FFAFF24B
:103F90006B00BDE810402CF003BD0B49D1E97C015A
:103FA00070477047084810B59821083004F03EFE6D
:103FB0009821074804F03AFEBDE810400520FFF7BD
:103FC000FDBA000070EC022010EA02200008AF2FBA
:103FD00048EB0220F0B516462DED028B85B01F464A
:103FE0000C4605463C22FE49A1F10C0004F0B7FD49
:103FF000FB4950224C31A1F1100004F0B0FDF8490A
:1040000096E80D000C3901F13C0C8CE80D005CCCFD
:1040100001F1980080E85C009FEDF28AD1F824015C
:10402000401CC1F82401062802DD0620C1F8240145
:10403000C0F106060C46A0351AE004EB06116A46EC
:10404000384648312BF0DFFF06EB460004EB8001D9
:104050006A4628462BF0C2FAF0EEC00AB0EEC81A43
:10406000F4EEC10AF1EE10FA01D2B0EE408A761CED
:10407000062EE2DB05B0B0EE480ABDEC028BF0BDC7
:1040800070B514462DED048B0E46B0EE408A002527
:104090009FEDD59A416BF0EE498A002904DBD0F8F8
:1040A000BC00032800D10125CD492422B431081FCA
:1040B00004F055FDCA480C38002380ED388A00EB27
:1040C00083015B1C91ED2F0A0A2B70EE288AF6DB28
:1040D000B2EE040AC822C8EE800AC0ED390A9FED8C
:1040E000C31A322E1DDB9FEDC20AC0F81C21B6F5A3
:1040F0007A7FC8EE001A00EE104AB8EEC00A61EEF0
:10410000801A81EE810A2FDB9FEDBA0AC8EE001AF1
:1041100000EE104AB8EEC00A61EE801A81EE810A04
:1041200022E041F2883194FBF1F14942D0F81C3190
:1041300001EB8101C918C0F81C1102D50021C0F89B
:104140001C119FEDAD0AC8EE001A00EE104AB8EE41
:10415000C00A61EE801A81EE810A29B9D0F82811CF
:10416000012901D1B0EE490AD0F8201109B1B0EE11
:10417000480AA2498C4201D1B0EE480AB5EEC00A05
:10418000F1EE10FA01D0C0ED3A0A90ED3A1A9C4BCC
:1041900071EE600AF0EEE00A10EE901A994227DD07
:1041A000D0ED2E0AF5EEC00AF1EE10FA20D1002D66
:1041B0001ED0C0F81C2120463EF07DFC41EC190BBE
:1041C00018EE100A3EF0D4FF9FED8E1B53EC112B1E
:1041D0003EF080FA53EC192B3EF0D4FC9FED8B1B84
:1041E00053EC112B3EF076FA3EF086F900EE100A01
:1041F000BDEC048B70BD2DE9F04F04462DED048B12
:10420000A9B09FED799A4FF0000A754ECDF810A035
:104210000C3ECDF814A0CDF818A0D6F8201102203D
:1042200003297DD000209FED7B8A20AD06EB800125
:1042300091ED2A0A05EB8001401CB8EEC00A042863
:1042400020EE080A81ED000AF0DB0FA82BF03EFB00
:1042500024A82BF09FFB624B24AA9C330FA9204675
:104260002793FFF7B7FEF0EE408A04F118002BF019
:10427000EFFB81096148D6F83021824200DB02461B
:10428000B0EE680A2046FFF7FBFED6ED3B0AB346C8
:104290000BA820EE200A86ED2E0A2BF017FB13A99F
:1042A0000BA82CF02BF84E480FAAF0300BA90646AD
:1042B0002BF0A9FE31460BA82BF082FE00210DF158
:1042C0003C080DF14C090DF1100E0022134610466A
:1042D00001EB410C0CEB000759F8276008EB800755
:1042E000401C7F680328C6FB0723F3DB900F40EADE
:1042F00083004EF82100491C0329E6DBDBF820018E
:104300005E4600286AD05046CDF818A0404200EE24
:10431000100AB8EEC00A20EE080A17F039FB00E0D8
:10432000A2E08DED000A8DED019A8DED029A0698BE
:10433000404200EE100AB8EEC00A20EE080A19F05A
:104340007FF88DED030A9DED060ADFED330AD6F8FE
:104350003001B8EEC00A41F2883190FBF1F080EEF6
:10436000201A00EE100AF8EEC01A81EE210AB0EE13
:10437000001AC0EE011ABDEEE10A10EE101A490053
:1043800000EE101A0691B8EEC00A60EE200A00EEA8
:10439000100AB8EEC00A20EE800ABDEEC00A8DED0C
:1043A000060AB8EEC00A20EE080A17F0F1FA8DED01
:1043B000070A8DED089A8DED099A9DED060AB8EE73
:1043C000C00A20EE080A19F03BF88DED0A0A1CAA73
:1043D000694620A82BF06FFE6A461FE04BE0000004
:1043E000BCEC0220002474490000000000409C4501
:1043F00000004843000048420000C84340420F000C
:104400000E2DB23D000000000000794000000000C9
:104410000088B34000008030E102374707A91CA89C
:104420002BF049FE6F46DFED958AD4F8BC000028DA
:1044300013DD002007EB800191ED000A05EB800100
:1044400081ED000A20EE280A06EB8001401C0428BA
:10445000BDEEC00A81ED2A0AECDBD4F8BC00F6EE12
:10446000009A03280CD108E0C6F8200129B0BDEC61
:10447000048BBDE8F08F069848E700F03DFEE0B3FE
:1044800096ED2A0AB8EEC00A20EE080A8DED1C0A45
:1044900096ED2B0AB8EEC00A20EE080A8DED1D0A33
:1044A00096ED2C0AB8EEC00A20EE080A8DED1E0A21
:1044B00096ED2D0AB8EEC00A20EE080A8DED1F0A0F
:1044C000D6F820010028D1D096ED2E0A20EE290A38
:1044D00017F05EFA20EE280ABDEEC00A86ED2A0A21
:1044E000C6F8ACA0C6F8B0A096ED2E0A20EE290AB8
:1044F00018F0A6FF20EE280A00E004E0BDEEC00A96
:1045000086ED2D0A2BE096ED2E0A20EE290A17F0F3
:104510003FFA8DED070A8DED089A8DED099A96ED1B
:104520002E0A20EE290A18F08BFF8DED0A0A6A4642
:1045300007A920A82BF0BFFD68462BF067FE0020DE
:1045400007EB800191ED000A06EB8001401C20EE94
:10455000280A0428BDEEC00A81ED2A0AF0DBD4F84F
:10456000C01027982CF0A6F8D6F820010028AAD071
:10457000401E79E770B590F8B810414ACC064FF06C
:1045800000034FF0030101D4C2E94813B0F8204101
:10459000E40509D4048EE40503D5B0F87440E405BD
:1045A00002D4C2E948131AE0D2F8341139B1D0E983
:1045B0003013C91A4FF47A73B1FBF3F105E0D0F868
:1045C000B01044F62064A14202DBC2F830110AE0C8
:1045D000D2F82C512944C2F82C11A14201DA002052
:1045E00070BDC2E94B31FFF706FEF8E710B54FF496
:1045F0009C71234804F01AFB214C4FF080400021AD
:10460000C4F8FC0044F8A80F1D48A8302CF052F85C
:104610004FF47A70B7EE000A606784ED110A10BD9E
:10462000174880ED3B0A002070471549C1F8280162
:10463000002070471249C1F834010020704704225D
:104640004FF41671AFF2D3002BF0C6BEAFF2DB0011
:104650002CF080B910B5FFF7C9FF09490020C1F857
:104660002801C1F83401AFF22900BDE810402BF059
:104670003BBFAFF235002CF093B900000000804E34
:10468000B0EC02201FB501461022684604F0AEF9D6
:10469000F7489DE80E0080E80E00F6499DF80C00F2
:1046A00081F8B001002004B010BD1FB5F0490EC95B
:1046B0008DE80E00EF49102291F8B0118DF80C1022
:1046C000694604F093F90020EDE72DE9F04F91B031
:1046D00000251821684604F0A9FA0024182106A82C
:1046E00004F0A4FAE348A046C14690F8C01101299D
:1046F0007ED1D0F8B8B1D0F8B4A10022C2EBC2008C
:1047000000EB4001DB4800EB810E9EF850000F905B
:10471000002864D000215FE0DDE900076D1C5EF831
:1047200021300E93181847EBE376CDE900060EEB27
:104730008100EDB243690D93DDE9027C4FEAE37637
:10474000DB1946EB0C06CDE90236836ADDE9047C11
:10475000DE170C93DB1946EB0C06CDE90436C06B73
:104760000E9BDDE9067C83FB0063360C46EA0346BC
:10477000F6194CEB2343CDE906630D9BDDE9087C7C
:1047800083FB00634FEA164646EA0346F6194CEBF4
:104790002343CDE908630C9BDDE90A7C83FB0063BE
:1047A0004FEA164646EA0346F6194CEB2343CDE999
:1047B0000A6380FB00634FEA164646EA034616EB9F
:1047C000080849EB23490444584501DA834602E0CE
:1047D000504500DD8246491C0F9888429CDC521CE3
:1047E000052A8BDBA348AAEB0B01D0F8BC0100E043
:1047F00056E0814254DBA5FB0823E0170026109009
:1048000006FB083005FB0900CDE90C2084FB0420E1
:10481000110C41EA00410014CDE90E0106A800EB9D
:10482000C601D1E90003A0FB05B203FB052200216C
:1048300000FB012C684600EBC601D1E90001A0FB9A
:10484000043701FB0471109A00FB0210190C41EAB5
:1048500000490CAA4FEA204A92E889000F9983EA9E
:10486000070880EA010252EA080212D0421A63EBFA
:104870000703BBEB09006CEB0A0C4FEA0C4141EA61
:104880001041000403F0AAFD7A4901EB8601C1F84A
:10489000A401761C032EC1DB7648012180F8B011FB
:1048A00011B00020BDE8F08FF8B5724D0E460446F9
:1048B000D5E96D01091A052291FBF2F1301A90FB3E
:1048C000F1F0C0B28DF80000042801D92020F8BD15
:1048D000C0EBC00000EB400005EB800191F85000F8
:1048E000052816D0421C81F850209DF80010C1EB1D
:1048F000C10101EB410105EB810202EB8001CE63B6
:10490000236842F8203060684861A068886200200F
:10491000F8BD01F14003181F1022194604F01FF9D9
:104920009DF800001022C0EBC00000EB400005EB3A
:104930008000011D04F013F99DF800001022C0EB67
:10494000C00000EB400005EB800000F118011430BE
:1049500004F005F99DF800001022C0EBC00000EB48
:10496000400005EB800000F12C01283004F0F7F83E
:104970000420BAE730B585B0044603A968462BF099
:1049800041F804A82BF0F0F802282BD0D4F8E4006A
:104990000399401A374991F8B02112B308B3D1F8FE
:1049A000A421009C80FB0232150445EA13422244F4
:1049B0000092D1F8A821019C80FB0232150445EA3F
:1049C000134222440192D1F8AC11029A80FB0110EB
:1049D000030443EA114010440290032168462BF07F
:1049E0000BFF0CE0606B032809D12BF01DF830B1F0
:1049F00068460399FFF758FF08B9FFF766FE05B050
:104A0000002030BD10B54FF4E2711A4804F00EF9E1
:104A100018481949C0F8B4114FF4AA01C0F8B811E8
:104A20004FF4A021C0F8BC11012180F8C011002072
:104A300010BD1049C1F8B801002070470D49C1F8F8
:104A4000B401002070470B49C1F8BC010020704739
:104A500058B10849D1F8A4210260D1F8A8214260D8
:104A6000D1F8AC118160002070470520704700002C
:104A70008CEF0220E8ED02200000D8FF2420F5E7AB
:104A800020B12D4981F8C0010020EFE72420EDE797
:104A9000294B93F8B1010028E8D0D3E96D10401AF2
:104AA000052190FBF1F00020C0EBC00101EB4101BA
:104AB00003EB810191F8502022B1002100E0491C54
:104AC0008A42FCDC401C0528EEDB0020CEE70822F1
:104AD00096211A482BF080BC18482BF03BBF10B52C
:104AE000FFF790FF4FF49A731022154915482BF0E9
:104AF000C7FC20B9AFF229002BF0F6FC08B1012069
:104B000010BD0D49012081F8B101002010BD10B584
:104B1000094C94F8B101002808D008482BF01AFF7E
:104B2000AFF255002BF03CFF08B1012010BD002072
:104B300084F8B10110BD0000E8ED022075490008BD
:104B4000AB46000885460008002803DDFE49012227
:104B5000C1E920020020704710B5B821FA4804F0DE
:104B600065F89FEDFA0AF84880ED030A9FEDF80A10
:104B700080ED020A9FEDF70A4FF0804180ED000AB8
:104B8000B3EE0E0A80ED010A41664FF4FA619FED23
:104B9000F20AC16780ED270A002010BD70B5EA4C0B
:104BA000002594ED001AB4EEC01AF1EE10FA17D3F6
:104BB00094ED011AB4EEC01AF1EE10FA10DC20697F
:104BC000012817D194ED030AB4EEE00AF1EE10FAD1
:104BD00006D394ED020AB4EEE00AF1EE10FA09DD14
:104BE000606F20B9D848A16D18302BF063FD01200B
:104BF000C4E91D05D4E91E01884204DB606F012869
:104C000000D1E565656770BD10B504462DED028BDA
:104C1000B0EE408A2AF064FECB49002220B918EE9B
:104C2000100ACE4B984202DD0A614A6102E008692F
:104C3000002808D1486920444861B0F5FA7F02DDB8
:104C40000120C1E90402BDEC028B10BDF0B58DB0AE
:104C50000D461446064669462BF050FB09AA31461C
:104C600028462BF0D0F9294630462BF0A9F900212F
:104C7000EC460DF1240E00231A46184601EB4107BD
:104C80003D180EEB80065CF825507668401CC5FB8D
:104C900006320328F4DB980F40EA820044F8210032
:104CA000491C0329E7DB0DB0F0BDA7490020C1F87E
:104CB0008C00704710B590ED000AD0ED010AB8EEF7
:104CC000C00AB8EEE01AF8EEE00A20EE000A01EEA3
:104CD000200AD0ED020AB8EEE01AF8EEE00A01EE82
:104CE000200A18F0B2FCDFED9E0A20EE200A10BD6B
:104CF00000229549012330B1012810D0C1F8983025
:104D000041F88C2F31E081ED280A81ED290A9FEDD1
:104D1000950A81ED2A0AE1E924328A607047D1EDD3
:104D2000280A91ED271A70EE600AF0EEE00AF4EE20
:104D3000C10AF1EE10FA16D2D1F89400401CC1F865
:104D40009400D1ED290A312830EE800A81ED290A3C
:104D5000E4DD0220DFED840AC1F8900080EE201A25
:104D600081ED2A1A704741F8902F4A6070472DE96B
:104D7000F04798462DED088B8AB017468A460446C0
:104D80009FED788A0025704E039504950595D6F819
:104D9000880000287DD02AF053FE10B103A82AF025
:104DA00023FED6F880004FF00109002817DDC6F871
:104DB00084902AF045FE48B103A82AF049FE8009F4
:104DC000B0F5C87F02D2D6F8800004E0D6F88000A3
:104DD000001BC6F88000002801DCC6F884502BF0C8
:104DE00011F8002855D000209FED5D9A57F820104B
:104DF00000EE101A58F82010401CB8EEC00A032824
:104E000060EE090A00EE101AB8EEC00A20EE800A21
:104E100000EE098AEADB3846FFF74CFFF0EE408AE5
:104E20004FF07E5788EE280AF7EE00AA10EE100A1F
:104E3000B84201DDB0EE6A0A10EE100ADFF82C81EC
:104E4000BFEE00BA404501D9B0EE4B0A16F06AFB3E
:104E5000D6F88C00B0EE40AA98B196ED000AB4EEF8
:104E6000E80AF1EE10FA0CDD96ED010AB4EEE80A5C
:104E7000F1EE10FA05D2B0EE4A0AD6F89000FFF72C
:104E800037FF68462AF05AFE2F490C22AC3168469B
:104E900000E0E2E003F0E4FC18B9D6F8980001283D
:104EA0006BD129489DE80E00AC3080E80E000098D8
:104EB00018B9019808B90298F0B36846FFF7FAFEEE
:104EC000B0EE408AB5EEC08AF1EE10FA55D0F2EE9F
:104ED000049A38EE690A20EE000A18F0B6FB86ED57
:104EE000010A38EE290A20EE000A18F0AEFB86ED22
:104EF000000A9DED020AB8EEC00A60EE090AB0EEA3
:104F0000480A80EE808A18EE100AB84201DDB0EE41
:104F10006A8A18EE100A404501D9B0EE4B8AB0EE0D
:104F2000480A16F0FFFAD6ED270A30EE600A86ED41
:104F3000020AB0EE480A00E024E016F0F3FAD6EDDB
:104F4000270A30EE200A14E0ACEF02200000B44241
:104F50000000B4C2000070427B142E3E00401C468C
:104F6000000080370000000000004842000080BFC1
:104F700003E086ED030AC6F88C50DFF88481F16DFA
:104F800021B32FE01FED0D0A86ED000AB3EE0E0AE5
:104F900086ED010AD6F89800012808D01FED140A02
:104FA00086ED020A1FED170A86ED030AE5E796ED86
:104FB0002A0A96ED271A70EE410A30EE010AC6ED74
:104FC000020A86ED030AC6F89850D6E70027C6F80D
:104FD0005C9006EB0710414618302AF0B3FC7F1CAA
:104FE000042FF6DB464906AA0C310F465046FFF760
:104FF0002DFE394650462AF0E3FF03A82AF028FD8B
:1050000000EE100ADFED3F0A2046B8EE400A20EE1F
:10501000200AFFF7F9FDF0EE4A0AB0EE680AFFF742
:10502000BDFDD6E91E01884201DA2044B067706FE9
:1050300090B9306E20443066B0F57A7F0CDD30498F
:1050400030223039A1F11000356603F088FD2C487C
:10505000414610382AF076FC706F0AB0BDEC088B20
:10506000BDE8F08770B588B0044604A82AF092FC29
:10507000D4E93001451A68462AF028FC064604ABFC
:1050800004F1A00269462846FFF771FE2BF022FBCF
:1050900008B0304670BD04224FF49671AFF23B0069
:1050A0002BF09AB9AFF243002BF054BC10B5FFF7C8
:1050B00053FD00280DD1124800215838C0F88C103B
:1050C0000121C0F88810AFF23100BDE810402BF08C
:1050D0000BBA10BD10B5AFF273002BF03BFCAFF272
:1050E0007B00BDE810402BF035BC05490120583944
:1050F000C1F88C000020704701485838406F704755
:1051000004F002200000803CF0B51D462DED028B1E
:1051100099B090ED000AD0ED010A1746B8EEC00A2A
:10512000B8EEE01AF8EEE00A0E4620EE000A044659
:1051300001EE200AD0ED020AB8EEE01AF8EEE00A1D
:1051400001EE200A18F081FAF0EEC00A10EE900A83
:10515000B0F18D4F7EDDD6ED000AB8EEE01ADFED3E
:10516000FE0A21EE201A8DED041A96ED011AB8EE12
:10517000C11A21EE201A8DED051A96ED021AB8EE2D
:10518000C11A21EE201A8DED061A96ED031AB8EE1B
:10519000C11A61EE200ACDED070A9FEDF08A10AA30
:1051A0008DED0C8AD4ED000A0CA904A8F8EEE00AF3
:1051B00080EE801A8DED0D1AD4ED010AF8EEE00AAA
:1051C00080EE801A8DED0E1AD4ED020AF8EEE00A98
:1051D00080EE801A8DED0F1A2AF06DFF14A904A835
:1051E0002AF0FAFE6A4614A910A82AF064FF9DED81
:1051F000021ADDED010ADA4921EE010A00EEA00AE9
:1052000010EE100A884202DA9FEDD60A11E010EE85
:10521000100AD549884202DA9FEDD40A09E010EE5F
:10522000100AD349884202DAB5EE000A01E09FED88
:10523000D10A01EE907AB8EEE12ADFEDCF2A8DEDAA
:10524000088AC2EE221A21EE800A21EE001A8DEDA4
:10525000091A00E038E020EEC00A6A4604A98DED84
:105260000A0A8DED0B8A08A82AF025FF6A4604A9D0
:1052700010462AF084FE68462AF086FFDDED000A1B
:105280009FEDBE0A60EE800AFDEEE00AC5ED000A61
:10529000DDED010A60EE800AFDEEE00AC5ED010ACF
:1052A000DDED020A60EE800AFDEEE00AC5ED020ABD
:1052B000DDED030A20EE800ABDEEC00A85ED030A8B
:1052C00019B0BDEC028BF0BD96E80F0085E80F0029
:1052D000F6E72DE9F0410C462DED068B054690EDE5
:1052E000000AD0ED010AB8EEC00AB8EEE01AF8EEF6
:1052F000E00A20EE000A01EE200AD0ED020AB8EE24
:10530000E01AF8EEE00A01EE200A18F09EF910EE1D
:10531000100A4FF07E5800264FF0804740453FDD91
:10532000D5ED020AB7EE009AF8EEE00AC0EE808AE8
:1053300039EE680A9FED89AAB5EEC00AF1EE10FABF
:1053400001DCB0EE4A0AF6EE009A20EE290A18F0C7
:105350007CF9B0EE408A38EE890AB5EEC00AF1EE6B
:1053600010FA01DCB0EE4A0A20EE290A18F06DF9B5
:10537000F0EE408A95ED000AB8EEC00A60EE000A31
:1053800095ED010AB8EEC01AB8EEC00A41EE000A67
:10539000B0EE600A18F059F910EE100A404503DC2F
:1053A000C4E90076A66025E0DFED740A28EEA01AB5
:1053B000BDEEC11A84ED001A95ED011AF8EEC11A7E
:1053C00081EE801A21EE081A61EE200AFDEEE00A55
:1053D000C4ED010AD5ED000AF8EEE00A80EE801A6D
:1053E00021EE080ADFED660A20EE200ABDEEC00AB3
:1053F00084ED020AE660BDEC068BBDE8F08170B575
:1054000090ED000AD0ED010A0546B8EEC00AB8EEEC
:10541000E01AF8EEE00A0C4620EE000A01EE200A3F
:10542000D0ED020AB8EEE01AF8EEE00A01EE200A2A
:10543000D0ED030AB8EEE01AF8EEE00A01EE200A19
:10544000B5EEC00AF1EE10FA07D84FF080402060A8
:1054500000206060A060C86070BD18F0F6F8B7EE7C
:10546000001AC1EE000A9FED450A20EE800AD5ED34
:10547000000AF8EEE00A60EE800AFDEEE00AC4EDF4
:10548000000AD5ED010AF8EEE00A60EE800AFDEEB2
:10549000E00AC4ED010AD5ED020AF8EEE00A60EE7A
:1054A000800AFDEEE00AC4ED020AD5ED030AF8EE2B
:1054B000E00A20EE800ABDEEC00A84ED030A70BD4A
:1054C00070B5044690F8300088B040067ED5A069DB
:1054D000002801DB014600E041424FF48032002603
:1054E000284D91420BDAE169002900DA49429142E4
:1054F00005DA216A002900DA4942914267DB002877
:1055000000DA40424FF4C80188420BDCE069002811
:1055100000DA4042884205DC206A002800DA404276
:10552000884201DD032000E00220A863696BA06AC5
:10553000814242D0686394ED0A0A9FED131AF8EE97
:10554000C00A80EE810ADFED110A20EE200A10EE7B
:10555000100A3DF00DFE1BE000008030000000004E
:1055600017B75139A69BC43B0AD7233C8FC2753D60
:10557000CDCC4C3ECDCCCC3E0014CD470000804E6F
:10558000000080CE64F00220002474490000004E28
:105590009FEDFA1B53EC112B3DF0F4FA9FEDF91B34
:1055A00053EC112B3DF0EEFA9FEDF81B53EC112B51
:1055B0003DF090F83DF022FA28630496296BA0692B
:1055C0002AF0C5FC0590296BE06901E022E023E0A8
:1055D0002AF0BDFC0690296B206A2AF0B8FC0790DF
:1055E0006A4604A9EB482AF00EFD0098E94A8001BA
:1055F0000090019869468001019002988001029014
:1056000003988001039010462AF0A7FCE149084660
:10561000FFF7F5FE08B070BDAE63FBE770B504465A
:105620002DED048B8EB0D0F82001410676D5D94DF2
:10563000D4F81011D84B2A68891AD4F82C215A436F
:105640008A4201DA032100E00221A963800504F502
:10565000887602D5CF493046B5E0002107A82AF068
:10566000D1F9CC490C223C3107A803F0F9F820B954
:10567000D4F82801A96D88427ED020886B4680B27C
:1056800007AA616A2AF000F89DED000ADDED010A23
:10569000B8EEC00AB8EEE01AF8EEE00A20EE000A12
:1056A00001EE200ADDED020AB8EEE01AF8EEE00A9B
:1056B00001EE200A17F0C9FFB0EE408A9FEDB70A4D
:1056C00068EE000A9FEDB61A80EE810ADFEDB50A9A
:1056D00020EE200AD4ED4A0AF8EEE00A60EE800AD5
:1056E0001FED571A80EE810AF6EE000A20EE209A8E
:1056F000B0EE490A16F04CF9F0EE408AB0EE490AD5
:1057000017F09EFE18EE100A4FF08041884206DA2C
:105710000020C5E912102865686532E055E05FEDAC
:10572000690A68EEA00AFDEEE00AC5ED120A5FED17
:105730006C0A20EE200ADDED000AF8EEE00A60EEC9
:10574000200A80EE881AFDEEC10AC5ED130ADDEDD0
:10575000010AF8EEE00A60EE200A80EE881AFDEEFB
:10576000C10AC5ED140ADDED020AF8EEE00A20EEEA
:10577000200AC0EE080A00E00DE0BDEEE00A85ED6B
:10578000150A07AB93E8070005F13C0383E807001F
:10579000D4F82801A8657F4903AA483130462AF089
:1057A00032FC7C480AAA5C3003A904462AF02BFC90
:1057B000214630462AF004FC03AA0AA975482AF0BB
:1057C00022FC744903A8FFF71AFE0EB0BDEC048B4F
:1057D00070BD1FB5044669466E482AF0F1FB6D4A5C
:1057E0006946203220462AF00EFC6A491DCC103151
:1057F00081E81D001FBD2DE9F0470446654E90F875
:10580000740006F15C0A06F12008012500F0500141
:10581000103692B004F5887904F15C07402906D06F
:1058200094F8200100F0500040280DD01DE03146D2
:105830003846FFF74EFDB4F82001C0050CD551469F
:1058400048462AF0BDFB07E0514648462AF0B8FB1F
:10585000B4F87400C00508D569464E482AF0B0FB7C
:105860004246694630462AF0CEFBB4F82001C00516
:10587000204602D5FFF7D2FE01E0FFF721FE3246B7
:10588000444940462AF0BFFB94F8740040066FD5A7
:10589000208EB4F820110843C0056DD50FAA3946F3
:1058A00030462AF00BFDD4E9172080FB0001C2FB33
:1058B0000201626E374FC2FB02014FF08042801A34
:1058C00071F1020014DB04A82AF0F8F8DDE90420E5
:1058D00080FB0001C2FB0201069AC2FB02014FF0ED
:1058E0008042801A71F1020002DB0420B8630BE0F1
:1058F000B86B042808D041F28832022806D0032869
:1059000004D0012852D009E0002507E0E16E91FBA8
:10591000F2F5012D00DA0125032800D0AD00224860
:105920000024454310980794800229462AF00FFB73
:1059300008900F982946404280022AF008FBCDE9E2
:1059400009040BAA314607A82AF05DFB32460BA9D1
:1059500010462AF002FB31460846FFF750FD694623
:105960000C482AF02DFB4246694630462AF04BFB94
:1059700012B00020BDE8F08720E00000112D445453
:10598000FB21094000000000000070400000000002
:105990000080664064F0022071981C00DB0F4940D3
:1059A0000000344300008037A69BC400E06E90FBEB
:1059B000F2F0012800DA01204500AFE7334619462E
:1059C0003846E26EFFF7A0FBC9E770B50446008ECB
:1059D000C105D4F8200107D4B4F87410C90503D464
:1059E000C10501D4002070BDC0F30120032807D0F9
:1059F0002046FFF700FF2348A16B2AF09BFFF1E749
:105A000004F588711F482EC980E82E00F3E71E4870
:105A10002AF0A0BF1B4810B56C21103803F006F91E
:105A200018484FF080411038016101600162C16384
:105A3000C165002010BD184810B5082213A10068E8
:105A400002F00EFF08B1322010BD1322BDE8104055
:105A5000C8210D482AF0C0BC10B5FFF7DBFF0028B5
:105A600005D1AFF22D00BDE810402AF03DBD10BDBC
:105A700010B505482AF06EFFAFF24500BDE81040B2
:105A80002AF08EBF74F00220CB590008654D504CAF
:105A900020352E3100000000A404002010B5FF487E
:105AA000006819F067F8FE48006819F063F8FD48CF
:105AB000006819F05FF8FC48006819F05BF8FB48D3
:105AC000006819F057F8FA48006819F053F8F948D7
:105AD000006819F04FF810BD10B500244FF40070A5
