:020000040800F2
:1000000038F8022039030008A905010881BA000860
:100010006DFB0008B57F0008C14B0108000000001F
:10002000000000000000000000000000E9230108BB
:10003000ED880008000000001704000839260108B8
:1000400073030008730300087303000873030008B8
:1000500073030008730300087303000873030008A8
:100060007303000873030008730300087303000898
:100070007303000873030008730300087303000888
:100080007303000873030008730300087303000878
:100090007303000873030008730300087303000868
:1000A0007303000873030008730300087303000858
:1000B0007303000873030008730300087303000848
:1000C0007303000873030008730300087303000838
:1000D000730300081136010873030008293601086C
:1000E0007303000873030008730300087303000818
:1000F0007303000873030008730300087303000808
:1001000073030008730300087303000873030008F7
:1001100073030008730300087303000873030008E7
:1001200073030008730300087303000873030008D7
:1001300073030008730300087303000873030008C7
:10014000730300087303000873030008AD17010868
:1001500073030008730300087303000873030008A7
:100160007303000873030008730300087303000897
:100170007303000873030008730300080000000005
:100180007303000873030008730300087303000877
:100190007303000873030008730300087303000867
:1001A00073030008730300087303000800F002F8EB
:1001B00000F0B2F80AA090E8000C82448344AAF14F
:1001C0000107DA4501D100F0A7F8AFF2090EBAE84D
:1001D0000F0013F0010F18BFFB1A43F0010318477B
:1001E00084AD0200A4AD02000A444FF0000C10F8E8
:1001F000013B13F0070408BF10F8014B1D1108BFA5
:1002000010F8015B641E05D010F8016B641E01F844
:10021000016BF9D113F0080F1EBF10F8014BAD1C94
:100220000C1B09D16D1E58BF01F801CBFAD505E0B2
:1002300014F8016B01F8016B6D1EF9D59142D6D30C
:10024000704700000023002400250026103A28BF34
:1002500078C1FBD8520728BF30C148BF0B60704738
:100260006E2906F0D881702905F01186662923F0E1
:100270000682652923F00382672923F00082612921
:1002800023F0FF8103681B0A28BF41F08001692920
:1002900005F04485642905F04185752905F03E8502
:1002A0006F2906F09F84782905F0DD85E92905F09E
:1002B0007185E42905F06E85F52905F06B85EF2938
:1002C00006F09C84F82905F0DC850368DB0928BF6B
:1002D00041F08001632906F0E683732906F0EB8381
:1002E000E32906F06586F32906F06A860020704748
:1002F0001FB523F076F906F08BFC040000200021E6
:1003000022F078FA401C60600020002122F05CFAA4
:10031000E0601FBD10B510BD06F0ECFE1146FFF702
:10032000E7FF1DF091FA06F013FF03B4FFF7F2FFA9
:1003300003BC16F018FB000011488047DFF84400AA
:10034000016841F470010160BFF34F8FDFF838009E
:10035000016821F040410160BFF36F8F0B480047F7
:10036000FEE7FEE7FEE7FEE7FEE7FEE7FEE7FEE765
:10037000FEE7FEE706480749074A084B70470000BA
:100380005D26010888ED00E034EF00E0AD010008D3
:1003900038F2022038F8022038F4022038F4022023
:1003A000EFF3098141B1F1EE101A40F8041D20ED80
:1003B000200A29490A6810607047B0EC200A02C878
:1003C000E1EE101A25490A6810607047EFF31080BB
:1003D00072B6704780F31088704721484FF6FF715E
:1003E0000170002080F309881E48016881F30888A5
:1003F0001D48012101701D484FF08051016062B617
:10040000FEE71A484FF080510160704717484FF0DF
:1004100080510160704772B6EFF3098028B120382F
:1004200080E8F00F0C490968086000B51048804763
:100430005DF804EB0F4810490A7802700648074936
:100440000A680260106890E8F00F203080F3098895
:100450004EF0F40E62B67047BC000020C4000020CD
:1004600022ED00E0F8000020A300002004ED00E0F1
:10047000010F0108A0000020A1000020FE4880ED2F
:100480003A0A70472DE9F047DFF8EC9300262DED8E
:100490000A8B0446B0EE408AF0EE608A8846354604
:1004A0003746D9F8AC0022F09EFC53EC182B22F012
:1004B000C5FC6FD3D9F8B00022F095FC53EC182B93
:1004C00022F0F6FDF5D3B4F90000B4F90610401A95
:1004D00022F089FC53EC182B22F0B0FC00D201264C
:1004E000B4F90E00B4F91410401A22F07CFC53EC5D
:1004F000182B22F0A3FC00D2761CB4F91C00B4F92E
:100500002210401A22F06FFC53EC182B22F096FCBC
:1005100000D2761C9FEDD90B012E3BDC53EC102B47
:1005200051EC180B22F0C6FC8946064649EC180B24
:10053000B4F90000B4F90610401A22F054FC53EC50
:10054000182B22F0B5FD00D20125B4F90E00B4F944
:10055000141049EC186B401A22F045FC53EC182B90
:1005600022F0A6FD00D26D1CB4F91C00B4F92210D3
:1005700049EC186B401A22F036FC53EC182B22F091
:1005800097FD00D26D1C002D05DD0220BDEC0A8B0D
:10059000BDE8F08765E000269FEDBACB06EB460983
:1005A00004EB8905B5F90A0022F01DFC98ED048BD7
:1005B00053EC182B22F08AFE41EC190BB5F904001C
:1005C00022F011FC53EC182B22F080FE53EC192B77
:1005D00022F070FC41EC190BB5F9080022F003FC85
:1005E00098ED028B53EC182B22F070FE41EC1A0BA5
:1005F000B5F9020022F0F7FB53EC182B22F066FE4F
:1006000053EC1A2B22F056FC41EC1A0BB5F90600FC
:1006100022F0E9FB98ED008B53EC182B22F056FEEC
:1006200041EC1B0B34F9290022F0DDFB53EC182BB5
:1006300022F04CFE53EC1B2B22F03CFC53EC1A2B0B
:1006400022F02CF953EC192B22F028F953EC1C2B37
:1006500022F0F4FB00D27F1C761C032E9EDB022FBF
:1006600001DA012092E7002090E788490A684B6888
:10067000D00180EAD20080EA031048608B68520300
:1006800080EAC30382EA5312520282EAD0208B60CE
:100690000860704710B52DED048BF0EE408AFFF72F
:1006A000E4FF00EE100AB8EE400ADFED790A20EE12
:1006B000200A9FED789A20EE090A15F091F8B0EE25
:1006C000408AFFF7D2FF00EE100AB8EE400A20EE93
:1006D000090AB5EEC00AF1EE10FA01D1B7EE000A30
:1006E00010EE100A22F0DCFE41EC100B15F02CF994
:1006F0009FED691B51EC100B53EC112B22F0DAFB30
:1007000022F09AF800EE100A15F005FC20EE280AF7
:1007100020EE080ABDEC048B10BD2DE9F041054622
:100720002DED048BB0EE608AF0EE408A0F4618EE95
:10073000100A22F0B5FE97ED301B53EC112B22F07E
:10074000B9FB41EC190B18EE900A22F0A9FE95EDC9
:10075000301B53EC112B22F0ADFB53EC192B22F084
:100760009DF80024C5E9300118EE100A22F098FE29
:1007700007EBC40898ED001B53EC112B22F09AFBF9
:1007800041EC190B18EE900A22F08AFE05EBC40624
:1007900096ED001B53EC112B22F08CFB53EC192B24
:1007A00022F07CF8C6E9000118EE100A22F078FE6B
:1007B00098ED241B53EC112B22F07CFB41EC190B20
:1007C00018EE900A22F06CFE96ED241B53EC112BD0
:1007D00022F070FB53EC192B22F060F8641CC6E980
:1007E0002401062CC0DB002418EE100A22F058FE6B
:1007F00041EC100B07EBC40090ED121B51EC100BF9
:1008000053EC112B22F056FB41EC190B18EE900A19
:1008100022F046FE05EBC40696ED121B53EC112B9D
:1008200022F048FB53EC192B22F038F8641CC6E97F
:100830001201092CD8DB002418EE100A22F030FE39
:1008400041EC100B07EBC40090ED0C1B51EC100BAE
:1008500053EC112B22F02EFB41EC190B18EE900AF1
:1008600022F01EFE05EBC40696ED0C1B53EC112B7B
:1008700022F020FB14E00000B8E402200000000099
:1008800000000440000000000000000028040020D8
:10089000DB0FC9400000802F00000000000000C0F6
:1008A00053EC192B21F0FAFF641CC6E90C01032C50
:1008B000C2DBBDEC048BBDE8F0812DE9F04F0446AE
:1008C0002DED068B83B00D46086822F08CFA41ECC2
:1008D0001A0B686822F087FA41EC190BA86822F01D
:1008E00082FA41EC180B94ED300B9FEDFE1B51EC9E
:1008F000100B53EC112B21F0D1FFC4E9300194ED22
:100900000C0B53EC1A2B51EC100B21F0C7FFC4E970
:100910000C0194ED0E0B53EC192B51EC100B21F044
:10092000BDFFC4E90E0194ED100B53EC182B51ECF4
:10093000100B21F0B3FFC4E9100153EC1A2B51EC5A
:100940001A0B22F0B7FA029194ED001B064653EC05
:10095000112B21F0A3FFC4E9000153EC192B51EC3A
:100960001A0B22F0A7FA894649EC100B94ED021BF2
:10097000054653EC112B51EC100B21F08FFFC4E90D
:10098000020153EC182B51EC1A0B22F093FA8B4610
:100990004BEC100B94ED041B804653EC112B51ECE7
:1009A000100B21F07BFFC4E9040153EC192B51EC2F
:1009B000190B22F07FFA019194ED061B074653ECC8
:1009C000112B21F06BFFC4E9060153EC182B51ECFD
:1009D000190B22F06FFA009194ED081B824653EC3C
:1009E000112B21F05BFFC4E9080153EC182B51ECEB
:1009F000180B22F05FFA94ED0A1B53EC112B21F037
:100A00004DFFC4E90A01029953EC1A2B41EC106B1B
:100A100051EC100B22F04EFA94ED121B53EC112BFB
:100A200021F03CFF49EC105BC4E9120153EC192B97
:100A300051EC100B22F03EFA94ED141B53EC112BE9
:100A400021F02CFF4BEC108BC4E9140153EC182B54
:100A500051EC100B22F02EFA94ED161B53EC112BD7
:100A600021F01CFF49EC105BC4E9160153EC1A2B72
:100A700051EC100B22F01EFA94ED181B53EC112BC5
:100A800021F00CFFC4E91801019953EC192B41EC3A
:100A9000107B51EC100B22F00DFA94ED1A1B53EC65
:100AA000112B21F0FBFEC4E91A010099554641ECD7
:100AB00010AB0E4653EC182B51EC100B22F0FAF948
:100AC00094ED1C1B53EC112B21F0E8FEC4E91C0132
:100AD00053EC1A2B51EC180B22F0ECF953EC1A2BB7
:100AE00022F0E8F994ED1E1B53EC112B21F0D6FEF9
:100AF00046EC105BC4E91E0153EC192B51EC100BB2
:100B000022F0D8F994ED201B53EC112B21F0C6FEF6
:100B1000C4E9200153EC182B51EC180B22F0CAF950
:100B2000894649EC100B074653EC182B51EC100B7F
:100B300022F0C0F994ED221B53EC112B21F0AEFEF4
:100B4000C4E9220153EC1A2B51EC1A0B22F0B2F932
:100B5000884648EC100B054653EC1A2B51EC100B51
:100B600022F0A8F953EC1A2B22F0A4F994ED241BDF
:100B700053EC112B21F092FEC4E9240153EC192B04
:100B800051EC190B22F096F98A464AEC100B0646F6
:100B900053EC192B51EC100B22F08CF953EC192B60
:100BA00022F088F994ED261B53EC112B21F076FEF0
:100BB00049EC107BC4E9260153EC182B51EC100BC7
:100BC00022F078F953EC182B22F074F994ED281BDD
:100BD00053EC112B21F062FE48EC105BC4E92801B4
:100BE00053EC192B51EC100B22F064F953EC192B38
:100BF00022F060F994ED2A1B53EC112B21F04EFEEC
:100C000048EC105BC4E92A0153EC182B51EC100B93
:100C100022F050F953EC182B22F04CF994ED2C1BD8
:100C200053EC112B21F03AFE4AEC106BC4E92C0175
:100C300053EC182B51EC100B22F03CF953EC182B11
:100C400022F038F994ED2E1B53EC112B21F026FEE7
:100C5000C4E92E0103B0BDEC068BBDE8F08F2DE991
:100C6000F04F93462DED108B0D46044693B090ED5A
:100C70000CEB53EC1E2B51EC1E0B22F01BF994EDE8
:100C8000000B41EC190B8DED080B94ED308B53EC00
:100C9000102B51EC180B22F00DF953EC192B22F00C
:100CA00015FB94ED0EDB41EC1F0B53EC1D2B51ECAF
:100CB0001D0B22F0FFF894ED060B41EC190B8DEDA6
:100CC000060B53EC102B51EC180B22F0F3F853ECFD
:100CD000192B22F0FBFA41EC100B8DED040B94ED77
:100CE00010CB03E0000000000000F03F53EC1C2B91
:100CF00051EC1C0B22F0DEF894ED0A0B41EC190BC1
:100D00008DED020B53EC102B51EC180B22F0D2F8A6
:100D100053EC192B22F0DAFA41EC110B53EC1D2B9A
:100D20008DED001B51EC1E0B22F0C4F894ED020B6C
:100D300041EC190B53EC102B51EC180B22F0BAF8C4
:100D400053EC192B22F0C2FA41EC1B0B53EC1C2B79
:100D500051EC1E0B22F0AEF894ED040B41EC190B94
:100D600053EC102B51EC180B22F0A4F853EC192B78
:100D700022F0ACFA41EC1A0B53EC1C2B51EC1D0B7E
:100D800022F098F894ED080B41EC190B53EC102B62
:100D900051EC180B22F08EF853EC192B22F096FA36
:100DA0009DED020B41EC190B53EC102B51EC1E0B7B
:100DB00022F080F841EC110B51EC180B8DED101B5B
:100DC00094ED160B53EC102B22F074F841EC110B40
:100DD00051EC1E0B8DED0E1B9DED060B53EC102BF5
:100DE00022F068F841EC110B51EC180B8DED0C1B47
:100DF00094ED140B53EC102B22F05CF841EC110B2A
:100E000051EC1E0B8DED0A1B9DED080B53EC102BC6
:100E100022F050F894ED120B41EC1E0B53EC102B0A
:100E200051EC180B22F046F853EC1E2B22F04EFA30
:100E30009DED0A1B53EC112B21F030FD9DED0C1B99
:100E400053EC112B22F042FA9DED0E1B53EC112BAB
:100E500021F024FD9DED101B53EC112B22F036FAEE
:100E60009FEDFE1B53EC112B22F024F89DED020B9D
:100E700041EC1E0B53EC102B51EC1D0B22F01AF819
:100E800041EC110B51EC180B8DED101B94ED1C0B6C
:100E900053EC102B22F00EF841EC110B51EC1D0B12
:100EA0008DED0E1B9DED060B53EC102B22F002F87E
:100EB00041EC110B51EC180B8DED0C1B94ED1A0B42
:100EC00053EC102B21F0F6FF41EC110B51EC1D0BF4
:100ED0008DED0A1B9DED080B53EC102B21F0EAFF62
:100EE00094ED180B41EC1D0B53EC102B51EC180B2F
:100EF00021F0E0FF53EC1D2B22F0E8F99DED0A1BD9
:100F000053EC112B21F0CAFC9DED0C1B53EC112B63
:100F100022F0DCF99DED0E1B53EC112B21F0BEFCF1
:100F20009DED101B53EC112B22F0D0F99FEDCB1B44
:100F300053EC112B21F0BEFF9DED020B41EC1D0B7C
:100F400053EC102B51EC1C0B21F0B4FF41EC110BB6
:100F500051EC180B8DED021B94ED220B53EC102B72
:100F600021F0A8FF41EC110B51EC1C0B8DED0A1B7D
:100F70009DED060B53EC102B21F09CFF41EC110B67
:100F800051EC180B8DED0C1B94ED200B53EC102B3A
:100F900021F090FF41EC110B51EC1C0B8DED061B69
:100FA0009DED080B53EC102B21F084FF94ED1E0BEC
:100FB00041EC1C0B53EC102B51EC180B21F07AFF79
:100FC00053EC1C2B22F082F99DED061B53EC112BE8
:100FD00021F064FC9DED0C1B53EC112B22F076F9F3
:100FE0009DED0A1B53EC112B21F058FC9DED021BCB
:100FF00053EC112B22F06AF99FED981B53EC112B47
:1010000021F058FF9DED040B41EC180B53EC102B15
:1010100051EC1F0B21F04EFF10919DED001B8246FD
:1010200053EC112B21F046FF41EC110B53EC192B23
:101030008DED0A1B51EC1F0B21F03CFF53EC192BDB
:1010400021F038FF41EC110B53EC1A2B8DED081BEE
:101050009DED040B51EC100B21F02CFF814653EC5D
:101060001A2B119121F026FF41EC110B8DED061B7F
:101070009FED7C0B51EC1B0B53EC102B21F01AFF56
:1010800053EC1A2B21F016FF53EC192B21F012FF11
:101090009DED001B41EC1C0B53EC1B2B51EC110B79
:1010A00021F008FF074653EC1B2B029121F002FFB1
:1010B00053EC1C2B22F00AF99DED061B53EC112B6F
:1010C00021F0ECFB9DED081B53EC112B21F0E6FB0E
:1010D0009DED0A1B53EC112B22F0F8F841EC1C0B90
:1010E0009FED620B53EC102B21F0E4FD7DD053EC0F
:1010F000192B51EC1B0B21F0DDFE53EC182B21F0CA
:10110000D9FE41EC110B53EC1D2B8DED0E1B0299FA
:1011100041EC107B51EC100B21F0CCFE41EC110B9B
:101120008DED0C1B9DED000B53EC102B9DED040B76
:1011300051EC100B21F0BEFE53EC1E2B21F0BAFE39
:1011400041EC110B53EC192B8DED081B51EC190BD5
:1011500021F0B0FE53EC1E2B21F0ACFE41EC110B44
:1011600053EC1D2B8DED0A1B51EC190B21F0A2FE47
:1011700041EC110B53EC182B8DED061B9DED040B70
:1011800051EC100B21F096FE9DED061B53EC112B3C
:1011900022F09CF853EC1A2B21F08CFE9DED0A1BDB
:1011A00053EC112B21F07AFB9DED081B53EC112B16
:1011B00022F08CF89DED0C1B53EC112B21F06EFBF3
:1011C0009DED0E1B53EC112B22F080F841EC100B1F
:1011D00053EC1A2B8DED060B51EC1B0B21F06AFE24
:1011E0008846064648EC100B00E065E153EC182BEE
:1011F00051EC100B21F05EFE41EC110B53EC1E2B59
:101200008DED041B029941EC107B51EC100B21F089
:1012100051FE41EC110B51EC1F0B8DED021B9DEDAE
:10122000000B53EC102B21F045FE53EC1D2B21F04D
:1012300041FE41EC110B53EC1A2B8DED081B51ECC8
:101240001A0B21F037FE53EC1D2B21F033FE41EC3D
:10125000110B53EC1E2B8DED001B0BE0000000006A
:101260000000E03F0000000000000040000000001F
:101270000000000051EC1A0B21F01CFE41EC1A0B8F
:1012800053EC182B51EC1F0B21F014FE53EC1A2BCE
:1012900022F01CF853EC192B21F00CFE9DED001BE5
:1012A00053EC112B21F0FAFA9DED081B53EC112B96
:1012B00022F00CF89DED021B53EC112B21F0EEFAFD
:1012C0009DED041B53EC112B22F000F841EC100BA8
:1012D00053EC1D2B8DED040B48EC106B51EC100BF7
:1012E00021F0E8FD41EC110B53EC1E2B8DED001BA2
:1012F000119941EC109B51EC100B21F0DBFD41ECFE
:10130000110B53EC182B8DED021B109941EC10AB17
:1013100051EC100B21F0CEFD41EC1A0B53EC1B2BC2
:1013200051EC1B0B21F0C6FD53EC182B21F0C2FD34
:1013300041EC180B53EC1E2B51EC1B0B21F0BAFDAA
:1013400041EC1B0B53EC1D2B51EC1F0B21F0B2FD9C
:1013500053EC1B2B21F0BAFF53EC192B21F0AAFD03
:1013600053EC182B21F09AFA53EC1A2B21F0AEFF14
:101370009DED021B53EC112B21F090FA9DED001B0B
:1013800053EC112B21F0A2FF9DED060B41EC190B44
:1013900053EC1C2B51EC100B21F034FB41EC180BDF
:1013A00053EC1C2B85ED008B9DED040B51EC100BC9
:1013B00021F028FB41EC1A0B53EC1C2B85ED02AB02
:1013C00051EC190B21F01EFB41EC190B85ED049B30
:1013D00094ED100B53EC102B21F06CFD94ED0E0BE3
:1013E00041EC1B0B53EC102B51EC1A0B21F062FD5E
:1013F00094ED0C0B41EC1C0B53EC102B51EC180B27
:1014000021F058FD53EC1C2B21F048FA53EC1B2B18
:1014100021F044FA1FED6D1B53EC112B21F04AFD16
:1014200094ED061B94ED000B41EC1B0B53EC112BC0
:1014300051EC100B21F032FA94ED0A1B53EC112BF6
:1014400021F02CFA53EC1B2B21F040FF94ED301BC4
:1014500053EC112B21F0D6FA41EC1B0B53EC192B5A
:1014600051EC190B21F026FD41EC190B53EC1A2B12
:1014700051EC1A0B21F01EFD41EC1A0B53EC182B0A
:1014800051EC180B21F016FD53EC1A2B21F006FA43
:1014900053EC192B21F002FA53EC1B2B21F0FEF92F
:1014A00041EC100B14F0FAFC8BED000B012013B093
:1014B000BDEC108BBDE8F08F0020F8E72DE9F04F70
:1014C0000D462DED108B04468BB091ED00AB53EC27
:1014D0001A2B51EC1A0B21F0EDFC94ED0CCB53ECD4
:1014E0001C2B21F0E7FC53EC1C2B21F0E3FC94EDCA
:1014F00030FB41EC180B53EC1A2B51EC1F0B21F075
:10150000D9FC8B464BEC100B074653EC1A2B51ECD5
:10151000100B21F0CFFC94ED00EB53EC1E2B21F0CF
:10152000C9FC53EC182B21F0D1FE41EC190B53EC04
:101530001E2B51EC1A0B21F0BDFC53EC1C2B21F09F
:10154000B9FC4BEC107B94ED121B41EC180B53ECE7
:10155000112B51EC100B21F0ADFC53EC192B21F0A9
:10156000DDFD53EC182B21F099F941EC1B0B1FED1D
:10157000C30B51EC1A0B53EC102B21F09BFC89464A
:1015800049EC100B95ED029B064653EC192B51ECE0
:10159000100B21F08FFC53EC1C2B21F08BFC94EDF5
:1015A0000EDB53EC1D2B21F085FC41EC180B1FEDDD
:1015B000D30B51EC1F0B53EC102B21F07BFC82461C
:1015C00053EC1A2B069121F075FC53EC192B21F0EA
:1015D00071FC94ED021B53EC112B21F06BFC53ECCE
:1015E0001B2B21F05BF953EC182B21F06FFE41EC23
:1015F000180B53EC1C2B51EC1A0B21F05BFC0491E3
:1016000094ED06BB804653EC1B2B21F053FC41ECC0
:10161000110B4BEC107B8DED001B94ED141B51EC6A
:10162000100B53EC112B21F045FC53EC182B21F03F
:1016300075FD9DED001B53EC112B21F02FF941ECB2
:10164000110B49EC106B8DED001B95ED048B51ECEB
:10165000100B53EC182B21F02DFC53EC1C2B21F01C
:1016600029FC94ED10CB53EC1C2B21F023FC41EC16
:10167000110B53EC1A2B8DED021B069941EC10ABAC
:1016800051EC100B21F016FC53EC182B21F012FC3E
:1016900094ED041B53EC112B21F00CFC9DED001B71
:1016A00053EC112B21F0FAF89DED021B53EC112B9A
:1016B00021F00CFE41EC100B8DED000B049994ED24
:1016C0000AAB41EC108B53EC1A2B51EC100B21F0B0
:1016D000F1FB41EC110B4BEC107B8DED021B94EDFB
:1016E000161B51EC100B53EC112B21F0E3FB9DED7D
:1016F000001B53EC112B21F011FD9DED021B53EC4F
:10170000112B21F0CBF841EC110B8DED001B9FED5F
:10171000FE0B51EC1E0B53EC102B21F0CBFB53ECCA
:101720001E2B21F0C7FB41EC110B8DED021B9FED31
:10173000F60B51EC1F0B53EC102B21F0BBFB05916A
:1017400094ED241B814653EC112B21F0B3FB9DED4E
:10175000001B53EC112B21F0A1F89DED021B53EC63
:10176000112B21F0B3FD41EC110B53EC1E2B8DED31
:10177000001B51EC190B21F09DFB53EC1D2B21F0AC
:1017800099FB41EC110B53EC192B8DED081B51EC1F
:101790001F0B21F08FFB039194ED181B064653ECB1
:1017A000112B21F087FB9DED001B53EC112B21F039
:1017B000B5FC9DED081B53EC112B21F06FF841ECAB
:1017C000110B8DED001B9FEDD20B51EC1E0B53EC5A
:1017D000102B21F06FFB8B464BEC100B054653ECA6
:1017E0001B2B51EC100B21F065FB41EC110B8DED27
:1017F000081B9FEDC70B51EC1F0B53EC102B21F076
:1018000059FB049194ED2A1B804653EC112B21F0D7
:1018100051FB9DED001B53EC112B21F03FF89DED8A
:10182000081B53EC112B21F051FD41EC110B53EC33
:101830001E2B8DED001B51EC180B21F03BFB53ECE4
:101840001C2B21F037FB41EC1E0B53EC182B51ECF9
:101850001F0B21F02FFB029194ED1E1B074653EC4A
:10186000112B21F027FB9DED001B53EC112B21F0D8
:1018700055FC53EC1E2B21F011F84BEC105B41ECA6
:101880001F0B53EC1A2B51EC100B21F013FB41EC06
:101890001E0B049994ED2C1B41EC108B53EC112B77
:1018A00051EC100B21F006FB53EC1F2B20F0F6FF40
:1018B00053EC1E2B21F00AFD41EC1F0B53EC192BAE
:1018C00051EC190B21F0F6FA53EC1D2B21F0F2FA32
:1018D00053EC1D2B21F0EEFA41EC1E0B039953EC57
:1018E000192B41EC106B51EC100B21F0E3FA53EC87
:1018F0001B2B21F0DFFA53EC1F2B20F0CFFF53EC12
:101900001E2B21F0E3FC41EC1F0B53EC1B2B51EC85
:10191000190B21F0CFFA53EC1D2B21F0CBFA41EC3F
:101920001E0B039994ED1A1B41EC106B53EC112B19
:1019300051EC100B21F0BEFA53EC1F2B21F0EEFB03
:1019400053EC1E2B20F0AAFF41EC1F0B9FED720BF6
:1019500051EC190B53EC102B21F0ACFA53EC182B73
:1019600021F0A8FA53EC1D2B21F0A4FA53EC1C2B08
:1019700021F0A0FA41EC1E0B069953EC192B41EC17
:1019800010AB51EC100B21F095FA53EC182B21F011
:1019900091FA94ED081B53EC112B21F08BFA53ECC8
:1019A0001F2B20F07BFF53EC1E2B21F08FFC41EC12
:1019B0001E0B53EC1D2B51EC190B21F07BFA53EC51
:1019C0001A2B21F077FA41EC190B039994ED1C1BAB
:1019D00041EC106B53EC112B51EC100B21F06AFA17
:1019E00053EC1E2B21F09AFB53EC192B20F056FFE1
:1019F00041EC1D0B9FED44EB51EC1B0B53EC1E2BEC
:101A000021F058FA53EC1B2B21F054FA41EC190B3E
:101A1000059994ED261B41EC109B53EC112B51ECD6
:101A2000100B21F047FA53EC1D2B20F037FF53EC3D
:101A3000192B21F04BFC41EC1D0B53EC1B2B51ECF3
:101A4000180B21F037FA53EC1C2B21F033FA41EC40
:101A5000190B029994ED201B41EC107B53EC112BD8
:101A600051EC100B21F026FA53EC1D2B21F056FB04
:101A700053EC192B20F012FF9FED250B41EC190BB5
:101A800053EC102B51EC1B0B21F014FA53EC1A2BD6
:101A900021F010FA41EC1B0B049994ED2E1B41EC44
:101AA000108B53EC112B51EC100B21F003FA53EC7B
:101AB000192B20F0F3FE53EC1B2B21F007FC41EC1B
:101AC0001B0B53EC182B51EC180B21F0F3F953ECD2
:101AD0001C2B21F0EFF953EC1C2B21F0EBF941EC1E
:101AE000190B029953EC182B41EC107B51EC100BA5
:101AF00021F0E0F953EC1A2B21F0DCF953EC1B2B0D
:101B000020F0CCFE0CE00000000000000000D03F00
:101B1000000000000000E03F000000000000004066
:101B200053EC192B21F0D2FB41EC190B53EC1A2B7F
:101B300051EC180B21F0BEF953EC1C2B21F0BAF933
:101B400041EC180B029994ED221B41EC107B53ECF5
:101B5000112B51EC100B21F0ADF953EC192B21F0A6
:101B6000DDFA53EC182B20F099FE41EC180B53ECE6
:101B70001E2B51EC1A0B21F09DF953EC1A2B21F07E
:101B800099F941EC190B059994ED281B41EC109B38
:101B900053EC112B51EC100B21F08CF953EC182B5A
:101BA00020F07CFE53EC192B21F090FB41EC100B44
:101BB0000BB07DE430B50446B0F88C0089B0000469
:101BC0000690B4F88E000D4600040790B4F890001B
:101BD00088340004089002A81AF0FCF902990698CB
:101BE0002B46401A06900399079806AA401A0790B8
:101BF00004990898401A08902088616A80B21AF007
:101C000095F809B030BDF0B50D462DED048B87B0C9
:101C10006946FFF7CFFF9FEDFE8B00246F469FEDD7
:101C2000FE9A03AE57F8240000EE100A06EB84007B
:101C3000B8EEC00A20EE090A80ED000A20EE000A84
:101C400010EE100A21F02CFC53EC182B20F026FE8D
:101C500041EC180B641C032CE4DBB0EE480AF0EEF8
:101C6000680A14F01BF9B0EE408AF0EE608A002496
:101C700056F8240021F014FC53EC182B20F0C2FE7F
:101C800020F0DAFD00EE100A05EB8400641CD0EDB4
:101C9000000A032C30EE200A80ED000AE8DB686DB4
:101CA000401C68651AF000FCE86707B0BDEC048BC7
:101CB000F0BD2DE9F04104461AF028FA40BB1AF0B5
:101CC000B5F9042824D0D54920460E46FFF79BFFDE
:101CD000D34DD5E95C01814205DB304603F0E5FBDD
:101CE0000020C5F87401208E4FF00406C00515D5FC
:101CF00004F118001AF0FEF98009B0F5C87F0AD285
:101D0000D5F8B800002850DD401EC5F8B8004AE0FC
:101D10000120BDE8F081C5F8B86044E0D4F8A01017
:101D2000D5F81401081A01D4034600E04342BB4A27
:101D30004FF4A02C583A634505DDD4E929035365D7
:101D4000C2E913102FE00312D4F8A470D5F81801DB
:101D50005B43381A01D4864601E0C0F1000EE64527
:101D600005DDD4F8A800D164C2E914701BE00012AC
:101D700000FB0033D4F8A800D5F81C11401A01D498
:101D8000014600E0414261450DDC001200FB0030DD
:101D9000B0F5403FB4DBA034C5F8B86094E80B0060
:101DA0004C3282E80B000020B3E70220B1E72DE9B6
:101DB000F04F9B4C2DED028B93B0D4F8A81090ED12
:101DC000000B04EBC10181ED000BD4F8A810491CF5
:101DD000C4F8A81090ED020B04EBC10181ED000BDB
:101DE000D4F8A810491CC4F8A81090ED040B04EB1B
:101DF000C10080ED000BD4F8A800401CC4F8A80076
:101E0000152802DB0020C4F8A800182284490CA879
:101E100004F017FA1822824904A804F012FA0126E5
:101E20000DF1300A0DF1100BA146002406EB460817
:101E300008EB040109EBC1050AEBC40795ED001B93
:101E400097ED000B53EC112B51EC100B21F030F9F6
:101E500003D295ED000B87ED000B0BEBC40795ED5E
:101E6000001B97ED000B53EC112B51EC100B20F0E5
:101E7000E5FF03D295ED000B87ED000B641C032CEE
:101E8000D6DB761C072ED0DB9DED0C1B9DED040BE5
:101E900053EC112B51EC100B21F018FA9DED0E1B99
:101EA0009DED060B41EC180B53EC112B51EC100B74
:101EB00021F00CFA53EC182B20F0C0FF0BD39DED52
:101EC0000E1B9DED060B53EC112B51EC100B21F06A
:101ED000FDF941EC180B9DED101B9DED080B53EC2B
:101EE000112B51EC100B21F0F1F953EC182B20F0D1
:101EF000A5FF0BD39DED101B9DED080B53EC112B93
:101F000051EC100B21F0E2F941EC180B13B0B0EEDC
:101F1000480AF0EE680ABDEC028BBDE8F08F10B500
:101F200004462DED068B9CB0002155200E91CDE985
:101F30000F1011909FED3B8B0AA81AF019F812A907
:101F40000AA81AF08FFB16AA0EA912A81AF0ADFB68
:101F50006A460AA916A81AF0A8FB0198B2EE059ADB
:101F600000F5967001900298B0EE490A00F596705F
:101F70000290039800F596700390FEF78BFBBDEE80
:101F8000C00A019910EE100AB0EE490A0844019007
:101F9000FEF780FBBDEEC00A029810EE101AB0EEFC
:101FA000490A08440290FEF775FBBDEEC00A03998A
:101FB00010EE100A08440390204601A9FEF77DFCAC
:101FC00094ED300B9FED191B51EC100B53EC112BC2
:101FD00021F06EF85DD21AAA04A92046FEF73FFE52
:101FE00060B39DED080B9FED138B51EC100B53EC80
:101FF000182B21F06BF941EC100B53EC102B20F057
:1020000059FF41EC190B9DED060B53EC182B16E014
:10201000000000000000000000008037D8E502202A
:10202000B8E402200000000000408F4000000000E3
:10203000000034400000000000C0724029E051EC74
:10204000100B21F043F941EC100B53EC102B20F056
:1020500031FF9DED040B41EC1A0B53EC182B51ECA6
:10206000100B21F033F941EC100B53EC102B20F046
:1020700021FF53EC1A2B20F011FC53EC192B20F00C
:102080000DFC41EC100B13F009FFB0EE408AF0EEAE
:10209000608A9FEDFD0B51EC180B53EC102B20F0D8
:1020A000B1FC1CB041EC100BBDEC068B10BD10B5A3
:1020B000E821F74804F05EF9F648F74920F8BC1F1C
:1020C0004A0CC280C181828281834284F048E82127
:1020D000E83004F04FF9EF490020C1F8B40010BD1A
:1020E0002DE9F043EB4D04462DED108BC3B0006B92
:1020F000C5F8A0012046FFF7DCFD00287ED1D5F809
:10210000941105F1BC08012911D1B4F98C003D905E
:10211000B4F98E003E90B4F990003F903DA9DC48A0
:10212000FEF7CBFB04F18C01404600F0A4FB1FED51
:1021300048DB9FEDDABB9FEDDBCB9FEDDCAB9FED8A
:10214000DDEBD34ED5F80801E83E002802DD401E45
:10215000C5F8080196ED300B53EC1D2B51EC100B1C
:1021600020F0A6FF7DD2CA49E822E839684604F08B
:1021700068F8C7483DA9E838FEF79FFBC44940AA64
:1021800020390F46A1F1C800FEF769FD00287BD079
:10219000BF483946E838FFF791F9B0EE408AF0EED3
:1021A000608A95ED400B51EC180B53EC102B21F08D
:1021B0008DF896ED300B41EC190B53EC1B2B51ECC9
:1021C000100B21F083F841EC100B51EC190B53EC80
:1021D000102B20F017FC41EC100B13F05FFE96ED76
:1021E00030FBB0EE409AF0EE609A53EC1B2B51ECB2
:1021F0001F0B21F06BF853EC1F2B00E0E9E020F0FF
:1022000059FE41EC1F0B53EC1C2B51EC180B20F02A
:1022100051FE53EC1F2B20F0F5FB41EC100B13F09B
:102220003DFED5F8E80021F03BF995ED381B53EC65
:10223000112B20F03FFE53EC192B20F0FFFD03D3B0
:10224000D5F80801002826DD9148E8226946E838DB
:1022500003F0F7FFD5F8E80021F022F995ED381BDF
:1022600001E010E010E053EC112B20F023FE53ECC2
:10227000192B20F0E3FD5CD24FF4FA7001F03CFE24
:102280000A20C5F8080154E08148E8226946E83888
:1022900003F0D7FF4DE0D5F89801012849D1D5F8D2
:1022A000B400401CC5F8B40000201AF0B1FD96ED52
:1022B000320B53EC1A2B51EC100B20F0FBFD20F0ED
:1022C00035FD3A9096ED340B53EC1A2B51EC100B74
:1022D00020F0F0FD20F02AFD3B9096ED360B53ECFC
:1022E0001A2B51EC100B20F0E5FD20F01FFD3C9067
:1022F00003213AA81AF0FEFC96ED300B53EC1E2B8E
:1023000051EC100B20F0D4FE11D29FED6C0A604905
:10231000E839F0EE400A0846FEF7FFF95C48394616
:10232000E838FFF7CBF8B0EE408AF0EE608A85ED32
:10233000408B208E564FC0050CD5B4F87400C005F4
:1023400008D507F1E800FFF7EAFDB0EE408AF0EEAD
:10235000608A01E09FED4C8B97ED300B1FEDCD1B9C
:1023600051EC100B53EC112B20F068FD31D3484990
:1023700040AAC83189464648FEF771FC00287CD047
:10238000D4F8AC0020F02FFD41EC100B53EC102BD7
:102390009FED4B0B51EC100B20F034FB41EC1F0B6D
:1023A0004846FFF704FDB0EE409AF0EE609A53EC19
:1023B0001F2B51EC190B20F07BFE0BD29FED420B33
:1023C00051EC180B53EC102B20F038FD02D2FFF724
:1023D0006EFEDBE153EC1F2B51EC190B20F02EFDB0
:1023E00051D251EC180B9FED3A9B53EC192B20F076
:1023F00025FDF5D297ED300B9FED371B51EC100BFF
:1024000053EC112B20F054FEEAD296ED300B53EC36
:102410001D2B51EC100B20F04DFC7CD149461C4883
:10242000FFF74CF8B0EE408AF0EE608A85ED408B05
:1024300097ED309B53EC1B2B51EC190B20F046FF12
:1024400053EC192B20F036FD41EC190B53EC1C2BEF
:1024500051EC180B20F02EFD53EC192B20F0D2FA82
:1024600041EC100B13F01AFDB0EE408AF0EE608ADA
:10247000D5F8E80021F014F800E088E195ED381B6C
:1024800053EC112B2CE078E1000000000000084024
:10249000E8E20220B8E402200080FFFF0000000014
:1024A0000000F03F000000000000004000000000BD
:1024B0000000F0400000000000409F406666E63EDD
:1024C0009A9999999999A941000000000000F83F54
:1024D00000000000000010400000000000003E402E
:1024E00020F0E8FC53EC182B20F0A8FCFFF46FAFB1
:1024F0009DED400B49464046FDF7C4FF02283FF4DE
:1025000066AF00287ED1D5F898010128FAD10020C5
:102510001AF07EFC00E02FE097ED320B53EC1A2B03
:1025200051EC100B20F0C6FC20F000FC3A9097ED27
:10253000340B53EC1A2B51EC100B20F0BBFC20F0A9
:10254000F5FB3B9097ED360B53EC1A2B51EC100B2F
:1025500020F0B0FC20F0EAFB3C9003213AA81AF0EE
:10256000C9FB01201AF0F2FB1920009001900290A3
:1025700068461AF0E3FBF6E0D5F8B40020F033FC2F
:1025800097ED301B53EC112B20F03CFA9FEDE71B2D
:1025900053EC112B20F08CFDA8D34946E548FEF7FB
:1025A0008DFF97ED30DBB0EE408AF0EE608A53ECA1
:1025B0001B2B51EC1D0B20F089FE53EC1D2B20F042
:1025C00079FC41EC1B0B53EC1C2B51EC180B20F04D
:1025D00071FC53EC1B2B20F015FA41EC100B13F09F
:1025E0005DFCB0EE40BAF0EE60BAD5F8E80020F03D
:1025F00057FF95ED381B53EC112B20F05BFC53EC8F
:102600001B2B00E087E020F019FCC5D39DED400BAB
:1026100049464046FDF736FF00287CD196ED361B33
:1026200097ED360B53EC112B51EC100B20F04EFEB6
:1026300041EC100B53EC102B20F03CFC96ED341BBE
:1026400097ED340B41EC1B0B53EC112B51EC100BA1
:1026500020F03CFE41EC100B53EC102B20F02AFC38
:1026600096ED321B97ED320B41EC1C0B53EC112B0A
:1026700051EC100B20F02AFE41EC100B53EC102B08
:1026800020F018FC53EC1C2B20F008F953EC1B2B0A
:1026900020F004F941EC100B13F000FCB0EE40BA4E
:1026A000F0EE60BAD4F8AC0020F09DFB53EC1B2B8D
:1026B00020F000FC9FEDA01B53EC112B20F0FAFB47
:1026C00041EC1B0B53EC192B20F0F2FC1AD39FEDBD
:1026D0009C0B51EC1B0B53EC102B20F0E9FCBFF4CE
:1026E00076AED5F8B40020F07EFB97ED301B53ECAE
:1026F000112B20F087F99FED941B53EC112B20F048
:102700009DFBECD2D5F8980101287FF460AE002043
:102710001AF07EFB00E039E085ED408B97ED320B3F
:1027200053EC1A2B51EC100B20F0C4FB20F0FEFAF6
:102730003A9097ED340B53EC1A2B51EC100B20F020
:10274000B9FB20F0F3FA3B9097ED360B53EC1A2BC4
:1027500051EC100B20F0AEFB20F0E8FA3C90032186
:102760003AA81AF0C7FAF7EE000A9FED790A714904
:10277000A1F1E800FDF7D1FF29E697ED300B53EC0E
:102780001E2B51EC100B20F093FCF5D3002043B02E
:10279000BDEC108BBDE8F08370B56E4C0546D4F8E7
:1027A0000C0110B9284600F091F8D5F8B01044F6A5
:1027B000206081420ADAD4F8102111448142C4F821
:1027C00010114FF0000005DBC4F810012846BDE8E9
:1027D000704085E470BD04224FF4C871AFF2470029
:1027E0001AF04CB9AFF24F001AF006BC514810B5C0
:1027F000E821E83803F0BEFDFFF759FC4FF4D4712F
:10280000544803F0B7FD534CB7EE000A04F590703E
:1028100084ED3A0A02F095FD0A20C4F87001B2EE88
:10282000000A84ED570A1E209FED4B0AC4F87C0174
:1028300084ED620A9FED490A84ED610A9FED480A22
:10284000002084ED630A10BD10B5FFF7CFFF00280C
:1028500005D1AFF27D00BDE810401AF097B910BD68
:1028600010B5AFF2CB001AF0C7FBAFF29500BDE890
:1028700010401AF0E7BB30B50022C2EBC20331F9B9
:10288000124030F91350AC420ADD02EB42040D88CD
:1028900020F8245000EB84044D8865808D88A58045
:1028A00000EB430331F91240B3F906309C4209DAD8
:1028B00002EB420300EB83030C88DC804C881C8114
:1028C0008C885C81521C032AD7DB30BD70B5214D4A
:1028D000D0F8AC200446EAB1D3170020192103F048
:1028E00075F945F8AC0F54F8AC2F0020D31705212B
:1028F00003F06CF9686022680020D317962103F07A
:1029000065F920F070FAC5E90D01AC3D0120C5F86C
:102910000C0170BD6FF00040C5F8AC009FED110BCD
:10292000C5F8B00085ED380BF0E700000AD7A370BA
:102930003D0AE73FE8E20220000000000000103EF0
:102940000000000000000440333333333333C33F0F
:1029500000000000B8E40220CDCCCC3E3333333F3E
:102960009A99193F0000C0FFFFFFDF4110B5FF49F2
:10297000C4074FF040434FF0804205D08B66CB66D2
:10298000C1E91C328A67CA67840709D5C1F80031DA
:10299000C1F80431C1E94232C1F81021C1F8142153
:1029A000400709D5C1F89831C1F89C31C1E96832B6
:1029B000C1F8A821C1F8AC2110BD2DE9F14F0020CC
:1029C00082B0824681460298806F00287ED0002225
:1029D0000020401C0428FCDB029800EBC203D3E972
:1029E0000010A1FB0167D3E9065400FB017701FB4E
:1029F0000077AB46AD1BCDE900670326A5FB06C8F3
:102A0000A64664EB070404FB0684002705FB074584
:102A1000DDE900671CEB06047D41A4FB016705FBB3
:102A2000017504FB0055D3E90C47341B65EB070522
:102A3000CDE900455D46A5FB05670324A6FB0458C8
:102A40000EFB0B770BFB0E7707FB04844FF0000C9B
:102A500006FB0C44D3E91263761B63EB04034C18AA
:102A6000A4FB017C40EB000505FB01C504FB005500
:102A7000A7FB014C05FB01C507FB0055A4FB017C2E
:102A800005FB01C504FB0054F6196341DDE900456F
:102A9000AD0045EA9475A400A4FB017C05FB01C1CF
:102AA00004FB0014F01B73EB040103D50023404228
:102AB00063EB0101BAEB000479EB010301DA824612
:102AC0008946521C032A83DB504600E016E0494643
:102AD00020F014FD00EE900AA54890ED0E1A80EE4D
:102AE000810A10EE100A20F087FDA04AD2F80C22CD
:102AF00003B09200BDE8F04F03F055B8002003B0DA
:102B00000146BDE8F08F2DE9F14F0020009A014603
:102B1000926FE2B300240022521C042AFCDB009ACC
:102B200002EBC405AA46D5E90029A2FB023CD5E97F
:102B300006769E46FB1A0325A3FB057809FB02CC0B
:102B400002FB09CB66EB0B0606FB05854FF0000C7C
:102B500003FB0C5617EB0E03A3FB027C46EB0B06A4
:102B600006FB02C203FB0923DAE90C25BA1AAB41C2
:102B700003D50025524265EB0303851A71EB03056B
:102B800001DA10461946641C032CC4DB00E015E092
:102B900020F0B4FC00EE900A754890ED0E1A80EE1D
:102BA000810A10EE100A20F027FD704AD2F80C229C
:102BB000BDE8F84F02EB420202F0F5BF00200146EB
:102BC000BDE8F88F2DE9FE43684D80460024D5F816
:102BD00010626F4605EBC4013246D1E9020102F0F2
:102BE000CFFF05EB8401B1F884100904401847F8C1
:102BF000240004F10104032CECDB5C48982108302C
:102C000003F0B8FB0120FFF7B1FE95F8E801019948
:102C1000042807D1D5F81802B0F5201F02DD0520E1
:102C200085F8E801524C0098636AC11A01D40E4637
:102C300000E01E1A0198A26A801A01D4074601E03A
:102C4000019FD71BBE4206DD002901D4084606E0DD
:102C50000098181A03E0002801D50198101A029A6A
:102C6000E16A521A01D4134601E0029BCB1A834257
:102C700005DB002A01D4104601E00298081AD8F8B2
:102C8000241019F0B6FCD5F81812814206DD032194
:102C900068461AF003F902201AF052F900986062AF
:102CA0000198A0620298E062BDE8FE83304AC2E962
:102CB000020170472E4AC2E9060170472C4AC2E958
:102CC00004017047294AD2F8E0310360D2E9740266
:102CD000C1E900027047254AD2F8E0310360D2E929
:102CE0007602C1E9000270472DE9FE4781460020C7
:102CF000EA468A6F22B901EB800339F91020DA67BE
:102D000001EB800239F91030D46F1D1B4AF82050B6
:102D1000136E9D4200DD1566D36E9D4200DAD566C6
:102D20000123002422464FEAE578A3FB056704FB54
:102D3000057403FB0844334602EB420601EBC6066A
:102D400006EBC00CDCE90076FF186641CCE90076A2
:102D5000521C042AE9DB401C0328CADB886F401C94
:102D600088670120C1F89000BDE8FE8760E6022078
:102D7000C0E8022030B5002302EB830550F8234061
:102D80005B1CEC66032BF7DBC2F88810916F79B1FE
:102D9000002102EB810450F82130E56F5B1B00D568
:102DA0005B42256E9D4200DA2366491C0329F0DB55
:102DB000906F401C90670120C2F8900030BD10B5A4
:102DC00000210B4600EB8102491CD46ED4671366C8
:102DD0000329F7DBD0F8881040F8783FC0E90513E5
:102DE00010BDD0E92210081A70470146D1E9180237
:102DF000824200DB1046896E814200DB0846704744
:102E00002DE9F0478046501E012686408946C2F1D2
:102E10002007404602F0C7FE04460D46404649469C
:102E20003A4602F0ADFE3A4602F0BDFEB04203DD86
:102E3000641C45F1000505E07142884202DA641E17
:102E400045F1FF3520462946BDE8F087F7490020C7
:102E5000086248628862C862086448648864C8641A
:102E6000086348638863C863086548658865C86502
:102E7000704730B5EE4AD2F8483223B1D2E99054C7
:102E80002D1A8C4101DAC2E990015B1CC2F848326C
:102E900030BD30B5E64AD2F8583223B1D2E9945465
:102EA0002D1A8C4101DAC2E994015B1CC2F8583238
:102EB00030BD30B5DE4AD2F828322BB1D2E9884590
:102EC000041B71EB050401DAC2E988015B1CC2F83E
:102ED000283230BD30B5D64AD2F838322BB1D2E9DB
:102EE0008C45041B71EB050401DAC2E98C015B1C03
:102EF000C2F8383230BD2DE9F0470246CC480125F2
:102F000008308046C36E016E046FC91A436E1B1BE6
:102F10008B4200DB1946836ED8F87400181A884279
:102F200000DB0146C14F6037F86B884204DA0024A9
:102F300000F010FA204687E7108E0124BC4EC00531
:102F40004FF000010ED5D6F880303068834209DB9F
:102F5000B2F87420D20506D5D6F8B021824201DB42
:102F6000052400E00C4674B3600719D5AF48C83893
:102F70008146FFF722FD000D40EA01300915C6E940
:102F80007601D7E904321B1A8A4102DA0025FFF7DD
:102F9000A1FF9821484603F0EDF90420FFF7E6FC75
:102FA000E0070ED04046FFF708FDC6E97C01D7E9EF
:102FB00006340246181A8C4103DA00251046FFF742
:102FC00078FF284640E7FFE702203DE71EB50446AC
:102FD00090F83000C0F38110032804D19449201DDB
:102FE0000831FFF781FE94F87400C0F381100328C4
:102FF00005D18E4904F14800C839FFF775FED4F8B1
:10300000B8008B4AC0F38113A0326946032B0FD05E
:10301000C0F3411003281AD1002004EB8003D3F839
:10302000A0309B1341F82030401C0328F5DB09E059
:10303000002004EB4003B3F98C3041F82030401CF1
:103040000328F6DB6846D4F8C010FFF793FE1EBDD8
:103050002DE9F04705460020296BCA056AD501F025
:103060005001402900D1012095F8741001F0500161
:10307000402900D1012095F8B8106D4C01F05001A5
:10308000402900D030B100F065F90020C4F8E0011B
:1030900084F8E801654ED4F80812E86A6036814287
:1030A00028D0C4F808020A28306B0CDA40002060EF
:1030B000716B00EE100A491CC4F80C12B8EEC00A7D
:1030C00012F029FF05E02060706BC4F80C0296ED49
:1030D0000E0A84ED850AD4F80C02C0F11000C4F881
:1030E00010024FF48040C4F8180296F834101920EA
:1030F0008840F0632846FFF769FF94F8E811DFF88D
:10310000309105274FF0020809F1A009072911D2D3
:10311000DFE801F0041127305E7E8500D4F8E0017D
:10312000411CC4F8E0110A2804DB00F013F9012067
:1031300084F8E80186E0D4F89800012810D12846E8
:10314000FFF7D9FE10B1012803D004E084F8E8713C
:1031500001E084F8E8814846FFF731FEFFF776FE8C
:1031600070E0032084F8E8012846FFF72BFD00F00B
:10317000F1F867E02846FFF7BEFEE8B3012861D109
:10318000B5F8B8004FF00403C00515D54846FFF761
:103190002CFE0146C017C4E97410D6E902C2BCEB8C
:1031A0000101824102DA84F8E87108E04846FFF73D
:1031B00018FE316A884202D384F8E83124E0F4E949
:1031C0007601FFF766FED4E90601FFF752FE39E00B
:1031D000B5F8B800C0050BD54846FFF706FE014616
:1031E000C017C4E97410D6E90232591A824108DBCB
:1031F0002846FFF780FE00E003E010B1012803D06D
:1032000020E084F8E8711DE02846FFF7DBFCD6E7F4
:10321000062084F8E801012019F092FE0DE028460E
:10322000FFF769FE012805D038B10BE060E8022005
:1032300060E6022084F8E88104E000F08BF848465C
:10324000FFF7BDFD0020FFE510B50021401000286C
:1032500002D001F10101F9DC4FF0010001F101019F
:1032600000FA01F0434C00EE100AC4E90C01B8EE7C
:10327000C00A12F050FE84ED0E0A94F834101920A2
:103280008840E06310BD10B54FF418713A4803F060
:1032900071F84021374803F06DF80720FFF766FB0F
:1032A000344840F2DC510022C0E906121421C0E982
:1032B00002124FF41671C0E9041230492E4C01621B
:1032C0000120C4F8E4011920FFF7BEFF0020C4F874
:1032D000080210BD10B54FF41871274803F04AF8E2
:1032E0000720FFF743FB244801210022C0F8E41126
:1032F00080F8E8110321012019F018FE072264214B
:10330000AFF2B320BDE8104019F0B8BB10B50120F2
:1033100019F016FEAFF2C720BDE8104019F06CBEE0
:1033200010B5FFF7B0FF002805D1AFF25700BDE898
:10333000104019F02BBC10BD10B5FFF7E7FFAFF23E
:103340006B00BDE8104019F07DBE0B49D1E97C014E
:1033500070477047084810B59821083003F00AF804
:103360009821074803F006F8BDE810400520FFF754
:10337000FDBA0000C0E8022060E602200008AF2F7E
:1033800098E70220F0B516462DED028B85B01F465A
:103390000C4605463C22FE49A1F10C0002F083FFD9
:1033A000FB4950224C31A1F1100002F07CFFF8499A
:1033B00096E80D000C3901F13C0C8CE80D005CCC5A
:1033C00001F1980080E85C009FEDF28AD1F82401B9
:1033D000401CC1F82401062802DD0620C1F82401A2
:1033E000C0F106060C46A0351AE004EB06116A4649
:1033F0003846483119F059F906EB460004EB8001D4
:103400006A46284618F03CFCF0EEC00AB0EEC81A36
:10341000F4EEC10AF1EE10FA01D2B0EE408A761C49
:10342000062EE2DB05B0B0EE480ABDEC028BF0BD23
:1034300070B514462DED048B0E46B0EE408A002583
:103440009FEDD59A416BF0EE498A002904DBD0F854
:10345000BC00032800D10125CD492422B431081F26
:1034600002F021FFCA480C38002380ED388A00EBB7
:1034700083015B1C91ED2F0A0A2B70EE288AF6DB84
:10348000B2EE040AC822C8EE800AC0ED390A9FEDE8
:10349000C31A322E1DDB9FEDC20AC0F81C21B6F5FF
:1034A0007A7FC8EE001A00EE104AB8EEC00A61EE4C
:1034B000801A81EE810A2FDB9FEDBA0AC8EE001A4E
:1034C00000EE104AB8EEC00A61EE801A81EE810A61
:1034D00022E041F2883194FBF1F14942D0F81C31ED
:1034E00001EB8101C918C0F81C1102D50021C0F8F8
:1034F0001C119FEDAD0AC8EE001A00EE104AB8EE9E
:10350000C00A61EE801A81EE810A29B9D0F828112B
:10351000012901D1B0EE490AD0F8201109B1B0EE6D
:10352000480AA2498C4201D1B0EE480AB5EEC00A61
:10353000F1EE10FA01D0C0ED3A0A90ED3A1A9C4B28
:1035400071EE600AF0EEE00A10EE901A994227DD63
:10355000D0ED2E0AF5EEC00AF1EE10FA20D1002DC2
:103560001ED0C0F81C2120461FF03DFC41EC190B79
:1035700018EE100A1FF094FF9FED8E1B53EC112BD9
:103580001FF040FA53EC192B1FF094FC9FED8B1B9E
:1035900053EC112B1FF036FA1FF04EF900EE100A13
:1035A000BDEC048B70BD2DE9F04F04462DED048B6E
:1035B000A9B09FED799A4FF0000A754ECDF810A092
:1035C0000C3ECDF814A0CDF818A0D6F8201102209A
:1035D00003297DD000209FED7B8A20AD06EB800182
:1035E00091ED2A0A05EB8001401CB8EEC00A0428C0
:1035F00020EE080A81ED000AF0DB0FA818F0B8FCF5
:1036000024A818F019FD624B24AA9C330FA9204668
:103610002793FFF7B7FEF0EE408A04F1180018F088
:1036200069FD81096148D6F83021824200DB0246FB
:10363000B0EE680A2046FFF7FBFED6ED3B0AB34624
:103640000BA820EE200A86ED2E0A18F091FC13A993
:103650000BA819F0A5F94E480FAAF0300BA90646A1
:1036600019F023F831460BA818F0FCFF00210DF1EA
:103670003C080DF14C090DF1100E002213461046C6
:1036800001EB410C0CEB000759F8276008EB8007B1
:10369000401C7F680328C6FB0723F3DB900F40EA3A
:1036A00083004EF82100491C0329E6DBDBF82001EA
:1036B0005E4600286AD05046CDF818A0404200EE81
:1036C000100AB8EEC00A20EE080A12F089F800E0ED
:1036D000A2E08DED000A8DED019A8DED029A06981B
:1036E000404200EE100AB8EEC00A20EE080A12F0BE
:1036F0000DFB8DED030A9DED060ADFED330AD6F8CA
:103700003001B8EEC00A41F2883190FBF1F080EE52
:10371000201A00EE100AF8EEC01A81EE210AB0EE6F
:10372000001AC0EE011ABDEEE10A10EE101A4900AF
:1037300000EE101A0691B8EEC00A60EE200A00EE04
:10374000100AB8EEC00A20EE800ABDEEC00A8DED68
:10375000060AB8EEC00A20EE080A12F041F88DED14
:10376000070A8DED089A8DED099A9DED060AB8EECF
:10377000C00A20EE080A12F0C9FA8DED0A0A1CAA46
:10378000694620A818F0E9FF6A461FE04BE00000F8
:103790000CE90220002474490000000000409C4510
:1037A00000004843000048420000C84340420F0068
:1037B0000E2DB23D00000000000079400000000026
:1037C0000088B34000008030E102374707A91CA8F9
:1037D00018F0C3FF6F46DFED958AD4F8BC000028CF
:1037E00013DD002007EB800191ED000A05EB80015D
:1037F00081ED000A20EE280A06EB8001401C042817
:10380000BDEEC00A81ED2A0AECDBD4F8BC00F6EE6E
:10381000009A03280CD108E0C6F8200129B0BDECBD
:10382000048BBDE8F08F069848E700F03DFEE0B35A
:1038300096ED2A0AB8EEC00A20EE080A8DED1C0AA1
:1038400096ED2B0AB8EEC00A20EE080A8DED1D0A8F
:1038500096ED2C0AB8EEC00A20EE080A8DED1E0A7D
:1038600096ED2D0AB8EEC00A20EE080A8DED1F0A6B
:10387000D6F820010028D1D096ED2E0A20EE290A94
:1038800011F0AEFF20EE280ABDEEC00A86ED2A0A2E
:10389000C6F8ACA0C6F8B0A096ED2E0A20EE290A14
:1038A00012F034FA20EE280A00E004E0BDEEC00A6F
:1038B00086ED2D0A2BE096ED2E0A20EE290A11F056
:1038C0008FFF8DED070A8DED089A8DED099A96ED23
:1038D0002E0A20EE290A12F019FA8DED0A0A6A461C
:1038E00007A920A818F039FF684618F0E1FF00206A
:1038F00007EB800191ED000A06EB8001401C20EEF1
:10390000280A0428BDEEC00A81ED2A0AF0DBD4F8AB
:10391000C010279819F020FAD6F820010028AAD064
:10392000401E79E770B590F8B810414ACC064FF0C8
:1039300000034FF0030101D4C2E94813B0F820415D
:10394000E40509D4048EE40503D5B0F87440E40519
:1039500002D4C2E948131AE0D2F8341139B1D0E9DF
:103960003013C91A4FF47A73B1FBF3F105E0D0F8C4
:10397000B01044F62064A14202DBC2F830110AE024
:10398000D2F82C512944C2F82C11A14201DA0020AE
:1039900070BDC2E94B31FFF706FEF8E710B54FF4F2
:1039A0009C71234802F0E6FC214C4FF0804000213E
:1039B000C4F8FC0044F8A80F1D48A83019F0CCF951
:1039C0004FF47A70B7EE000A606784ED110A10BDFB
:1039D000174880ED3B0A002070471549C1F82801BF
:1039E000002070471249C1F83401002070470422BA
:1039F0004FF41671AFF2D30019F040B8AFF2DB000C
:103A000019F0FABA10B5FFF7C9FF09490020C1F84B
:103A10002801C1F83401AFF22900BDE8104019F0C7
:103A2000B5B8AFF2350019F00DBB00000000804EB4
:103A300000E902201FB501461022684602F0BCFBD7
:103A4000F7489DE80E0080E80E00F6499DF80C004E
:103A500081F8B001002004B010BD1FB5F0490EC9B7
:103A60008DE80E00EF49102291F8B0118DF80C107E
:103A7000694602F0A1FB0020EDE72DE9F04F91B07F
:103A800000251821684602F075FC0024182106A8BC
:103A900002F070FCE348A046C14690F8C01101292D
:103AA0007ED1D0F8B8B1D0F8B4A10022C2EBC200E8
:103AB00000EB4001DB4800EB810E9EF850000F90B8
:103AC000002864D000215FE0DDE900076D1C5EF88E
:103AD00021300E93181847EBE376CDE900060EEB84
:103AE0008100EDB243690D93DDE9027C4FEAE37694
:103AF000DB1946EB0C06CDE90236836ADDE9047C6E
:103B0000DE170C93DB1946EB0C06CDE90436C06BCF
:103B10000E9BDDE9067C83FB0063360C46EA034618
:103B2000F6194CEB2343CDE906630D9BDDE9087CD8
:103B300083FB00634FEA164646EA0346F6194CEB50
:103B40002343CDE908630C9BDDE90A7C83FB00631A
:103B50004FEA164646EA0346F6194CEB2343CDE9F5
:103B60000A6380FB00634FEA164646EA034616EBFB
:103B7000080849EB23490444584501DA834602E02A
:103B8000504500DD8246491C0F9888429CDC521C3F
:103B9000052A8BDBA348AAEB0B01D0F8BC0100E09F
:103BA00056E0814254DBA5FB0823E0170026109065
:103BB00006FB083005FB0900CDE90C2084FB04203E
:103BC000110C41EA00410014CDE90E0106A800EBFA
:103BD000C601D1E90003A0FB05B203FB05220021C9
:103BE00000FB012C684600EBC601D1E90001A0FBF7
:103BF000043701FB0471109A00FB0210190C41EA12
:103C000000490CAA4FEA204A92E889000F9983EAFA
:103C1000070880EA010252EA080212D0421A63EB56
:103C20000703BBEB09006CEB0A0C4FEA0C4141EABD
:103C30001041000401F0CAFF7A4901EB8601C1F886
:103C4000A401761C032EC1DB7648012180F8B01157
:103C500011B00020BDE8F08FF8B5724D0E46044655
:103C6000D5E96D01091A052291FBF2F1301A90FB9A
:103C7000F1F0C0B28DF80000042801D92020F8BD71
:103C8000C0EBC00000EB400005EB800191F8500054
:103C9000052816D0421C81F850209DF80010C1EB79
:103CA000C10101EB410105EB810202EB8001CE6312
:103CB000236842F8203060684861A068886200206C
:103CC000F8BD01F14003181F1022194602F0EBFA6B
:103CD0009DF800001022C0EBC00000EB400005EB97
:103CE0008000011D02F0DFFA9DF800001022C0EBF9
:103CF000C00000EB400005EB800000F1180114301B
:103D000002F0D1FA9DF800001022C0EBC00000EBD9
:103D1000400005EB800000F12C01283002F0C3FACE
:103D20000420BAE730B585B0044603A9684618F008
:103D3000BBF904A818F06AFA02282BD0D4F8E400E2
:103D40000399401A374991F8B02112B308B3D1F85A
:103D5000A421009C80FB0232150445EA1342224450
:103D60000092D1F8A821019C80FB0232150445EA9B
:103D7000134222440192D1F8AC11029A80FB011047
:103D8000030443EA1140104402900321684619F0ED
:103D900085F80CE0606B032809D118F097F930B171
:103DA00068460399FFF758FF08B9FFF766FE05B0AC
:103DB000002030BD10B54FF4E2711A4802F0DAFA73
:103DC00018481949C0F8B4114FF4AA01C0F8B81145
:103DD0004FF4A021C0F8BC11012180F8C0110020CF
:103DE00010BD1049C1F8B801002070470D49C1F855
:103DF000B401002070470B49C1F8BC010020704796
:103E000058B10849D1F8A4210260D1F8A821426034
:103E1000D1F8AC1181600020704705207047000088
:103E2000DCEB022038EA02200000D8FF2420F5E76E
:103E300020B12D4981F8C0010020EFE72420EDE7F3
:103E4000294B93F8B1010028E8D0D3E96D10401A4E
:103E5000052190FBF1F00020C0EBC00101EB410116
:103E600003EB810191F8502022B1002100E0491CB0
:103E70008A42FCDC401C0528EEDB0020CEE708224D
:103E800096211A4818F0FABD184819F0B5B810B5BF
:103E9000FFF790FF4FF49A7310221549154818F058
:103EA00041FE20B9AFF2290018F070FE08B10120E0
:103EB00010BD0D49012081F8B101002010BD10B5E1
:103EC000094C94F8B101002808D0084819F094F87A
:103ED000AFF2550019F0B6F808B1012010BD00206E
:103EE00084F8B10110BD000038EA0220253D000829
:103EF0005B3A0008353A0008002803DDFE4901223C
:103F0000C1E920020020704710B5B821FA4802F03C
:103F100031FA9FEDFA0AF84880ED030A9FEDF80A9E
:103F200080ED020A9FEDF70A4FF0804180ED000A14
:103F3000B3EE0E0A80ED010A41664FF4FA619FED7F
:103F4000F20AC16780ED270A002010BD70B5EA4C67
:103F5000002594ED001AB4EEC01AF1EE10FA17D352
:103F600094ED011AB4EEC01AF1EE10FA10DC2069DB
:103F7000012817D194ED030AB4EEE00AF1EE10FA2D
:103F800006D394ED020AB4EEE00AF1EE10FA09DD70
:103F9000606F20B9D848A16D183018F0DDFE0120FF
:103FA000C4E91D05D4E91E01884204DB606F0128C5
:103FB00000D1E565656770BD10B504462DED028B37
:103FC000B0EE408A17F0DEFFCB49002220B918EE90
:103FD000100ACE4B984202DD0A614A6102E008698C
:103FE000002808D1486920444861B0F5FA7F02DD15
:103FF0000120C1E90402BDEC028B10BDF0B58DB00B
:104000000D4614460646694618F0CAFC09AA314610
:10401000284618F04AFB2946304618F023FB0021B9
:10402000EC460DF1240E00231A46184601EB410719
:104030003D180EEB80065CF825507668401CC5FBE9
:1040400006320328F4DB980F40EA820044F821008E
:10405000491C0329E7DB0DB0F0BDA7490020C1F8DA
:104060008C00704710B590ED000AD0ED010AB8EE53
:10407000C00AB8EEE01AF8EEE00A20EE000A01EEFF
:10408000200AD0ED020AB8EEE01AF8EEE00A01EEDE
:10409000200A11F040FFDFED9E0A20EE200A10BD3D
:1040A00000229549012330B1012810D0C1F8983081
:1040B00041F88C2F31E081ED280A81ED290A9FED2E
:1040C000950A81ED2A0AE1E924328A607047D1ED30
:1040D000280A91ED271A70EE600AF0EEE00AF4EE7D
:1040E000C10AF1EE10FA16D2D1F89400401CC1F8C2
:1040F0009400D1ED290A312830EE800A81ED290A99
:10410000E4DD0220DFED840AC1F8900080EE201A81
:1041100081ED2A1A704741F8902F4A6070472DE9C7
:10412000F04798462DED088B8AB017468A4604461C
:104130009FED788A0025704E039504950595D6F875
:10414000880000287DD017F0CDFF10B103A817F02C
:104150009DFFD6F880004FF00109002817DDC6F852
:10416000849017F0BFFF48B103A817F0C3FF800980
:10417000B0F5C87F02D2D6F8800004E0D6F88000FF
:10418000001BC6F88000002801DCC6F8845018F037
:104190008BF9002855D000209FED5D9A57F820102C
:1041A00000EE101A58F82010401CB8EEC00A032880
:1041B00060EE090A00EE101AB8EEC00A20EE800A7E
:1041C00000EE098AEADB3846FFF74CFFF0EE408A42
:1041D0004FF07E5788EE280AF7EE00AA10EE100A7C
:1041E000B84201DDB0EE6A0A10EE100ADFF82C8149
:1041F000BFEE00BA404501D9B0EE4B0A11F0D8F835
:10420000D6F88C00B0EE40AA98B196ED000AB4EE54
:10421000E80AF1EE10FA0CDD96ED010AB4EEE80AB8
:10422000F1EE10FA05D2B0EE4A0AD6F89000FFF788
:1042300037FF684617F0D4FF2F490C22AC3168468F
:1042400000E0E2E001F0F2FE18B9D6F8980001288B
:104250006BD129489DE80E00AC3080E80E00009834
:1042600018B9019808B90298F0B36846FFF7FAFE4A
:10427000B0EE408AB5EEC08AF1EE10FA55D0F2EEFB
:10428000049A38EE690A20EE000A11F044FE86ED29
:10429000010A38EE290A20EE000A11F03CFE86EDF4
:1042A000000A9DED020AB8EEC00A60EE090AB0EEFF
:1042B000480A80EE808A18EE100AB84201DDB0EE9E
:1042C0006A8A18EE100A404501D9B0EE4B8AB0EE6A
:1042D000480A11F06DF8D6ED270A30EE600A86ED37
:1042E000020AB0EE480A00E024E011F061F8D6EDD1
:1042F000270A30EE200A14E0FCEB02200000B44252
:104300000000B4C2000070427B142E3E00401C46E8
:10431000000080370000000000004842000080BF1D
:1043200003E086ED030AC6F88C50DFF88481F16D56
:1043300021B32FE01FED0D0A86ED000AB3EE0E0A41
:1043400086ED010AD6F89800012808D01FED140A5E
:1043500086ED020A1FED170A86ED030AE5E796EDE2
:104360002A0A96ED271A70EE410A30EE010AC6EDD0
:10437000020A86ED030AC6F89850D6E70027C6F869
:104380005C9006EB07104146183017F02DFE7F1C9D
:10439000042FF6DB464906AA0C310F465046FFF7BC
:1043A0002DFE3946504618F05DF903A817F0A2FE1D
:1043B00000EE100ADFED3F0A2046B8EE400A20EE7C
:1043C000200AFFF7F9FDF0EE4A0AB0EE680AFFF79F
:1043D000BDFDD6E91E01884201DA2044B067706F46
:1043E00090B9306E20443066B0F57A7F0CDD3049EC
:1043F00030223039A1F11000356601F054FF2C480D
:104400004146103817F0F0FD706F0AB0BDEC088B14
:10441000BDE8F08770B588B0044604A817F00CFE1C
:10442000D4E93001451A684617F0A2FD064604ABF0
:1044300004F1A00269462846FFF771FE18F09CFCC3
:1044400008B0304670BD04224FF49671AFF23B00C5
:1044500018F014BBAFF2430018F0CEBD10B5FFF753
:1044600053FD00280DD1124800215838C0F88C1097
:104470000121C0F88810AFF23100BDE8104018F0FB
:1044800085BB10BD10B5AFF2730018F0B5FDAFF2EB
:104490007B00BDE8104018F0AFBD05490120583938
:1044A000C1F88C000020704701485838406F7047B1
:1044B00054EC02200000803CF0B51D462DED028B2F
:1044C00099B090ED000AD0ED010A1746B8EEC00A87
:1044D000B8EEE01AF8EEE00A0E4620EE000A0446B6
:1044E00001EE200AD0ED020AB8EEE01AF8EEE00A7A
:1044F00001EE200A11F00FFDF0EEC00A10EE900A56
:10450000B0F18D4F7EDDD6ED000AB8EEE01ADFED9A
:10451000FE0A21EE201A8DED041A96ED011AB8EE6E
:10452000C11A21EE201A8DED051A96ED021AB8EE89
:10453000C11A21EE201A8DED061A96ED031AB8EE77
:10454000C11A61EE200ACDED070A9FEDF08A10AA8C
:104550008DED0C8AD4ED000A0CA904A8F8EEE00A4F
:1045600080EE801A8DED0D1AD4ED010AF8EEE00A06
:1045700080EE801A8DED0E1AD4ED020AF8EEE00AF4
:1045800080EE801A8DED0F1A18F0E7F814A904A830
:1045900018F074F86A4614A910A818F0DEF89DED1A
:1045A000021ADDED010ADA4921EE010A00EEA00A45
:1045B00010EE100A884202DA9FEDD60A11E010EEE2
:1045C000100AD549884202DA9FEDD40A09E010EEBC
:1045D000100AD349884202DAB5EE000A01E09FEDE5
:1045E000D10A01EE907AB8EEE12ADFEDCF2A8DED07
:1045F000088AC2EE221A21EE800A21EE001A8DED01
:10460000091A00E038E020EEC00A6A4604A98DEDE0
:104610000A0A8DED0B8A08A818F09FF86A4604A9CB
:10462000104617F0FEFF684618F000F9DDED000AAD
:104630009FEDBE0A60EE800AFDEEE00AC5ED000ABD
:10464000DDED010A60EE800AFDEEE00AC5ED010A2B
:10465000DDED020A60EE800AFDEEE00AC5ED020A19
:10466000DDED030A20EE800ABDEEC00A85ED030AE7
:1046700019B0BDEC028BF0BD96E80F0085E80F0085
:10468000F6E72DE9F0410C462DED068B054690ED41
:10469000000AD0ED010AB8EEC00AB8EEE01AF8EE52
:1046A000E00A20EE000A01EE200AD0ED020AB8EE80
:1046B000E01AF8EEE00A01EE200A11F02CFC10EEF0
:1046C000100A4FF07E5800264FF0804740453FDDEE
:1046D000D5ED020AB7EE009AF8EEE00AC0EE808A45
:1046E00039EE680A9FED89AAB5EEC00AF1EE10FA1C
:1046F00001DCB0EE4A0AF6EE009A20EE290A11F02B
:104700000AFCB0EE408A38EE890AB5EEC00AF1EE36
:1047100010FA01DCB0EE4A0A20EE290A11F0FBFB88
:10472000F0EE408A95ED000AB8EEC00A60EE000A8D
:1047300095ED010AB8EEC01AB8EEC00A41EE000AC3
:10474000B0EE600A11F0E7FB10EE100A404503DC02
:10475000C4E90076A66025E0DFED740A28EEA01A11
:10476000BDEEC11A84ED001A95ED011AF8EEC11ADA
:1047700081EE801A21EE081A61EE200AFDEEE00AB1
:10478000C4ED010AD5ED000AF8EEE00A80EE801AC9
:1047900021EE080ADFED660A20EE200ABDEEC00A0F
:1047A00084ED020AE660BDEC068BBDE8F08170B5D1
:1047B00090ED000AD0ED010A0546B8EEC00AB8EE49
:1047C000E01AF8EEE00A0C4620EE000A01EE200A9C
:1047D000D0ED020AB8EEE01AF8EEE00A01EE200A87
:1047E000D0ED030AB8EEE01AF8EEE00A01EE200A76
:1047F000B5EEC00AF1EE10FA07D84FF08040206005
:1048000000206060A060C86070BD11F084FBB7EE4E
:10481000001AC1EE000A9FED450A20EE800AD5ED90
:10482000000AF8EEE00A60EE800AFDEEE00AC4ED50
:10483000000AD5ED010AF8EEE00A60EE800AFDEE0E
:10484000E00AC4ED010AD5ED020AF8EEE00A60EED6
:10485000800AFDEEE00AC4ED020AD5ED030AF8EE87
:10486000E00A20EE800ABDEEC00A84ED030A70BDA6
:1048700070B5044690F8300088B040067ED5A06937
:10488000002801DB014600E041424FF4803200265F
:10489000284D91420BDAE169002900DA4942914240
:1048A00005DA216A002900DA4942914267DB0028D3
:1048B00000DA40424FF4C80188420BDCE06900286E
:1048C00000DA4042884205DC206A002800DA4042D3
:1048D000884201DD032000E00220A863696BA06A22
:1048E000814242D0686394ED0A0A9FED131AF8EEF4
:1048F000C00A80EE810ADFED110A20EE200A10EED8
:10490000100A1EF0CDFD1BE000008030000000000A
:1049100017B75139A69BC43B0AD7233C8FC2753DBC
:10492000CDCC4C3ECDCCCC3E0014CD470000804ECB
:10493000000080CEB4EC0220002474490000004E38
:104940009FEDFA1B53EC112B1EF0B4FA9FEDF91BEF
:1049500053EC112B1EF0AEFA9FEDF81B53EC112B0C
:104960001EF050F81EF0E2F928630496296BA06946
:1049700017F03FFE0590296BE06901E022E023E09B
:1049800017F037FE0690296B206A17F032FE079069
:104990006A4604A9EB4817F088FE0098E94A8001AE
:1049A0000090019869468001019002988001029070
:1049B000039880010390104617F021FEE149084654
:1049C000FFF7F5FE08B070BDAE63FBE770B50446B7
:1049D0002DED048B8EB0D0F82001410676D5D94D4F
:1049E000D4F81011D84B2A68891AD4F82C215A43CC
:1049F0008A4201DA032100E00221A963800504F55F
:104A0000887602D5CF493046B5E0002107A817F0D7
:104A10004BFBCC490C223C3107A801F007FB20B925
:104A2000D4F82801A96D88427ED020886B4680B2D8
:104A300007AA616A17F07AF99DED000ADDED010A17
:104A4000B8EEC00AB8EEE01AF8EEE00A20EE000A6E
:104A500001EE200ADDED020AB8EEE01AF8EEE00AF7
:104A600001EE200A11F057FAB0EE408A9FEDB70A26
:104A700068EE000A9FEDB61A80EE810ADFEDB50AF6
:104A800020EE200AD4ED4A0AF8EEE00A60EE800A31
:104A90001FED571A80EE810AF6EE000A20EE209AEA
:104AA000B0EE490A10F09CFEF0EE408AB0EE490AE2
:104AB00011F02CF918EE100A4FF08041884206DA06
:104AC0000020C5E912102865686532E055E05FED09
:104AD000690A68EEA00AFDEEE00AC5ED120A5FED74
:104AE0006C0A20EE200ADDED000AF8EEE00A60EE26
:104AF000200A80EE881AFDEEC10AC5ED130ADDED2D
:104B0000010AF8EEE00A60EE200A80EE881AFDEE57
:104B1000C10AC5ED140ADDED020AF8EEE00A20EE46
:104B2000200AC0EE080A00E00DE0BDEEE00A85EDC7
:104B3000150A07AB93E8070005F13C0383E807007B
:104B4000D4F82801A8657F4903AA4831304617F0F8
:104B5000ACFD7C480AAA5C3003A9044617F0A5FD09
:104B60002146304617F07EFD03AA0AA9754817F0C2
:104B70009CFD744903A8FFF71AFE0EB0BDEC048B30
:104B800070BD1FB5044669466E4817F06BFD6D4A4F
:104B900069462032204617F088FD6A491DCC103145
:104BA00081E81D001FBD2DE9F0470446654E90F8D1
:104BB000740006F15C0A06F12008012500F050019E
:104BC000103692B004F5887904F15C07402906D0CC
:104BD00094F8200100F0500040280DD01DE031462F
:104BE0003846FFF74EFDB4F82001C0050CD55146FC
:104BF000484617F037FD07E05146484617F032FDAA
:104C0000B4F87400C00508D569464E4817F02AFD6F
:104C100042466946304617F048FDB4F82001C00509
:104C2000204602D5FFF7D2FE01E0FFF721FE324613
:104C30004449404617F039FD94F8740040066FD59A
:104C4000208EB4F820110843C0056DD50FAA39464F
:104C5000304617F085FED4E9172080FB0001C2FB27
:104C60000201626E374FC2FB02014FF08042801A90
:104C700071F1020014DB04A817F072FADDE90420D8
:104C800080FB0001C2FB0201069AC2FB02014FF049
:104C90008042801A71F1020002DB0420B8630BE04D
:104CA000B86B042808D041F28832022806D00328C5
:104CB00004D0012852D009E0002507E0E16E91FB05
:104CC000F2F5012D00DA0125032800D0AD002248BD
:104CD00000244543109807948002294617F089FC68
:104CE00008900F9829464042800217F082FCCDE9D7
:104CF00009040BAA314607A817F0D7FC32460BA9C6
:104D0000104617F07CFC31460846FFF750FD694617
:104D10000C4817F0A7FC42466946304617F0C5FC20
:104D200012B00020BDE8F08720E00000112D4454AF
:104D3000FB2109400000000000007040000000005E
:104D400000806640B4EC022071981C00DB0F4940E3
:104D50000000344300008037A69BC400E06E90FB47
:104D6000F2F0012800DA01204500AFE7334619468A
:104D70003846E26EFFF7A0FBC9E770B50446008E27
:104D8000C105D4F8200107D4B4F87410C90503D4C0
:104D9000C10501D4002070BDC0F30120032807D055
:104DA0002046FFF700FF2348A16B18F015F9F1E743
:104DB00004F588711F482EC980E82E00F3E71E48CD
:104DC00018F01AB91B4810B56C21103801F0D2FA4E
:104DD00018484FF080411038016101600162C163E1
:104DE000C165002010BD184810B5082213A1006845
:104DF00001F01CF908B1322010BD1322BDE81040AB
:104E0000C8210D4817F03ABE10B5FFF7DBFF0028A8
:104E100005D1AFF22D00BDE8104017F0B7BE10BDB0
:104E200010B5054818F0E8F8AFF24500BDE81040AD
:104E300018F008B9C4EC02207B4D0008654D504CB9
:104E400020352E3100000000D403002000209FED0B
:104E5000FE0AFE4ADFEDFE0A02EB8001401C81EDF6
:104E6000080AC0B2C1ED0B0A0328F5D37047F74A10
:104E7000002002EB8001D1ED080A91ED2D0AF4EE3D
:104E8000C00AF1EE10FA01D281ED080AD1ED0B0A49
:104E9000F4EEC00AF1EE10FA01DD81ED0B0A401CC0
:104EA000C0B20328E5D370473EB50B46B0F84810B2
:104EB00009040091B0F84A10009A09040191B0F871
:104EC0004C1009040291E1494C6E121B0092019AA8
:104ED0008C6E121B0192029AC96E511A0291816E58
:104EE000B0F844006A4680B216F020FF3EBDF0B52F
:104EF000D64F00242546D7F894208DB02E46012A9F
:104F000001D1C7F8946009A9FFF7CEFF05A817F0F3
:104F100093F8059909986022A0EBA13009900699B1
:104F20000A98A0EBA1300A9007990B98A0EBA1304A
:104F3000C8490B90081F01F0B6F90DF1240CC548C3
:104F40009CE80E00143080E80E00684617F008F95F
:104F5000C04960226C31081F01F0A5F9BD489DE8E9
:104F60000E00803080E80E0000210922D7F82C04C2
:104F7000401CC7F82C0401EB410007EB8000DDF872
:104F800000C0D0F84C33491C93FBF2F31C44D0F81A
:104F90005033092993FBF2F31D44D0F8543393FBAB
:104FA000F2F31E44D0F8B83393FBF2F3634400935A
:104FB000D0F8BC33DDF804C093FBF2F363440193F3
:104FC000D0F8C003029B90FBF2F018440290CDDBB6
:104FD000002C00DA6442002D00DA6D42002E00DA67
:104FE00076420098002800DA40420090019800289C
:104FF00000DA404201900298002800DA4042029014
:10500000009900208C4200DA012001998D4200DADB
:10501000401C02998E4200DA401CD7F82C14092952
:1050200000DB401C04280DD197F8240402280BD97A
:1050300001468648D7F82824643017F017FE01206F
:1050400017F00EFE0DB0F0BD17F0FCFDFAE72DE9EC
:10505000F0417E4D00272DED048B06463C4685F839
:1050600024749FED7D9B9FED7E8BC5F8287405EB26
:105070008400D5ED0F0A90ED330AB4EEE00AF1EEAC
:1050800010FA1EDB95ED140B53EC182B51EC100BA2
:105090001EF01CF941EC100B10F04AFC53EC192BDC
:1050A00051EC100B1DF0CAFE0BD295F8240401211F
:1050B000401C85F82404D5F82804A1400843C5F80D
:1050C0002804641CE4B2032CD1D395F82404B8B3AB
:1050D000002406EBC40090ED000B51EC100B1DF00A
:1050E00025FE05EB8401641CE4B24866032CF0D372
:1050F000C5F82C74A868042802DA95F82404A8607E
:1051000095F8240403281BD15749E868884217DC26
:1051100095ED140B53EC182B51EC100B1EF0D6F838
:1051200041EC100B10F004FC53EC192B51EC100B5C
:105130001DF084FE04D2A868032801D10420A860D1
:105140004A49286988421DDA4949E868884219DCD9
:1051500095ED140B53EC182B51EC100B1EF0B6F818
:1051600041EC100B10F0E4FB9FED421B51EC100BD7
:1051700053EC112B1DF062FE04D2A868042801D163
:105180000520A860BDEC048BBDE8F0812DE9F0415D
:105190002E4C0746D4F8A404012802D00025284646
:1051A000F2E73649F7EE000AA1F1E800B7EE000A8F
:1051B0000646FBF7B2FA254A3046503202F5AC718A
:1051C000FBF74DFD0500EAD06068401C606094ED7F
:1051D000140B51EC100B1DF0A9FDB96E17F009FA74
:1051E00000EE100ADFED260AB8EEC00A20EE200A13
:1051F00010EE100A1EF054F9C4E9140194ED6A0B84
:1052000051EC100B1DF092FDA06594ED6C0B51EC70
:10521000100B1DF08BFDE06594ED6E0B51EC100B47
:105220001DF084FD206694ED680B9FED161B51EC7C
:10523000100B53EC112B1DF03BFFB0D231469FED0C
:10524000130AF0EE400A23E000401CC620ED0220C5
:1052500000401C4670F002209A9999999999B93F9B
:10526000000000000000F03FAE47E13D00007A433F
:10527000BC74933C9CC420B07268913FE8EE02205D
:1052800000008037000000000070A740CDCCCC3E6D
:105290000846FBF742FA82E7D0ED030A90ED040AD4
:1052A00000210122F4EEC00A0223F1EE10FA12DD11
:1052B00090ED051AF4EEC10AF1EE10FA0BDDB4EE32
:1052C000C10A0164F1EE10FA02DBC0E91123704754
:1052D000C0E911327047B4EEE00AF1EE10FA12DDC7
:1052E00090ED051AB4EEC10AF1EE10FA0BDDF4EE02
:1052F000C10A0264F1EE10FA02DBC0E91113704733
:10530000C0E911317047F4EEC00A0364F1EE10FAFF
:1053100002DBC0E911127047C0E911217047002378
:1053200019469FEDFE0AC36400EB8102491C82ED21
:10533000000A82ED090A0329F6DB0121C0E91D13E9
:10534000704730B504461420A0650A202066002569
:1053500084F870502046FFF7E2FF656530BD70B5F8
:105360002DED048B86B06946FFF79EFD9FEDEC8B1B
:105370001FED3D9A00246E4603AD56F8240000EE62
:10538000100A05EB8400B8EEC00A20EE090A80ED91
:10539000000A20EE000A10EE100A1EF081F853EC0D
:1053A000182B1DF07BFA41EC180B641C032CE4DB7A
:1053B000B0EE480AF0EE680A10F070FDDA4EB0EE7A
:1053C000408AF0EE608A002455F824001EF068F848
:1053D00053EC182B1DF016FB1DF02EFA00EE100AF0
:1053E00006EB840000F58060641CD0ED0C0A032CF1
:1053F00030EE200A80ED0C0AE6DBD6F88404401C6F
:10540000C6F884040120C6F8AC0406B0BDEC048BD9
:1054100070BD70B505462DED028B86B004AA03A9B8
:10542000684617F011F89FEDBE8B00246E4606EB20
:10543000840090ED000A20EE000A10EE100A1EF023
:105440002FF853EC182B1DF029FA41EC180B641CB3
:10545000032CECDBB0EE480AF0EE680A10F01EFDFB
:10546000B0EE408AF0EE608A002456F824001EF068
:1054700017F853EC182B1DF0C5FA1DF0DDF900EEFE
:10548000100A05EB8400641CD0ED000A032C30EEFA
:10549000200A80ED000AE8DB686D401C6865012089
:1054A000E86706B0BDEC028B70BDF0B50446002184
:1054B000F7EE001A9FED992A94ED140A04EB81008F
:1054C000B8EEC01AD0ED000A80EE810AB5EEC00A2F
:1054D000F1EE10FA02DBB0EE401A01E0B1EE401A34
:1054E000D0ED060AF5EEC00AF1EE10FA01DAF1EE9F
:1054F000600A71EE600AC0ED0C0A80ED060A94EDB8
:105500000F1AD0ED092A71EE610A00EEA20AC0EE70
:10551000010AC0ED090AF5EEC00AF1EE10FA01DA4F
:10552000F1EE600AC0ED030A491C80ED002A032950
:10553000C2DB2046FFF7B0FEE06CB0F57A7F01DAFF
:10554000401CE06494F870700021052604230325B4
:105550000122206C062F09D2DFE807F00309102B87
:1055600052376267A267E16484F87020F0BDE06F93
:105570000128FBD1022084F870000DE004EB8000CC
:10558000D4ED190A90ED030AB4EEE00AF1EE10FA38
:1055900004DB84F8703031E0A167F0BDD4ED1A0A65
:1055A000B4EEE00AF1EE10FA22D934E06267A267A5
:1055B000F0BD04EB8000D4ED190A90ED030AB4EEBF
:1055C000E00AF1EE10FAE4DAF0BD04EB8000D4ED6D
:1055D0001A0A90ED030AB4EEE00AF1EE10FA07D9C8
:1055E000006B524EB04206D9216EE06C8842EBDB74
:1055F00084F87050DAE784F87030E1646167CBE7D3
:1056000004EB8000D4ED1B0A90ED030AB4EEE00A2F
:10561000F1EE10FAD8D884F87060E164C6E710B5EE
:10562000044600EE104AB8EEC00ADFED410A20EE53
:10563000200A9FED401AC0EE010AB6EE000A20EEE5
:10564000800A10EE100A1DF02BFF41EC100B10F039
:1056500063F89FED391B51EC100B53EC112B1DF02F
:1056600029FC1DF063FB01462F48C0E9204110BD15
:105670002DE9F04F00242DED028B91B005460494E6
:1056800005940694C06E44F62061274E884206DBDE
:10569000D6F88010884210D0FFF7C1FF0DE0D6F891
:1056A00048231044C6F8480388427DDBE96E8142F6
:1056B00001D0FFF7B4FFC6F84843286BC6F8B00422
:1056C0002846FFF74CFE06F5906003C8814204DBD4
:1056D0001B48FFF7EAFEC6F88444D6F8A804012860
:1056E00002D12846FFF703FCD6F8A40401285BD1B9
:1056F00004A816F053FD9DED040ADDED050A20EE29
:10570000000A00EEA00ADDED060A00EEA00A10F085
:1057100002FC86ED030ADFED0B0A15E00000000035
:10572000000000000000000020ED0220CDCC4CBDA8
:10573000368D274000247449000000000000D0414D
:1057400050F102200000804620EE200AC149A14607
:10575000ADF82040BDEEC00A099110EE100AADF878
:105760001C00ADF81E4007A8FDF7BEFA684616F00B
:1057700055FD316F009816F03CFF0446716F01989B
:1057800016F037FF0444B16F029816F032FF04445C
:10579000F16F039816F02DFF04EB00089DE80F0051
:1057A00000240DF1340A00E0A2E006F170079FED3D
:1057B000AA8A87E80F000DF1280B05EB4407A96EB4
:1057C00037F8480F000416F014FF00EE100A4AF8EC
:1057D000240006EB8400B8EEC00A20EE080A80ED33
:1057E000050A388801044BF82410641CE4B2032C29
:1057F000E3D398480AA9E8380446FBF75EF8316815
:10580000D6F82803884273DB95ED390AD6ED360ABF
:10581000B8EEC00AF5EEC00A20EE080AF1EE10FA62
:1058200005D070EE600AF0EEE00AC6ED370A86EDAC
:10583000360AB068062818D2DFE800F00303030335
:105840000D249FED860AC82086ED0E0AB7EE000AE9
:1058500086ED0F0A08E09FED820A86ED0E0A9FEDA5
:10586000810A642086ED0F0A3064288EC0050998ED
:1058700012D4FDF748F91DF041FE00EE100A5FED6D
:10588000530A11E09FED780A86ED0E0A9FED770A24
:10589000322086ED0F0AE7E7FDF78FF81DF02EFEA8
:1058A00000EE100ADFED720A982180EE201A86EDD4
:1058B000041A099800F05EFDD6F88410414543DAD9
:1058C00096ED040AB5EEC00AF1EE10FA3CDDD6ED15
:1058D0000E0AB4EEE00AF1EE10FA35D2316C7068BF
:1058E000884206DA2846FFF751FC002859D00CE020
:1058F00056E06049D6F8B000884206DB2846FFF73C
:1059000045FC00284DD0C6F80490002006EB80012D
:10591000401C91ED050AC0B281ED2D0A0328F5D394
:10592000FFF7A5FA002006EB8001401C91ED080A64
:10593000D1ED0B0AC0B2032830EE600A81ED330AC4
:10594000F1D34D48FFF783FB002006EB8001401C9C
:1059500091ED260AD1ED050AC0B2032830EE600AA7
:10596000B0EEC00A81ED290AEFD396ED290AD6EDF3
:105970002A0A002030EE200AD6ED2B0A30EE200A4B
:1059800086ED2C0A06EB8001401C91ED050AC0B2A1
:1059900081ED260A0328F5D3E821204600F0EAFC31
:1059A000002011B0BDEC028BBDE8F08F10B54FF4B4
:1059B0009761324800F0DEFC304C0A20206040073E
:1059C0002067FFF743FA04F58660FFF7BAFC20680A
:1059D000C4F880049FED2A0A04F580601E2180ED42
:1059E0001B0A9FED280AC4F88C1480ED260A9FED4F
:1059F000260A80ED250A9FED250A80ED270A192049
:105A0000FDF722FC002010BD012240F25231AFF21E
:105A10009F3017F033B8AFF2A73017F0EDBA10B5DA
:105A2000FFF7C4FF002805D1AFF22300BDE8104006
:105A300017F0ACB810BD10B5AFF2CB3017F0DCFAF0
:105A4000AFF23B00BDE8104017F0FCBA0B4880688D
:105A500070470000D0EF0220000080370080BB4478
:105A6000000096439A99993F000070423333B33F48
:105A70000050C347CDCC4C3DC8EE022020ED0220A3
:105A800000000042CDCCCC3ECDCC4C3F3333333F35
:105A9000704753EA020C00F069802DE9F04B4FF09B
:105AA0000006002B1FBFB3FA83F503FA05F424FAAE
:105AB00005F65E4012BF1643B2FA82F502FA05F40B
:105AC000C5F120051EBF22FA05FC44EA0C0420356E
:105AD00056EA044C4FEA144418BF641C4FF0000807
