:020000040800F2
:1000000080F5022049030008BDB70108D954010852
:1000100049AD010835C1000849550208000000003B
:10002000000000000000000000000000E9F80108E6
:10003000BDD40008000000000F04000845010208BC
:10004000730300087303000873030008E1DD01086F
:1000500073030008730300087303000873030008A8
:100060007303000873030008730300087303000898
:100070007303000873030008730300087303000888
:100080007303000873030008730300087303000878
:100090007303000873030008730300087303000868
:1000A0007303000873030008730300087303000858
:1000B0006901020875010208730300087303000850
:1000C0007303000873030008730300087303000838
:1000D000730300089914020873030008B11402089E
:1000E0007303000825DB010873030008730300088D
:1000F0001502020873030008730300087303000865
:1001000073030008730300088101020873030008E9
:1001100073030008730300088D010208D10102086F
:100120007303000875D0000873030008F5D00008B9
:10013000730300089DDC00087303000873030008C4
:1001400073030008730300087303000869D00108F3
:1001500075D10008730300087303000873030008D7
:100160007303000873030008730300087303000897
:100170007303000873030008DDCF000800000000CF
:100180007303000873030008730300087303000877
:100190007303000873030008730300087303000867
:1001A00073030008730300087303000800F002F8EB
:1001B00000F0B2F80AA090E8000C82448344AAF14F
:1001C0000107DA4501D100F0A7F8AFF2090EBAE84D
:1001D0000F0013F0010F18BFFB1A43F0010318477B
:1001E000345A0A00545A0A000A444FF0000C10F81E
:1001F000013B13F0070408BF10F8014B1D1108BFA5
:1002000010F8015B641E05D010F8016B641E01F844
:10021000016BF9D113F0080F1EBF10F8014BAD1C94
:100220000C1B09D16D1E58BF01F801CBFAD505E0B2
:1002300014F8016B01F8016B6D1EF9D59142D6D30C
:10024000704700000023002400250026103A28BF34
:1002500078C1FBD8520728BF30C148BF0B60704738
:100260006E2908F0B781702908F0DB8266293CF01E
:10027000D6A265293CF0D3A267293CF0D0A261291F
:100280003CF0CFA203681B0A28BF41F08001692916
:1002900008F06481642908F06181752908F05E81A5
:1002A0006F2908F06982782908F0A782E92908F007
:1002B0000382E42908F00082F52908F0FD81EF2986
:1002C00008F06682F82908F0A6820368DB0928BFD7
:1002D00041F08001632909F09683732909F09B831B
:1002E000E32909F0B983F32909F0BE8300207047A0
:1002F0001FB57CF03EFA09F0A1F8040000200021AF
:100300007BF08EFA401C6060002000217BF09EFA9A
:10031000E0601FBD10B510BD0AF0DEF81146FFF712
:10032000E7FF54F0F5F90AF04FFB03B4FFF7F2FFD3
:1003300003BC29F094F9000030BF72B6704762B672
:10034000704780F3088870470D48016841F47001D8
:1003500001600C48016821F0404101600A480047F3
:10036000FEE7FEE7FEE7FEE7FEE7FEE7FEE7FEE765
:10037000FEE7FEE705480649044A064B70470000C1
:1003800088ED00E034EF00E0AD01000880E50220D8
:1003900080F5022080E50220EFF3098141B1F1EE02
:1003A000101A40F8041D20ED200A29490A6810603F
:1003B0007047B0EC200A02C8E1EE101A25490A681D
:1003C00010607047EFF3108072B6704780F31088AA
:1003D000704721484FF6FF710170002080F30988B3
:1003E0001E48016881F308881D48012101701D48DD
:1003F0004FF08051016062B6FEE71A484FF080511D
:100400000160704717484FF080510160704772B625
:10041000EFF3098028B1203880E8F00F0C49096813
:10042000086000B5104880475DF804EB0F4810499C
:100430000A780270064807490A680260106890E866
:10044000F00F203080F309884EF0F40E62B670474A
:10045000AC020020B402002022ED00E0E8020020FF
:100460009302002004ED00E05DC701089002002027
:100470009102002081FB0020704701464FF00000F0
:1004800081EAE170A0EBE170704700002DE9F04FC8
:1004900082B001904FF000744FF000784FF00005EB
:1004A0004FF0000952F804CB52F804EB0868CB6D0A
:1004B000C0FB0C45D1F88000CEF1000EC3FB0E4509
:1004C000D1F8DC30C0FB0C89C3FB0E8952F804CB99
:1004D00052F804EB48688B6DC0FB0C45D1F88400E2
:1004E000CEF1000EC3FB0E45D1F8D830C0FB0C890D
:1004F000C3FB0E8952F804CB52F804EB88684B6DAD
:10050000C0FB0C45D1F88800CEF1000EC3FB0E45B0
:10051000D1F8D430C0FB0C89C3FB0E8952F804CB50
:1005200052F804EBC8680B6DC0FB0C45D1F88C0089
:10053000CEF1000EC3FB0E45D1F8D030C0FB0C89C4
:10054000C3FB0E8952F804CB52F804EB0869CB6C5C
:10055000C0FB0C45D1F89000CEF1000EC3FB0E4558
:10056000D1F8CC30C0FB0C89C3FB0E8952F804CB08
:1005700052F804EB48698B6CC0FB0C45D1F8940031
:10058000CEF1000EC3FB0E45D1F8C830C0FB0C897C
:10059000C3FB0E8952F804CB52F804EB88694B6C0C
:1005A000C0FB0C45D1F89800CEF1000EC3FB0E4500
:1005B000D1F8C430C0FB0C89C3FB0E8952F804CBC0
:1005C00052F804EBC8690B6CC0FB0C45D1F89C00D9
:1005D000CEF1000EC3FB0E45D1F8C030C0FB0C8934
:1005E000C3FB0E8901984FF4FE4E4EF0FF0E4FEA0A
:1005F000946444EA85144FEAE47CBCEBE43F18BF02
:100600008CEA0E044FEA986848EA89184FEAE87CB9
:10061000BCEBE83F18BF8CEA0E080480A0F802800B
:1006200002F5707201F580514FF000744FF00078C0
:100630004FF000054FF0000952F804CB0868D1F8DC
:100640008030C0FB0C45C3FB0C8952F804CB4868D2
:10065000D1F88430C0FB0C45C3FB0C8952F804CBA5
:100660008868D1F88830C0FB0C45C3FB0C8952F870
:1006700004CBC868D1F88C30C0FB0C45C3FB0C8997
:1006800052F804CB0869D1F89030C0FB0C45C3FB8D
:100690000C8952F804CB4869D1F89430C0FB0C4562
:1006A000C3FB0C8952F804CB8869D1F89830C0FBA1
:1006B0000C45C3FB0C8952F804CBC869D1F89C30B7
:1006C000C0FB0C45C3FB0C8901984FF4FE4E4EF065
:1006D000FF0E4FEA946444EA85144FEAE47CBCEBD5
:1006E000E43F18BF8CEA0E044FEA986848EA89187C
:1006F0004FEAE87CBCEBE83F18BF8CEA0E08A0F894
:100700004040A0F84280A2F57872A1F570614FF0E8
:100710000F0C00F10400CDF800C001904FF0007400
:100720004FF000784FF000764FF0007A4FF0000560
:100730004FF000094FF000074FF0000B52F804CBC8
:1007400052F804EB0868CB6DC0FB0C45C0FB0E678C
:10075000CEF1000EC3FB0C67C3FB0E45D1F8DC30B5
:10076000D1F88000C3FB0E89C3FB0CABCEF1000EA9
:10077000C0FB0C89C0FB0EAB52F804CB52F804EB63
:1007800048688B6DC0FB0C45C0FB0E67CEF1000EB8
:10079000C3FB0C67C3FB0E45D1F8D830D1F88400F9
:1007A000C3FB0E89C3FB0CABCEF1000EC0FB0C8962
:1007B000C0FB0EAB52F804CB52F804EB88684B6DCB
:1007C000C0FB0C45C0FB0E67CEF1000EC3FB0C67EF
:1007D000C3FB0E45D1F8D430D1F88800C3FB0E8995
:1007E000C3FB0CABCEF1000EC0FB0C89C0FB0EAB03
:1007F00052F804CB52F804EBC8680B6DC0FB0C45F3
:10080000C0FB0E67CEF1000EC3FB0C67C3FB0E45A9
:10081000D1F8D030D1F88C00C3FB0E89C3FB0CABF0
:10082000CEF1000EC0FB0C89C0FB0EAB52F804CB1E
:1008300052F804EB0869CB6CC0FB0C45C0FB0E679B
:10084000CEF1000EC3FB0C67C3FB0E45D1F8CC30D4
:10085000D1F89000C3FB0E89C3FB0CABCEF1000EA8
:10086000C0FB0C89C0FB0EAB52F804CB52F804EB72
:1008700048698B6CC0FB0C45C0FB0E67CEF1000EC7
:10088000C3FB0C67C3FB0E45D1F8C830D1F8940008
:10089000C3FB0E89C3FB0CABCEF1000EC0FB0C8971
:1008A000C0FB0EAB52F804CB52F804EB88694B6CDA
:1008B000C0FB0C45C0FB0E67CEF1000EC3FB0C67FE
:1008C000C3FB0E45D1F8C430D1F89800C3FB0E89A4
:1008D000C3FB0CABCEF1000EC0FB0C89C0FB0EAB12
:1008E00052F804CB52F804EBC8690B6CC0FB0C4502
:1008F000C0FB0E67CEF1000EC3FB0C67C3FB0E45B9
:10090000D1F8C030D1F89C00C3FB0E89C3FB0CABFF
:10091000CEF1000EC0FB0C89C0FB0EAB01F580715F
:1009200001984FF4FE4E4EF0FF0E4FEA946444EAF5
:1009300085144FEAE47CBCEBE43F18BF8CEA0E045C
:100940004FEA986848EA89184FEAE87CBCEBE83F30
:1009500018BF8CEA0E084FEA966646EA87164FEAF9
:10096000E67CBCEBE63F18BF8CEA0E064FEA9A6ABB
:100970004AEA8B1A4FEAEA7CBCEBEA3F18BF8CEAE2
:100980000E0ADDF800C000EBCC0E2EF8026B2EF83C
:1009900002AB20F8024B20F8028BBCF1010C7FF473
:1009A000BAAE02B0BDE8F08F2DE9F04F82B00190F1
:1009B0004FF000744FF0000552F804CB52F804EBEE
:1009C0000868CB6DCEF1000EC0FB0C45C3FB0E4595
:1009D00052F804CB52F804EB48688B6DCEF1000E50
:1009E000C0FB0C45C3FB0E4552F804CB52F804EB98
:1009F00088684B6DCEF1000EC0FB0C45C3FB0E4565
:100A000052F804CB52F804EBC8680B6DCEF1000E1F
:100A1000C0FB0C45C3FB0E4552F804CB52F804EB67
:100A20000869CB6CCEF1000EC0FB0C45C3FB0E4534
:100A300052F804CB52F804EB48698B6CCEF1000EEF
:100A4000C0FB0C45C3FB0E4552F804CB52F804EB37
:100A500088694B6CCEF1000EC0FB0C45C3FB0E4504
:100A600052F804CB52F804EBC8690B6CCEF1000EBF
:100A7000C0FB0C45C3FB0E4501984FF4FE4E4EF0F3
:100A8000FF0E4FEA946444EA85144FEAE47CBCEB21
:100A9000E43F18BF8CEA0E04048002F5707201F581
:100AA00080514FF000744FF0000552F804CB0868F5
:100AB000C0FB0C4552F804CB4868C0FB0C4552F80B
:100AC00004CB8868C0FB0C4552F804CBC868C0FB57
:100AD0000C4552F804CB0869C0FB0C4552F804CB16
:100AE0004869C0FB0C4552F804CB8869C0FB0C4533
:100AF00052F804CBC869C0FB0C4501984FF4FE4E78
:100B00004EF0FF0E4FEA946444EA85144FEAE47C09
:100B1000BCEBE43F18BF8CEA0E040484A2F57872A3
:100B2000A1F570614FF00F0C00F10200CDF800C08C
:100B300001904FF000744FF000764FF000054FF039
:100B4000000752F804CB52F804EB0868CB6DC0FBE9
:100B50000C45C0FB0E67CEF1000EC3FB0E45C3FB78
:100B60000C6752F804CB52F804EB48688B6DC0FB5D
:100B70000C45C0FB0E67CEF1000EC3FB0E45C3FB58
:100B80000C6752F804CB52F804EB88684B6DC0FB3D
:100B90000C45C0FB0E67CEF1000EC3FB0E45C3FB38
:100BA0000C6752F804CB52F804EBC8680B6DC0FB1D
:100BB0000C45C0FB0E67CEF1000EC3FB0E45C3FB18
:100BC0000C6752F804CB52F804EB0869CB6CC0FBFD
:100BD0000C45C0FB0E67CEF1000EC3FB0E45C3FBF8
:100BE0000C6752F804CB52F804EB48698B6CC0FBDD
:100BF0000C45C0FB0E67CEF1000EC3FB0E45C3FBD8
:100C00000C6752F804CB52F804EB88694B6CC0FBBC
:100C10000C45C0FB0E67CEF1000EC3FB0E45C3FBB7
:100C20000C6752F804CB52F804EBC8690B6CC0FB9C
:100C30000C45C0FB0E67CEF1000EC3FB0E45C3FB97
:100C40000C6701F5807101984FF4FE4E4EF0FF0ED7
:100C50004FEA946444EA85144FEAE47CBCEBE43F39
:100C600018BF8CEA0E044FEA966646EA87164FEAEA
:100C7000E67CBCEBE63F18BF8CEA0E06DDF800C050
:100C800000EB8C0E2EF8026B20F8024BBCF1010C2D
:100C90007FF44CAF02B0BDE8F08F00002DE9FE4FAD
:100CA0008446D0F800E0DCF804B00EF1BC0292E813
:100CB0000C040CF11C0696E8C003BBEB0A0ACEF844
:100CC000C4A0CEF8C8B00BFB06F00AFB070003FB7C
:100CD000080002FB0900C8BF6FF0000AB8BF4FF060
:100CE000010ABBF1000FC8BF6FF0000BB8BF4FF097
:100CF000010BCEF844A0CEF848B0DCF80C60DCF86C
:100D000010700EF1980292E81C04C6EB4616A7EB91
:100D1000661BCCF80C700CF13C0595E8E003BBEBCE
:100D20000A0ACEF8A4A0CEF8A8B00BFB05F10AFB86
:100D3000061104FB071103FB081102FB0911C8BFD0
:100D40006FF0000AB8BF4FF0010ABBF1000FC8BF37
:100D50006FF0000BB8BF4FF0010BCEF824A0CEF817
:100D600028B0009A00EB6100DCF818401368C4EB6F
:100D7000441403EBA021CCF8041001EB6411CCF86F
:100D8000181042F8041B0092002B39D00EF1180203
:100D90001CCA1EDBA5EB0B05A6EB0A06A9EB020994
:100DA000A8EB0308A7EB04070CF13C0080E8E00384
:100DB0000CF11C0191E83C000EF13C0696E8C003E2
:100DC000A5EB0605A4EB0704A3EB0803A2EB0902BD
:100DD00014E05D4456449144984427440CF13C008F
:100DE00080E8E0030CF11C0191E83C000EF13C06A8
:100DF00096E8C00335443C4443444A4481E83C00FF
:100E0000DCF808B00EF17C0292E80C040CF12C0620
:100E100096E8C003BBEB0A0ACEF884A0CEF888B0EF
:100E20000BFB06F00AFB070003FB080002FB0900AE
:100E3000C8BF6FF0000AB8BF4FF0010ABBF1000F46
:100E4000C8BF6FF0000BB8BF4FF0010BCEF834A055
:100E5000CEF838B0DCF81460DCF818700EF15802E7
:100E600092E81C04C6EB4616A7EB661BCCF8147080
:100E70000CF1500595E8E003BBEB0A0ACEF864A03C
:100E8000CEF868B00BFB05F10AFB061104FB071155
:100E900003FB081102FB0911C8BF6FF0000AB8BFBD
:100EA0004FF0010ABBF1000FC8BF6FF0000BB8BFD5
:100EB0004FF0010BCEF810A0CEF814B0019A00EB61
:100EC0006100DCF810401368C4EB441403EBA0216C
:100ED000CCF8081001EB6411CCF8101042F8041B98
:100EE0000192002B39D00EF104021CCA1EDBA5EBC7
:100EF0000B05A6EB0A06A9EB0209A8EB0308A7EB72
:100F000004070CF1500080E8E0030CF12C0191E89B
:100F10003C000EF12C0696E8C003A5EB0605A4EBF9
:100F20000704A3EB0803A2EB090214E05D44564456
:100F30009144984427440CF1500080E8E0030CF100
:100F40002C0191E83C000EF12C0696E8C0033544D4
:100F50003C4443444A4481E83C000EF1040E0CF149
:100F6000640BAEF5006A0298DA4509D0401E18BF3E
:100F700002907FF498AECCF800E003B0BDE8F08FAB
:100F8000BEE8FF03ABE8FF03BEE8FF03ABE8FF03E7
:100F9000BEE8FF03ABE8FF03BEE8FF03ABE8FF03D7
:100FA000BEE8FF03ABE8FF0302980CF1640E401E9D
:100FB00018BF02907FF477AEDDE72DE9F64F844647
:100FC000D0F800E0DCF804B00EF1BC0292E80C04AA
:100FD0000CF11C0595E8C003BBEB0A0ACEF8C4A0CF
:100FE000CEF8C8B00BFB06F00AFB070003FB0800B5
:100FF00002FB0900C8BF6FF0000AB8BF4FF0010A3A
:10100000BBF1000FC8BF6FF0000BB8BF4FF0010B72
:10101000CEF844A0CEF848B0009ADCF81840136827
:10102000C4EB441403EBA021CCF8041001EB6411D1
:10103000CCF8181042F8041B0092002B13D0DEF8F5
:101040003C20DEF8403008DBA6EB0B06A7EB0A07D6
:10105000A9EB0209A8EB030803E05E44574491445E
:10106000984485E8C0030EF1040E0CF1640BAEF554
:10107000006A0198DA4508D0401E18BF0190A1D13E
:10108000CCF800E002B0BDE8F08FBEE8FF03ABE8AB
:10109000FF03BEE8FF03ABE8FF03BEE8FF03ABE8D6
:1010A000FF03BEE8FF03ABE8FF03BEE8FF03ABE8C6
:1010B000FF0301980CF1640E401E18BF019081D10E
:1010C000DEE7000010B5FF48006829F0BBFBFE48D2
:1010D000006829F0B7FBFD48006829F0B3FBFC4825
:1010E000006829F0AFFBFB48006829F0ABFBFA4829
:1010F000006829F0A7FBF948006829F0A3FB10BDA0
:1011000010B500244FF4007029F0A0FBED490860F1
:101110000846006800B901244FF4007029F096FBDE
:10112000E94908600846006800B901244FF40070DE
:1011300029F08CFBE54908600846006800B90124E5
:10114000A02029F083FBE24908600846006800B946
:101150000124402029F07AFBDE4908600846006837
:1011600000B90124402029F071FBDB4908600846E2
:10117000006800B901244FF4F87029F067FBD749E3
:1011800008600846006800B901240CB1FFF79AFF17
:10119000204610BD2DE9F04704460D461646701B4B
:1011A00000EBD07105EB610954F8397004EBC9010B
:1011B00048687BF038FA804654F8350044F8390026
:1011C00004EBC500406804EBC9014860A94605F17D
:1011D000010A1DE054F83A0039467BF063FA15D84D
:1011E00054F83A0044F8390004EBCA00406804EBB4
:1011F000C901486009F1010954F8390044F83A007E
:1012000004EBC900406804EBCA0148600AF1010A16
:10121000B245DFDDA9EB0500012805DDA9F10102DA
:1012200029462046FFF7B6FFA6EB0900012805DD99
:10123000324609F101012046FFF7ACFF44F839704E
:1012400040467BF0F7F904EBC9014860BDE8F08740
:101250002DE9F84F04460D4616461F464FF000088C
:1012600028E04FF0000920E04FF0000BDA4612E0D2
:101270000B9A0AFB029255F822100A9A08FB02A266
:1012800054F822007BF026FA594600907BF0ADF925
:1012900083460AF1010A0A988245E9DB0B9808FBAC
:1012A000009046F820B009F101090B988145DBDB7D
:1012B00008F10108B845D4DBBDE8F88F024612B941
:1012C00009B900207047002A02DD09B90020F9E7BA
:1012D000002903DD8A4201DD0120F3E7002A03DD56
:1012E000914201D10220EDE7002A03DD8A4201DAB2
:1012F0000320E7E71AB9002901DD0420E2E7002A0C
:1013000008DA101E01DB034600E043428B4201DA9B
:101310000520D7E7002A08DA101E01DB034600E0AB
:1013200043428B4201D10620CCE7002A0ADA101E84
:1013300001DB034600E043428B4203DD002901DD6F
:101340000720BFE719B9002A01DA0820BAE7002907
:1013500003DA914201DD0920B4E7002A03DA914261
:1013600001D10A20AEE7002A03DA914201DA0B200C
:10137000A8E71AB9002901DA0C20A3E700290ADA44
:10138000081E01DB034600E04342934203DD002ACE
:1013900001DD0D2096E7002908DA081E01DB03466F
:1013A00000E04342934201D10E208BE7002908DA86
:1013B000081E01DB034600E04342934201DA0F209E
:1013C00080E700207EE730B5034601B10AB900206E
:1013D00030BD412901D0412A01D10020F8E7491E42
:1013E000521E03EBC20000EBE100047801F0070598
:1013F0000120A840044201D00120E9E70020E7E7EE
:101400002DE9FE4F04460D4616461F46002001906A
:10141000781C82000021324829F01CFA781C8200D6
:101420000021304829F016FA4FF0000819E04FF07B
:10143000000912E004EBC80000EBE900017809F0B4
:10144000070201209040014205D04FF07E510198E3
:101450007BF0CBF8019009F10109B145EADB08F115
:101460000108A845E3DB38467BF0E4F882460146F4
:1014700001987BF0CFF801900120029049E04FF0F5
:10148000000AD0463AE04FF0000912E004EBC90030
:1014900000EBE800017808F00702012090400142CB
:1014A00005D04FF07E5150467BF09FF8824609F1FF
:1014B0000109A945EADB02987BF0BCF8009001998C
:1014C00012E0000074090020780900207C09002047
:1014D0008009002084090020880900208C09002050
:1014E00064D4022078D402207BF0F4F8834651467D
:1014F0007BF0D8F800D804E008F10108701E4045E0
:10150000C1DC00BFFD48029940F821800298401CD0
:101510000290781C02998142B1DB0120029035E0F3
:101520004FF0000AD14626E04FF0000812E004EB2D
:10153000C90000EBE800017808F0070201209040A4
:10154000014205D04FF07E5150467BF04EF8824666
:1015500008F10108B045EADB02987BF06BF80090D7
:1015600001997BF0B7F8834651467BF09BF800D891
:1015700004E009F10109681E4845D5DC00BFE049D7
:10158000029841F820900298401C0290781C029921
:101590008142C5DB0020029032E0029991FBF7F115
:1015A000D74A52F82120029991FBF7F1491CD44BFC
:1015B00053F82110501800EBD0714910D14A12682D
:1015C000029B42F82310029991FBF7F207FB1211DC
:1015D000CA4A52F82120029991FBF7F307FB131135
:1015E000491CC64B53F82110501800EBD07149101C
:1015F000C54A1268029B42F823100298401C0290D0
:1016000007FB07F002998842C7DCBDE8FE8F2DE991
:10161000F34F8FB0402440200A901025AA000021EB
:10162000B948006829F016F9AA000021B5480068F9
:1016300029F010F9042321460A9A0F98FFF7E0FEDB
:10164000E2000021B148006829F004F900200B9065
:1016500060E3AC4801680B9851F820000290AA485A
:1016600001680B9851F8200001900298083040283A
:1016700001DD402001E00298083008900198083010
:10168000402801DD402001E00198083006900298D2
:10169000083801D5002001E0029808380990019827
:1016A000083801D5002001E0019808380790099812
:1016B0000E9027E307980D901CE3DDE90D120F98BB
:1016C000FFF781FE8146DDE90D12491C0F98FFF7F7
:1016D0007AFE022101FB0099DDE90D12891C0F98A9
:1016E000FFF771FE81440E9A921C0D990F98FFF737
:1016F0006AFEA9EB00090E9A921C0D99491C0F98DD
:10170000FFF761FE022101FB10990E9A921C0D99C0
:10171000891C0F98FFF757FEA9EB000007B2DDE91F
:101720000D12891C0F98FFF74EFE81460E9A521C2F
:101730000D99891C0F98FFF746FE022101FB0099C5
:101740000E9A921C0D99891C0F98FFF73CFE81445C
:10175000DDE90D120F98FFF736FEA9EB00090E9A8E
:10176000521C0D990F98FFF72EFE022101FB1099D4
:101770000E9A921C0D990F98FFF725FEA9EB000019
:101780000FFA80F8002F02DBB8F1000F00DA00BF7B
:1017900041463846FFF792FD0390039841100B989D
:1017A00001FB05060398401C40100B9900FB051037
:1017B000059002990E98401A083000EB0010019A2B
:1017C0000D99891A08440830514951F820000490B5
:1017D000039810281CD2DFE800F0081C4A629FB36F
:1017E000F2F0EFEEEDECEBEAE9E838467AF022FFB2
:1017F000824604997AF06EFF81464448006850F8AA
:10180000261048467AF0F1FE4049096841F8260062
:101810006CE2A7EB08007AF00DFF824604997AF09B
:1018200059FF81463948006850F8261048467AF03A
:10183000DCFE3649096841F8260040467AF0FAFE97
:10184000834634497AF046FF824604997AF042FF93
:1018500081462E480268059852F8201048467AF0D2
:10186000C4FE2A490968059A41F822003EE2404632
:101870007AF0E0FE834627497AF02CFF82460499ED
:101880007AF028FF81462148006850F82610484623
:101890007AF0ABFE1D49096841F8260026E2384679
:1018A0007AF0C8FE83461B497AF014FF82460499F9
:1018B0007AF010FF81461548006850F82610484617
:1018C0007AF093FE1149096841F82600A8EB070059
:1018D0007AF0B0FE824604997AF0FCFE81460B480D
:1018E0000268059852F8201048467AF07EFE0749B3
:1018F0000A68059942F82100F8E1000064D402204A
:1019000078D402208809002084090020780900206A
:10191000EC670908F704B53F40467AF08BFE824633
:1019200004997AF0D7FE8146FE48006850F82610E8
:1019300048467AF05AFEFB49096841F82600D5E18D
:1019400007EB08007AF076FE824604997AF0C2FE30
:101950008146F448006850F8261048467AF045FE63
:10196000F049096841F82600B7F1000901DB494652
:1019700001E0C9F1000108467AF05CFEEA490090F6
:101980007AF0A8FE834604997AF0A4FE8246E548E0
:101990000068059A50F8221050467AF026FEE14978
:1019A0000968059A41F82200A0E166E14DE111E1E4
:1019B000F5E0BFE09FE069E04DE018E0FFE740465A
:1019C0007AF038FE8346D8497AF084FE824604993C
:1019D0007AF080FE8146D348006850F826104846C9
:1019E0007AF003FECF49096841F826007EE14046BF
:1019F0007AF020FE8346CC497AF06CFE8246049948
:101A00007AF068FE8146C748006850F826104846BC
:101A10007AF0EBFDC349096841F8260017EB080985
:101A200001D4494601E0C9F1000108467AF002FEFE
:101A3000834604997AF04EFE8246BA480068059AB9
:101A400050F8221050467AF0D0FDB6490968059A40
:101A500041F822004AE1B7F1000901DB494601E003
:101A6000C9F1000108467AF0E5FD834604997AF051
:101A700031FE8246AB48006850F8261050467AF096
:101A8000B4FDA849096841F826002FE1A8EB07003A
:101A90007AF0D0FD824604997AF01CFE8146A14876
:101AA000006850F8261048467AF09FFD9D49096865
:101AB00041F82600B8F1000901DB494601E0C9F10F
:101AC000000108467AF0B6FD974900907AF002FED0
:101AD000834604997AF0FEFD824692480068059A92
:101AE00050F8221050467AF080FD8E490A68059918
:101AF00042F82100FAE0B8F1000901DB494601E0B3
:101B0000C9F1000108467AF095FD874900907AF006
:101B1000E1FD834604997AF0DDFD82468148006844
:101B200050F8261050467AF060FD7E49096841F869
:101B30002600DBE0B7F1000901DB494601E0C9F10D
:101B4000000108467AF076FD774900907AF0C2FDF0
:101B5000834604997AF0BEFD82467248006850F8C8
:101B6000261050467AF041FD6E49096841F826007A
:101B7000A7EB08007AF05EFD824604997AF0AAFD90
:101B8000814668480268059852F8201048467AF065
:101B90002CFD64490A68059942F82100A6E0B8F1D5
:101BA000000901DB494601E0C9F1000108467AF06D
:101BB00041FD834604997AF08DFD824659480068BC
:101BC00050F8261050467AF010FD5649096841F841
:101BD00026008BE017EB080901D4494601E0C9F162
:101BE000000108467AF026FD834604997AF072FDDA
:101BF00082464C48006850F8261050467AF0F5FCB2
:101C00004849096841F82600B7F1000901DB494657
:101C100001E0C9F1000108467AF00CFD424900904C
:101C20007AF058FD834604997AF054FD82463D4887
:101C30000068059A50F8221050467AF0D6FC3949CF
:101C40000A68059942F8210050E038467AF0F2FC23
:101C5000834635497AF03EFD824604997AF03AFD92
:101C600081463048006850F8261048467AF0BDFC9E
:101C70002C49096841F8260038E0B8F1000901DB79
:101C8000494601E0C9F1000108467AF0D3FC264933
:101C900000907AF01FFD834604997AF01BFD82467E
:101CA0002048006850F8261050467AF09EFC1D49E6
:101CB000096841F8260017EB080901D4494601E0FC
:101CC000C9F1000108467AF0B5FC834604997AF020
:101CD00001FD82461348006850F8261050467AF0FD
:101CE00084FC1049096841F8260000BF00BF0D9828
:101CF000401C0D9006990D9888427FF7DEAC0E9837
:101D0000401C0E9008990E9888427FF7D3AC0B9830
:101D1000401C0B900B98A8427FF49BAC00200B90CA
:101D20001FE0000078090020F704B53F00200C9068
:101D300011E0DDE90B0101FB0506FF49096851F8D7
:101D40002600FE495DF046F8FD49096841F8260085
:101D50000C98401C0C900C980828EADB0B98401C4F
:101D60000B900B981028E1DB11B0BDE8F08F2DE946
:101D7000FF4F8BB004460D461E46199F002007906A
:101D800090E2079805EB80000088ADF828000798DE
:101D900005EB80004088ADF82A000798401C05EB51
:101DA00080000088ADF824000798401C05EB8000F7
:101DB0004088ADF82600BDF92800BDF924108842FE
:101DC00072D1BDF92A00089067E0002E41D04FF093
:101DD000FF383AE04FF0FF30069031E0089810EB02
:101DE00008002AD4089800EB08011898814224DAE8
:101DF000BDF92800069940181FD4BDF9281006988F
:101E00000844B84219DABDF928100698084405902C
:101E10000898404404EBC000059900EBE10000780D
:101E200001F007020121914008430899414404EB65
:101E3000C101059A01EBE20108700698401C06906A
:101E400006980228CAD108F10108B8F1020FC1D1E1
:101E500016E0BDF928000590089804EBC00105982C
:101E600001EBE0000078059901F0070201219140A3
:101E70000843089904EBC102059902EBE1010870DF
:101E8000BDF92600BDF92A10884203DD0898401CE0
:101E9000089002E00898401E0890BDF926100898A6
:101EA000814292D1FBE1FFE7BDF92A00BDF926107E
:101EB000884275D1BDF9280008906AE0002E42D012
:101EC0004FF0FF383BE04FF0FF30069032E00699CC
:101ED000089840182BD40699089808441899884205
:101EE00025DABDF92A0010EB080020D4BDF92A003C
:101EF0004044B8421BDA0699089808440590BDF999
:101F00002A00404404EBC001059801EBE000007892
:101F1000059901F00702012191400843BDF92A10FB
:101F2000414404EBC102059902EBE10108700698F7
:101F3000401C069006980228C9D108F10108B8F1A2
:101F4000020FC0D118E008980590BDF92A0004EBF3
:101F5000C001059801EBE0000178059800F0070248
:101F6000012090400143C8B2BDF92A1004EBC10121
:101F7000059A01EBE2010870BDF92400BDF92810B3
:101F8000884203DD0898401C089002E00898401E33
:101F90000890BDF92410089881428FD17FE1FFE7B6
:101FA000BDF92410BDF92820881A7AF043FB824637
:101FB000BDF92610BDF92A20881A7AF03BFB83462A
:101FC00051467AF027FB81467AF0E4FACDE9020126
:101FD00021F00041CDE900015AA00CC8009879F029
:101FE000A7FF13D2BDF92410BDF92820881A7AF072
:101FF00021FB8146BDF92610BDF92A20881A7AF006
:1020000019FB824649467AF005FB12E0BDF926101D
:10201000BDF92A20881A7AF00DFB8146BDF92410FB
:10202000BDF92820881A7AF005FB824649467AF0E5
:10203000F1FA0490BDF92420BDF92830D01ABDF979
:102040002620BDF92A30D11A01D40B4600E04B42BC
:10205000002801DB024600E0424293426BDA002096
:1020600008907EE008987AF0E5FA039004997AF0F7
:1020700031FB83467AF0D7FABDF92A1000EB01094B
:10208000BDF92800089900EB010A002E3CD04FF062
:10209000FF3835E04FF0FF3006902CE019EB0800D8
:1020A00026D409EB08001899884221DA06981AEB21
:1020B00000001DD406985044B84219DA0AF1010014
:1020C000059009EB080004EBC000059900EBE10066
:1020D0000178059800F00702012090400143C8B242
:1020E00009EB080104EBC101059A01EBE20108705C
:1020F0000698401C069006980228CFD108F10108E6
:10210000B8F1020FC6D113E0CDF814A004EBC9005A
:10211000DDF814A000EBEA0001780AF007020120C4
:1021200090400143C8B204EBC90101EBEA01087019
:10213000BDF924000AE01EE07809002085EBD13EBD
:102140007C090020000000000000F03FBDF92810CD
:10215000884203DD0898401C089002E00898401E61
:102160000890BDF92400BDF92810401A089988424A
:102170007FF478AF92E0BDF92420BDF92830D01A61
:10218000BDF92620BDF92A30D11A01D40B4600E052
:102190004B42002801DB024600E0424293427DDBD5
:1021A0000020089072E0BDF92A10089801EB0009A0
:1021B00008987AF03FFA039004997AF08BFA8346F4
:1021C0007AF031FABDF9281000EB010A002E3CD05C
:1021D0004FF0FF3835E04FF0FF3006902CE019EB60
:1021E000080026D409EB08011898814221DA0698E4
:1021F0001AEB00001DD406985044B84219DA06982C
:102200005044059009EB080004EBC000059900EB71
:10221000E1000178059800F0070201209040014399
:10222000C8B209EB080104EBC101059A01EBE20118
:1022300008700698401C069006980228CFD108F135
:102240000108B8F1020FC6D113E0CDF814A004EBD9
:10225000C900DDF814A000EBEA0001780AF00702DB
:10226000012090400143C8B204EBC90101EBEA012F
:102270000870BDF92600BDF92A10884203DD0898D0
:10228000401C089002E00898401E0890BDF9260006
:10229000BDF92A10411A0898814284D100BF0798DD
:1022A000401C07900D98411E079881427FF469AD4C
:1022B0000FB0BDE8F08F2DE9F04F099C15464FF0A7
:1022C000FF360F46B4464FF0000935E000EB890AAF
:1022D000BAF902A0BA4504DA00EB890ABAF902A0F9
:1022E00000E0BA46574600EB890ABAF900A0AA45B1
:1022F00004DA00EB890ABAF900A000E0AA465546C4
:1023000000EB890ABAF902A0E24504DD00EB890A74
:10231000BAF902A000E0E246D44600EB890ABAF915
:1023200000A0B24504DD00EB890ABAF900A000E084
:10233000B246564609F10109DDF828A0D145C5DBB2
:10234000ACEB070A0AF1010A93FBFAFA0AF1010E53
:10235000A6EB050A0AF1010A94FBFAFA0AF1010850
:102360004FF000092BE000EB890ABAF902A0AAEBB2
:10237000070A0AFB03FAACEB070B0BF1010B9AFB04
:10238000FBFAF2440FFA8AFA00EB890BABF802A0D1
:1023900000EB890ABAF900A0AAEB050A0AFB04FAC5
:1023A000A6EB050B0BF1010B9AFBFBFAC2440FFAEB
:1023B0008AFA00EB890BABF800A009F10109DDF8FE
:1023C00028A0D145CFDBBDE8F08F2DE9FF4784B0D1
:1023D00014461D46BDF91000BDF91410884223D1E2
:1023E000002619E0BDF81000296804EB810108807F
:1023F000BDF81200304400B2296804EB8101488026
:102400002868401C2860BDF91600BDF912108842EA
:1024100001DD761C00E0761EBDF91600BDF9121034
:10242000401AB042DED1E9E0BDF91200BDF9161044
:10243000884223D1002619E0BDF81200296804EB78
:1024400081014880BDF81000304400B2296804EBD7
:10245000810108802868401C2860BDF91400BDF97E
:102460001010884201DD761C00E0761EBDF91400D4
:10247000BDF91010401AB042DED1BFE0BDF9141012
:10248000BDF91020881A7AF0D5F88146BDF91610EA
:10249000BDF91220881A7AF0CDF8824649467AF0C2
:1024A000B9F880467AF076F8CDE9020121F00041D2
:1024B000CDE90001AFF274300CC8009879F038FD16
:1024C00013D2BDF91410BDF91020881A7AF0B2F8B1
:1024D0008046BDF91610BDF91220881A7AF0AAF8C4
:1024E000814641467AF096F812E0BDF91610BDF922
:1024F0001220881A7AF09EF88046BDF91410BDF9B2
:102500001020881A7AF096F8814641467AF082F8CF
:102510000746BDF91420BDF91030D01ABDF91620B8
:10252000BDF91230D11A01D40B4600E04B4200280D
:1025300001DB024600E0424293422FDC002625E008
:10254000BDF81000304400B2296804EB8101088016
:1025500030467AF06FF8814639467AF0BBF880460B
:102560007AF061F8BDF81210084400B2296804EB53
:10257000810148802868401C2860BDF91400BDF91D
:102580001010884201DD761C00E0761EBDF91400B3
:10259000BDF91010401AB042D2D12EE0002625E03D
:1025A000BDF81200304400B2296804EB8101488074
:1025B00030467AF03FF8814639467AF08BF880460B
:1025C0007AF031F8BDF81010084400B2296804EB25
:1025D000810108802868401C2860BDF91600BDF9FB
:1025E0001210884201DD761C00E0761EBDF916004F
:1025F000BDF91210401AB042D2D100BF08B0BDE8F8
:10260000F0872DE9F84F04460D461646701E00EB84
:10261000D0714FEA6109A5EB09000090CA46A800F5
:1026200028F014F98346AA002146584606F01DFDFD
:10263000B54205DB06EBD6714910B6EB410101D17D
:10264000BDE8F88F4F463CE0002004EB870108808E
:1026500004EB87014880CAF100081BE004EB870007
:10266000008807EB08010BEB81010988084400B2E0
:1026700004EB8701088004EB8700408807EB080122
:102680000BEB81014988084400B204EB87014880C4
:1026900008F10108D045E1DD04EB8700B0F9000046
:1026A00090FBF6F000B204EB8701088004EB870092
:1026B000B0F9020090FBF6F000B204EB870148800D
:1026C0007F1C00988742BFDB584628F0BBF8B7E76D
:1026D0002DE9FF4F91B004460D461E9E0327802032
:1026E00010900F9040200E900D9000200B900A90BB
:1026F0008146802009900520049029462046049AAE
:10270000FFF77FFF4FF0010A29E004EB8A01B1F9DE
:102710000010AAF1010204EB8202B2F90020881A2B
:1027200001D4014600E04142089104EB8A01B1F96D
:102730000210AAF1010204EB8202B2F90220881A07
:1027400001D4014600E041420791DDE907108842CB
:1027500001DB089800E0079881440AF1010AAA45C4
:10276000D3DB4FEA890028F071F880464FEA8902EE
:102770000021404628F06EF84FF0000A15E00AF1FB
:10278000010004EB8001042203A806F06EFC04EBB8
:102790008A01042202A806F068FC0AAB4246DDE981
:1027A0000201FFF712FE0AF1010A681E5045E6D148
:1027B0004FEA8900B0FBF7F0039028F047F80C903F
:1027C0004FEA8900B0FBF7F00246002103900C9815
:1027D00028F040F84FF0000A13E008EB8A00008868
:1027E000DDE90B2101EB8201088008EB8A004088BB
:1027F000DDE90B2101EB820148800B98401C0B9016
:10280000BA44CA45E9DB404628F01CF80B9B0E9AF7
:10281000CDE90023DDE90C03DDE90F12FFF74BFDE5
:102820004FF400720021FD48006828F013F8DDE93C
:102830000D23CDE900230123F848DDE90B210068D1
:10284000FFF795FA0C9827F0FDFFF4480999006806
:10285000FEF7DDFE2823099ACDE900230123F04885
:10286000F0490268F0480068FEF7F2FC149801286D
:1028700006D0022809D003280CD0042814D10EE079
:10288000002006900A20059012E00A2006902420DD
:1028900005900DE0242006903E20059008E00020E1
:1028A00006903E20059003E0002015B0BDE8F08FB3
:1028B00000BF4FF4F8720021DC48006827F0CAFF1F
:1028C0004FF0000A40E04FF0000B30E0069A52440F
:1028D00002EB8202D64B03EB421252F82B10D04A85
:1028E000126852F82B0079F04EFF0290069A52447B
:1028F00002EB8202CE4B03EB421252F82B10C84A75
:10290000126852F82B0079F03EFF0190029979F09D
:10291000E1FE0390C548006850F83A10039879F03A
:1029200064FEC249096841F83A000BF1010BBBF1A2
:10293000280FCBD1504679F07DFEBC49096801EBE8
:10294000CA0148600AF1010ADDE90501401A504553
:10295000B9D1DDE90501401A421E0021B3480068E3
:10296000FEF718FC4FF0000A0EE0B049096801EBD1
:10297000CA01486879F057FE06990844AD49085CD9
:1029800006F80A000AF1010A13988245EDDB0020DF
:1029900006F80A00307888E72DE9F84F04460D461E
:1029A00016461F46DDF828804FF000094FF6FF7AE3
:1029B000D346012D02DCC846BDE8F88F4FF0000970
:1029C0001CE004EB8900B0F9001009F1010004EBF0
:1029D0008000B0F9000081420BD104EB8900B0F90E
:1029E000021009F1010004EB8000B0F902008142FD
:1029F00000D006E009F101001FFA80F9681E484581
:102A0000DFDC00BF681E484500D1D5E74FF0000964
:102A100019E004EB8900B0F90000504504DA04EB3A
:102A2000890000881FFA80FA04EB8900B0F90200DF
:102A3000584504DA04EB890040881FFA80FB09F14D
:102A400001001FFA80F9A945E3DB4FF0000915E00A
:102A500004EB89000088A0EB0A0000B204EB8901B6
:102A6000088004EB89004088A0EB0B0000B204EB67
:102A70008901488009F101001FFA80F9A945E7DBC7
:102A80003B46324629462046CDF80080FFF720FE1F
:102A900092E72DE9F84F4FF00009C3F800900124A8
:102AA000EBE0A4F1010900EB8909B9F9005000EB52
:102AB0008409B9F900A0CDF800A0A4F1010900EB48
:102AC0008909B9F9026000EB8409B9F90270DDF8EF
:102AD00000A0BAEB050901D4CA4601E0C9F1000A19
:102AE000D446B7EB060901D4CA4601E0C9F1000A91
:102AF000D646F44559DD4FF0000853E0DDF800906C
:102B0000A9450ADD05EB08090FFA89F9D3F800A0F9
:102B100002EB8A0AAAF8009009E0A5EB08090FFA6F
:102B200089F9D3F800A002EB8A0AAAF80090B7420C
:102B30001ADDD3F800A002EB8A0ABAF900A0BAEBBA
:102B4000050901D4CA4601E0C9F1000A0AFB0EFAE0
:102B50009AFBFCFAB2440FFA8AFAD3F800B002EBFF
:102B60008B0BABF802A01AE0D3F800A002EB8A0AA4
:102B7000BAF900A0BAEB050901D4CA4601E0C9F1CF
:102B8000000A0AFB0EFA9AFBFCFAA6EB0A0A0FFAF5
:102B90008AFAD3F800B002EB8B0BABF802A01B1D36
:102BA00008F10108E045A9DB66E04FF0000861E0AC
:102BB000B7420ADD06EB08090FFA89F9D3F800A03D
:102BC00002EB8A0AAAF8029009E0A6EB08090FFABC
:102BD00089F9D3F800A002EB8A0AAAF80290DDF87E
:102BE0000090A94528DDD3F800A002EB8A0ABAF9C3
:102BF00002A0BAEB060901D4CA4601E0C9F1000AF5
:102C00000AFB0CFA9AFBFEFAAA440FFA8AFAD3F8E6
:102C100000B002EB8B0BABF800A028E07409002099
:102C200080090020B07109087C0900208C0900206F
:102C3000B0C1090870E80908D3F800A002EB8A0ABD
:102C4000BAF902A0BAEB060901D4CA4601E0C9F1FB
:102C5000000A0AFB0CFA9AFBFEFAA5EB0A0A0FFA25
:102C60008AFAD3F800B002EB8B0BABF800A01B1D67
:102C700008F10108F0459BDB641C8C42FFF611AFA4
:102C8000BDE8F88FFE4880ED3A0A70472DE9F0471D
:102C9000DFF8EC9300262DED0A8B0446B0EE408A57
:102CA000F0EE608A884635463746D9F8AC0079F0B0
:102CB000CEF853EC182B79F03BF96FD3D9F8B0006C
:102CC00079F0C5F853EC182B79F06CFAF5D3B4F918
:102CD0000000B4F90610401A79F0B9F853EC182B3B
:102CE00079F026F900D20126B4F90E00B4F91410D7
:102CF000401A79F0ACF853EC182B79F019F900D29E
:102D0000761CB4F91C00B4F92210401A79F09FF82F
:102D100053EC182B79F00CF900D2761C9FEDD90BEF
:102D2000012E3BDC53EC102B51EC180B79F03CF9E5
:102D30008946064649EC180BB4F90000B4F90610B0
:102D4000401A79F084F853EC182B79F02BFA00D262
:102D50000125B4F90E00B4F9141049EC186B401AAF
:102D600079F075F853EC182B79F01CFA00D26D1C31
:102D7000B4F91C00B4F9221049EC186B401A79F030
:102D800066F853EC182B79F00DFA00D26D1C002D6B
:102D900005DD0220BDEC0A8BBDE8F08765E000266A
:102DA0009FEDBACB06EB460904EB8905B5F90A009D
:102DB00079F04DF898ED048B53EC182B79F000FB6B
:102DC00041EC190BB5F9040079F041F853EC182BDC
:102DD00079F0F6FA53EC192B79F0E6F841EC190B7F
:102DE000B5F9080079F033F898ED028B53EC182B05
:102DF00079F0E6FA41EC1A0BB5F9020079F027F800
:102E000053EC182B79F0DCFA53EC1A2B79F0CCF850
:102E100041EC1A0BB5F9060079F019F898ED008B22
:102E200053EC182B79F0CCFA41EC1B0B34F9290048
:102E300079F00DF853EC182B79F0C2FA53EC1B2BF8
:102E400079F0B2F853EC1A2B78F054FD53EC192BAF
:102E500078F050FD53EC1C2B79F06AF800D27F1CFF
:102E6000761C032E9EDB022F01DA012092E7002060
:102E700090E788490A684B68D00180EAD20080EA6E
:102E8000031048608B68520380EAC30382EA53123E
:102E9000520282EAD0208B600860704710B52DED99
:102EA000048BF0EE408AFFF7E4FF00EE100AB8EE64
:102EB000400ADFED790A20EE200A9FED789A20EE95
:102EC000090A23F0F9FBB0EE408AFFF7D2FF00EECB
:102ED000100AB8EE400A20EE090AB5EEC00AF1EE7B
:102EE00010FA01D1B7EE000A10EE100A79F052FB89
:102EF00041EC100B23F0A8FE9FED691B51EC100B69
:102F000053EC112B79F050F878F0C2FC00EE100A67
:102F100025F003FC20EE280A20EE080ABDEC048B05
:102F200010BD2DE9F04105462DED048BB0EE608A11
:102F3000F0EE408A0F4618EE100A79F02BFB97ED61
:102F4000301B53EC112B79F02FF841EC190B18EED4
:102F5000900A79F01FFB95ED301B53EC112B79F0A3
:102F600023F853EC192B78F0C5FC0024C5E9300197
:102F700018EE100A79F00EFB07EBC40898ED001B61
:102F800053EC112B79F010F841EC190B18EE900A64
:102F900079F000FB05EBC40696ED001B53EC112BFA
:102FA00079F002F853EC192B78F0A4FCC6E9000183
:102FB00018EE100A79F0EEFA98ED241B53EC112B61
:102FC00078F0F2FF41EC190B18EE900A79F0E2FA72
:102FD00096ED241B53EC112B78F0E6FF53EC192BE4
:102FE00078F088FC641CC6E92401062CC0DB0024B0
:102FF00018EE100A79F0CEFA41EC100B07EBC40082
:1030000090ED121B51EC100B53EC112B78F0CCFF10
:1030100041EC190B18EE900A79F0BCFA05EBC406E6
:1030200096ED121B53EC112B78F0BEFF53EC192BCD
:1030300078F060FC641CC6E91201092CD8DB00247E
:1030400018EE100A79F0A6FA41EC100B07EBC40059
:1030500090ED0C1B51EC100B53EC112B78F0A4FFEE
:1030600041EC190B18EE900A79F094FA05EBC406BE
:1030700096ED0C1B53EC112B78F096FF14E000003A
:1030800068D702200000000000000440000000009B
:1030900000000000A4090020DB0FC9400000802FC1
:1030A00000000000000000C053EC192B78F022FC57
:1030B000641CC6E90C01032CC2DBBDEC048BBDE82B
:1030C000F0812DE9F04F04462DED068B83B00D46BF
:1030D000086878F0BCFE41EC1A0B686878F0B7FE1F
:1030E00041EC190BA86878F0B2FE41EC180B94ED96
:1030F000300B9FEDFE1B51EC100B53EC112B78F0B5
:10310000F9FBC4E9300194ED0C0B53EC1A2B51EC94
:10311000100B78F0EFFBC4E90C0194ED0E0B53ECAF
:10312000192B51EC100B78F0E5FBC4E90E0194ED7E
:10313000100B53EC182B51EC100B78F0DBFBC4E9AF
:10314000100153EC1A2B51EC1A0B78F02DFF029161
:1031500094ED001B064653EC112B78F0CBFBC4E931
:10316000000153EC192B51EC1A0B78F01DFF894626
:1031700049EC100B94ED021B054653EC112B51EC5E
:10318000100B78F0B7FBC4E9020153EC182B51EC9B
:103190001A0B78F009FF8B464BEC100B94ED041BD7
:1031A000804653EC112B51EC100B78F0A3FBC4E9D3
:1031B000040153EC192B51EC190B78F0F5FE019139
:1031C00094ED061B074653EC112B78F093FBC4E9F2
:1031D000060153EC182B51EC190B78F0E5FE009129
:1031E00094ED081B824653EC112B78F083FBC4E965
:1031F000080153EC182B51EC180B78F0D5FE94ED28
:103200000A1B53EC112B78F075FBC4E90A010299F3
:1032100053EC1A2B41EC106B51EC100B78F0C4FE00
:1032200094ED121B53EC112B78F064FB49EC105B0E
:10323000C4E9120153EC192B51EC100B78F0B4FED9
:1032400094ED141B53EC112B78F054FB4BEC108BCA
:10325000C4E9140153EC182B51EC100B78F0A4FEC8
:1032600094ED161B53EC112B78F044FB49EC105BEA
:10327000C4E9160153EC1A2B51EC100B78F094FEB4
:1032800094ED181B53EC112B78F034FBC4E91801B2
:10329000019953EC192B41EC107B51EC100B78F099
:1032A00083FE94ED1A1B53EC112B78F023FBC4E939
:1032B0001A010099554641EC10AB0E4653EC182B01
:1032C00051EC100B78F070FE94ED1C1B53EC112B9D
:1032D00078F010FBC4E91C0153EC1A2B51EC180BCD
:1032E00078F062FE53EC1A2B78F05EFE94ED1E1B14
:1032F00053EC112B78F0FEFA46EC105BC4E91E018A
:1033000053EC192B51EC100B78F04EFE94ED201B72
:1033100053EC112B78F0EEFAC4E9200153EC182B92
:1033200051EC180B78F040FE894649EC100B07462B
:1033300053EC182B51EC100B78F036FE94ED221B59
:1033400053EC112B78F0D6FAC4E9220153EC1A2B76
:1033500051EC1A0B78F028FE884648EC100B054615
:1033600053EC1A2B51EC100B78F01EFE53EC1A2B79
:1033700078F01AFE94ED241B53EC112B78F0BAFA76
:10338000C4E9240153EC192B51EC190B78F00CFE15
:103390008A464AEC100B064653EC192B51EC100BE5
:1033A00078F002FE53EC192B78F0FEFD94ED261B0D
:1033B00053EC112B78F09EFA49EC107BC4E92601FE
:1033C00053EC182B51EC100B78F0EEFD53EC182B4E
:1033D00078F0EAFD94ED281B53EC112B78F08AFA73
:1033E00048EC105BC4E9280153EC192B51EC100B8D
:1033F00078F0DAFD53EC192B78F0D6FD94ED2A1B0A
:1034000053EC112B78F076FA48EC105BC4E92A01F2
:1034100053EC182B51EC100B78F0C6FD53EC182B25
:1034200078F0C2FD94ED2C1B53EC112B78F062FA6E
:103430004AEC106BC4E92C0153EC182B51EC100B27
:1034400078F0B2FD53EC182B78F0AEFD94ED2E1B06
:1034500053EC112B78F04EFAC4E92E0103B0BDEC09
:10346000068BBDE8F08F2DE9F04F93462DED108BC4
:103470000D46044693B090ED0CEB53EC1E2B51EC33
:103480001E0B78F091FD94ED000B41EC190B8DEDC6
:10349000080B94ED308B53EC102B51EC180B78F09B
:1034A00083FD53EC192B78F08BFF94ED0EDB41EC90
:1034B0001F0B53EC1D2B51EC1D0B78F075FD94ED9B
:1034C000060B41EC190B8DED060B53EC102B51EC58
:1034D000180B78F069FD53EC192B78F071FF41EC73
:1034E000100B8DED040B94ED10CB03E000000000F9
:1034F0000000F03F53EC1C2B51EC1C0B78F054FDFA
:1035000094ED0A0B41EC190B8DED020B53EC102BD3
:1035100051EC180B78F048FD53EC192B78F050FF64
:1035200041EC110B53EC1D2B8DED001B51EC1E0BD0
:1035300078F03AFD94ED020B41EC190B53EC102B93
:1035400051EC180B78F030FD53EC192B78F038FF64
:1035500041EC1B0B53EC1C2B51EC1E0B78F024FDA3
:1035600094ED040B41EC190B53EC102B51EC180BA0
:1035700078F01AFD53EC192B78F022FF41EC1A0B6E
:1035800053EC1C2B51EC1D0B78F00EFD94ED080B49
:1035900041EC190B53EC102B51EC180B78F004FD97
:1035A00053EC192B78F00CFF9DED020B41EC190B3D
:1035B00053EC102B51EC1E0B78F0F6FC41EC110B88
:1035C00051EC180B8DED101B94ED160B53EC102BDA
:1035D00078F0EAFC41EC110B51EC1E0B8DED0E1B4B
:1035E0009DED060B53EC102B78F0DEFC41EC110B3B
:1035F00051EC180B8DED0C1B94ED140B53EC102BB0
:1036000078F0D2FC41EC110B51EC1E0B8DED0A1B36
:103610009DED080B53EC102B78F0C6FC94ED120BCB
:1036200041EC1E0B53EC102B51EC180B78F0BCFC4A
:1036300053EC1E2B78F0C4FE9DED0A1B53EC112BAE
:1036400078F058F99DED0C1B53EC112B78F0B8FE77
:103650009DED0E1B53EC112B78F04CF99DED101BDA
:1036600053EC112B78F0ACFE9FEDFE1B53EC112BAD
:1036700078F09AFC9DED020B41EC1E0B53EC102BE5
:1036800051EC1D0B78F090FC41EC110B51EC180B38
:103690008DED101B94ED1C0B53EC102B78F084FC7B
:1036A00041EC110B51EC1D0B8DED0E1B9DED060B2E
:1036B00053EC102B78F078FC41EC110B51EC180B0B
:1036C0008DED0C1B94ED1A0B53EC102B78F06CFC69
:1036D00041EC110B51EC1D0B8DED0A1B9DED080B00
:1036E00053EC102B78F060FC94ED180B41EC1D0BA3
:1036F00053EC102B51EC180B78F056FC53EC1D2BAF
:1037000078F05EFE9DED0A1B53EC112B78F0F2F879
:103710009DED0C1B53EC112B78F052FE9DED0E1B12
:1037200053EC112B78F0E6F89DED101B53EC112BA8
:1037300078F046FE9FEDCB1B53EC112B78F034FC58
:103740009DED020B41EC1D0B53EC102B51EC1C0BAF
:1037500078F02AFC41EC110B51EC180B8DED021B9B
:1037600094ED220B53EC102B78F01EFC41EC110B66
:1037700051EC1C0B8DED0A1B9DED060B53EC102B31
:1037800078F012FC41EC110B51EC180B8DED0C1B79
:1037900094ED200B53EC102B78F006FC41EC110B50
:1037A00051EC1C0B8DED061B9DED080B53EC102B03
:1037B00078F0FAFB94ED1E0B41EC1C0B53EC102B34
:1037C00051EC180B78F0F0FB53EC1C2B78F0F8FD63
:1037D0009DED061B53EC112B78F08CF89DED0C1B26
:1037E00053EC112B78F0ECFD9DED0A1B53EC112BE3
:1037F00078F080F89DED021B53EC112B78F0E0FD82
:103800009FED981B53EC112B78F0CEFB9DED040B34
:1038100041EC180B53EC102B51EC1F0B78F0C4FB50
:1038200010919DED001B824653EC112B78F0BCFBF0
:1038300041EC110B53EC192B8DED0A1B51EC1F0BB6
:1038400078F0B2FB53EC192B78F0AEFB41EC110B86
:1038500053EC1A2B8DED081B9DED040B51EC100B56
:1038600078F0A2FB814653EC1A2B119178F09CFB67
:1038700041EC110B8DED061B9FED7C0B51EC1B0BEE
:1038800053EC102B78F090FB53EC1A2B78F08CFB58
:1038900053EC192B78F088FB9DED001B41EC1C0BC1
:1038A00053EC1B2B51EC110B78F07EFB074653ECCD
:1038B0001B2B029178F078FB53EC1C2B78F080FDE9
:1038C0009DED061B53EC112B78F014F89DED081BB1
:1038D00053EC112B78F00EF89DED0A1B53EC112BD5
:1038E00078F06EFD41EC1C0B9FED620B53EC102B3E
:1038F00078F014FA7DD053EC192B51EC1B0B78F0B7
:1039000053FB53EC182B78F04FFB41EC110B53ECAD
:103910001D2B8DED0E1B029941EC107B51EC100B11
:1039200078F042FB41EC110B8DED0C1B9DED000B73
:1039300053EC102B9DED040B51EC100B78F034FB85
:1039400053EC1E2B78F030FB41EC110B53EC192B90
:103950008DED081B51EC190B78F026FB53EC1E2B58
:1039600078F022FB41EC110B53EC1D2B8DED0A1B63
:1039700051EC190B78F018FB41EC110B53EC182BA0
:103980008DED061B9DED040B51EC100B78F00CFB3C
:103990009DED061B53EC112B78F012FD53EC1A2B06
:1039A00078F002FB9DED0A1B53EC112B77F0A2FF80
:1039B0009DED081B53EC112B78F002FD9DED0C1BC7
:1039C00053EC112B77F096FF9DED0E1B53EC112B52
:1039D00078F0F6FC41EC100B53EC1A2B8DED060B36
:1039E00051EC1B0B78F0E0FA8846064648EC100BC9
:1039F00000E065E153EC182B51EC100B78F0D4FA91
:103A000041EC110B53EC1E2B8DED041B029941EC84
:103A1000107B51EC100B78F0C7FA41EC110B51EC14
:103A20001F0B8DED021B9DED000B53EC102B78F05E
:103A3000BBFA53EC1D2B78F0B7FA41EC110B53ECA9
:103A40001A2B8DED081B51EC1A0B78F0ADFA53ECE4
:103A50001D2B78F0A9FA41EC110B53EC1E2B8DEDC8
:103A6000001B0BE0000000000000E03F0000000031
:103A700000000040000000000000000051EC1A0BA4
:103A800078F092FA41EC1A0B53EC182B51EC1F0B07
:103A900078F08AFA53EC1A2B78F092FC53EC192B3D
:103AA00078F082FA9DED001B53EC112B77F022FF8A
:103AB0009DED081B53EC112B78F082FC9DED021B51
:103AC00053EC112B77F016FF9DED041B53EC112BDB
:103AD00078F076FC41EC100B53EC1D2B8DED040BB4
:103AE00048EC106B51EC100B78F05EFA41EC110BC6
:103AF00053EC1E2B8DED001B119941EC109B51ECEA
:103B0000100B78F051FA41EC110B53EC182B8DEDA2
:103B1000021B109941EC10AB51EC100B78F044FAF9
:103B200041EC1A0B53EC1B2B51EC1B0B78F03CFABD
:103B300053EC182B78F038FA41EC180B53EC1E2B91
:103B400051EC1B0B78F030FA41EC1B0B53EC1D2BA6
:103B500051EC1F0B78F028FA53EC1B2B78F030FC5B
:103B600053EC192B78F020FA53EC182B77F0C2FEA7
:103B700053EC1A2B78F024FC9DED021B53EC112B17
:103B800077F0B8FE9DED001B53EC112B78F018FC7C
:103B90009DED060B41EC190B53EC1C2B51EC100B5B
:103BA00077F064FF41EC180B53EC1C2B85ED008B78
:103BB0009DED040B51EC100B77F058FF41EC1A0B04
:103BC00053EC1C2B85ED02AB51EC190B77F04EFF3B
:103BD00041EC190B85ED049B94ED100B53EC102B6D
:103BE00078F0E2F994ED0E0B41EC1B0B53EC102B2B
:103BF00051EC1A0B78F0D8F994ED0C0B41EC1C0B3E
:103C000053EC102B51EC180B78F0CEF953EC1C2B25
:103C100077F070FE53EC1B2B77F06CFE1FED6D1BE5
:103C200053EC112B78F0C0F994ED061B94ED000BCA
:103C300041EC1B0B53EC112B51EC100B77F05AFE9F
:103C400094ED0A1B53EC112B77F054FE53EC1B2B15
:103C500078F0B6FB94ED301B53EC112B77F006FF98
:103C600041EC1B0B53EC192B51EC190B78F09CF920
:103C700041EC190B53EC1A2B51EC1A0B78F094F918
:103C800041EC1A0B53EC182B51EC180B78F08CF913
:103C900053EC1A2B77F02EFE53EC192B77F02AFEFB
:103CA00053EC1B2B77F026FE41EC100B24F0F8FCB4
:103CB0008BED000B012013B0BDEC108BBDE8F08F35
:103CC0000020F8E72DE9F04F0D462DED108B04464E
:103CD0008BB091ED00AB53EC1A2B51EC1A0B78F032
:103CE00063F994ED0CCB53EC1C2B78F05DF953EC9D
:103CF0001C2B78F059F994ED30FB41EC180B53EC88
:103D00001A2B51EC1F0B78F04FF98B464BEC100B34
:103D1000074653EC1A2B51EC100B78F045F994ED53
:103D200000EB53EC1E2B78F03FF953EC182B78F096
:103D300047FB41EC190B53EC1E2B51EC1A0B78F09E
:103D400033F953EC1C2B78F02FF94BEC107B94EDEE
:103D5000121B41EC180B53EC112B51EC100B78F0AB
:103D600023F953EC192B78F053FA53EC182B77F016
:103D7000C1FD41EC1B0B1FEDC30B51EC1A0B53ECB7
:103D8000102B78F011F9894649EC100B95ED029B48
:103D9000064653EC192B51EC100B78F005F953EC57
:103DA0001C2B78F001F994ED0EDB53EC1D2B78F011
:103DB000FBF841EC180B1FEDD30B51EC1F0B53EC30
:103DC000102B78F0F1F8824653EC1A2B069178F01C
:103DD000EBF853EC192B78F0E7F894ED021B53EC59
:103DE000112B78F0E1F853EC1B2B77F083FD53ECAB
:103DF000182B78F0E5FA41EC180B53EC1C2B51EC26
:103E00001A0B78F0D1F8049194ED06BB804653EC80
:103E10001B2B78F0C9F841EC110B4BEC107B8DEDAE
:103E2000001B94ED141B51EC100B53EC112B78F08C
:103E3000BBF853EC182B78F0EBF99DED001B53EC1D
:103E4000112B77F057FD41EC110B49EC106B8DED08
:103E5000001B95ED048B51EC100B53EC182B78F0F4
:103E6000A3F853EC1C2B78F09FF894ED10CB53EC97
:103E70001C2B78F099F841EC110B53EC1A2B8DEDBB
:103E8000021B069941EC10AB51EC100B78F08CF84A
:103E900053EC182B78F088F894ED041B53EC112B9D
:103EA00078F082F89DED001B53EC112B77F022FD8A
:103EB0009DED021B53EC112B78F082FA41EC100BB4
:103EC0008DED000B049994ED0AAB41EC108B53EC93
:103ED0001A2B51EC100B78F067F841EC110B4BECFE
:103EE000107B8DED021B94ED161B51EC100B53EC67
:103EF000112B78F059F89DED001B53EC112B78F045
:103F000087F99DED021B53EC112B77F0F3FC41EC8C
:103F1000110B8DED001B9FEDFE0B51EC1E0B53ECB6
:103F2000102B78F041F853EC1E2B78F03DF841EC63
:103F3000110B8DED021B9FEDF60B51EC1F0B53EC9B
:103F4000102B78F031F8059194ED241B814653EC49
:103F5000112B78F029F89DED001B53EC112B77F015
:103F6000C9FC9DED021B53EC112B78F029FA41ECB2
:103F7000110B53EC1E2B8DED001B51EC190B78F03F
:103F800013F853EC1D2B78F00FF841EC110B53ECA8
:103F9000192B8DED081B51EC1F0B78F005F80391E0
:103FA00094ED181B064653EC112B77F0FDFF9DEDA9
:103FB000001B53EC112B78F02BF99DED081B53ECF3
:103FC000112B77F097FC41EC110B8DED001B9FED51
:103FD000D20B51EC1E0B53EC102B77F0E5FF8B4608
:103FE0004BEC100B054653EC1B2B51EC100B77F0F0
:103FF000DBFF41EC110B8DED081B9FEDC70B51EC66
:104000001F0B53EC102B77F0CFFF049194ED2A1B7C
:10401000804653EC112B77F0C7FF9DED001B53EC4E
:10402000112B77F067FC9DED081B53EC112B78F0FA
:10403000C7F941EC110B53EC1E2B8DED001B51EC1D
:10404000180B77F0B1FF53EC1C2B77F0ADFF41EC70
:104050001E0B53EC182B51EC1F0B77F0A5FF0291B0
:1040600094ED1E1B074653EC112B77F09DFF9DED41
:10407000001B53EC112B78F0CBF853EC1E2B77F090
:1040800039FC4BEC105B41EC1F0B53EC1A2B51EC41
:10409000100B77F089FF41EC1E0B049994ED2C1B5B
:1040A00041EC108B53EC112B51EC100B77F07CFF93
:1040B00053EC1F2B77F01EFC53EC1E2B78F080F98D
:1040C00041EC1F0B53EC192B51EC190B77F06CFFE3
:1040D00053EC1D2B77F068FF53EC1D2B77F064FF3A
:1040E00041EC1E0B039953EC192B41EC106B51EC76
:1040F000100B77F059FF53EC1B2B77F055FF53EC67
:104100001F2B77F0F7FB53EC1E2B78F059F941EC9D
:104110001F0B53EC1B2B51EC190B77F045FF53ECA5
:104120001D2B77F041FF41EC1E0B039994ED1A1BF8
:1041300041EC106B53EC112B51EC100B77F034FF6A
:1041400053EC1F2B78F064F853EC1E2B77F0D2FB66
:1041500041EC1F0B9FED720B51EC190B53EC102B24
:1041600077F022FF53EC182B77F01EFF53EC1D2B3A
:1041700077F01AFF53EC1C2B77F016FF41EC1E0B67
:10418000069953EC192B41EC10AB51EC100B77F066
:104190000BFF53EC182B77F007FF94ED081B53EC43
:1041A000112B77F001FF53EC1F2B77F0A3FB53EC9F
:1041B0001E2B78F005F941EC1E0B53EC1D2B51EC36
:1041C000190B77F0F1FE53EC1A2B77F0EDFE41EC72
:1041D000190B039994ED1C1B41EC106B53EC112B44
:1041E00051EC100B77F0E0FE53EC1E2B78F010F83A
:1041F00053EC192B77F07EFB41EC1D0B9FED44EB4C
:1042000051EC1B0B53EC1E2B77F0CEFE53EC1B2B0B
:1042100077F0CAFE41EC190B059994ED261B41EC91
:10422000109B53EC112B51EC100B77F0BDFE53ECAF
:104230001D2B77F05FFB53EC192B78F0C1F841ECA4
:104240001D0B53EC1B2B51EC180B77F0ADFE53EC10
:104250001C2B77F0A9FE41EC190B029994ED201B61
:1042600041EC107B53EC112B51EC100B77F09CFEC2
:1042700053EC1D2B77F0CCFF53EC192B77F03AFB66
:104280009FED250B41EC190B53EC102B51EC1B0B44
:1042900077F08AFE53EC1A2B77F086FE41EC1B0B6D
:1042A000049994ED2E1B41EC108B53EC112B51EC27
:1042B000100B77F079FE53EC192B77F01BFB53ECC6
:1042C0001B2B78F07DF841EC1B0B53EC182B51ECB9
:1042D000180B77F069FE53EC1C2B77F065FE53EC5E
:1042E0001C2B77F061FE41EC190B029953EC182B53
:1042F00041EC107B51EC100B77F056FE53EC1A2B6F
:1043000077F052FE53EC1B2B77F0F4FA0CE0000030
:10431000000000000000D03F000000000000E03F6F
:10432000000000000000004053EC192B78F048F822
:1043300041EC190B53EC1A2B51EC180B77F034FEAF
:1043400053EC1C2B77F030FE41EC180B029994EDE6
:10435000221B41EC107B53EC112B51EC100B77F02E
:1043600023FE53EC192B77F053FF53EC182B77F007
:10437000C1FA41EC180B53EC1E2B51EC1A0B77F0E1
:1043800013FE53EC1A2B77F00FFE41EC190B059935
:1043900094ED281B41EC109B53EC112B51EC100BAE
:1043A00077F002FE53EC182B77F0A4FA53EC192B9C
:1043B00078F006F841EC100B0BB07DE430B5044604
:1043C000B0F88C0089B000040690B4F88E000D4659
:1043D00000040790B4F8900088340004089002A804
:1043E00045F08AF9029906982B46401A06900399DF
:1043F000079806AA401A079004990898401A08904E
:104400002088616A80B245F023F809B030BDF0B56C
:104410000D462DED048B87B06946FFF7CFFF9FED6A
:10442000FE8B00246F469FEDFE9A03AE57F82400E2
:1044300000EE100A06EB8400B8EEC00A20EE090A6E
:1044400080ED000A20EE000A10EE100A78F0A2F8C3
:1044500053EC182B77F04EFA41EC180B641C032C2C
:10446000E4DBB0EE480AF0EE680A24F019F9B0EE89
:10447000408AF0EE608A002456F8240078F08AF82A
:1044800053EC182B77F0F2FA77F002FA00EE100AEC
:1044900005EB8400641CD0ED000A032C30EE200AEA
:1044A00080ED000AE8DB686D401C686545F08EFB16
:1044B000E86707B0BDEC048BF0BD2DE9F041044680
:1044C00045F0B8F940BB45F043F9042824D0D5495C
:1044D00020460E46FFF79BFFD34DD5E95C01814294
:1044E00005DB304603F0E5FB0020C5F87401208EA3
:1044F0004FF00406C00515D504F1180045F08CF9FD
:104500008009B0F5C87F0AD2D5F8B800002850DD80
:10451000401EC5F8B8004AE00120BDE8F081C5F8AA
:10452000B86044E0D4F8A010D5F81401081A01D4FA
:10453000034600E04342BB4A4FF4A02C583A63457F
:1045400005DDD4E929035365C2E913102FE00312F6
:10455000D4F8A470D5F818015B43381A01D4864604
:1045600001E0C0F1000EE64505DDD4F8A800D164F5
:10457000C2E914701BE0001200FB0033D4F8A8005D
:10458000D5F81C11401A01D4014600E041426145B2
:104590000DDC001200FB0030B0F5403FB4DBA0346E
:1045A000C5F8B86094E80B004C3282E80B0000209C
:1045B000B3E70220B1E72DE9F04F9B4C2DED028BC4
:1045C00093B0D4F8A81090ED000B04EBC10181ED7D
:1045D000000BD4F8A810491CC4F8A81090ED020BE9
:1045E00004EBC10181ED000BD4F8A810491CC4F8FC
:1045F000A81090ED040B04EBC10080ED000BD4F883
:10460000A800401CC4F8A800152802DB0020C4F84C
:10461000A800182284490CA804F0AEFD1822824993
:1046200004A804F0A9FD01260DF1300A0DF1100BCC
:10463000A146002406EB460808EB040109EBC1057E
:104640000AEBC40795ED001B97ED000B53EC112B03
:1046500051EC100B77F0A6FD03D295ED000B87ED22
:10466000000B0BEBC40795ED001B97ED000B53EC13
:10467000112B51EC100B77F05BFC03D295ED000B86
:1046800087ED000B641C032CD6DB761C072ED0DBD9
:104690009DED0C1B9DED040B53EC112B51EC100BFD
:1046A00077F08EFE9DED0E1B9DED060B41EC180B79
:1046B00053EC112B51EC100B77F082FE53EC182BBE
:1046C00077F036FC0BD39DED0E1B9DED060B53ECE6
:1046D000112B51EC100B77F073FE41EC180B9DED94
:1046E000101B9DED080B53EC112B51EC100B77F0C8
:1046F00067FE53EC182B77F01BFC0BD39DED101BC2
:104700009DED080B53EC112B51EC100B77F058FE7C
:1047100041EC180B13B0B0EE480AF0EE680ABDEC9D
:10472000028BBDE8F08F10B504462DED068B9CB0D2
:10473000002155200E91CDE90F1011909FED3B8B7C
:104740000AA844F0A7FF12A90AA845F027FB16AA59
:104750000EA912A845F045FB6A460AA916A845F01D
:1047600040FB0198B2EE059A00F596700190029810
:10477000B0EE490A00F596700290039800F5967025
:104780000390FEF78BFBBDEEC00A019910EE100AF4
:10479000B0EE490A08440190FEF780FBBDEEC00A66
:1047A000029810EE101AB0EE490A08440290FEF783
:1047B00075FBBDEEC00A039910EE100A0844039081
:1047C000204601A9FEF77DFC94ED300B9FED191BEF
:1047D00051EC100B53EC112B77F0E4FC5DD21AAACC
:1047E00004A92046FEF73FFE60B39DED080B9FED48
:1047F000138B51EC100B53EC182B77F0E1FD41ECCF
:10480000100B53EC102B77F0CFFB41EC190B9DED07
:10481000060B53EC182B16E000000000000000000F
:104820000000803788D8022068D7022000000000EE
:1048300000408F40000000000000344000000000F5
:1048400000C0724029E051EC100B77F0B9FD41EC4B
:10485000100B53EC102B77F0A7FB9DED040B41ECF4
:104860001A0B53EC182B51EC100B77F0A9FD41EC0F
:10487000100B53EC102B77F097FB53EC1A2B77F0BF
:1048800039F853EC192B77F035F841EC100B23F085
:1048900007FFB0EE408AF0EE608A9FEDFD0B51EC11
:1048A000180B53EC102B77F0E1F81CB041EC100B17
:1048B000BDEC068B10BD10B5E821F74804F0F5FCFF
:1048C000F648F74920F8BC1F4A0CC280C181828299
:1048D00081834284F048E821E83004F0E6FCEF49A7
:1048E0000020C1F8B40010BD2DE9F043EB4D0446A3
:1048F0002DED108BC3B0006BC5F8A0012046FFF76B
:10490000DCFD00287ED1D5F8941105F1BC08012901
:1049100011D1B4F98C003D90B4F98E003E90B4F9F9
:1049200090003F903DA9DC48FEF7CBFB04F18C01E1
:10493000404600F0A4FB1FED48DB9FEDDABB9FED86
:10494000DBCB9FEDDCAB9FEDDDEBD34ED5F8080163
:10495000E83E002802DD401EC5F8080196ED300B48
:1049600053EC1D2B51EC100B77F01CFC7DD2CA4987
:10497000E822E839684604F0FFFBC7483DA9E8385B
:10498000FEF79FFBC44940AA20390F46A1F1C80099
:10499000FEF769FD00287BD0BF483946E838FFF7AD
:1049A00091F9B0EE408AF0EE608A95ED400B51EC43
:1049B000180B53EC102B77F003FD96ED300B41EC08
:1049C000190B53EC1B2B51EC100B77F0F9FC41EC5D
:1049D000100B51EC190B53EC102B77F047F841EC0E
:1049E000100B23F05DFE96ED30FBB0EE409AF0EE3A
:1049F000609A53EC1B2B51EC1F0B77F0E1FC53EC4E
:104A00001F2B00E0E9E077F0CFFA41EC1F0B53ECED
:104A10001C2B51EC180B77F0C7FA53EC1F2B77F0D7
:104A200025F841EC100B23F03BFED5F8E80077F0B9
:104A3000B1FD95ED381B53EC112B77F0B5FA53EC23
:104A4000192B77F075FA03D3D5F80801002826DD75
:104A50009148E8226946E83804F08EFBD5F8E80072
:104A600077F098FD95ED381B01E010E010E053EC75
:104A7000112B77F099FA53EC192B77F059FA5CD295
:104A80004FF4FA7001F03CFE0A20C5F8080154E02A
:104A90008148E8226946E83804F06EFB4DE0D5F81D
:104AA0009801012849D1D5F8B400401CC5F8B400DC
:104AB000002045F049FD96ED320B53EC1A2B51ECDA
:104AC000100B77F071FA77F065F93A9096ED340BA8
:104AD00053EC1A2B51EC100B77F066FA77F05AF979
:104AE0003B9096ED360B53EC1A2B51EC100B77F0F4
:104AF0005BFA77F04FF93C9003213AA845F096FC19
:104B000096ED300B53EC1E2B51EC100B77F04AFB5B
:104B100011D29FED6C0A6049E839F0EE400A084670
:104B2000FEF7FFF95C483946E838FFF7CBF8B0EEFE
:104B3000408AF0EE608A85ED408B208E564FC0058E
:104B40000CD5B4F87400C00508D507F1E800FFF7EC
:104B5000EAFDB0EE408AF0EE608A01E09FED4C8BFA
:104B600097ED300B1FEDCD1B51EC100B53EC112BBF
:104B700077F0DEF931D3484940AAC8318946464822
:104B8000FEF771FC00287CD0D4F8AC0077F05FF918
:104B900041EC100B53EC102B9FED4B0B51EC100B19
:104BA00076F064FF41EC1F0B4846FFF704FDB0EEC2
:104BB000409AF0EE609A53EC1F2B51EC190B77F0F2
:104BC000F1FA0BD29FED420B51EC180B53EC102B6A
:104BD00077F0AEF902D2FFF76EFEDBE153EC1F2B4C
:104BE00051EC190B77F0A4F951D251EC180B9FED51
:104BF0003A9B53EC192B77F09BF9F5D297ED300BDC
:104C00009FED371B51EC100B53EC112B77F0CAFAC8
:104C1000EAD296ED300B53EC1D2B51EC100B77F0D4
:104C20007DF87CD149461C48FFF74CF8B0EE408A2D
:104C3000F0EE608A85ED408B97ED309B53EC1B2B9B
:104C400051EC190B77F0BCFB53EC192B77F0ACF956
:104C500041EC190B53EC1C2B51EC180B77F0A4F919
:104C600053EC192B76F002FF41EC100B23F018FDEA
:104C7000B0EE408AF0EE608AD5F8E80077F08AFC62
:104C800000E088E195ED381B53EC112B2CE078E126
:104C9000000000000000084098D5022068D70220DC
:104CA0000080FFFF000000000000F03F0000000057
:104CB00000000040000000000000F0400000000084
:104CC00000409F406666E63E9A9999999999A94154
:104CD000000000000000F83F00000000000010404D
:104CE0000000000000003E4077F05EF953EC182B06
:104CF00077F01EF9FFF46FAF9DED400B494640463B
:104D0000FDF7C4FF02283FF466AF00287ED1D5F836
:104D100098010128FAD1002045F016FC00E02FE0B0
:104D200097ED320B53EC1A2B51EC100B77F03CF94A
:104D300077F030F83A9097ED340B53EC1A2B51EC96
:104D4000100B77F031F977F025F83B9097ED360BA3
:104D500053EC1A2B51EC100B77F026F977F01AF878
:104D60003C9003213AA845F061FB012045F08AFB05
:104D70001920009001900290684645F07BFBF6E018
:104D8000D5F8B40077F063F897ED301B53EC112B96
:104D900076F06CFE9FEDE71B53EC112B77F002FAD7
:104DA000A8D34946E548FEF78DFF97ED30DBB0EE1E
:104DB000408AF0EE608A53EC1B2B51EC1D0B77F010
:104DC000FFFA53EC1D2B77F0EFF841EC1B0B53EC83
:104DD0001C2B51EC180B77F0E7F853EC1B2B76F0FB
:104DE00045FE41EC100B23F05BFCB0EE40BAF0EE58
:104DF00060BAD5F8E80077F0CDFB95ED381B53ECA1
:104E0000112B77F0D1F853EC1B2B00E087E077F003
:104E10008FF8C5D39DED400B49464046FDF736FF60
:104E200000287CD196ED361B97ED360B53EC112BF9
:104E300051EC100B77F0C4FA41EC100B53EC102B33
:104E400077F0B2F896ED341B97ED340B41EC1B0B69
:104E500053EC112B51EC100B77F0B2FA41EC100B24
:104E600053EC102B77F0A0F896ED321B97ED320B38
:104E700041EC1C0B53EC112B51EC100B77F0A0FA0A
:104E800041EC100B53EC102B77F08EF853EC1C2BED
:104E900076F030FD53EC1B2B76F02CFD41EC100B23
:104EA00023F0FEFBB0EE40BAF0EE60BAD4F8AC00EE
:104EB00076F0CDFF53EC1B2B77F076F89FEDA01B1F
:104EC00053EC112B77F070F841EC1B0B53EC192BC2
:104ED00077F068F91AD39FED9C0B51EC1B0B53EC48
:104EE000102B77F05FF9BFF476AED5F8B40076F00A
:104EF000AEFF97ED301B53EC112B76F0B7FD9FED15
:104F0000941B53EC112B77F013F8ECD2D5F89801E1
:104F100001287FF460AE002045F016FB00E039E088
:104F200085ED408B97ED320B53EC1A2B51EC100BA7
:104F300077F03AF876F02EFF3A9097ED340B53EC79
:104F40001A2B51EC100B77F02FF876F023FF3B90E3
:104F500097ED360B53EC1A2B51EC100B77F024F82D
:104F600076F018FF3C9003213AA845F05FFAF7EE7F
:104F7000000A9FED790A7149A1F1E800FDF7D1FF20
:104F800029E697ED300B53EC1E2B51EC100B77F00C
:104F900009F9F5D3002043B0BDEC108BBDE8F083D8
:104FA00070B56E4C0546D4F80C0110B9284600F0D7
:104FB00091F8D5F8B01044F6206081420ADAD4F8AE
:104FC000102111448142C4F810114FF0000005DB9C
:104FD000C4F810012846BDE8704085E470BD042285
:104FE0004FF4C871AFF2470045F0E2B8AFF24F009E
:104FF00045F0A8BB514810B5E821E83804F055F950
:10500000FFF759FC4FF4D471544804F04EF9534C57
:10501000B7EE000A04F5907084ED3A0A02F095FDAF
:105020000A20C4F87001B2EE000A84ED570A1E206F
:105030009FED4B0AC4F87C0184ED620A9FED490A9A
:1050400084ED610A9FED480A002084ED630A10BDDB
:1050500010B5FFF7CFFF002805D1AFF27D00BDE806
:10506000104045F02DB910BD10B5AFF2CB0045F0A2
:1050700069FBAFF29500BDE8104045F089BB30B543
:105080000022C2EBC20331F9124030F91350AC4296
:105090000ADD02EB42040D8820F8245000EB840462
:1050A0004D8865808D88A58000EB430331F912405F
:1050B000B3F906309C4209DA02EB420300EB8303AA
:1050C0000C88DC804C881C818C885C81521C032AF3
:1050D000D7DB30BD70B5214DD0F8AC200446EAB125
:1050E000D3170020192103F07EF945F8AC0F54F8CE
:1050F000AC2F0020D317052103F075F968602268F2
:105100000020D317962103F06EF976F0A0FEC5E9D2
:105110000D01AC3D0120C5F80C0170BD6FF00040E1
:10512000C5F8AC009FED110BC5F8B00085ED380B4C
:10513000F0E700000AD7A3703D0AE73F98D50220A8
:10514000000000000000103E0000000000000440CD
:10515000333333333333C33F0000000068D70220BA
:10516000CDCCCC3E3333333F9A99193F0000C0FF7A
:10517000FFFFDF4110B5FF49C4074FF040434FF038
:10518000804205D08B66CB66C1E91C328A67CA674C
:10519000840709D5C1F80031C1F80431C1E94232B0
:1051A000C1F81021C1F81421400709D5C1F8983180
:1051B000C1F89C31C1E96832C1F8A821C1F8AC211D
:1051C00010BD2DE9F14F002082B082468146029841
:1051D000806F00287ED000220020401C0428FCDBC9
:1051E000029800EBC203D3E90010A1FB0167D3E9E9
:1051F000065400FB017701FB0077AB46AD1BCDE900
:1052000000670326A5FB06C8A64664EB070404FB5B
:105210000684002705FB0745DDE900671CEB060453
:105220007D41A4FB016705FB017504FB0055D3E933
:105230000C47341B65EB0705CDE900455D46A5FB32
:1052400005670324A6FB04580EFB0B770BFB0E77B8
:1052500007FB04844FF0000C06FB0C44D3E91263F7
:10526000761B63EB04034C18A4FB017C40EB0005A8
:1052700005FB01C504FB0055A7FB014C05FB01C55F
:1052800007FB0055A4FB017C05FB01C504FB005492
:10529000F6196341DDE90045AD0045EA9475A400C7
:1052A000A4FB017C05FB01C104FB0014F01B73EBA4
:1052B000040103D50023404263EB0101BAEB000473
:1052C00079EB010301DA82468946521C032A83DB0B
:1052D000504600E016E0494677F0B6F900EE900A35
:1052E000A54890ED0E1A80EE810A10EE100A77F0B4
:1052F00053FAA04AD2F80C2203B09200BDE8F04F56
:1053000003F05EB8002003B00146BDE8F08F2DE940
:10531000F14F0020009A0146926FE2B30024002270
:10532000521C042AFCDB009A02EBC405AA46D5E90C
:105330000029A2FB023CD5E906769E46FB1A03250E
:10534000A3FB057809FB02CC02FB09CB66EB0B063D
:1053500006FB05854FF0000C03FB0C5617EB0E0304
:10536000A3FB027C46EB0B0606FB02C203FB0923F0
:10537000DAE90C25BA1AAB4103D50025524265EB98
:105380000303851A71EB030501DA10461946641C04
:10539000032CC4DB00E015E077F056F900EE900A2C
:1053A000754890ED0E1A80EE810A10EE100A77F023
:1053B000F3F9704AD2F80C22BDE8F84F02EB420232
:1053C00002F0FEBF00200146BDE8F88F2DE9FE4344
:1053D000684D80460024D5F810626F4605EBC40185
:1053E0003246D1E9020102F0D8FF05EB8401B1F8A1
:1053F00084100904401847F8240004F10104032C28
:10540000ECDB5C489821083003F04FFF0120FFF7E8
:10541000B1FE95F8E8010199042807D1D5F81802E2
:10542000B0F5201F02DD052085F8E801524C0098F8
:10543000636AC11A01D40E4600E01E1A0198A26ADE
:10544000801A01D4074601E0019FD71BBE4206DD4A
:10545000002901D4084606E00098181A03E0002845
:1054600001D50198101A029AE16A521A01D4134622
:1054700001E0029BCB1A834205DB002A01D41046CF
:1054800001E00298081AD8F8241044F04EFCD5F830
:105490001812814206DD0321684645F09BF8022080
:1054A00045F0EAF8009860620198A0620298E06214
:1054B000BDE8FE83304AC2E9020170472E4AC2E9C4
:1054C000060170472C4AC2E904017047294AD2F804
:1054D000E0310360D2E97402C1E900027047254A55
:1054E000D2F8E0310360D2E97602C1E900027047E8
:1054F0002DE9FE4781460020EA468A6F22B901EB7A
:10550000800339F91020DA6701EB800239F9103095
:10551000D46F1D1B4AF82050136E9D4200DD1566A6
:10552000D36E9D4200DAD5660123002422464FEA5D
:10553000E578A3FB056704FB057403FB08443346C9
:1055400002EB420601EBC60606EBC00CDCE9007676
:10555000FF186641CCE90076521C042AE9DB401CA6
:105560000328CADB886F401C88670120C1F89000BF
:10557000BDE8FE8710D9022070DB022030B5002381
:1055800002EB830550F823405B1CEC66032BF7DB32
:10559000C2F88810916F79B1002102EB810450F8B4
:1055A0002130E56F5B1B00D55B42256E9D4200DA22
:1055B0002366491C0329F0DB906F401C9067012093
:1055C000C2F8900030BD10B500210B4600EB8102FF
:1055D000491CD46ED46713660329F7DBD0F8881012
:1055E00040F8783FC0E9051310BDD0E92210081A31
:1055F00070470146D1E91802824200DB1046896EED
:10560000814200DB084670472DE9F0478046501E76
:10561000012686408946C2F12007404602F0D0FEAE
:1056200004460D46404649463A4602F0B6FE3A4622
:1056300002F0C6FEB04203DD641C45F1000505E042
:105640007142884202DA641E45F1FF352046294640
:10565000BDE8F087F7490020086248628862C862A6
:10566000086448648864C864086348638863C863DE
:10567000086548658865C865704730B5EE4AD2F858
:10568000483223B1D2E990542D1A8C4101DAC2E993
:1056900090015B1CC2F8483230BD30B5E64AD2F802
:1056A000583223B1D2E994542D1A8C4101DAC2E95F
:1056B00094015B1CC2F8583230BD30B5DE4AD2F8D6
:1056C00028322BB1D2E98845041B71EB050401DABD
:1056D000C2E988015B1CC2F8283230BD30B5D64A19
:1056E000D2F838322BB1D2E98C45041B71EB05049A
:1056F00001DAC2E98C015B1CC2F8383230BD2DE9F9
:10570000F0470246CC48012508308046C36E016E42
:10571000046FC91A436E1B1B8B4200DB1946836E54
:10572000D8F87400181A884200DB0146C14F603770
:10573000F86B884204DA002400F010FA204687E76C
:10574000108E0124BC4EC0054FF000010ED5D6F8D6
:1057500080303068834209DBB2F87420D20506D568
:10576000D6F8B021824201DB052400E00C4674B378
:10577000600719D5AF48C8388146FFF722FD000DF4
:1057800040EA01300915C6E97601D7E904321B1A4F
:105790008A4102DA0025FFF7A1FF9821484603F06D
:1057A00084FD0420FFF7E6FCE0070ED04046FFF73B
:1057B00008FDC6E97C01D7E906340246181A8C4177
:1057C00003DA00251046FFF778FF284640E7FFE799
:1057D00002203DE71EB5044690F83000C0F381106A
:1057E000032804D19449201D0831FFF781FE94F865
:1057F0007400C0F38110032805D18E4904F14800DC
:10580000C839FFF775FED4F8B8008B4AC0F381138E
:10581000A0326946032B0FD0C0F3411003281AD1E0
:10582000002004EB8003D3F8A0309B1341F8203014
:10583000401C0328F5DB09E0002004EB4003B3F92A
:105840008C3041F82030401C0328F6DB6846D4F841
:10585000C010FFF793FE1EBD2DE9F047054600205E
:10586000296BCA056AD501F05001402900D10120F9
:1058700095F8741001F05001402900D1012095F8ED
:10588000B8106D4C01F05001402900D030B100F04B
:1058900065F90020C4F8E00184F8E801654ED4F809
:1058A0000812E86A6036814228D0C4F808020A2843
:1058B000306B0CDA40002060716B00EE100A491C5E
:1058C000C4F80C12B8EEC00A22F027FF05E02060F1
:1058D000706BC4F80C0296ED0E0A84ED850AD4F8BC
:1058E0000C02C0F11000C4F810024FF48040C4F85C
:1058F000180296F8341019208840F0632846FFF704
:1059000069FF94F8E811DFF8309105274FF002089D
:1059100009F1A009072911D2DFE801F004112730AD
:105920005E7E8500D4F8E001411CC4F8E0110A282D
:1059300004DB00F013F9012084F8E80186E0D4F8D4
:105940009800012810D12846FFF7D9FE10B1012890
:1059500003D004E084F8E87101E084F8E881484667
:10596000FFF731FEFFF776FE70E0032084F8E801D0
:105970002846FFF72BFD00F0F1F867E02846FFF717
:10598000BEFEE8B3012861D1B5F8B8004FF00403BA
:10599000C00515D54846FFF72CFE0146C017C4E9DF
:1059A0007410D6E902C2BCEB0101824102DA84F82C
:1059B000E87108E04846FFF718FE316A884202D3D2
:1059C00084F8E83124E0F4E97601FFF766FED4E9D3
:1059D0000601FFF752FE39E0B5F8B800C0050BD557
:1059E0004846FFF706FE0146C017C4E97410D6E921
:1059F0000232591A824108DB2846FFF780FE00E098
:105A000003E010B1012803D020E084F8E8711DE024
:105A10002846FFF7DBFCD6E7062084F8E8010120E2
:105A200044F02AFE0DE02846FFF769FE012805D064
:105A300038B10BE010DB022010D9022084F8E88195
:105A400004E000F08BF84846FFF7BDFD0020FFE5BD
:105A500010B500214010002802D001F10101F9DC4D
:105A60004FF0010001F1010100FA01F0434C00EE9A
:105A7000100AC4E90C01B8EEC00A22F04EFE84ED13
:105A80000E0A94F8341019208840E06310BD10B558
:105A90004FF418713A4803F008FC4021374803F0EE
:105AA00004FC0720FFF766FB344840F2DC5100227B
:105AB000C0E906121421C0E902124FF41671C0E9C0
:105AC000041230492E4C01620120C4F8E40119206F
:105AD000FFF7BEFF0020C4F8080210BD10B54FF458
