:020000040800F2
:10000000A8F8022039030008B90C01080DC1000846
:100010007D020108B57F0008D155010800000000ED
:10002000000000000000000000000000F92D0108A1
:10003000ED8800080000000017040008493001089E
:100040007303000873030008730300088524010884
:1000500073030008730300087303000873030008A8
:100060007303000873030008730300087303000898
:100070007303000873030008730300087303000888
:100080007303000873030008730300087303000878
:100090007303000873030008730300087303000868
:1000A0007303000873030008730300087303000858
:1000B0007303000873030008730300087303000848
:1000C0007303000873030008730300087303000838
:1000D0007303000821400108730300083940010838
:1000E00073030008CD21010873030008730300089F
:1000F0007303000873030008730300087303000808
:1001000073030008730300087303000873030008F7
:1001100073030008730300087303000873030008E7
:1001200073030008730300087303000873030008D7
:1001300073030008730300087303000873030008C7
:10014000730300087303000873030008BD1E010851
:1001500073030008730300087303000873030008A7
:100160007303000873030008730300087303000897
:100170007303000873030008730300080000000005
:100180007303000873030008730300087303000877
:100190007303000873030008730300087303000867
:1001A00073030008730300087303000800F002F8EB
:1001B00000F0B2F80AA090E8000C82448344AAF14F
:1001C0000107DA4501D100F0A7F8AFF2090EBAE84D
:1001D0000F0013F0010F18BFFB1A43F0010318477B
:1001E000A8330300C83303000A444FF0000C10F892
:1001F000013B13F0070408BF10F8014B1D1108BFA5
:1002000010F8015B641E05D010F8016B641E01F844
:10021000016BF9D113F0080F1EBF10F8014BAD1C94
:100220000C1B09D16D1E58BF01F801CBFAD505E0B2
:1002300014F8016B01F8016B6D1EF9D59142D6D30C
:10024000704700000023002400250026103A28BF34
:1002500078C1FBD8520728BF30C148BF0B60704738
:100260006E2906F0D881702905F0118666292AF0DA
:100270002A8265292AF0278267292AF024826129A7
:100280002AF0238203681B0A28BF41F080016929F4
:1002900005F04485642905F04185752905F03E8502
:1002A0006F2906F09F84782905F0DD85E92905F09E
:1002B0007185E42905F06E85F52905F06B85EF2938
:1002C00006F09C84F82905F0DC850368DB0928BF6B
:1002D00041F08001632906F0E683732906F0EB8381
:1002E000E32906F06586F32906F06A860020704748
:1002F0001FB52AF09AF906F08BFC040000200021BB
:1003000029F09CFA401C60600020002129F080FA4E
:10031000E0601FBD10B510BD06F0ECFE1146FFF702
:10032000E7FF20F035FE06F013FF03B4FFF7F2FFFE
:1003300003BC17F028F8000011488047DFF844009C
:10034000016841F470010160BFF34F8FDFF838009E
:10035000016821F040410160BFF36F8F0B480047F7
:10036000FEE7FEE7FEE7FEE7FEE7FEE7FEE7FEE765
:10037000FEE7FEE706480749074A084B70470000BA
:100380006D30010888ED00E034EF00E0AD010008B9
:10039000A8F20220A8F80220A8F40220A8F4022063
:1003A000EFF3098141B1F1EE101A40F8041D20ED80
:1003B000200A29490A6810607047B0EC200A02C878
:1003C000E1EE101A25490A6810607047EFF31080BB
:1003D00072B6704780F31088704721484FF6FF715E
:1003E0000170002080F309881E48016881F30888A5
:1003F0001D48012101701D484FF08051016062B617
:10040000FEE71A484FF080510160704717484FF0DF
:1004100080510160704772B6EFF3098028B120382F
:1004200080E8F00F0C490968086000B51048804763
:100430005DF804EB0F4810490A7802700648074936
:100440000A680260106890E8F00F203080F3098895
:100450004EF0F40E62B67047FC000020040100204C
:1004600022ED00E038010020E300002004ED00E070
:1004700011160108E0000020E1000020FE4880ED98
:100480003A0A70472DE9F047DFF8EC9300262DED8E
:100490000A8B0446B0EE408AF0EE608A8846354604
:1004A0003746D9F8AC0029F0C2FC53EC182B29F0E0
:1004B000E9FC6FD3D9F8B00029F0B9FC53EC182B44
:1004C00029F01AFEF5D3B4F90000B4F90610401A69
:1004D00029F0ADFC53EC182B29F0D4FC00D20126F6
:1004E000B4F90E00B4F91410401A29F0A0FC53EC32
:1004F000182B29F0C7FC00D2761CB4F91C00B4F903
:100500002210401A29F093FC53EC182B29F0BAFC66
:1005100000D2761C9FEDD90B012E3BDC53EC102B47
:1005200051EC180B29F0EAFC8946064649EC180BF9
:10053000B4F90000B4F90610401A29F078FC53EC25
:10054000182B29F0D9FD00D20125B4F90E00B4F919
:10055000141049EC186B401A29F069FC53EC182B65
:1005600029F0CAFD00D26D1CB4F91C00B4F92210A8
:1005700049EC186B401A29F05AFC53EC182B29F05F
:10058000BBFD00D26D1C002D05DD0220BDEC0A8BE9
:10059000BDE8F08765E000269FEDBACB06EB460983
:1005A00004EB8905B5F90A0029F041FC98ED048BAC
:1005B00053EC182B29F0AEFE41EC190BB5F90400F1
:1005C00029F035FC53EC182B29F0A4FE53EC192B21
:1005D00029F094FC41EC190BB5F9080029F027FC2F
:1005E00098ED028B53EC182B29F094FE41EC1A0B7A
:1005F000B5F9020029F01BFC53EC182B29F08AFEF8
:1006000053EC1A2B29F07AFC41EC1A0BB5F90600D1
:1006100029F00DFC98ED008B53EC182B29F07AFE95
:1006200041EC1B0B34F9290029F001FC53EC182B89
:1006300029F070FE53EC1B2B29F060FC53EC1A2BB5
:1006400029F050F953EC192B29F04CF953EC1C2BE1
:1006500029F018FC00D27F1C761C032E9EDB022F93
:1006600001DA012092E7002090E788490A684B6888
:10067000D00180EAD20080EA031048608B68520300
:1006800080EAC30382EA5312520282EAD0208B60CE
:100690000860704710B52DED048BF0EE408AFFF72F
:1006A000E4FF00EE100AB8EE400ADFED790A20EE12
:1006B000200A9FED789A20EE090A15F0A1FDB0EE10
:1006C000408AFFF7D2FF00EE100AB8EE400A20EE93
:1006D000090AB5EEC00AF1EE10FA01D1B7EE000A30
:1006E00010EE100A29F000FF41EC100B15F03CFE53
:1006F0009FED691B51EC100B53EC112B29F0FEFB05
:1007000029F0BEF800EE100A16F015F920EE280ABE
:1007100020EE080ABDEC048B10BD2DE9F041054622
:100720002DED048BB0EE608AF0EE408A0F4618EE95
:10073000100A29F0D9FE97ED301B53EC112B29F04C
:10074000DDFB41EC190B18EE900A29F0CDFE95ED7A
:10075000301B53EC112B29F0D1FB53EC192B29F052
:10076000C1F80024C5E9300118EE100A29F0BCFEDA
:1007700007EBC40898ED001B53EC112B29F0BEFBCE
:1007800041EC190B18EE900A29F0AEFE05EBC406F9
:1007900096ED001B53EC112B29F0B0FB53EC192BF9
:1007A00029F0A0F8C6E9000118EE100A29F09CFE15
:1007B00098ED241B53EC112B29F0A0FB41EC190BF5
:1007C00018EE900A29F090FE96ED241B53EC112BA5
:1007D00029F094FB53EC192B29F084F8641CC6E92A
:1007E0002401062CC0DB002418EE100A29F07CFE40
:1007F00041EC100B07EBC40090ED121B51EC100BF9
:1008000053EC112B29F07AFB41EC190B18EE900AEE
:1008100029F06AFE05EBC40696ED121B53EC112B72
:1008200029F06CFB53EC192B29F05CF8641CC6E929
:100830001201092CD8DB002418EE100A29F054FE0E
:1008400041EC100B07EBC40090ED0C1B51EC100BAE
:1008500053EC112B29F052FB41EC190B18EE900AC6
:1008600029F042FE05EBC40696ED0C1B53EC112B50
:1008700029F044FB14E0000028E5022000000000FD
:100880000000044000000000000000007804002088
:10089000DB0FC9400000802F00000000000000C0F6
:1008A00053EC192B29F01EF8641CC6E90C01032C2B
:1008B000C2DBBDEC048BBDE8F0812DE9F04F0446AE
:1008C0002DED068B83B00D46086829F0B0FA41EC97
:1008D0001A0B686829F0ABFA41EC190BA86829F0EB
:1008E000A6FA41EC180B94ED300B9FEDFE1B51EC7A
:1008F000100B53EC112B28F0F5FFC4E9300194EDF7
:100900000C0B53EC1A2B51EC100B28F0EBFFC4E945
:100910000C0194ED0E0B53EC192B51EC100B28F03D
:10092000E1FFC4E90E0194ED100B53EC182B51ECD0
:10093000100B28F0D7FFC4E9100153EC1A2B51EC2F
:100940001A0B29F0DBFA029194ED001B064653ECDA
:10095000112B28F0C7FFC4E9000153EC192B51EC0F
:100960001A0B29F0CBFA894649EC100B94ED021BC7
:10097000054653EC112B51EC100B28F0B3FFC4E9E2
:10098000020153EC182B51EC1A0B29F0B7FA8B46E5
:100990004BEC100B94ED041B804653EC112B51ECE7
:1009A000100B28F09FFFC4E9040153EC192B51EC04
:1009B000190B29F0A3FA019194ED061B074653EC9D
:1009C000112B28F08FFFC4E9060153EC182B51ECD2
:1009D000190B29F093FA009194ED081B824653EC11
:1009E000112B28F07FFFC4E9080153EC182B51ECC0
:1009F000180B29F083FA94ED0A1B53EC112B28F005
:100A000071FFC4E90A01029953EC1A2B41EC106BF7
:100A100051EC100B29F072FA94ED121B53EC112BD0
:100A200028F060FF49EC105BC4E9120153EC192B6C
:100A300051EC100B29F062FA94ED141B53EC112BBE
:100A400028F050FF4BEC108BC4E9140153EC182B29
:100A500051EC100B29F052FA94ED161B53EC112BAC
:100A600028F040FF49EC105BC4E9160153EC1A2B47
:100A700051EC100B29F042FA94ED181B53EC112B9A
:100A800028F030FFC4E91801019953EC192B41EC0F
:100A9000107B51EC100B29F031FA94ED1A1B53EC3A
:100AA000112B28F01FFFC4E91A010099554641ECAB
:100AB00010AB0E4653EC182B51EC100B29F01EFA1C
:100AC00094ED1C1B53EC112B28F00CFFC4E91C0106
:100AD00053EC1A2B51EC180B29F010FA53EC1A2B8B
:100AE00029F00CFA94ED1E1B53EC112B28F0FAFEA2
:100AF00046EC105BC4E91E0153EC192B51EC100BB2
:100B000029F0FCF994ED201B53EC112B28F0EAFEA0
:100B1000C4E9200153EC182B51EC180B29F0EEF925
:100B2000894649EC100B074653EC182B51EC100B7F
:100B300029F0E4F994ED221B53EC112B28F0D2FE9E
:100B4000C4E9220153EC1A2B51EC1A0B29F0D6F907
:100B5000884648EC100B054653EC1A2B51EC100B51
:100B600029F0CCF953EC1A2B29F0C8F994ED241B89
:100B700053EC112B28F0B6FEC4E9240153EC192BD9
:100B800051EC190B29F0BAF98A464AEC100B0646CB
:100B900053EC192B51EC100B29F0B0F953EC192B35
:100BA00029F0ACF994ED261B53EC112B28F09AFE9A
:100BB00049EC107BC4E9260153EC182B51EC100BC7
:100BC00029F09CF953EC182B29F098F994ED281B87
:100BD00053EC112B28F086FE48EC105BC4E9280189
:100BE00053EC192B51EC100B29F088F953EC192B0D
:100BF00029F084F994ED2A1B53EC112B28F072FE96
:100C000048EC105BC4E92A0153EC182B51EC100B93
:100C100029F074F953EC182B29F070F994ED2C1B82
:100C200053EC112B28F05EFE4AEC106BC4E92C014A
:100C300053EC182B51EC100B29F060F953EC182BE6
:100C400029F05CF994ED2E1B53EC112B28F04AFE91
:100C5000C4E92E0103B0BDEC068BBDE8F08F2DE991
:100C6000F04F93462DED108B0D46044693B090ED5A
:100C70000CEB53EC1E2B51EC1E0B29F03FF994EDBD
:100C8000000B41EC190B8DED080B94ED308B53EC00
:100C9000102B51EC180B29F031F953EC192B29F0DA
:100CA00039FB94ED0EDB41EC1F0B53EC1D2B51EC8B
:100CB0001D0B29F023F994ED060B41EC190B8DED7A
:100CC000060B53EC102B51EC180B29F017F953ECD1
:100CD000192B29F01FFB41EC100B8DED040B94ED4B
:100CE00010CB03E0000000000000F03F53EC1C2B91
:100CF00051EC1C0B29F002F994ED0A0B41EC190B95
:100D00008DED020B53EC102B51EC180B29F0F6F87B
:100D100053EC192B29F0FEFA41EC110B53EC1D2B6F
:100D20008DED001B51EC1E0B29F0E8F894ED020B41
:100D300041EC190B53EC102B51EC180B29F0DEF899
:100D400053EC192B29F0E6FA41EC1B0B53EC1C2B4E
:100D500051EC1E0B29F0D2F894ED040B41EC190B69
:100D600053EC102B51EC180B29F0C8F853EC192B4D
:100D700029F0D0FA41EC1A0B53EC1C2B51EC1D0B53
:100D800029F0BCF894ED080B41EC190B53EC102B37
:100D900051EC180B29F0B2F853EC192B29F0BAFAE0
:100DA0009DED020B41EC190B53EC102B51EC1E0B7B
:100DB00029F0A4F841EC110B51EC180B8DED101B30
:100DC00094ED160B53EC102B29F098F841EC110B15
:100DD00051EC1E0B8DED0E1B9DED060B53EC102BF5
:100DE00029F08CF841EC110B51EC180B8DED0C1B1C
:100DF00094ED140B53EC102B29F080F841EC110BFF
:100E000051EC1E0B8DED0A1B9DED080B53EC102BC6
:100E100029F074F894ED120B41EC1E0B53EC102BDF
:100E200051EC180B29F06AF853EC1E2B29F072FADA
:100E30009DED0A1B53EC112B28F054FD9DED0C1B6E
:100E400053EC112B29F066FA9DED0E1B53EC112B80
:100E500028F048FD9DED101B53EC112B29F05AFA98
:100E60009FEDFE1B53EC112B29F048F89DED020B72
:100E700041EC1E0B53EC102B51EC1D0B29F03EF8EE
:100E800041EC110B51EC180B8DED101B94ED1C0B6C
:100E900053EC102B29F032F841EC110B51EC1D0BE7
:100EA0008DED0E1B9DED060B53EC102B29F026F853
:100EB00041EC110B51EC180B8DED0C1B94ED1A0B42
:100EC00053EC102B29F01AF841EC110B51EC1D0BCF
:100ED0008DED0A1B9DED080B53EC102B29F00EF83D
:100EE00094ED180B41EC1D0B53EC102B51EC180B2F
:100EF00029F004F853EC1D2B29F00CFA9DED0A1B88
:100F000053EC112B28F0EEFC9DED0C1B53EC112B38
:100F100029F000FA9DED0E1B53EC112B28F0E2FC9A
:100F20009DED101B53EC112B29F0F4F99FEDCB1B19
:100F300053EC112B28F0E2FF9DED020B41EC1D0B51
:100F400053EC102B51EC1C0B28F0D8FF41EC110B8B
:100F500051EC180B8DED021B94ED220B53EC102B72
:100F600028F0CCFF41EC110B51EC1C0B8DED0A1B52
:100F70009DED060B53EC102B28F0C0FF41EC110B3C
:100F800051EC180B8DED0C1B94ED200B53EC102B3A
:100F900028F0B4FF41EC110B51EC1C0B8DED061B3E
:100FA0009DED080B53EC102B28F0A8FF94ED1E0BC1
:100FB00041EC1C0B53EC102B51EC180B28F09EFF4E
:100FC00053EC1C2B29F0A6F99DED061B53EC112BBD
:100FD00028F088FC9DED0C1B53EC112B29F09AF99D
:100FE0009DED0A1B53EC112B28F07CFC9DED021BA0
:100FF00053EC112B29F08EF99FED981B53EC112B1C
:1010000028F07CFF9DED040B41EC180B53EC102BEA
:1010100051EC1F0B28F072FF10919DED001B8246D2
:1010200053EC112B28F06AFF41EC110B53EC192BF8
:101030008DED0A1B51EC1F0B28F060FF53EC192BB0
:1010400028F05CFF41EC110B53EC1A2B8DED081BC3
:101050009DED040B51EC100B28F050FF814653EC32
:101060001A2B119128F04AFF41EC110B8DED061B54
:101070009FED7C0B51EC1B0B53EC102B28F03EFF2B
:1010800053EC1A2B28F03AFF53EC192B28F036FFBB
:101090009DED001B41EC1C0B53EC1B2B51EC110B79
:1010A00028F02CFF074653EC1B2B029128F026FF5B
:1010B00053EC1C2B29F02EF99DED061B53EC112B44
:1010C00028F010FC9DED081B53EC112B28F00AFCB6
:1010D0009DED0A1B53EC112B29F01CF941EC1C0B64
:1010E0009FED620B53EC102B28F008FE7DD053ECE3
:1010F000192B51EC1B0B28F001FF53EC182B28F097
:10110000FDFE41EC110B53EC1D2B8DED0E1B0299D6
:1011100041EC107B51EC100B28F0F0FE41EC110B70
:101120008DED0C1B9DED000B53EC102B9DED040B76
:1011300051EC100B28F0E2FE53EC1E2B28F0DEFEE3
:1011400041EC110B53EC192B8DED081B51EC190BD5
:1011500028F0D4FE53EC1E2B28F0D0FE41EC110BEE
:1011600053EC1D2B8DED0A1B51EC190B28F0C6FE1C
:1011700041EC110B53EC182B8DED061B9DED040B70
:1011800051EC100B28F0BAFE9DED061B53EC112B11
:1011900029F0C0F853EC1A2B28F0B0FE9DED0A1B85
:1011A00053EC112B28F09EFB9DED081B53EC112BEB
:1011B00029F0B0F89DED0C1B53EC112B28F092FB9D
:1011C0009DED0E1B53EC112B29F0A4F841EC100BF4
:1011D00053EC1A2B8DED060B51EC1B0B28F08EFEF9
:1011E0008846064648EC100B00E065E153EC182BEE
:1011F00051EC100B28F082FE41EC110B53EC1E2B2E
:101200008DED041B029941EC107B51EC100B28F082
:1012100075FE41EC110B51EC1F0B8DED021B9DED8A
:10122000000B53EC102B28F069FE53EC1D2B28F01B
:1012300065FE41EC110B53EC1A2B8DED081B51ECA4
:101240001A0B28F05BFE53EC1D2B28F057FE41ECE7
:10125000110B53EC1E2B8DED001B0BE0000000006A
:101260000000E03F0000000000000040000000001F
:101270000000000051EC1A0B28F040FE41EC1A0B64
:1012800053EC182B51EC1F0B28F038FE53EC1A2BA3
:1012900029F040F853EC192B28F030FE9DED001B8F
:1012A00053EC112B28F01EFB9DED081B53EC112B6A
:1012B00029F030F89DED021B53EC112B28F012FBA6
:1012C0009DED041B53EC112B29F024F841EC100B7D
:1012D00053EC1D2B8DED040B48EC106B51EC100BF7
:1012E00028F00CFE41EC110B53EC1E2B8DED001B76
:1012F000119941EC109B51EC100B28F0FFFD41ECD3
:10130000110B53EC182B8DED021B109941EC10AB17
:1013100051EC100B28F0F2FD41EC1A0B53EC1B2B97
:1013200051EC1B0B28F0EAFD53EC182B28F0E6FDDE
:1013300041EC180B53EC1E2B51EC1B0B28F0DEFD7F
:1013400041EC1B0B53EC1D2B51EC1F0B28F0D6FD71
:1013500053EC1B2B28F0DEFF53EC192B28F0CEFDAD
:1013600053EC182B28F0BEFA53EC1A2B28F0D2FFBE
:101370009DED021B53EC112B28F0B4FA9DED001BE0
:1013800053EC112B28F0C6FF9DED060B41EC190B19
:1013900053EC1C2B51EC100B28F058FB41EC180BB4
:1013A00053EC1C2B85ED008B9DED040B51EC100BC9
:1013B00028F04CFB41EC1A0B53EC1C2B85ED02ABD7
:1013C00051EC190B28F042FB41EC190B85ED049B05
:1013D00094ED100B53EC102B28F090FD94ED0E0BB8
:1013E00041EC1B0B53EC102B51EC1A0B28F086FD33
:1013F00094ED0C0B41EC1C0B53EC102B51EC180B27
:1014000028F07CFD53EC1C2B28F06CFA53EC1B2BC2
:1014100028F068FA1FED6D1B53EC112B28F06EFDC0
:1014200094ED061B94ED000B41EC1B0B53EC112BC0
:1014300051EC100B28F056FA94ED0A1B53EC112BCB
:1014400028F050FA53EC1B2B28F064FF94ED301B6E
:1014500053EC112B28F0FAFA41EC1B0B53EC192B2F
:1014600051EC190B28F04AFD41EC190B53EC1A2BE7
:1014700051EC1A0B28F042FD41EC1A0B53EC182BDF
:1014800051EC180B28F03AFD53EC1A2B28F02AFAED
:1014900053EC192B28F026FA53EC1B2B28F022FAD8
:1014A00041EC100B15F00AFA8BED000B012013B084
:1014B000BDEC108BBDE8F08F0020F8E72DE9F04F70
:1014C0000D462DED108B04468BB091ED00AB53EC27
:1014D0001A2B51EC1A0B28F011FD94ED0CCB53ECA8
:1014E0001C2B28F00BFD53EC1C2B28F007FD94ED72
:1014F00030FB41EC180B53EC1A2B51EC1F0B28F06E
:10150000FDFC8B464BEC100B074653EC1A2B51ECB1
:10151000100B28F0F3FC94ED00EB53EC1E2B28F09D
:10152000EDFC53EC182B28F0F5FE41EC190B53ECB5
:101530001E2B51EC1A0B28F0E1FC53EC1C2B28F06D
:10154000DDFC4BEC107B94ED121B41EC180B53ECC3
:10155000112B51EC100B28F0D1FC53EC192B28F077
:1015600001FE53EC182B28F0BDF941EC1B0B1FEDCD
:10157000C30B51EC1A0B53EC102B28F0BFFC89461F
:1015800049EC100B95ED029B064653EC192B51ECE0
:10159000100B28F0B3FC53EC1C2B28F0AFFC94ED9F
:1015A0000EDB53EC1D2B28F0A9FC41EC180B1FEDB2
:1015B000D30B51EC1F0B53EC102B28F09FFC8246F1
:1015C00053EC1A2B069128F099FC53EC192B28F0B8
:1015D00095FC94ED021B53EC112B28F08FFC53EC7F
:1015E0001B2B28F07FF953EC182B28F093FE41ECCD
:1015F000180B53EC1C2B51EC1A0B28F07FFC0491B8
:1016000094ED06BB804653EC1B2B28F077FC41EC95
:10161000110B4BEC107B8DED001B94ED141B51EC6A
:10162000100B53EC112B28F069FC53EC182B28F00D
:1016300099FD9DED001B53EC112B28F053F941EC63
:10164000110B49EC106B8DED001B95ED048B51ECEB
:10165000100B53EC182B28F051FC53EC1C2B28F0EA
:101660004DFC94ED10CB53EC1C2B28F047FC41ECC7
:10167000110B53EC1A2B8DED021B069941EC10ABAC
:1016800051EC100B28F03AFC53EC182B28F036FCE8
:1016900094ED041B53EC112B28F030FC9DED001B46
:1016A00053EC112B28F01EF99DED021B53EC112B6E
:1016B00028F030FE41EC100B8DED000B049994EDF9
:1016C0000AAB41EC108B53EC1A2B51EC100B28F0A9
:1016D00015FC41EC110B4BEC107B8DED021B94EDD6
:1016E000161B51EC100B53EC112B28F007FC9DED51
:1016F000001B53EC112B28F035FD9DED021B53EC24
:10170000112B28F0EFF841EC110B8DED001B9FED34
:10171000FE0B51EC1E0B53EC102B28F0EFFB53EC9F
:101720001E2B28F0EBFB41EC110B8DED021B9FED06
:10173000F60B51EC1F0B53EC102B28F0DFFB05913F
:1017400094ED241B814653EC112B28F0D7FB9DED23
:10175000001B53EC112B28F0C5F89DED021B53EC38
:10176000112B28F0D7FD41EC110B53EC1E2B8DED06
:10177000001B51EC190B28F0C1FB53EC1D2B28F07A
:10178000BDFB41EC110B53EC192B8DED081B51ECFB
:101790001F0B28F0B3FB039194ED181B064653EC86
:1017A000112B28F0ABFB9DED001B53EC112B28F007
:1017B000D9FC9DED081B53EC112B28F093F841EC5C
:1017C000110B8DED001B9FEDD20B51EC1E0B53EC5A
:1017D000102B28F093FB8B464BEC100B054653EC7B
:1017E0001B2B51EC100B28F089FB41EC110B8DEDFC
:1017F000081B9FEDC70B51EC1F0B53EC102B28F06F
:101800007DFB049194ED2A1B804653EC112B28F0AC
:1018100075FB9DED001B53EC112B28F063F89DED3B
:10182000081B53EC112B28F075FD41EC110B53EC08
:101830001E2B8DED001B51EC180B28F05FFB53ECB9
:101840001C2B28F05BFB41EC1E0B53EC182B51ECCE
:101850001F0B28F053FB029194ED1E1B074653EC1F
:10186000112B28F04BFB9DED001B53EC112B28F0A6
:1018700079FC53EC1E2B28F035F84BEC105B41EC57
:101880001F0B53EC1A2B51EC100B28F037FB41ECDB
:101890001E0B049994ED2C1B41EC108B53EC112B77
:1018A00051EC100B28F02AFB53EC1F2B28F01AF8F0
:1018B00053EC1E2B28F02EFD41EC1F0B53EC192B83
:1018C00051EC190B28F01AFB53EC1D2B28F016FBDA
:1018D00053EC1D2B28F012FB41EC1E0B039953EC2B
:1018E000192B41EC106B51EC100B28F007FB53EC5B
:1018F0001B2B28F003FB53EC1F2B27F0F3FF53ECBB
:101900001E2B28F007FD41EC1F0B53EC1B2B51EC59
:10191000190B28F0F3FA53EC1D2B28F0EFFA41ECE9
:101920001E0B039994ED1A1B41EC106B53EC112B19
:1019300051EC100B28F0E2FA53EC1F2B28F012FCAC
:1019400053EC1E2B27F0CEFF41EC1F0B9FED720BCB
:1019500051EC190B53EC102B28F0D0FA53EC182B48
:1019600028F0CCFA53EC1D2B28F0C8FA53EC1C2BB2
:1019700028F0C4FA41EC1E0B069953EC192B41ECEC
:1019800010AB51EC100B28F0B9FA53EC182B28F0DF
:10199000B5FA94ED081B53EC112B28F0AFFA53EC79
:1019A0001F2B27F09FFF53EC1E2B28F0B3FC41ECBC
:1019B0001E0B53EC1D2B51EC190B28F09FFA53EC26
:1019C0001A2B28F09BFA41EC190B039994ED1C1B80
:1019D00041EC106B53EC112B51EC100B28F08EFAEC
:1019E00053EC1E2B28F0BEFB53EC192B27F07AFF8B
:1019F00041EC1D0B9FED44EB51EC1B0B53EC1E2BEC
:101A000028F07CFA53EC1B2B28F078FA41EC190BE8
:101A1000059994ED261B41EC109B53EC112B51ECD6
:101A2000100B28F06BFA53EC1D2B27F05BFF53ECE7
:101A3000192B28F06FFC41EC1D0B53EC1B2B51ECC8
:101A4000180B28F05BFA53EC1C2B28F057FA41ECEA
:101A5000190B029994ED201B41EC107B53EC112BD8
:101A600051EC100B28F04AFA53EC1D2B28F07AFBAE
:101A700053EC192B27F036FF9FED250B41EC190B8A
:101A800053EC102B51EC1B0B28F038FA53EC1A2BAB
:101A900028F034FA41EC1B0B049994ED2E1B41EC19
:101AA000108B53EC112B51EC100B28F027FA53EC50
:101AB000192B27F017FF53EC1B2B28F02BFC41ECC4
:101AC0001B0B53EC182B51EC180B28F017FA53ECA6
:101AD0001C2B28F013FA53EC1C2B28F00FFA41ECC6
:101AE000190B029953EC182B41EC107B51EC100BA5
:101AF00028F004FA53EC1A2B28F000FA53EC1B2BB5
:101B000027F0F0FE0CE00000000000000000D03FD5
:101B1000000000000000E03F000000000000004066
:101B200053EC192B28F0F6FB41EC190B53EC1A2B54
:101B300051EC180B28F0E2F953EC1C2B28F0DEF9DD
:101B400041EC180B029994ED221B41EC107B53ECF5
:101B5000112B51EC100B28F0D1F953EC192B28F074
:101B600001FB53EC182B27F0BDFE41EC180B53EC96
:101B70001E2B51EC1A0B28F0C1F953EC1A2B28F04C
:101B8000BDF941EC190B059994ED281B41EC109B14
:101B900053EC112B51EC100B28F0B0F953EC182B2F
:101BA00027F0A0FE53EC192B28F0B4FB41EC100BEE
:101BB0000BB07DE430B50446B0F88C0089B0000469
:101BC0000690B4F88E000D4600040790B4F890001B
:101BD00088340004089002A81DF07CFA0299069847
:101BE0002B46401A06900399079806AA401A0790B8
:101BF00004990898401A08902088616A80B21DF004
:101C000015F909B030BDF0B50D462DED048B87B048
:101C10006946FFF7CFFF9FEDFE8B00246F469FEDD7
:101C2000FE9A03AE57F8240000EE100A06EB84007B
:101C3000B8EEC00A20EE090A80ED000A20EE000A84
:101C400010EE100A28F050FC53EC182B27F04AFE37
:101C500041EC180B641C032CE4DBB0EE480AF0EEF8
:101C6000680A14F02BFEB0EE408AF0EE608A002481
:101C700056F8240028F038FC53EC182B27F0E6FE29
:101C800027F0FEFD00EE100A05EB8400641CD0ED89
:101C9000000A032C30EE200A80ED000AE8DB686DB4
:101CA000401C68651DF080FCE86707B0BDEC048B44
:101CB000F0BD2DE9F04104461DF0A8FA40BB1DF02F
:101CC00035FA042824D0D54920460E46FFF79BFF5D
:101CD000D34DD5E95C01814205DB304603F0E5FBDD
:101CE0000020C5F87401208E4FF00406C00515D5FC
:101CF00004F118001DF07EFA8009B0F5C87F0AD201
:101D0000D5F8B800002850DD401EC5F8B8004AE0FC
:101D10000120BDE8F081C5F8B86044E0D4F8A01017
:101D2000D5F81401081A01D4034600E04342BB4A27
:101D30004FF4A02C583A634505DDD4E929035365D7
:101D4000C2E913102FE00312D4F8A470D5F81801DB
:101D50005B43381A01D4864601E0C0F1000EE64527
:101D600005DDD4F8A800D164C2E914701BE00012AC
:101D700000FB0033D4F8A800D5F81C11401A01D498
:101D8000014600E0414261450DDC001200FB0030DD
:101D9000B0F5403FB4DBA034C5F8B86094E80B0060
:101DA0004C3282E80B000020B3E70220B1E72DE9B6
:101DB000F04F9B4C2DED028B93B0D4F8A81090ED12
:101DC000000B04EBC10181ED000BD4F8A810491CF5
:101DD000C4F8A81090ED020B04EBC10181ED000BDB
:101DE000D4F8A810491CC4F8A81090ED040B04EB1B
:101DF000C10080ED000BD4F8A800401CC4F8A80076
:101E0000152802DB0020C4F8A800182284490CA879
:101E100004F017FA1822824904A804F012FA0126E5
:101E20000DF1300A0DF1100BA146002406EB460817
:101E300008EB040109EBC1050AEBC40795ED001B93
:101E400097ED000B53EC112B51EC100B28F054F9CB
:101E500003D295ED000B87ED000B0BEBC40795ED5E
:101E6000001B97ED000B53EC112B51EC100B28F0DD
:101E700009F803D295ED000B87ED000B641C032CD1
:101E8000D6DB761C072ED0DB9DED0C1B9DED040BE5
:101E900053EC112B51EC100B28F03CFA9DED0E1B6E
:101EA0009DED060B41EC180B53EC112B51EC100B74
:101EB00028F030FA53EC182B27F0E4FF0BD39DEDFC
:101EC0000E1B9DED060B53EC112B51EC100B28F063
:101ED00021FA41EC180B9DED101B9DED080B53EC06
:101EE000112B51EC100B28F015FA53EC182B27F09E
:101EF000C9FF0BD39DED101B9DED080B53EC112B6F
:101F000051EC100B28F006FA41EC180B13B0B0EEB0
:101F1000480AF0EE680ABDEC028BBDE8F08F10B500
:101F200004462DED068B9CB0002155200E91CDE985
:101F30000F1011909FED3B8B0AA81DF099F812A984
:101F40000AA81DF00FFC16AA0EA912A81DF02DFC60
:101F50006A460AA916A81DF028FC0198B2EE059A57
:101F600000F5967001900298B0EE490A00F596705F
:101F70000290039800F596700390FEF78BFBBDEE80
:101F8000C00A019910EE100AB0EE490A0844019007
:101F9000FEF780FBBDEEC00A029810EE101AB0EEFC
:101FA000490A08440290FEF775FBBDEEC00A03998A
:101FB00010EE100A08440390204601A9FEF77DFCAC
:101FC00094ED300B9FED191B51EC100B53EC112BC2
:101FD00028F092F85DD21AAA04A92046FEF73FFE27
:101FE00060B39DED080B9FED138B51EC100B53EC80
:101FF000182B28F08FF941EC100B53EC102B27F025
:102000007DFF41EC190B9DED060B53EC182B16E0F0
:1020100000000000000000000000803748E60220B9
:1020200028E502200000000000408F400000000072
:10203000000034400000000000C0724029E051EC74
:10204000100B28F067F941EC100B53EC102B27F024
:1020500055FF9DED040B41EC1A0B53EC182B51EC82
:10206000100B28F057F941EC100B53EC102B27F014
:1020700045FF53EC1A2B27F035FC53EC192B27F0B6
:1020800031FC41EC100B14F019FCB0EE408AF0EE7C
:10209000608A9FEDFD0B51EC180B53EC102B27F0D1
:1020A000D5FC1CB041EC100BBDEC068B10BD10B57F
:1020B000E821F74804F05EF9F648F74920F8BC1F1C
:1020C0004A0CC280C181828281834284F048E82127
:1020D000E83004F04FF9EF490020C1F8B40010BD1A
:1020E0002DE9F043EB4D04462DED108BC3B0006B92
:1020F000C5F8A0012046FFF7DCFD00287ED1D5F809
:10210000941105F1BC08012911D1B4F98C003D905E
:10211000B4F98E003E90B4F990003F903DA9DC48A0
:10212000FEF7CBFB04F18C01404600F0A4FB1FED51
:1021300048DB9FEDDABB9FEDDBCB9FEDDCAB9FED8A
:10214000DDEBD34ED5F80801E83E002802DD401E45
:10215000C5F8080196ED300B53EC1D2B51EC100B1C
:1021600027F0CAFF7DD2CA49E822E839684604F060
:1021700068F8C7483DA9E838FEF79FFBC44940AA64
:1021800020390F46A1F1C800FEF769FD00287BD079
:10219000BF483946E838FFF791F9B0EE408AF0EED3
:1021A000608A95ED400B51EC180B53EC102B28F086
:1021B000B1F896ED300B41EC190B53EC1B2B51ECA5
:1021C000100B28F0A7F841EC100B51EC190B53EC55
:1021D000102B27F03BFC41EC100B14F06FFB96ED3D
:1021E00030FBB0EE409AF0EE609A53EC1B2B51ECB2
:1021F0001F0B28F08FF853EC1F2B00E0E9E027F0CD
:102200007DFE41EC1F0B53EC1C2B51EC180B27F0FF
:1022100075FE53EC1F2B27F019FC41EC100B14F04A
:102220004DFBD5F8E80028F05FF995ED381B53EC2D
:10223000112B27F063FE53EC192B27F023FE03D359
:10224000D5F80801002826DD9148E8226946E838DB
:1022500003F0F7FFD5F8E80028F046F995ED381BB4
:1022600001E010E010E053EC112B27F047FE53EC97
:10227000192B27F007FE5CD24FF4FA7001F03CFEF8
:102280000A20C5F8080154E08148E8226946E83888
:1022900003F0D7FF4DE0D5F89801012849D1D5F8D2
:1022A000B400401CC5F8B40000201DF031FE96EDCE
:1022B000320B53EC1A2B51EC100B27F01FFE27F0BA
:1022C00059FD3A9096ED340B53EC1A2B51EC100B50
:1022D00027F014FE27F04EFD3B9096ED360B53ECA5
:1022E0001A2B51EC100B27F009FE27F043FD3C9010
:1022F00003213AA81DF07EFD96ED300B53EC1E2B0A
:1023000051EC100B27F0F8FE11D29FED6C0A6049DA
:10231000E839F0EE400A0846FEF7FFF95C48394616
:10232000E838FFF7CBF8B0EE408AF0EE608A85ED32
:10233000408B208E564FC0050CD5B4F87400C005F4
:1023400008D507F1E800FFF7EAFDB0EE408AF0EEAD
:10235000608A01E09FED4C8B97ED300B1FEDCD1B9C
:1023600051EC100B53EC112B27F08CFD31D3484965
:1023700040AAC83189464648FEF771FC00287CD047
:10238000D4F8AC0027F053FD41EC100B53EC102BAC
:102390009FED4B0B51EC100B27F058FB41EC1F0B42
:1023A0004846FFF704FDB0EE409AF0EE609A53EC19
:1023B0001F2B51EC190B27F09FFE0BD29FED420B08
:1023C00051EC180B53EC102B27F05CFD02D2FFF7F9
:1023D0006EFEDBE153EC1F2B51EC190B27F052FD85
:1023E00051D251EC180B9FED3A9B53EC192B27F06F
:1023F00049FDF5D297ED300B9FED371B51EC100BDB
:1024000053EC112B27F078FEEAD296ED300B53EC0B
:102410001D2B51EC100B27F071FC7CD149461C4858
:10242000FFF74CF8B0EE408AF0EE608A85ED408B05
:1024300097ED309B53EC1B2B51EC190B27F06AFFE7
:1024400053EC192B27F05AFD41EC190B53EC1C2BC4
:1024500051EC180B27F052FD53EC192B27F0F6FA2C
:1024600041EC100B14F02AFAB0EE408AF0EE608ACC
:10247000D5F8E80028F038F800E088E195ED381B41
:1024800053EC112B2CE078E1000000000000084024
:1024900058E3022028E502200080FFFF0000000032
:1024A0000000F03F000000000000004000000000BD
:1024B0000000F0400000000000409F406666E63EDD
:1024C0009A9999999999A941000000000000F83F54
:1024D00000000000000010400000000000003E402E
:1024E00027F00CFD53EC182B27F0CCFCFFF46FAF5A
:1024F0009DED400B49464046FDF7C4FF02283FF4DE
:1025000066AF00287ED1D5F898010128FAD10020C5
:102510001DF0FEFC00E02FE097ED320B53EC1A2B80
:1025200051EC100B27F0EAFC27F024FC3A9097EDD1
:10253000340B53EC1A2B51EC100B27F0DFFC27F077
:1025400019FC3B9097ED360B53EC1A2B51EC100B0A
:1025500027F0D4FC27F00EFC3C9003213AA81DF094
:1025600049FC01201DF072FC19200090019002909E
:1025700068461DF063FCF6E0D5F8B40027F057FC80
:1025800097ED301B53EC112B27F060FA9FEDE71B02
:1025900053EC112B27F0B0FDA8D34946E548FEF7D0
:1025A0008DFF97ED30DBB0EE408AF0EE608A53ECA1
:1025B0001B2B51EC1D0B27F0ADFE53EC1D2B27F010
:1025C0009DFC41EC1B0B53EC1C2B51EC180B27F022
:1025D00095FC53EC1B2B27F039FA41EC100B14F04F
:1025E0006DF9B0EE40BAF0EE60BAD5F8E80027F029
:1025F0007BFF95ED381B53EC112B27F07FFC53EC40
:102600001B2B00E087E027F03DFCC5D39DED400B80
:1026100049464046FDF736FF00287CD196ED361B33
:1026200097ED360B53EC112B51EC100B27F072FE8B
:1026300041EC100B53EC102B27F060FC96ED341B93
:1026400097ED340B41EC1B0B53EC112B51EC100BA1
:1026500027F060FE41EC100B53EC102B27F04EFCE2
:1026600096ED321B97ED320B41EC1C0B53EC112B0A
:1026700051EC100B27F04EFE41EC100B53EC102BDD
:1026800027F03CFC53EC1C2B27F02CF953EC1B2BB4
:1026900027F028F941EC100B14F010F9B0EE40BA15
:1026A000F0EE60BAD4F8AC0027F0C1FB53EC1B2B62
:1026B00027F024FC9FEDA01B53EC112B27F01EFCF0
:1026C00041EC1B0B53EC192B27F016FD1AD39FED91
:1026D0009C0B51EC1B0B53EC102B27F00DFDBFF4A2
:1026E00076AED5F8B40027F0A2FB97ED301B53EC83
:1026F000112B27F0ABF99FED941B53EC112B27F016
:10270000C1FBECD2D5F8980101287FF460AE00201F
:102710001DF0FEFB00E039E085ED408B97ED320BBC
:1027200053EC1A2B51EC100B27F0E8FB27F022FB9F
:102730003A9097ED340B53EC1A2B51EC100B27F019
:10274000DDFB27F017FB3B9097ED360B53EC1A2B74
:1027500051EC100B27F0D2FB27F00CFB3C9003212F
:102760003AA81DF047FBF7EE000A9FED790A714980
:10277000A1F1E800FDF7D1FF29E697ED300B53EC0E
:102780001E2B51EC100B27F0B7FCF5D3002043B003
:10279000BDEC108BBDE8F08370B56E4C0546D4F8E7
:1027A0000C0110B9284600F091F8D5F8B01044F6A5
:1027B000206081420ADAD4F8102111448142C4F821
:1027C00010114FF0000005DBC4F810012846BDE8E9
:1027D000704085E470BD04224FF4C871AFF2470029
:1027E0001DF0CCB9AFF24F001DF086BC514810B5BA
:1027F000E821E83803F0BEFDFFF759FC4FF4D4712F
:10280000544803F0B7FD534CB7EE000A04F590703E
:1028100084ED3A0A02F095FD0A20C4F87001B2EE88
:10282000000A84ED570A1E209FED4B0AC4F87C0174
:1028300084ED620A9FED490A84ED610A9FED480A22
:10284000002084ED630A10BD10B5FFF7CFFF00280C
:1028500005D1AFF27D00BDE810401DF017BA10BDE4
:1028600010B5AFF2CB001DF047FCAFF29500BDE80C
:1028700010401DF067BC30B50022C2EBC20331F935
:10288000124030F91350AC420ADD02EB42040D88CD
:1028900020F8245000EB84044D8865808D88A58045
:1028A00000EB430331F91240B3F906309C4209DAD8
:1028B00002EB420300EB83030C88DC804C881C8114
:1028C0008C885C81521C032AD7DB30BD70B5214D4A
:1028D000D0F8AC200446EAB1D3170020192103F048
:1028E00075F945F8AC0F54F8AC2F0020D31705212B
:1028F00003F06CF9686022680020D317962103F07A
:1029000065F927F094FAC5E90D01AC3D0120C5F841
:102910000C0170BD6FF00040C5F8AC009FED110BCD
:10292000C5F8B00085ED380BF0E700000AD7A370BA
:102930003D0AE73F58E30220000000000000103E7F
:102940000000000000000440333333333333C33F0F
:102950000000000028E50220CDCCCC3E3333333FCD
:102960009A99193F0000C0FFFFFFDF4110B5FF49F2
:10297000C4074FF040434FF0804205D08B66CB66D2
:10298000C1E91C328A67CA67840709D5C1F80031DA
:10299000C1F80431C1E94232C1F81021C1F8142153
:1029A000400709D5C1F89831C1F89C31C1E96832B6
:1029B000C1F8A821C1F8AC2110BD2DE9F14F0020CC
:1029C00082B0824681460298806F00287ED0002225
:1029D0000020401C0428FCDB029800EBC203D3E972
:1029E0000010A1FB0167D3E9065400FB017701FB4E
:1029F0000077AB46AD1BCDE900670326A5FB06C8F3
:102A0000A64664EB070404FB0684002705FB074584
:102A1000DDE900671CEB06047D41A4FB016705FBB3
:102A2000017504FB0055D3E90C47341B65EB070522
:102A3000CDE900455D46A5FB05670324A6FB0458C8
:102A40000EFB0B770BFB0E7707FB04844FF0000C9B
:102A500006FB0C44D3E91263761B63EB04034C18AA
:102A6000A4FB017C40EB000505FB01C504FB005500
:102A7000A7FB014C05FB01C507FB0055A4FB017C2E
:102A800005FB01C504FB0054F6196341DDE900456F
:102A9000AD0045EA9475A400A4FB017C05FB01C1CF
:102AA00004FB0014F01B73EB040103D50023404228
:102AB00063EB0101BAEB000479EB010301DA824612
:102AC0008946521C032A83DB504600E016E0494643
:102AD00027F038FD00EE900AA54890ED0E1A80EE22
:102AE000810A10EE100A27F0ABFDA04AD2F80C22A2
:102AF00003B09200BDE8F04F03F055B8002003B0DA
:102B00000146BDE8F08F2DE9F14F0020009A014603
:102B1000926FE2B300240022521C042AFCDB009ACC
:102B200002EBC405AA46D5E90029A2FB023CD5E97F
:102B300006769E46FB1A0325A3FB057809FB02CC0B
:102B400002FB09CB66EB0B0606FB05854FF0000C7C
:102B500003FB0C5617EB0E03A3FB027C46EB0B06A4
:102B600006FB02C203FB0923DAE90C25BA1AAB41C2
:102B700003D50025524265EB0303851A71EB03056B
:102B800001DA10461946641C032CC4DB00E015E092
:102B900027F0D8FC00EE900A754890ED0E1A80EEF2
:102BA000810A10EE100A27F04BFD704AD2F80C2271
:102BB000BDE8F84F02EB420202F0F5BF00200146EB
:102BC000BDE8F88F2DE9FE43684D80460024D5F816
:102BD00010626F4605EBC4013246D1E9020102F0F2
:102BE000CFFF05EB8401B1F884100904401847F8C1
:102BF000240004F10104032CECDB5C48982108302C
:102C000003F0B8FB0120FFF7B1FE95F8E801019948
:102C1000042807D1D5F81802B0F5201F02DD0520E1
:102C200085F8E801524C0098636AC11A01D40E4637
:102C300000E01E1A0198A26A801A01D4074601E03A
:102C4000019FD71BBE4206DD002901D4084606E0DD
:102C50000098181A03E0002801D50198101A029A6A
:102C6000E16A521A01D4134601E0029BCB1A834257
:102C700005DB002A01D4104601E00298081AD8F8B2
:102C800024101CF036FDD5F81812814206DD032110
:102C900068461DF083F902201DF0D2F900986062A9
:102CA0000198A0620298E062BDE8FE83304AC2E962
:102CB000020170472E4AC2E9060170472C4AC2E958
:102CC00004017047294AD2F8E0310360D2E9740266
:102CD000C1E900027047254AD2F8E0310360D2E929
:102CE0007602C1E9000270472DE9FE4781460020C7
:102CF000EA468A6F22B901EB800339F91020DA67BE
:102D000001EB800239F91030D46F1D1B4AF82050B6
:102D1000136E9D4200DD1566D36E9D4200DAD566C6
:102D20000123002422464FEAE578A3FB056704FB54
:102D3000057403FB0844334602EB420601EBC6066A
:102D400006EBC00CDCE90076FF186641CCE90076A2
:102D5000521C042AE9DB401C0328CADB886F401C94
:102D600088670120C1F89000BDE8FE87D0E6022008
:102D700030E9022030B5002302EB830550F82340F0
:102D80005B1CEC66032BF7DBC2F88810916F79B1FE
:102D9000002102EB810450F82130E56F5B1B00D568
:102DA0005B42256E9D4200DA2366491C0329F0DB55
:102DB000906F401C90670120C2F8900030BD10B5A4
:102DC00000210B4600EB8102491CD46ED4671366C8
:102DD0000329F7DBD0F8881040F8783FC0E90513E5
:102DE00010BDD0E92210081A70470146D1E9180237
:102DF000824200DB1046896E814200DB0846704744
:102E00002DE9F0478046501E012686408946C2F1D2
:102E10002007404602F0C7FE04460D46404649469C
:102E20003A4602F0ADFE3A4602F0BDFEB04203DD86
:102E3000641C45F1000505E07142884202DA641E17
:102E400045F1FF3520462946BDE8F087F7490020C7
:102E5000086248628862C862086448648864C8641A
:102E6000086348638863C863086548658865C86502
:102E7000704730B5EE4AD2F8483223B1D2E99054C7
:102E80002D1A8C4101DAC2E990015B1CC2F848326C
:102E900030BD30B5E64AD2F8583223B1D2E9945465
:102EA0002D1A8C4101DAC2E994015B1CC2F8583238
:102EB00030BD30B5DE4AD2F828322BB1D2E9884590
:102EC000041B71EB050401DAC2E988015B1CC2F83E
:102ED000283230BD30B5D64AD2F838322BB1D2E9DB
:102EE0008C45041B71EB050401DAC2E98C015B1C03
:102EF000C2F8383230BD2DE9F0470246CC480125F2
:102F000008308046C36E016E046FC91A436E1B1BE6
:102F10008B4200DB1946836ED8F87400181A884279
:102F200000DB0146C14F6037F86B884204DA0024A9
:102F300000F010FA204687E7108E0124BC4EC00531
:102F40004FF000010ED5D6F880303068834209DB9F
:102F5000B2F87420D20506D5D6F8B021824201DB42
:102F6000052400E00C4674B3600719D5AF48C83893
:102F70008146FFF722FD000D40EA01300915C6E940
:102F80007601D7E904321B1A8A4102DA0025FFF7DD
:102F9000A1FF9821484603F0EDF90420FFF7E6FC75
:102FA000E0070ED04046FFF708FDC6E97C01D7E9EF
:102FB00006340246181A8C4103DA00251046FFF742
:102FC00078FF284640E7FFE702203DE71EB50446AC
:102FD00090F83000C0F38110032804D19449201DDB
:102FE0000831FFF781FE94F87400C0F381100328C4
:102FF00005D18E4904F14800C839FFF775FED4F8B1
:10300000B8008B4AC0F38113A0326946032B0FD05E
:10301000C0F3411003281AD1002004EB8003D3F839
:10302000A0309B1341F82030401C0328F5DB09E059
:10303000002004EB4003B3F98C3041F82030401CF1
:103040000328F6DB6846D4F8C010FFF793FE1EBDD8
:103050002DE9F04705460020296BCA056AD501F025
:103060005001402900D1012095F8741001F0500161
:10307000402900D1012095F8B8106D4C01F05001A5
:10308000402900D030B100F065F90020C4F8E0011B
:1030900084F8E801654ED4F80812E86A6036814287
:1030A00028D0C4F808020A28306B0CDA40002060EF
:1030B000716B00EE100A491CC4F80C12B8EEC00A7D
:1030C00013F039FC05E02060706BC4F80C0296ED3B
:1030D0000E0A84ED850AD4F80C02C0F11000C4F881
:1030E00010024FF48040C4F8180296F834101920EA
:1030F0008840F0632846FFF769FF94F8E811DFF88D
:10310000309105274FF0020809F1A009072911D2D3
:10311000DFE801F0041127305E7E8500D4F8E0017D
:10312000411CC4F8E0110A2804DB00F013F9012067
:1031300084F8E80186E0D4F89800012810D12846E8
:10314000FFF7D9FE10B1012803D004E084F8E8713C
:1031500001E084F8E8814846FFF731FEFFF776FE8C
:1031600070E0032084F8E8012846FFF72BFD00F00B
:10317000F1F867E02846FFF7BEFEE8B3012861D109
:10318000B5F8B8004FF00403C00515D54846FFF761
:103190002CFE0146C017C4E97410D6E902C2BCEB8C
:1031A0000101824102DA84F8E87108E04846FFF73D
:1031B00018FE316A884202D384F8E83124E0F4E949
:1031C0007601FFF766FED4E90601FFF752FE39E00B
:1031D000B5F8B800C0050BD54846FFF706FE014616
:1031E000C017C4E97410D6E90232591A824108DBCB
:1031F0002846FFF780FE00E003E010B1012803D06D
:1032000020E084F8E8711DE02846FFF7DBFCD6E7F4
:10321000062084F8E80101201CF012FF0DE028468A
:10322000FFF769FE012805D038B10BE0D0E8022095
:10323000D0E6022084F8E88104E000F08BF84846EC
:10324000FFF7BDFD0020FFE510B50021401000286C
:1032500002D001F10101F9DC4FF0010001F101019F
:1032600000FA01F0434C00EE100AC4E90C01B8EE7C
:10327000C00A13F060FB84ED0E0A94F83410192094
:103280008840E06310BD10B54FF418713A4803F060
:1032900071F84021374803F06DF80720FFF766FB0F
:1032A000344840F2DC510022C0E906121421C0E982
:1032B00002124FF41671C0E9041230492E4C01621B
:1032C0000120C4F8E4011920FFF7BEFF0020C4F874
:1032D000080210BD10B54FF41871274803F04AF8E2
:1032E0000720FFF743FB244801210022C0F8E41126
:1032F00080F8E811032101201CF098FE07226421C8
:10330000AFF2B320BDE810401CF038BC10B501206E
:103310001CF096FEAFF2C720BDE810401CF0ECBEDA
:1033200010B5FFF7B0FF002805D1AFF25700BDE898
:1033300010401CF0ABBC10BD10B5FFF7E7FFAFF2BB
:103340006B00BDE810401CF0FDBE0B49D1E97C01CB
:1033500070477047084810B59821083003F00AF804
:103360009821074803F006F8BDE810400520FFF754
:10337000FDBA000030E90220D0E602200008AF2F9D
:1033800008E80220F0B516462DED028B85B01F46E9
:103390000C4605463C22FE49A1F10C0002F083FFD9
:1033A000FB4950224C31A1F1100002F07CFFF8499A
:1033B00096E80D000C3901F13C0C8CE80D005CCC5A
:1033C00001F1980080E85C009FEDF28AD1F82401B9
:1033D000401CC1F82401062802DD0620C1F82401A2
:1033E000C0F106060C46A0351AE004EB06116A4649
:1033F000384648311CF0D9F906EB460004EB800151
:103400006A4628461BF0BCFCF0EEC00AB0EEC81AB3
:10341000F4EEC10AF1EE10FA01D2B0EE408A761C49
:10342000062EE2DB05B0B0EE480ABDEC028BF0BD23
:1034300070B514462DED048B0E46B0EE408A002583
:103440009FEDD59A416BF0EE498A002904DBD0F854
:10345000BC00032800D10125CD492422B431081F26
:1034600002F021FFCA480C38002380ED388A00EBB7
:1034700083015B1C91ED2F0A0A2B70EE288AF6DB84
:10348000B2EE040AC822C8EE800AC0ED390A9FEDE8
:10349000C31A322E1DDB9FEDC20AC0F81C21B6F5FF
:1034A0007A7FC8EE001A00EE104AB8EEC00A61EE4C
:1034B000801A81EE810A2FDB9FEDBA0AC8EE001A4E
:1034C00000EE104AB8EEC00A61EE801A81EE810A61
:1034D00022E041F2883194FBF1F14942D0F81C31ED
:1034E00001EB8101C918C0F81C1102D50021C0F8F8
:1034F0001C119FEDAD0AC8EE001A00EE104AB8EE9E
:10350000C00A61EE801A81EE810A29B9D0F828112B
:10351000012901D1B0EE490AD0F8201109B1B0EE6D
:10352000480AA2498C4201D1B0EE480AB5EEC00A61
:10353000F1EE10FA01D0C0ED3A0A90ED3A1A9C4B28
:1035400071EE600AF0EEE00A10EE901A994227DD63
:10355000D0ED2E0AF5EEC00AF1EE10FA20D1002DC2
:103560001ED0C0F81C21204626F061FC41EC190B4E
:1035700018EE100A26F0B8FF9FED8E1B53EC112BAE
:1035800026F064FA53EC192B26F0B8FC9FED8B1B48
:1035900053EC112B26F05AFA26F072F900EE100ABD
:1035A000BDEC048B70BD2DE9F04F04462DED048B6E
:1035B000A9B09FED799A4FF0000A754ECDF810A092
:1035C0000C3ECDF814A0CDF818A0D6F8201102209A
:1035D00003297DD000209FED7B8A20AD06EB800182
:1035E00091ED2A0A05EB8001401CB8EEC00A0428C0
:1035F00020EE080A81ED000AF0DB0FA81BF038FD71
:1036000024A81BF099FD624B24AA9C330FA92046E5
:103610002793FFF7B7FEF0EE408A04F118001BF085
:10362000E9FD81096148D6F83021824200DB02467B
:10363000B0EE680A2046FFF7FBFED6ED3B0AB34624
:103640000BA820EE200A86ED2E0A1BF011FD13A90F
:103650000BA81CF025FA4E480FAAF0300BA906461D
:103660001CF0A3F831460BA81CF07CF800210DF1EA
:103670003C080DF14C090DF1100E002213461046C6
:1036800001EB410C0CEB000759F8276008EB8007B1
:10369000401C7F680328C6FB0723F3DB900F40EA3A
:1036A00083004EF82100491C0329E6DBDBF82001EA
:1036B0005E4600286AD05046CDF818A0404200EE81
:1036C000100AB8EEC00A20EE080A12F099FD00E0D8
:1036D000A2E08DED000A8DED019A8DED029A06981B
:1036E000404200EE100AB8EEC00A20EE080A13F0BD
:1036F0001DF88DED030A9DED060ADFED330AD6F8BD
:103700003001B8EEC00A41F2883190FBF1F080EE52
:10371000201A00EE100AF8EEC01A81EE210AB0EE6F
:10372000001AC0EE011ABDEEE10A10EE101A4900AF
:1037300000EE101A0691B8EEC00A60EE200A00EE04
:10374000100AB8EEC00A20EE800ABDEEC00A8DED68
:10375000060AB8EEC00A20EE080A12F051FD8DEDFF
:10376000070A8DED089A8DED099A9DED060AB8EECF
:10377000C00A20EE080A12F0D9FF8DED0A0A1CAA31
:10378000694620A81CF069F86A461FE04BE000007B
:103790007CE90220002474490000000000409C45A0
:1037A00000004843000048420000C84340420F0068
:1037B0000E2DB23D00000000000079400000000026
:1037C0000088B34000008030E102374707A91CA8F9
:1037D0001CF043F86F46DFED958AD4F8BC00002852
:1037E00013DD002007EB800191ED000A05EB80015D
:1037F00081ED000A20EE280A06EB8001401C042817
:10380000BDEEC00A81ED2A0AECDBD4F8BC00F6EE6E
:10381000009A03280CD108E0C6F8200129B0BDECBD
:10382000048BBDE8F08F069848E700F03DFEE0B35A
:1038300096ED2A0AB8EEC00A20EE080A8DED1C0AA1
:1038400096ED2B0AB8EEC00A20EE080A8DED1D0A8F
:1038500096ED2C0AB8EEC00A20EE080A8DED1E0A7D
:1038600096ED2D0AB8EEC00A20EE080A8DED1F0A6B
:10387000D6F820010028D1D096ED2E0A20EE290A94
:1038800012F0BEFC20EE280ABDEEC00A86ED2A0A20
:10389000C6F8ACA0C6F8B0A096ED2E0A20EE290A14
:1038A00012F044FF20EE280A00E004E0BDEEC00A5A
:1038B00086ED2D0A2BE096ED2E0A20EE290A12F055
:1038C0009FFC8DED070A8DED089A8DED099A96ED16
:1038D0002E0A20EE290A12F029FF8DED0A0A6A4607
:1038E00007A920A81BF0B9FF68461CF061F800206A
:1038F00007EB800191ED000A06EB8001401C20EEF1
:10390000280A0428BDEEC00A81ED2A0AF0DBD4F8AB
:10391000C01027981CF0A0FAD6F820010028AAD0E1
:10392000401E79E770B590F8B810414ACC064FF0C8
:1039300000034FF0030101D4C2E94813B0F820415D
:10394000E40509D4048EE40503D5B0F87440E40519
:1039500002D4C2E948131AE0D2F8341139B1D0E9DF
:103960003013C91A4FF47A73B1FBF3F105E0D0F8C4
:10397000B01044F62064A14202DBC2F830110AE024
:10398000D2F82C512944C2F82C11A14201DA0020AE
:1039900070BDC2E94B31FFF706FEF8E710B54FF4F2
:1039A0009C71234802F0E6FC214C4FF0804000213E
:1039B000C4F8FC0044F8A80F1D48A8301CF04CFACD
:1039C0004FF47A70B7EE000A606784ED110A10BDFB
:1039D000174880ED3B0A002070471549C1F82801BF
:1039E000002070471249C1F83401002070470422BA
:1039F0004FF41671AFF2D3001CF0C0B8AFF2DB0089
:103A00001CF07ABB10B5FFF7C9FF09490020C1F8C7
:103A10002801C1F83401AFF22900BDE810401CF0C4
:103A200035B9AFF235001CF08DBB00000000804EB0
:103A300070E902201FB501461022684602F0BCFB67
:103A4000F7489DE80E0080E80E00F6499DF80C004E
:103A500081F8B001002004B010BD1FB5F0490EC9B7
:103A60008DE80E00EF49102291F8B0118DF80C107E
:103A7000694602F0A1FB0020EDE72DE9F04F91B07F
:103A800000251821684602F075FC0024182106A8BC
:103A900002F070FCE348A046C14690F8C01101292D
:103AA0007ED1D0F8B8B1D0F8B4A10022C2EBC200E8
:103AB00000EB4001DB4800EB810E9EF850000F90B8
:103AC000002864D000215FE0DDE900076D1C5EF88E
:103AD00021300E93181847EBE376CDE900060EEB84
:103AE0008100EDB243690D93DDE9027C4FEAE37694
:103AF000DB1946EB0C06CDE90236836ADDE9047C6E
:103B0000DE170C93DB1946EB0C06CDE90436C06BCF
:103B10000E9BDDE9067C83FB0063360C46EA034618
:103B2000F6194CEB2343CDE906630D9BDDE9087CD8
:103B300083FB00634FEA164646EA0346F6194CEB50
:103B40002343CDE908630C9BDDE90A7C83FB00631A
:103B50004FEA164646EA0346F6194CEB2343CDE9F5
:103B60000A6380FB00634FEA164646EA034616EBFB
:103B7000080849EB23490444584501DA834602E02A
:103B8000504500DD8246491C0F9888429CDC521C3F
:103B9000052A8BDBA348AAEB0B01D0F8BC0100E09F
:103BA00056E0814254DBA5FB0823E0170026109065
:103BB00006FB083005FB0900CDE90C2084FB04203E
:103BC000110C41EA00410014CDE90E0106A800EBFA
:103BD000C601D1E90003A0FB05B203FB05220021C9
:103BE00000FB012C684600EBC601D1E90001A0FBF7
:103BF000043701FB0471109A00FB0210190C41EA12
:103C000000490CAA4FEA204A92E889000F9983EAFA
:103C1000070880EA010252EA080212D0421A63EB56
:103C20000703BBEB09006CEB0A0C4FEA0C4141EABD
:103C30001041000401F0CAFF7A4901EB8601C1F886
:103C4000A401761C032EC1DB7648012180F8B01157
:103C500011B00020BDE8F08FF8B5724D0E46044655
:103C6000D5E96D01091A052291FBF2F1301A90FB9A
:103C7000F1F0C0B28DF80000042801D92020F8BD71
:103C8000C0EBC00000EB400005EB800191F8500054
:103C9000052816D0421C81F850209DF80010C1EB79
:103CA000C10101EB410105EB810202EB8001CE6312
:103CB000236842F8203060684861A068886200206C
:103CC000F8BD01F14003181F1022194602F0EBFA6B
:103CD0009DF800001022C0EBC00000EB400005EB97
:103CE0008000011D02F0DFFA9DF800001022C0EBF9
:103CF000C00000EB400005EB800000F1180114301B
:103D000002F0D1FA9DF800001022C0EBC00000EBD9
:103D1000400005EB800000F12C01283002F0C3FACE
:103D20000420BAE730B585B0044603A968461BF005
:103D30003BFA04A81BF0EAFA02282BD0D4F8E400DE
:103D40000399401A374991F8B02112B308B3D1F85A
:103D5000A421009C80FB0232150445EA1342224450
:103D60000092D1F8A821019C80FB0232150445EA9B
:103D7000134222440192D1F8AC11029A80FB011047
:103D8000030443EA114010440290032168461CF0EA
:103D900005F90CE0606B032809D11BF017FA30B16C
:103DA00068460399FFF758FF08B9FFF766FE05B0AC
:103DB000002030BD10B54FF4E2711A4802F0DAFA73
:103DC00018481949C0F8B4114FF4AA01C0F8B81145
:103DD0004FF4A021C0F8BC11012180F8C0110020CF
:103DE00010BD1049C1F8B801002070470D49C1F855
:103DF000B401002070470B49C1F8BC010020704796
:103E000058B10849D1F8A4210260D1F8A821426034
:103E1000D1F8AC1181600020704705207047000088
:103E20004CEC0220A8EA02200000D8FF2420F5E78D
:103E300020B12D4981F8C0010020EFE72420EDE7F3
:103E4000294B93F8B1010028E8D0D3E96D10401A4E
:103E5000052190FBF1F00020C0EBC00101EB410116
:103E600003EB810191F8502022B1002100E0491CB0
:103E70008A42FCDC401C0528EEDB0020CEE708224D
:103E800096211A481BF07ABE18481CF035B910B5B7
:103E9000FFF790FF4FF49A731022154915481BF055
:103EA000C1FE20B9AFF229001BF0F0FE08B10120DD
:103EB00010BD0D49012081F8B101002010BD10B5E1
:103EC000094C94F8B101002808D008481CF014F9F6
:103ED000AFF255001CF036F908B1012010BD0020EA
:103EE00084F8B10110BD0000A8EA0220253D0008B9
:103EF0005B3A0008353A0008002803DDFE4901223C
:103F0000C1E920020020704710B5B821FA4802F03C
:103F100031FA9FEDFA0AF84880ED030A9FEDF80A9E
:103F200080ED020A9FEDF70A4FF0804180ED000A14
:103F3000B3EE0E0A80ED010A41664FF4FA619FED7F
:103F4000F20AC16780ED270A002010BD70B5EA4C67
:103F5000002594ED001AB4EEC01AF1EE10FA17D352
:103F600094ED011AB4EEC01AF1EE10FA10DC2069DB
:103F7000012817D194ED030AB4EEE00AF1EE10FA2D
:103F800006D394ED020AB4EEE00AF1EE10FA09DD70
:103F9000606F20B9D848A16D18301BF05DFF01207B
:103FA000C4E91D05D4E91E01884204DB606F0128C5
:103FB00000D1E565656770BD10B504462DED028B37
:103FC000B0EE408A1BF05EF8CB49002220B918EE13
:103FD000100ACE4B984202DD0A614A6102E008698C
:103FE000002808D1486920444861B0F5FA7F02DD15
:103FF0000120C1E90402BDEC028B10BDF0B58DB00B
:104000000D461446064669461BF04AFD09AA31468C
:1040100028461BF0CAFB294630461BF0A3FB0021B3
:10402000EC460DF1240E00231A46184601EB410719
:104030003D180EEB80065CF825507668401CC5FBE9
:1040400006320328F4DB980F40EA820044F821008E
:10405000491C0329E7DB0DB0F0BDA7490020C1F8DA
:104060008C00704710B590ED000AD0ED010AB8EE53
:10407000C00AB8EEE01AF8EEE00A20EE000A01EEFF
:10408000200AD0ED020AB8EEE01AF8EEE00A01EEDE
:10409000200A12F050FCDFED9E0A20EE200A10BD2F
:1040A00000229549012330B1012810D0C1F8983081
:1040B00041F88C2F31E081ED280A81ED290A9FED2E
:1040C000950A81ED2A0AE1E924328A607047D1ED30
:1040D000280A91ED271A70EE600AF0EEE00AF4EE7D
:1040E000C10AF1EE10FA16D2D1F89400401CC1F8C2
:1040F0009400D1ED290A312830EE800A81ED290A99
:10410000E4DD0220DFED840AC1F8900080EE201A81
:1041100081ED2A1A704741F8902F4A6070472DE9C7
:10412000F04798462DED088B8AB017468A4604461C
:104130009FED788A0025704E039504950595D6F875
:10414000880000287DD01BF04DF810B103A81BF0AB
:104150001DF8D6F880004FF00109002817DDC6F8D9
:1041600084901BF03FF848B103A81BF043F8800986
:10417000B0F5C87F02D2D6F8800004E0D6F88000FF
:10418000001BC6F88000002801DCC6F884501BF034
:104190000BFA002855D000209FED5D9A57F82010AB
:1041A00000EE101A58F82010401CB8EEC00A032880
:1041B00060EE090A00EE101AB8EEC00A20EE800A7E
:1041C00000EE098AEADB3846FFF74CFFF0EE408A42
:1041D0004FF07E5788EE280AF7EE00AA10EE100A7C
:1041E000B84201DDB0EE6A0A10EE100ADFF82C8149
:1041F000BFEE00BA404501D9B0EE4B0A11F0E8FD20
:10420000D6F88C00B0EE40AA98B196ED000AB4EE54
:10421000E80AF1EE10FA0CDD96ED010AB4EEE80AB8
:10422000F1EE10FA05D2B0EE4A0AD6F89000FFF788
:1042300037FF68461BF054F82F490C22AC31684612
:1042400000E0E2E001F0F2FE18B9D6F8980001288B
:104250006BD129489DE80E00AC3080E80E00009834
:1042600018B9019808B90298F0B36846FFF7FAFE4A
:10427000B0EE408AB5EEC08AF1EE10FA55D0F2EEFB
:10428000049A38EE690A20EE000A12F054FB86ED1B
:10429000010A38EE290A20EE000A12F04CFB86EDE6
:1042A000000A9DED020AB8EEC00A60EE090AB0EEFF
:1042B000480A80EE808A18EE100AB84201DDB0EE9E
:1042C0006A8A18EE100A404501D9B0EE4B8AB0EE6A
:1042D000480A11F07DFDD6ED270A30EE600A86ED22
:1042E000020AB0EE480A00E024E011F071FDD6EDBC
:1042F000270A30EE200A14E06CEC02200000B442E1
:104300000000B4C2000070427B142E3E00401C46E8
:10431000000080370000000000004842000080BF1D
:1043200003E086ED030AC6F88C50DFF88481F16D56
:1043300021B32FE01FED0D0A86ED000AB3EE0E0A41
:1043400086ED010AD6F89800012808D01FED140A5E
:1043500086ED020A1FED170A86ED030AE5E796EDE2
:104360002A0A96ED271A70EE410A30EE010AC6EDD0
:10437000020A86ED030AC6F89850D6E70027C6F869
:104380005C9006EB0710414618301AF0ADFE7F1C1A
:10439000042FF6DB464906AA0C310F465046FFF7BC
:1043A0002DFE394650461BF0DDF903A81AF022FF16
:1043B00000EE100ADFED3F0A2046B8EE400A20EE7C
:1043C000200AFFF7F9FDF0EE4A0AB0EE680AFFF79F
:1043D000BDFDD6E91E01884201DA2044B067706F46
:1043E00090B9306E20443066B0F57A7F0CDD3049EC
:1043F00030223039A1F11000356601F054FF2C480D
:10440000414610381AF070FE706F0AB0BDEC088B90
:10441000BDE8F08770B588B0044604A81AF08CFE99
:10442000D4E93001451A68461AF022FE064604AB6C
:1044300004F1A00269462846FFF771FE1BF01CFD3F
:1044400008B0304670BD04224FF49671AFF23B00C5
:104450001BF094BBAFF243001BF04EBE10B5FFF74C
:1044600053FD00280DD1124800215838C0F88C1097
:104470000121C0F88810AFF23100BDE810401BF0F8
:1044800005BC10BD10B5AFF273001BF035FEAFF2E6
:104490007B00BDE810401BF02FBE054901205839B4
:1044A000C1F88C000020704701485838406F7047B1
:1044B000C4EC02200000803CF0B51D462DED028BBF
:1044C00099B090ED000AD0ED010A1746B8EEC00A87
:1044D000B8EEE01AF8EEE00A0E4620EE000A0446B6
:1044E00001EE200AD0ED020AB8EEE01AF8EEE00A7A
:1044F00001EE200A12F01FFAF0EEC00A10EE900A48
:10450000B0F18D4F7EDDD6ED000AB8EEE01ADFED9A
:10451000FE0A21EE201A8DED041A96ED011AB8EE6E
:10452000C11A21EE201A8DED051A96ED021AB8EE89
:10453000C11A21EE201A8DED061A96ED031AB8EE77
:10454000C11A61EE200ACDED070A9FEDF08A10AA8C
:104550008DED0C8AD4ED000A0CA904A8F8EEE00A4F
:1045600080EE801A8DED0D1AD4ED010AF8EEE00A06
:1045700080EE801A8DED0E1AD4ED020AF8EEE00AF4
:1045800080EE801A8DED0F1A1BF067F914A904A8AC
:104590001BF0F4F86A4614A910A81BF05EF99DED13
:1045A000021ADDED010ADA4921EE010A00EEA00A45
:1045B00010EE100A884202DA9FEDD60A11E010EEE2
:1045C000100AD549884202DA9FEDD40A09E010EEBC
:1045D000100AD349884202DAB5EE000A01E09FEDE5
:1045E000D10A01EE907AB8EEE12ADFEDCF2A8DED07
:1045F000088AC2EE221A21EE800A21EE001A8DED01
:10460000091A00E038E020EEC00A6A4604A98DEDE0
:104610000A0A8DED0B8A08A81BF01FF96A4604A947
:1046200010461BF07EF868461BF080F9DDED000AAD
:104630009FEDBE0A60EE800AFDEEE00AC5ED000ABD
:10464000DDED010A60EE800AFDEEE00AC5ED010A2B
:10465000DDED020A60EE800AFDEEE00AC5ED020A19
:10466000DDED030A20EE800ABDEEC00A85ED030AE7
:1046700019B0BDEC028BF0BD96E80F0085E80F0085
:10468000F6E72DE9F0410C462DED068B054690ED41
:10469000000AD0ED010AB8EEC00AB8EEE01AF8EE52
:1046A000E00A20EE000A01EE200AD0ED020AB8EE80
:1046B000E01AF8EEE00A01EE200A12F03CF910EEE2
:1046C000100A4FF07E5800264FF0804740453FDDEE
:1046D000D5ED020AB7EE009AF8EEE00AC0EE808A45
:1046E00039EE680A9FED89AAB5EEC00AF1EE10FA1C
:1046F00001DCB0EE4A0AF6EE009A20EE290A12F02A
:104700001AF9B0EE408A38EE890AB5EEC00AF1EE29
:1047100010FA01DCB0EE4A0A20EE290A12F00BF979
:10472000F0EE408A95ED000AB8EEC00A60EE000A8D
:1047300095ED010AB8EEC01AB8EEC00A41EE000AC3
:10474000B0EE600A12F0F7F810EE100A404503DCF4
:10475000C4E90076A66025E0DFED740A28EEA01A11
:10476000BDEEC11A84ED001A95ED011AF8EEC11ADA
:1047700081EE801A21EE081A61EE200AFDEEE00AB1
:10478000C4ED010AD5ED000AF8EEE00A80EE801AC9
:1047900021EE080ADFED660A20EE200ABDEEC00A0F
:1047A00084ED020AE660BDEC068BBDE8F08170B5D1
:1047B00090ED000AD0ED010A0546B8EEC00AB8EE49
:1047C000E01AF8EEE00A0C4620EE000A01EE200A9C
:1047D000D0ED020AB8EEE01AF8EEE00A01EE200A87
:1047E000D0ED030AB8EEE01AF8EEE00A01EE200A76
:1047F000B5EEC00AF1EE10FA07D84FF08040206005
:1048000000206060A060C86070BD12F094F8B7EE40
:10481000001AC1EE000A9FED450A20EE800AD5ED90
:10482000000AF8EEE00A60EE800AFDEEE00AC4ED50
:10483000000AD5ED010AF8EEE00A60EE800AFDEE0E
:10484000E00AC4ED010AD5ED020AF8EEE00A60EED6
:10485000800AFDEEE00AC4ED020AD5ED030AF8EE87
:10486000E00A20EE800ABDEEC00A84ED030A70BDA6
:1048700070B5044690F8300088B040067ED5A06937
:10488000002801DB014600E041424FF4803200265F
:10489000284D91420BDAE169002900DA4942914240
:1048A00005DA216A002900DA4942914267DB0028D3
:1048B00000DA40424FF4C80188420BDCE06900286E
:1048C00000DA4042884205DC206A002800DA4042D3
:1048D000884201DD032000E00220A863696BA06A22
:1048E000814242D0686394ED0A0A9FED131AF8EEF4
:1048F000C00A80EE810ADFED110A20EE200A10EED8
:10490000100A25F0F1FD1BE00000803000000000DF
:1049100017B75139A69BC43B0AD7233C8FC2753DBC
:10492000CDCC4C3ECDCCCC3E0014CD470000804ECB
:10493000000080CE24ED0220002474490000004EC7
:104940009FEDFA1B53EC112B25F0D8FA9FEDF91BC4
:1049500053EC112B25F0D2FA9FEDF81B53EC112BE1
:1049600025F074F825F006FA28630496296BA069EF
:104970001AF0BFFE0590296BE06901E022E023E018
:104980001AF0B7FE0690296B206A1AF0B2FE079063
:104990006A4604A9EB481AF008FF0098E94A80012A
:1049A0000090019869468001019002988001029070
:1049B00003988001039010461AF0A1FEE1490846D1
:1049C000FFF7F5FE08B070BDAE63FBE770B50446B7
:1049D0002DED048B8EB0D0F82001410676D5D94D4F
:1049E000D4F81011D84B2A68891AD4F82C215A43CC
:1049F0008A4201DA032100E00221A963800504F55F
:104A0000887602D5CF493046B5E0002107A81AF0D4
:104A1000CBFBCC490C223C3107A801F007FB20B9A5
:104A2000D4F82801A96D88427ED020886B4680B2D8
:104A300007AA616A1AF0FAF99DED000ADDED010A94
:104A4000B8EEC00AB8EEE01AF8EEE00A20EE000A6E
:104A500001EE200ADDED020AB8EEE01AF8EEE00AF7
:104A600001EE200A11F067FFB0EE408A9FEDB70A11
:104A700068EE000A9FEDB61A80EE810ADFEDB50AF6
:104A800020EE200AD4ED4A0AF8EEE00A60EE800A31
:104A90001FED571A80EE810AF6EE000A20EE209AEA
:104AA000B0EE490A11F0ACFBF0EE408AB0EE490AD4
:104AB00011F03CFE18EE100A4FF08041884206DAF1
:104AC0000020C5E912102865686532E055E05FED09
:104AD000690A68EEA00AFDEEE00AC5ED120A5FED74
:104AE0006C0A20EE200ADDED000AF8EEE00A60EE26
:104AF000200A80EE881AFDEEC10AC5ED130ADDED2D
:104B0000010AF8EEE00A60EE200A80EE881AFDEE57
:104B1000C10AC5ED140ADDED020AF8EEE00A20EE46
:104B2000200AC0EE080A00E00DE0BDEEE00A85EDC7
:104B3000150A07AB93E8070005F13C0383E807007B
:104B4000D4F82801A8657F4903AA483130461AF0F5
:104B50002CFE7C480AAA5C3003A904461AF025FE04
:104B6000214630461AF0FEFD03AA0AA975481AF03C
:104B70001CFE744903A8FFF71AFE0EB0BDEC048BAF
:104B800070BD1FB5044669466E481AF0EBFD6D4ACC
:104B90006946203220461AF008FE6A491DCC1031C1
:104BA00081E81D001FBD2DE9F0470446654E90F8D1
:104BB000740006F15C0A06F12008012500F050019E
:104BC000103692B004F5887904F15C07402906D0CC
:104BD00094F8200100F0500040280DD01DE031462F
:104BE0003846FFF74EFDB4F82001C0050CD55146FC
:104BF00048461AF0B7FD07E0514648461AF0B2FDA4
:104C0000B4F87400C00508D569464E481AF0AAFDEC
:104C10004246694630461AF0C8FDB4F82001C00586
:104C2000204602D5FFF7D2FE01E0FFF721FE324613
:104C3000444940461AF0B9FD94F8740040066FD517
:104C4000208EB4F820110843C0056DD50FAA39464F
:104C500030461AF005FFD4E9172080FB0001C2FBA3
:104C60000201626E374FC2FB02014FF08042801A90
:104C700071F1020014DB04A81AF0F2FADDE9042055
:104C800080FB0001C2FB0201069AC2FB02014FF049
:104C90008042801A71F1020002DB0420B8630BE04D
:104CA000B86B042808D041F28832022806D00328C5
:104CB00004D0012852D009E0002507E0E16E91FB05
:104CC000F2F5012D00DA0125032800D0AD002248BD
:104CD0000024454310980794800229461AF009FDE4
:104CE00008900F982946404280021AF002FDCDE953
:104CF00009040BAA314607A81AF057FD32460BA942
:104D000010461AF0FCFC31460846FFF750FD694694
:104D10000C481AF027FD4246694630461AF045FD18
:104D200012B00020BDE8F08720E00000112D4454AF
:104D3000FB2109400000000000007040000000005E
:104D40000080664024ED022071981C00DB0F494072
:104D50000000344300008037A69BC400E06E90FB47
:104D6000F2F0012800DA01204500AFE7334619468A
:104D70003846E26EFFF7A0FBC9E770B50446008E27
:104D8000C105D4F8200107D4B4F87410C90503D4C0
:104D9000C10501D4002070BDC0F30120032807D055
:104DA0002046FFF700FF2348A16B1BF095F9F1E7C0
:104DB00004F588711F482EC980E82E00F3E71E48CD
:104DC0001BF09AB91B4810B56C21103801F0D2FACB
:104DD00018484FF080411038016101600162C163E1
:104DE000C165002010BD184810B5082213A1006845
:104DF00001F01CF908B1322010BD1322BDE81040AB
:104E0000C8210D481AF0BABE10B5FFF7DBFF002825
:104E100005D1AFF22D00BDE810401AF037BF10BD2C
:104E200010B505481BF068F9AFF24500BDE8104029
:104E30001BF088B934ED02207B4D0008654D504CC5
:104E400020352E31000000002404002000209FEDBA
:104E5000FE0AFE4ADFEDFE0A02EB8001401C81EDF6
:104E6000080AC0B2C1ED0B0A0328F5D37047F74A10
:104E7000002002EB8001D1ED080A91ED2D0AF4EE3D
:104E8000C00AF1EE10FA01D281ED080AD1ED0B0A49
:104E9000F4EEC00AF1EE10FA01DD81ED0B0A401CC0
:104EA000C0B20328E5D370473EB50B46B0F84810B2
:104EB00009040091B0F84A10009A09040191B0F871
:104EC0004C1009040291E1494C6E121B0092019AA8
:104ED0008C6E121B0192029AC96E511A0291816E58
:104EE000B0F844006A4680B219F0A0FF3EBDF0B5AC
:104EF000D64F00242546D7F894208DB02E46012A9F
:104F000001D1C7F8946009A9FFF7CEFF05A81AF0F0
:104F100013F9059909986022A0EBA1300990069930
:104F20000A98A0EBA1300A9007990B98A0EBA1304A
:104F3000C8490B90081F01F0B6F90DF1240CC548C3
:104F40009CE80E00143080E80E0068461AF088F9DC
:104F5000C04960226C31081F01F0A5F9BD489DE8E9
:104F60000E00803080E80E0000210922D7F82C04C2
:104F7000401CC7F82C0401EB410007EB8000DDF872
:104F800000C0D0F84C33491C93FBF2F31C44D0F81A
:104F90005033092993FBF2F31D44D0F8543393FBAB
:104FA000F2F31E44D0F8B83393FBF2F3634400935A
:104FB000D0F8BC33DDF804C093FBF2F363440193F3
:104FC000D0F8C003029B90FBF2F018440290CDDBB6
:104FD000002C00DA6442002D00DA6D42002E00DA67
:104FE00076420098002800DA40420090019800289C
:104FF00000DA404201900298002800DA4042029014
:10500000009900208C4200DA012001998D4200DADB
:10501000401C02998E4200DA401CD7F82C14092952
:1050200000DB401C04280DD197F8240402280BD97A
:1050300001468648D7F8282464301AF097FE0120EC
:105040001AF08EFE0DB0F0BD1AF07CFEFAE72DE9E5
:10505000F0417E4D00272DED048B06463C4685F839
:1050600024749FED7D9B9FED7E8BC5F8287405EB26
:105070008400D5ED0F0A90ED330AB4EEE00AF1EEAC
:1050800010FA1EDB95ED140B53EC182B51EC100BA2
:1050900025F040F941EC100B11F05AF953EC192BA3
:1050A00051EC100B24F0EEFE0BD295F824040121F4
:1050B000401C85F82404D5F82804A1400843C5F80D
:1050C0002804641CE4B2032CD1D395F82404B8B3AB
:1050D000002406EBC40090ED000B51EC100B24F003
:1050E00049FE05EB8401641CE4B24866032CF0D34E
:1050F000C5F82C74A868042802DA95F82404A8607E
:1051000095F8240403281BD15749E868884217DC26
:1051100095ED140B53EC182B51EC100B25F0FAF80D
:1051200041EC100B11F014F953EC192B51EC100B4E
:1051300024F0A8FE04D2A868032801D10420A860A6
:105140004A49286988421DDA4949E868884219DCD9
:1051500095ED140B53EC182B51EC100B25F0DAF8ED
:1051600041EC100B11F0F4F89FED421B51EC100BC9
:1051700053EC112B24F086FE04D2A868042801D138
:105180000520A860BDEC048BBDE8F0812DE9F0415D
:105190002E4C0746D4F8A404012802D00025284646
:1051A000F2E73649F7EE000AA1F1E800B7EE000A8F
:1051B0000646FBF7B2FA254A3046503202F5AC718A
:1051C000FBF74DFD0500EAD06068401C606094ED7F
:1051D000140B51EC100B24F0CDFDB96E1AF089FAC6
:1051E00000EE100ADFED260AB8EEC00A20EE200A13
:1051F00010EE100A25F078F9C4E9140194ED6A0B59
:1052000051EC100B24F0B6FDA06594ED6C0B51EC45
:10521000100B24F0AFFDE06594ED6E0B51EC100B1C
:1052200024F0A8FD206694ED680B9FED161B51EC51
:10523000100B53EC112B24F05FFFB0D231469FEDE1
:10524000130AF0EE400A23E000401CC690ED022055
:1052500000401C46E0F002209A9999999999B93F2B
:10526000000000000000F03FAE47E13D00007A433F
:10527000BC74933C9CC420B07268913F58EF0220EC
:1052800000008037000000000070A740CDCCCC3E6D
:105290000846FBF742FA82E7D0ED030A90ED040AD4
:1052A00000210122F4EEC00A0223F1EE10FA12DD11
:1052B00090ED051AF4EEC10AF1EE10FA0BDDB4EE32
:1052C000C10A0164F1EE10FA02DBC0E91123704754
:1052D000C0E911327047B4EEE00AF1EE10FA12DDC7
:1052E00090ED051AB4EEC10AF1EE10FA0BDDF4EE02
:1052F000C10A0264F1EE10FA02DBC0E91113704733
:10530000C0E911317047F4EEC00A0364F1EE10FAFF
:1053100002DBC0E911127047C0E911217047002378
:1053200019469FEDFE0AC36400EB8102491C82ED21
:10533000000A82ED090A0329F6DB0121C0E91D13E9
:10534000704730B504461420A0650A202066002569
:1053500084F870502046FFF7E2FF656530BD70B5F8
:105360002DED048B86B06946FFF79EFD9FEDEC8B1B
:105370001FED3D9A00246E4603AD56F8240000EE62
:10538000100A05EB8400B8EEC00A20EE090A80ED91
:10539000000A20EE000A10EE100A25F0A5F853ECE2
:1053A000182B24F09FFA41EC180B641C032CE4DB4F
:1053B000B0EE480AF0EE680A11F080FADA4EB0EE6C
:1053C000408AF0EE608A002455F8240025F08CF81D
:1053D00053EC182B24F03AFB24F052FA00EE100A9A
:1053E00006EB840000F58060641CD0ED0C0A032CF1
:1053F00030EE200A80ED0C0AE6DBD6F88404401C6F
:10540000C6F884040120C6F8AC0406B0BDEC048BD9
:1054100070BD70B505462DED028B86B004AA03A9B8
:1054200068461AF091F89FEDBE8B00246E4606EB9D
:10543000840090ED000A20EE000A10EE100A25F01C
:1054400053F853EC182B24F04DFA41EC180B641C64
:10545000032CECDBB0EE480AF0EE680A11F02EFAED
:10546000B0EE408AF0EE608A002456F8240025F061
:105470003BF853EC182B24F0E9FA24F001FA00EE83
:10548000100A05EB8400641CD0ED000A032C30EEFA
:10549000200A80ED000AE8DB686D401C6865012089
:1054A000E86706B0BDEC028B70BDF0B50446002184
:1054B000F7EE001A9FED992A94ED140A04EB81008F
:1054C000B8EEC01AD0ED000A80EE810AB5EEC00A2F
:1054D000F1EE10FA02DBB0EE401A01E0B1EE401A34
:1054E000D0ED060AF5EEC00AF1EE10FA01DAF1EE9F
:1054F000600A71EE600AC0ED0C0A80ED060A94EDB8
:105500000F1AD0ED092A71EE610A00EEA20AC0EE70
:10551000010AC0ED090AF5EEC00AF1EE10FA01DA4F
:10552000F1EE600AC0ED030A491C80ED002A032950
:10553000C2DB2046FFF7B0FEE06CB0F57A7F01DAFF
:10554000401CE06494F870700021052604230325B4
:105550000122206C062F09D2DFE807F00309102B87
:1055600052376267A267E16484F87020F0BDE06F93
:105570000128FBD1022084F870000DE004EB8000CC
:10558000D4ED190A90ED030AB4EEE00AF1EE10FA38
:1055900004DB84F8703031E0A167F0BDD4ED1A0A65
:1055A000B4EEE00AF1EE10FA22D934E06267A267A5
:1055B000F0BD04EB8000D4ED190A90ED030AB4EEBF
:1055C000E00AF1EE10FAE4DAF0BD04EB8000D4ED6D
:1055D0001A0A90ED030AB4EEE00AF1EE10FA07D9C8
:1055E000006B524EB04206D9216EE06C8842EBDB74
:1055F00084F87050DAE784F87030E1646167CBE7D3
:1056000004EB8000D4ED1B0A90ED030AB4EEE00A2F
:10561000F1EE10FAD8D884F87060E164C6E710B5EE
:10562000044600EE104AB8EEC00ADFED410A20EE53
:10563000200A9FED401AC0EE010AB6EE000A20EEE5
:10564000800A10EE100A24F04FFF41EC100B10F00E
:1056500073FD9FED391B51EC100B53EC112B24F013
:105660004DFC24F087FB01462F48C0E9204110BDC6
:105670002DE9F04F00242DED028B91B005460494E6
:1056800005940694C06E44F62061274E884206DBDE
:10569000D6F88010884210D0FFF7C1FF0DE0D6F891
:1056A00048231044C6F8480388427DDBE96E8142F6
:1056B00001D0FFF7B4FFC6F84843286BC6F8B00422
:1056C0002846FFF74CFE06F5906003C8814204DBD4
:1056D0001B48FFF7EAFEC6F88444D6F8A804012860
:1056E00002D12846FFF703FCD6F8A40401285BD1B9
:1056F00004A819F0D3FD9DED040ADDED050A20EEA6
:10570000000A00EEA00ADDED060A00EEA00A11F084
:1057100012F986ED030ADFED0B0A15E00000000028
:10572000000000000000000090ED0220CDCC4CBD38
:10573000368D274000247449000000000000D0414D
:10574000C0F102200000804620EE200AC149A14697
:10575000ADF82040BDEEC00A099110EE100AADF878
:105760001C00ADF81E4007A8FDF7BEFA684619F008
:10577000D5FD316F009819F0BCFF0446716F019898
:1057800019F0B7FF0444B16F029819F0B2FF044456
:10579000F16F039819F0ADFF04EB00089DE80F00CE
:1057A00000240DF1340A00E0A2E006F170079FED3D
:1057B000AA8A87E80F000DF1280B05EB4407A96EB4
:1057C00037F8480F000419F094FF00EE100A4AF869
:1057D000240006EB8400B8EEC00A20EE080A80ED33
:1057E000050A388801044BF82410641CE4B2032C29
:1057F000E3D398480AA9E8380446FBF75EF8316815
:10580000D6F82803884273DB95ED390AD6ED360ABF
:10581000B8EEC00AF5EEC00A20EE080AF1EE10FA62
:1058200005D070EE600AF0EEE00AC6ED370A86EDAC
:10583000360AB068062818D2DFE800F00303030335
:105840000D249FED860AC82086ED0E0AB7EE000AE9
:1058500086ED0F0A08E09FED820A86ED0E0A9FEDA5
:10586000810A642086ED0F0A3064288EC0050998ED
:1058700012D4FDF748F924F065FE00EE100A5FED42
:10588000530A11E09FED780A86ED0E0A9FED770A24
:10589000322086ED0F0AE7E7FDF78FF824F052FE7D
:1058A00000EE100ADFED720A982180EE201A86EDD4
:1058B000041A099800F05EFDD6F88410414543DAD9
:1058C00096ED040AB5EEC00AF1EE10FA3CDDD6ED15
:1058D0000E0AB4EEE00AF1EE10FA35D2316C7068BF
:1058E000884206DA2846FFF751FC002859D00CE020
:1058F00056E06049D6F8B000884206DB2846FFF73C
:1059000045FC00284DD0C6F80490002006EB80012D
:10591000401C91ED050AC0B281ED2D0A0328F5D394
:10592000FFF7A5FA002006EB8001401C91ED080A64
:10593000D1ED0B0AC0B2032830EE600A81ED330AC4
:10594000F1D34D48FFF783FB002006EB8001401C9C
:1059500091ED260AD1ED050AC0B2032830EE600AA7
:10596000B0EEC00A81ED290AEFD396ED290AD6EDF3
:105970002A0A002030EE200AD6ED2B0A30EE200A4B
:1059800086ED2C0A06EB8001401C91ED050AC0B2A1
:1059900081ED260A0328F5D3E821204600F0EAFC31
:1059A000002011B0BDEC028BBDE8F08F10B54FF4B4
:1059B0009761324800F0DEFC304C0A20206040073E
:1059C0002067FFF743FA04F58660FFF7BAFC20680A
:1059D000C4F880049FED2A0A04F580601E2180ED42
:1059E0001B0A9FED280AC4F88C1480ED260A9FED4F
:1059F000260A80ED250A9FED250A80ED270A192049
:105A0000FDF722FC002010BD012240F25231AFF21E
:105A10009F301AF0B3B8AFF2A7301AF06DBB10B5D3
:105A2000FFF7C4FF002805D1AFF22300BDE8104006
:105A30001AF02CB910BD10B5AFF2CB301AF05CFBE8
:105A4000AFF23B00BDE810401AF07CBB0B48806809
:105A50007047000040F00220000080370080BB4407
:105A6000000096439A99993F000070423333B33F48
:105A70000050C347CDCC4C3D38EF022090ED0220C2
:105A800000000042CDCCCC3ECDCC4C3F3333333F35
:105A9000704753EA020C00F069802DE9F04B4FF09B
:105AA0000006002B1FBFB3FA83F503FA05F424FAAE
:105AB00005F65E4012BF1643B2FA82F502FA05F40B
:105AC000C5F120051EBF22FA05FC44EA0C0420356E
:105AD00056EA044C4FEA144418BF641C4FF0000807
