:020000040800F2
:1000000088F8022039030008350C01080DC10008EA
:10001000F9010108B57F0008F5540108000000004F
:100020000000000000000000000000001D2D01087D
:10003000ED88000800000000170400086D2F01087B
:10004000730300087303000873030008A923010861
:1000500073030008730300087303000873030008A8
:100060007303000873030008730300087303000898
:100070007303000873030008730300087303000888
:100080007303000873030008730300087303000878
:100090007303000873030008730300087303000868
:1000A0007303000873030008730300087303000858
:1000B0007303000873030008730300087303000848
:1000C0007303000873030008730300087303000838
:1000D00073030008453F0108730300085D3F0108F2
:1000E0007303000849210108730300087303000823
:1000F0007303000873030008730300087303000808
:1001000073030008730300087303000873030008F7
:1001100073030008730300087303000873030008E7
:1001200073030008730300087303000873030008D7
:1001300073030008730300087303000873030008C7
:10014000730300087303000873030008391E0108D5
:1001500073030008730300087303000873030008A7
:100160007303000873030008730300087303000897
:100170007303000873030008730300080000000005
:100180007303000873030008730300087303000877
:100190007303000873030008730300087303000867
:1001A00073030008730300087303000800F002F8EB
:1001B00000F0B2F80AA090E8000C82448344AAF14F
:1001C0000107DA4501D100F0A7F8AFF2090EBAE84D
:1001D0000F0013F0010F18BFFB1A43F0010318477B
:1001E00074B9020094B902000A444FF0000C10F8F0
:1001F000013B13F0070408BF10F8014B1D1108BFA5
:1002000010F8015B641E05D010F8016B641E01F844
:10021000016BF9D113F0080F1EBF10F8014BAD1C94
:100220000C1B09D16D1E58BF01F801CBFAD505E0B2
:1002300014F8016B01F8016B6D1EF9D59142D6D30C
:10024000704700000023002400250026103A28BF34
:1002500078C1FBD8520728BF30C148BF0B60704738
:100260006E2906F0D881702905F01186662924F0E0
:100270000080652923F0FD87672923F0FA8761292B
:1002800023F0F98703681B0A28BF41F08001692920
:1002900005F04485642905F04185752905F03E8502
:1002A0006F2906F09F84782905F0DD85E92905F09E
:1002B0007185E42905F06E85F52905F06B85EF2938
:1002C00006F09C84F82905F0DC850368DB0928BF6B
:1002D00041F08001632906F0E683732906F0EB8381
:1002E000E32906F06586F32906F06A860020704748
:1002F0001FB523F070FF06F08BFC040000200021E6
:1003000023F072F8401C60600020002123F056F8B2
:10031000E0601FBD10B510BD06F0ECFE1146FFF702
:10032000E7FF1DF0A1FF06F013FF03B4FFF7F2FF94
:1003300003BC16F0B4FF000011488047DFF844000A
:10034000016841F470010160BFF34F8FDFF838009E
:10035000016821F040410160BFF36F8F0B480047F7
:10036000FEE7FEE7FEE7FEE7FEE7FEE7FEE7FEE765
:10037000FEE7FEE706480749074A084B70470000BA
:10038000912F010888ED00E034EF00E0AD01000896
:1003900088F2022088F8022088F4022088F40220E3
:1003A000EFF3098141B1F1EE101A40F8041D20ED80
:1003B000200A29490A6810607047B0EC200A02C878
:1003C000E1EE101A25490A6810607047EFF31080BB
:1003D00072B6704780F31088704721484FF6FF715E
:1003E0000170002080F309881E48016881F30888A5
:1003F0001D48012101701D484FF08051016062B617
:10040000FEE71A484FF080510160704717484FF0DF
:1004100080510160704772B6EFF3098028B120382F
:1004200080E8F00F0C490968086000B51048804763
:100430005DF804EB0F4810490A7802700648074936
:100440000A680260106890E8F00F203080F3098895
:100450004EF0F40E62B67047C4000020CC000020BD
:1004600022ED00E000010020AB00002004ED00E0E0
:100470008D150108A8000020A9000020FE4880ED8D
:100480003A0A70472DE9F047DFF8EC9300262DED8E
:100490000A8B0446B0EE408AF0EE608A8846354604
:1004A0003746D9F8AC0023F098FA53EC182B23F018
:1004B000BFFA6FD3D9F8B00023F08FFA53EC182BA2
:1004C00023F0F0FBF5D3B4F90000B4F90610401A9C
:1004D00023F083FA53EC182B23F0AAFA00D201265A
:1004E000B4F90E00B4F91410401A23F076FA53EC64
:1004F000182B23F09DFA00D2761CB4F91C00B4F935
:100500002210401A23F069FA53EC182B23F090FACA
:1005100000D2761C9FEDD90B012E3BDC53EC102B47
:1005200051EC180B23F0C0FA8946064649EC180B2B
:10053000B4F90000B4F90610401A23F04EFA53EC57
:10054000182B23F0AFFB00D20125B4F90E00B4F94B
:10055000141049EC186B401A23F03FFA53EC182B97
:1005600023F0A0FB00D26D1CB4F91C00B4F92210DA
:1005700049EC186B401A23F030FA53EC182B23F097
:1005800091FB00D26D1C002D05DD0220BDEC0A8B15
:10059000BDE8F08765E000269FEDBACB06EB460983
:1005A00004EB8905B5F90A0023F017FA98ED048BDE
:1005B00053EC182B23F084FC41EC190BB5F9040023
:1005C00023F00BFA53EC182B23F07AFC53EC192B85
:1005D00023F06AFA41EC190BB5F9080023F0FDF994
:1005E00098ED028B53EC182B23F06AFC41EC1A0BAC
:1005F000B5F9020023F0F1F953EC182B23F060FC5D
:1006000053EC1A2B23F050FA41EC1A0BB5F9060003
:1006100023F0E3F998ED008B53EC182B23F050FCFA
:1006200041EC1B0B34F9290023F0D7F953EC182BBC
:1006300023F046FC53EC1B2B23F036FA53EC1A2B19
:1006400022F026FF53EC192B22F022FF53EC1C2B37
:1006500023F0EEF900D27F1C761C032E9EDB022FC6
:1006600001DA012092E7002090E788490A684B6888
:10067000D00180EAD20080EA031048608B68520300
:1006800080EAC30382EA5312520282EAD0208B60CE
:100690000860704710B52DED048BF0EE408AFFF72F
:1006A000E4FF00EE100AB8EE400ADFED790A20EE12
:1006B000200A9FED789A20EE090A15F02DFDB0EE84
:1006C000408AFFF7D2FF00EE100AB8EE400A20EE93
:1006D000090AB5EEC00AF1EE10FA01D1B7EE000A30
:1006E00010EE100A23F0D6FC41EC100B15F0C8FDFB
:1006F0009FED691B51EC100B53EC112B23F0D4F937
:1007000022F094FE00EE100A16F0A1F820EE280A5E
:1007100020EE080ABDEC048B10BD2DE9F041054622
:100720002DED048BB0EE608AF0EE408A0F4618EE95
:10073000100A23F0AFFC97ED301B53EC112B23F084
:10074000B3F941EC190B18EE900A23F0A3FC95EDD8
:10075000301B53EC112B23F0A7F953EC192B22F08B
:1007600097FE0024C5E9300118EE100A23F092FC30
:1007700007EBC40898ED001B53EC112B23F094F900
:1007800041EC190B18EE900A23F084FC05EBC4062B
:1007900096ED001B53EC112B23F086F953EC192B2B
:1007A00022F076FEC6E9000118EE100A23F072FC72
:1007B00098ED241B53EC112B23F076F941EC190B27
:1007C00018EE900A23F066FC96ED241B53EC112BD7
:1007D00023F06AF953EC192B22F05AFE641CC6E987
:1007E0002401062CC0DB002418EE100A23F052FC72
:1007F00041EC100B07EBC40090ED121B51EC100BF9
:1008000053EC112B23F050F941EC190B18EE900A20
:1008100023F040FC05EBC40696ED121B53EC112BA4
:1008200023F042F953EC192B22F032FE641CC6E986
:100830001201092CD8DB002418EE100A23F02AFC40
:1008400041EC100B07EBC40090ED0C1B51EC100BAE
:1008500053EC112B23F028F941EC190B18EE900AF8
:1008600023F018FC05EBC40696ED0C1B53EC112B82
:1008700023F01AF914E0000008E50220000000004F
:1008800000000440000000000000000040040020C0
:10089000DB0FC9400000802F00000000000000C0F6
:1008A00053EC192B22F0F4FD641CC6E90C01032C57
:1008B000C2DBBDEC048BBDE8F0812DE9F04F0446AE
:1008C0002DED068B83B00D46086823F086F841ECC9
:1008D0001A0B686823F081F841EC190BA86823F023
:1008E0007CF841EC180B94ED300B9FEDFE1B51ECA6
:1008F000100B53EC112B22F0CBFDC4E9300194ED29
:100900000C0B53EC1A2B51EC100B22F0C1FDC4E977
:100910000C0194ED0E0B53EC192B51EC100B22F043
:10092000B7FDC4E90E0194ED100B53EC182B51ECFC
:10093000100B22F0ADFDC4E9100153EC1A2B51EC61
:100940001A0B23F0B1F8029194ED001B064653EC0C
:10095000112B22F09DFDC4E9000153EC192B51EC41
:100960001A0B23F0A1F8894649EC100B94ED021BF9
:10097000054653EC112B51EC100B22F089FDC4E914
:10098000020153EC182B51EC1A0B23F08DF88B4617
:100990004BEC100B94ED041B804653EC112B51ECE7
:1009A000100B22F075FDC4E9040153EC192B51EC36
:1009B000190B23F079F8019194ED061B074653ECCF
:1009C000112B22F065FDC4E9060153EC182B51EC04
:1009D000190B23F069F8009194ED081B824653EC43
:1009E000112B22F055FDC4E9080153EC182B51ECF2
:1009F000180B23F059F894ED0A1B53EC112B22F03D
:100A000047FDC4E90A01029953EC1A2B41EC106B23
:100A100051EC100B23F048F894ED121B53EC112B02
:100A200022F036FD49EC105BC4E9120153EC192B9E
:100A300051EC100B23F038F894ED141B53EC112BF0
:100A400022F026FD4BEC108BC4E9140153EC182B5B
:100A500051EC100B23F028F894ED161B53EC112BDE
:100A600022F016FD49EC105BC4E9160153EC1A2B79
:100A700051EC100B23F018F894ED181B53EC112BCC
:100A800022F006FDC4E91801019953EC192B41EC41
:100A9000107B51EC100B23F007F894ED1A1B53EC6C
:100AA000112B22F0F5FCC4E91A010099554641ECDE
:100AB00010AB0E4653EC182B51EC100B22F0F4FF48
:100AC00094ED1C1B53EC112B22F0E2FCC4E91C0139
:100AD00053EC1A2B51EC180B22F0E6FF53EC1A2BB7
:100AE00022F0E2FF94ED1E1B53EC112B22F0D0FC00
:100AF00046EC105BC4E91E0153EC192B51EC100BB2
:100B000022F0D2FF94ED201B53EC112B22F0C0FCFD
:100B1000C4E9200153EC182B51EC180B22F0C4FF50
:100B2000894649EC100B074653EC182B51EC100B7F
:100B300022F0BAFF94ED221B53EC112B22F0A8FCFB
:100B4000C4E9220153EC1A2B51EC1A0B22F0ACFF32
:100B5000884648EC100B054653EC1A2B51EC100B51
:100B600022F0A2FF53EC1A2B22F09EFF94ED241BDF
:100B700053EC112B22F08CFCC4E9240153EC192B0B
:100B800051EC190B22F090FF8A464AEC100B0646F6
:100B900053EC192B51EC100B22F086FF53EC192B60
:100BA00022F082FF94ED261B53EC112B22F070FCF7
:100BB00049EC107BC4E9260153EC182B51EC100BC7
:100BC00022F072FF53EC182B22F06EFF94ED281BDD
:100BD00053EC112B22F05CFC48EC105BC4E92801BB
:100BE00053EC192B51EC100B22F05EFF53EC192B38
:100BF00022F05AFF94ED2A1B53EC112B22F048FCF3
:100C000048EC105BC4E92A0153EC182B51EC100B93
:100C100022F04AFF53EC182B22F046FF94ED2C1BD8
:100C200053EC112B22F034FC4AEC106BC4E92C017C
:100C300053EC182B51EC100B22F036FF53EC182B11
:100C400022F032FF94ED2E1B53EC112B22F020FCEE
:100C5000C4E92E0103B0BDEC068BBDE8F08F2DE991
:100C6000F04F93462DED108B0D46044693B090ED5A
:100C70000CEB53EC1E2B51EC1E0B22F015FF94EDE8
:100C8000000B41EC190B8DED080B94ED308B53EC00
:100C9000102B51EC180B22F007FF53EC192B23F00B
:100CA0000FF994ED0EDB41EC1F0B53EC1D2B51ECB7
:100CB0001D0B22F0F9FE94ED060B41EC190B8DEDA6
:100CC000060B53EC102B51EC180B22F0EDFE53ECFD
:100CD000192B23F0F5F841EC100B8DED040B94ED7E
:100CE00010CB03E0000000000000F03F53EC1C2B91
:100CF00051EC1C0B22F0D8FE94ED0A0B41EC190BC1
:100D00008DED020B53EC102B51EC180B22F0CCFEA6
:100D100053EC192B23F0D4F841EC110B53EC1D2BA1
:100D20008DED001B51EC1E0B22F0BEFE94ED020B6C
:100D300041EC190B53EC102B51EC180B22F0B4FEC4
:100D400053EC192B23F0BCF841EC1B0B53EC1C2B80
:100D500051EC1E0B22F0A8FE94ED040B41EC190B94
:100D600053EC102B51EC180B22F09EFE53EC192B78
:100D700023F0A6F841EC1A0B53EC1C2B51EC1D0B85
:100D800022F092FE94ED080B41EC190B53EC102B62
:100D900051EC180B22F088FE53EC192B23F090F83D
:100DA0009DED020B41EC190B53EC102B51EC1E0B7B
:100DB00022F07AFE41EC110B51EC180B8DED101B5B
:100DC00094ED160B53EC102B22F06EFE41EC110B40
:100DD00051EC1E0B8DED0E1B9DED060B53EC102BF5
:100DE00022F062FE41EC110B51EC180B8DED0C1B47
:100DF00094ED140B53EC102B22F056FE41EC110B2A
:100E000051EC1E0B8DED0A1B9DED080B53EC102BC6
:100E100022F04AFE94ED120B41EC1E0B53EC102B0A
:100E200051EC180B22F040FE53EC1E2B23F048F837
:100E30009DED0A1B53EC112B22F02AFB9DED0C1BA0
:100E400053EC112B23F03CF89DED0E1B53EC112BB2
:100E500022F01EFB9DED101B53EC112B23F030F8FC
:100E60009FEDFE1B53EC112B22F01EFE9DED020B9D
:100E700041EC1E0B53EC102B51EC1D0B22F014FE19
:100E800041EC110B51EC180B8DED101B94ED1C0B6C
:100E900053EC102B22F008FE41EC110B51EC1D0B12
:100EA0008DED0E1B9DED060B53EC102B22F0FCFD7F
:100EB00041EC110B51EC180B8DED0C1B94ED1A0B42
:100EC00053EC102B22F0F0FD41EC110B51EC1D0BFB
:100ED0008DED0A1B9DED080B53EC102B22F0E4FD69
:100EE00094ED180B41EC1D0B53EC102B51EC180B2F
:100EF00022F0DAFD53EC1D2B22F0E2FF9DED0A1BE0
:100F000053EC112B22F0C4FA9DED0C1B53EC112B6A
:100F100022F0D6FF9DED0E1B53EC112B22F0B8FAF8
:100F20009DED101B53EC112B22F0CAFF9FEDCB1B44
:100F300053EC112B22F0B8FD9DED020B41EC1D0B83
:100F400053EC102B51EC1C0B22F0AEFD41EC110BBD
:100F500051EC180B8DED021B94ED220B53EC102B72
:100F600022F0A2FD41EC110B51EC1C0B8DED0A1B84
:100F70009DED060B53EC102B22F096FD41EC110B6E
:100F800051EC180B8DED0C1B94ED200B53EC102B3A
:100F900022F08AFD41EC110B51EC1C0B8DED061B70
:100FA0009DED080B53EC102B22F07EFD94ED1E0BF3
:100FB00041EC1C0B53EC102B51EC180B22F074FD80
:100FC00053EC1C2B22F07CFF9DED061B53EC112BE8
:100FD00022F05EFA9DED0C1B53EC112B22F070FFFA
:100FE0009DED0A1B53EC112B22F052FA9DED021BD2
:100FF00053EC112B22F064FF9FED981B53EC112B47
:1010000022F052FD9DED040B41EC180B53EC102B1C
:1010100051EC1F0B22F048FD10919DED001B824604
:1010200053EC112B22F040FD41EC110B53EC192B2A
:101030008DED0A1B51EC1F0B22F036FD53EC192BE2
:1010400022F032FD41EC110B53EC1A2B8DED081BF5
:101050009DED040B51EC100B22F026FD814653EC64
:101060001A2B119122F020FD41EC110B8DED061B86
:101070009FED7C0B51EC1B0B53EC102B22F014FD5D
:1010800053EC1A2B22F010FD53EC192B22F00CFD1F
:101090009DED001B41EC1C0B53EC1B2B51EC110B79
:1010A00022F002FD074653EC1B2B029122F0FCFCC0
:1010B00053EC1C2B22F004FF9DED061B53EC112B6F
:1010C00022F0E6F99DED081B53EC112B22F0E0F91C
:1010D0009DED0A1B53EC112B22F0F2FE41EC1C0B90
:1010E0009FED620B53EC102B22F0DEFB7DD053EC16
:1010F000192B51EC1B0B22F0D7FC53EC182B22F0D0
:10110000D3FC41EC110B53EC1D2B8DED0E1B029902
:1011100041EC107B51EC100B22F0C6FC41EC110BA2
:101120008DED0C1B9DED000B53EC102B9DED040B76
:1011300051EC100B22F0B8FC53EC1E2B22F0B4FC47
:1011400041EC110B53EC192B8DED081B51EC190BD5
:1011500022F0AAFC53EC1E2B22F0A6FC41EC110B52
:1011600053EC1D2B8DED0A1B51EC190B22F09CFC4E
:1011700041EC110B53EC182B8DED061B9DED040B70
:1011800051EC100B22F090FC9DED061B53EC112B43
:1011900022F096FE53EC1A2B22F086FC9DED0A1BE2
:1011A00053EC112B22F074F99DED081B53EC112B1D
:1011B00022F086FE9DED0C1B53EC112B22F068F9FA
:1011C0009DED0E1B53EC112B22F07AFE41EC100B1F
:1011D00053EC1A2B8DED060B51EC1B0B22F064FC2B
:1011E0008846064648EC100B00E065E153EC182BEE
:1011F00051EC100B22F058FC41EC110B53EC1E2B60
:101200008DED041B029941EC107B51EC100B22F088
:101210004BFC41EC110B51EC1F0B8DED021B9DEDB6
:10122000000B53EC102B22F03FFC53EC1D2B22F053
:101230003BFC41EC110B53EC1A2B8DED081B51ECD0
:101240001A0B22F031FC53EC1D2B22F02DFC41EC4B
:10125000110B53EC1E2B8DED001B0BE0000000006A
:101260000000E03F0000000000000040000000001F
:101270000000000051EC1A0B22F016FC41EC1A0B96
:1012800053EC182B51EC1F0B22F00EFC53EC1A2BD5
:1012900022F016FE53EC192B22F006FC9DED001BEC
:1012A00053EC112B22F0F4F89DED081B53EC112B9D
:1012B00022F006FE9DED021B53EC112B22F0E8F804
:1012C0009DED041B53EC112B22F0FAFD41EC100BA9
:1012D00053EC1D2B8DED040B48EC106B51EC100BF7
:1012E00022F0E2FB41EC110B53EC1E2B8DED001BA9
:1012F000119941EC109B51EC100B22F0D5FB41EC05
:10130000110B53EC182B8DED021B109941EC10AB17
:1013100051EC100B22F0C8FB41EC1A0B53EC1B2BC9
:1013200051EC1B0B22F0C0FB53EC182B22F0BCFB42
:1013300041EC180B53EC1E2B51EC1B0B22F0B4FBB1
:1013400041EC1B0B53EC1D2B51EC1F0B22F0ACFBA3
:1013500053EC1B2B22F0B4FD53EC192B22F0A4FB11
:1013600053EC182B22F094F853EC1A2B22F0A8FD22
:101370009DED021B53EC112B22F08AF89DED001B12
:1013800053EC112B22F09CFD9DED060B41EC190B4B
:1013900053EC1C2B51EC100B22F02EF941EC180BE6
:1013A00053EC1C2B85ED008B9DED040B51EC100BC9
:1013B00022F022F941EC1A0B53EC1C2B85ED02AB09
:1013C00051EC190B22F018F941EC190B85ED049B37
:1013D00094ED100B53EC102B22F066FB94ED0E0BEA
:1013E00041EC1B0B53EC102B51EC1A0B22F05CFB65
:1013F00094ED0C0B41EC1C0B53EC102B51EC180B27
:1014000022F052FB53EC1C2B22F042F853EC1B2B26
:1014100022F03EF81FED6D1B53EC112B22F044FB24
:1014200094ED061B94ED000B41EC1B0B53EC112BC0
:1014300051EC100B22F02CF894ED0A1B53EC112BFD
:1014400022F026F853EC1B2B22F03AFD94ED301BD2
:1014500053EC112B22F0D0F841EC1B0B53EC192B61
:1014600051EC190B22F020FB41EC190B53EC1A2B19
:1014700051EC1A0B22F018FB41EC1A0B53EC182B11
:1014800051EC180B22F010FB53EC1A2B22F000F851
:1014900053EC192B21F0FCFF53EC1B2B21F0F8FF30
:1014A00041EC100B15F096F98BED000B012013B0F9
:1014B000BDEC108BBDE8F08F0020F8E72DE9F04F70
:1014C0000D462DED108B04468BB091ED00AB53EC27
:1014D0001A2B51EC1A0B22F0E7FA94ED0CCB53ECDB
:1014E0001C2B22F0E1FA53EC1C2B22F0DDFA94EDD8
:1014F00030FB41EC180B53EC1A2B51EC1F0B22F074
:10150000D3FA8B464BEC100B074653EC1A2B51ECDD
:10151000100B22F0C9FA94ED00EB53EC1E2B22F0D5
:10152000C3FA53EC182B22F0CBFC41EC190B53EC13
:101530001E2B51EC1A0B22F0B7FA53EC1C2B22F0A5
:10154000B3FA4BEC107B94ED121B41EC180B53ECEF
:10155000112B51EC100B22F0A7FA53EC192B22F0AF
:10156000D7FB53EC182B21F093FF41EC1B0B1FED25
:10157000C30B51EC1A0B53EC102B22F095FA894651
:1015800049EC100B95ED029B064653EC192B51ECE0
:10159000100B22F089FA53EC1C2B22F085FA94ED03
:1015A0000EDB53EC1D2B22F07FFA41EC180B1FEDE4
:1015B000D30B51EC1F0B53EC102B22F075FA824623
:1015C00053EC1A2B069122F06FFA53EC192B22F0F0
:1015D0006BFA94ED021B53EC112B22F065FA53ECDD
:1015E0001B2B21F055FF53EC182B22F069FC41EC2A
:1015F000180B53EC1C2B51EC1A0B22F055FA0491EA
:1016000094ED06BB804653EC1B2B22F04DFA41ECC7
:10161000110B4BEC107B8DED001B94ED141B51EC6A
:10162000100B53EC112B22F03FFA53EC182B22F045
:101630006FFB9DED001B53EC112B21F029FF41ECBA
:10164000110B49EC106B8DED001B95ED048B51ECEB
:10165000100B53EC182B22F027FA53EC1C2B22F022
:1016600023FA94ED10CB53EC1C2B22F01DFA41EC25
:10167000110B53EC1A2B8DED021B069941EC10ABAC
:1016800051EC100B22F010FA53EC182B22F00CFA4C
:1016900094ED041B53EC112B22F006FA9DED001B78
:1016A00053EC112B21F0F4FE9DED021B53EC112B9A
:1016B00022F006FC41EC100B8DED000B049994ED2B
:1016C0000AAB41EC108B53EC1A2B51EC100B22F0AF
:1016D000EBF941EC110B4BEC107B8DED021B94ED03
:1016E000161B51EC100B53EC112B22F0DDF99DED84
:1016F000001B53EC112B22F00BFB9DED021B53EC56
:10170000112B21F0C5FE41EC110B8DED001B9FED5F
:10171000FE0B51EC1E0B53EC102B22F0C5F953ECD1
:101720001E2B22F0C1F941EC110B8DED021B9FED38
:10173000F60B51EC1F0B53EC102B22F0B5F9059171
:1017400094ED241B814653EC112B22F0ADF99DED55
:10175000001B53EC112B21F09BFE9DED021B53EC63
:10176000112B22F0ADFB41EC110B53EC1E2B8DED38
:10177000001B51EC190B22F097F953EC1D2B22F0B2
:1017800093F941EC110B53EC192B8DED081B51EC27
:101790001F0B22F089F9039194ED181B064653ECB8
:1017A000112B22F081F99DED001B53EC112B22F03F
:1017B000AFFA9DED081B53EC112B21F069FE41ECB3
:1017C000110B8DED001B9FEDD20B51EC1E0B53EC5A
:1017D000102B22F069F98B464BEC100B054653ECAD
:1017E0001B2B51EC100B22F05FF941EC110B8DED2E
:1017F000081B9FEDC70B51EC1F0B53EC102B22F075
:1018000053F9049194ED2A1B804653EC112B22F0DE
:101810004BF99DED001B53EC112B21F039FE9DED92
:10182000081B53EC112B22F04BFB41EC110B53EC3A
:101830001E2B8DED001B51EC180B22F035F953ECEB
:101840001C2B22F031F941EC1E0B53EC182B51EC00
:101850001F0B22F029F9029194ED1E1B074653EC51
:10186000112B22F021F99DED001B53EC112B22F0DE
:101870004FFA53EC1E2B21F00BFE4BEC105B41ECAE
:101880001F0B53EC1A2B51EC100B22F00DF941EC0D
:101890001E0B049994ED2C1B41EC108B53EC112B77
:1018A00051EC100B22F000F953EC1F2B21F0F0FD4E
:1018B00053EC1E2B22F004FB41EC1F0B53EC192BB5
:1018C00051EC190B22F0F0F853EC1D2B22F0ECF840
:1018D00053EC1D2B22F0E8F841EC1E0B039953EC5E
:1018E000192B41EC106B51EC100B22F0DDF853EC8E
:1018F0001B2B22F0D9F853EC1F2B21F0C9FD53EC20
:101900001E2B22F0DDFA41EC1F0B53EC1B2B51EC8C
:10191000190B22F0C9F853EC1D2B22F0C5F841EC4D
:101920001E0B039994ED1A1B41EC106B53EC112B19
:1019300051EC100B22F0B8F853EC1F2B22F0E8F911
:1019400053EC1E2B21F0A4FD41EC1F0B9FED720BFD
:1019500051EC190B53EC102B22F0A6F853EC182B7A
:1019600022F0A2F853EC1D2B22F09EF853EC1C2B16
:1019700022F09AF841EC1E0B069953EC192B41EC1E
:1019800010AB51EC100B22F08FF853EC182B22F017
:101990008BF894ED081B53EC112B22F085F853ECD7
:1019A0001F2B21F075FD53EC1E2B22F089FA41EC20
:1019B0001E0B53EC1D2B51EC190B22F075F853EC58
:1019C0001A2B22F071F841EC190B039994ED1C1BB2
:1019D00041EC106B53EC112B51EC100B22F064F81E
:1019E00053EC1E2B22F094F953EC192B21F050FDEF
:1019F00041EC1D0B9FED44EB51EC1B0B53EC1E2BEC
:101A000022F052F853EC1B2B22F04EF841EC190B4C
:101A1000059994ED261B41EC109B53EC112B51ECD6
:101A2000100B22F041F853EC1D2B21F031FD53EC4B
:101A3000192B22F045FA41EC1D0B53EC1B2B51ECFA
:101A4000180B22F031F853EC1C2B22F02DF841EC4E
:101A5000190B029994ED201B41EC107B53EC112BD8
:101A600051EC100B22F020F853EC1D2B22F050F912
:101A700053EC192B21F00CFD9FED250B41EC190BBC
:101A800053EC102B51EC1B0B22F00EF853EC1A2BDD
:101A900022F00AF841EC1B0B049994ED2E1B41EC4B
:101AA000108B53EC112B51EC100B21F0FDFF53EC7C
:101AB000192B21F0EDFC53EC1B2B22F001FA41EC29
:101AC0001B0B53EC182B51EC180B21F0EDFF53ECD2
:101AD0001C2B21F0E9FF53EC1C2B21F0E5FF41EC1E
:101AE000190B029953EC182B41EC107B51EC100BA5
:101AF00021F0DAFF53EC1A2B21F0D6FF53EC1B2B0D
:101B000021F0C6FC0CE00000000000000000D03F07
:101B1000000000000000E03F000000000000004066
:101B200053EC192B22F0CCF941EC190B53EC1A2B86
:101B300051EC180B21F0B8FF53EC1C2B21F0B4FF33
:101B400041EC180B029994ED221B41EC107B53ECF5
:101B5000112B51EC100B21F0A7FF53EC192B22F0A5
:101B6000D7F853EC182B21F093FC41EC180B53ECF5
:101B70001E2B51EC1A0B21F097FF53EC1A2B21F07E
:101B800093FF41EC190B059994ED281B41EC109B38
:101B900053EC112B51EC100B21F086FF53EC182B5A
:101BA00021F076FC53EC192B22F08AF941EC100B52
:101BB0000BB07DE430B50446B0F88C0089B0000469
:101BC0000690B4F88E000D4600040790B4F890001B
:101BD00088340004089002A81AF00CFF02990698B5
:101BE0002B46401A06900399079806AA401A0790B8
:101BF00004990898401A08902088616A80B21AF007
:101C0000A5FD09B030BDF0B50D462DED048B87B0B4
:101C10006946FFF7CFFF9FEDFE8B00246F469FEDD7
:101C2000FE9A03AE57F8240000EE100A06EB84007B
:101C3000B8EEC00A20EE090A80ED000A20EE000A84
:101C400010EE100A22F026FA53EC182B21F020FC9B
:101C500041EC180B641C032CE4DBB0EE480AF0EEF8
:101C6000680A14F0B7FDB0EE408AF0EE608A0024F6
:101C700056F8240022F00EFA53EC182B21F0BCFC8D
:101C800021F0D4FB00EE100A05EB8400641CD0EDBB
:101C9000000A032C30EE200A80ED000AE8DB686DB4
:101CA000401C68651BF010F9E86707B0BDEC048BB9
:101CB000F0BD2DE9F04104461AF038FF40BB1AF0A0
:101CC000C5FE042824D0D54920460E46FFF79BFFC9
:101CD000D34DD5E95C01814205DB304603F0E5FBDD
:101CE0000020C5F87401208E4FF00406C00515D5FC
:101CF00004F118001AF00EFF8009B0F5C87F0AD26F
:101D0000D5F8B800002850DD401EC5F8B8004AE0FC
:101D10000120BDE8F081C5F8B86044E0D4F8A01017
:101D2000D5F81401081A01D4034600E04342BB4A27
:101D30004FF4A02C583A634505DDD4E929035365D7
:101D4000C2E913102FE00312D4F8A470D5F81801DB
:101D50005B43381A01D4864601E0C0F1000EE64527
:101D600005DDD4F8A800D164C2E914701BE00012AC
:101D700000FB0033D4F8A800D5F81C11401A01D498
:101D8000014600E0414261450DDC001200FB0030DD
:101D9000B0F5403FB4DBA034C5F8B86094E80B0060
:101DA0004C3282E80B000020B3E70220B1E72DE9B6
:101DB000F04F9B4C2DED028B93B0D4F8A81090ED12
:101DC000000B04EBC10181ED000BD4F8A810491CF5
:101DD000C4F8A81090ED020B04EBC10181ED000BDB
:101DE000D4F8A810491CC4F8A81090ED040B04EB1B
:101DF000C10080ED000BD4F8A800401CC4F8A80076
:101E0000152802DB0020C4F8A800182284490CA879
:101E100004F017FA1822824904A804F012FA0126E5
:101E20000DF1300A0DF1100BA146002406EB460817
:101E300008EB040109EBC1050AEBC40795ED001B93
:101E400097ED000B53EC112B51EC100B21F02AFFF6
:101E500003D295ED000B87ED000B0BEBC40795ED5E
:101E6000001B97ED000B53EC112B51EC100B21F0E4
:101E7000DFFD03D295ED000B87ED000B641C032CF6
:101E8000D6DB761C072ED0DB9DED0C1B9DED040BE5
:101E900053EC112B51EC100B22F012F89DED0E1BA0
:101EA0009DED060B41EC180B53EC112B51EC100B74
:101EB00022F006F853EC182B21F0BAFD0BD39DED60
:101EC0000E1B9DED060B53EC112B51EC100B21F06A
:101ED000F7FF41EC180B9DED101B9DED080B53EC2B
:101EE000112B51EC100B21F0EBFF53EC182B21F0D0
:101EF0009FFD0BD39DED101B9DED080B53EC112B9B
:101F000051EC100B21F0DCFF41EC180B13B0B0EEDC
:101F1000480AF0EE680ABDEC028BBDE8F08F10B500
:101F200004462DED068B9CB0002155200E91CDE985
:101F30000F1011909FED3B8B0AA81AF029FD12A9F2
:101F40000AA81BF09FF816AA0EA912A81BF0BDF84C
:101F50006A460AA916A81BF0B8F80198B2EE059ACD
:101F600000F5967001900298B0EE490A00F596705F
:101F70000290039800F596700390FEF78BFBBDEE80
:101F8000C00A019910EE100AB0EE490A0844019007
:101F9000FEF780FBBDEEC00A029810EE101AB0EEFC
:101FA000490A08440290FEF775FBBDEEC00A03998A
:101FB00010EE100A08440390204601A9FEF77DFCAC
:101FC00094ED300B9FED191B51EC100B53EC112BC2
:101FD00021F068FE5DD21AAA04A92046FEF73FFE52
:101FE00060B39DED080B9FED138B51EC100B53EC80
:101FF000182B21F065FF41EC100B53EC102B21F056
:1020000053FD41EC190B9DED060B53EC182B16E01C
:1020100000000000000000000000803728E60220D9
:1020200008E502200000000000408F400000000092
:10203000000034400000000000C0724029E051EC74
:10204000100B21F03DFF41EC100B53EC102B21F055
:102050002BFD9DED040B41EC1A0B53EC182B51ECAE
:10206000100B21F02DFF41EC100B53EC102B21F045
:102070001BFD53EC1A2B21F00BFA53EC192B21F01A
:1020800007FA41EC100B14F0A5FBB0EE408AF0EE1D
:10209000608A9FEDFD0B51EC180B53EC102B21F0D7
:1020A000ABFA1CB041EC100BBDEC068B10BD10B5AB
:1020B000E821F74804F05EF9F648F74920F8BC1F1C
:1020C0004A0CC280C181828281834284F048E82127
:1020D000E83004F04FF9EF490020C1F8B40010BD1A
:1020E0002DE9F043EB4D04462DED108BC3B0006B92
:1020F000C5F8A0012046FFF7DCFD00287ED1D5F809
:10210000941105F1BC08012911D1B4F98C003D905E
:10211000B4F98E003E90B4F990003F903DA9DC48A0
:10212000FEF7CBFB04F18C01404600F0A4FB1FED51
:1021300048DB9FEDDABB9FEDDBCB9FEDDCAB9FED8A
:10214000DDEBD34ED5F80801E83E002802DD401E45
:10215000C5F8080196ED300B53EC1D2B51EC100B1C
:1021600021F0A0FD7DD2CA49E822E839684604F092
:1021700068F8C7483DA9E838FEF79FFBC44940AA64
:1021800020390F46A1F1C800FEF769FD00287BD079
:10219000BF483946E838FFF791F9B0EE408AF0EED3
:1021A000608A95ED400B51EC180B53EC102B21F08D
:1021B00087FE96ED300B41EC190B53EC1B2B51ECC9
:1021C000100B21F07DFE41EC100B51EC190B53EC80
:1021D000102B21F011FA41EC100B14F0FBFA96EDE4
:1021E00030FBB0EE409AF0EE609A53EC1B2B51ECB2
:1021F0001F0B21F065FE53EC1F2B00E0E9E021F0FE
:1022000053FC41EC1F0B53EC1C2B51EC180B21F031
:102210004BFC53EC1F2B21F0EFF941EC100B14F0A9
:10222000D9FAD5F8E80021F035FF95ED381B53ECCD
:10223000112B21F039FC53EC192B21F0F9FB03D3BE
:10224000D5F80801002826DD9148E8226946E838DB
:1022500003F0F7FFD5F8E80021F01CFF95ED381BDF
:1022600001E010E010E053EC112B21F01DFC53ECC9
:10227000192B21F0DDFB5CD24FF4FA7001F03CFE2B
:102280000A20C5F8080154E08148E8226946E83888
:1022900003F0D7FF4DE0D5F89801012849D1D5F8D2
:1022A000B400401CC5F8B40000201BF0C1FA96ED44
:1022B000320B53EC1A2B51EC100B21F0F5FB21F0F3
:1022C0002FFB3A9096ED340B53EC1A2B51EC100B7C
:1022D00021F0EAFB21F024FB3B9096ED360B53EC0A
:1022E0001A2B51EC100B21F0DFFB21F019FB3C9075
:1022F00003213AA81BF00EFA96ED300B53EC1E2B7F
:1023000051EC100B21F0CEFC11D29FED6C0A60490C
:10231000E839F0EE400A0846FEF7FFF95C48394616
:10232000E838FFF7CBF8B0EE408AF0EE608A85ED32
:10233000408B208E564FC0050CD5B4F87400C005F4
:1023400008D507F1E800FFF7EAFDB0EE408AF0EEAD
:10235000608A01E09FED4C8B97ED300B1FEDCD1B9C
:1023600051EC100B53EC112B21F062FB31D3484997
:1023700040AAC83189464648FEF771FC00287CD047
:10238000D4F8AC0021F029FB41EC100B53EC102BDE
:102390009FED4B0B51EC100B21F02EF941EC1F0B74
:1023A0004846FFF704FDB0EE409AF0EE609A53EC19
:1023B0001F2B51EC190B21F075FC0BD29FED420B3A
:1023C00051EC180B53EC102B21F032FB02D2FFF72B
:1023D0006EFEDBE153EC1F2B51EC190B21F028FBB7
:1023E00051D251EC180B9FED3A9B53EC192B21F075
:1023F0001FFBF5D297ED300B9FED371B51EC100B07
:1024000053EC112B21F04EFCEAD296ED300B53EC3D
:102410001D2B51EC100B21F047FA7CD149461C488A
:10242000FFF74CF8B0EE408AF0EE608A85ED408B05
:1024300097ED309B53EC1B2B51EC190B21F040FD19
:1024400053EC192B21F030FB41EC190B53EC1C2BF6
:1024500051EC180B21F028FB53EC192B21F0CCF890
:1024600041EC100B14F0B6F9B0EE408AF0EE608A41
:10247000D5F8E80021F00EFE00E088E195ED381B6C
:1024800053EC112B2CE078E1000000000000084024
:1024900038E3022008E502200080FFFF0000000072
:1024A0000000F03F000000000000004000000000BD
:1024B0000000F0400000000000409F406666E63EDD
:1024C0009A9999999999A941000000000000F83F54
:1024D00000000000000010400000000000003E402E
:1024E00021F0E2FA53EC182B21F0A2FAFFF46FAFBF
:1024F0009DED400B49464046FDF7C4FF02283FF4DE
:1025000066AF00287ED1D5F898010128FAD10020C5
:102510001BF08EF900E02FE097ED320B53EC1A2BF5
:1025200051EC100B21F0C0FA21F0FAF93A9097ED36
:10253000340B53EC1A2B51EC100B21F0B5FA21F0AF
:10254000EFF93B9097ED360B53EC1A2B51EC100B37
:1025500021F0AAFA21F0E4F93C9003213AA81BF0FB
:10256000D9F801201BF002F9192000900190029087
:1025700068461BF0F3F8F6E0D5F8B40021F02DFA28
:1025800097ED301B53EC112B21F036F89FEDE71B34
:1025900053EC112B21F086FBA8D34946E548FEF702
:1025A0008DFF97ED30DBB0EE408AF0EE608A53ECA1
:1025B0001B2B51EC1D0B21F083FC53EC1D2B21F048
:1025C00073FA41EC1B0B53EC1C2B51EC180B21F054
:1025D0006BFA53EC1B2B21F00FF841EC100B14F0AD
:1025E000F9F8B0EE40BAF0EE60BAD5F8E80021F0A4
:1025F00051FD95ED381B53EC112B21F055FA53EC9E
:102600001B2B00E087E021F013FAC5D39DED400BB2
:1026100049464046FDF736FF00287CD196ED361B33
:1026200097ED360B53EC112B51EC100B21F048FCBD
:1026300041EC100B53EC102B21F036FA96ED341BC5
:1026400097ED340B41EC1B0B53EC112B51EC100BA1
:1026500021F036FC41EC100B53EC102B21F024FA46
:1026600096ED321B97ED320B41EC1C0B53EC112B0A
:1026700051EC100B21F024FC41EC100B53EC102B0F
:1026800021F012FA53EC1C2B20F002FF53EC1B2B11
:1026900020F0FEFE41EC100B14F09CF8B0EE40BAB6
:1026A000F0EE60BAD4F8AC0021F097F953EC1B2B94
:1026B00021F0FAF99FEDA01B53EC112B21F0F4F956
:1026C00041EC1B0B53EC192B21F0ECFA1AD39FEDC4
:1026D0009C0B51EC1B0B53EC102B21F0E3FABFF4D5
:1026E00076AED5F8B40021F078F997ED301B53ECB5
:1026F000112B20F081FF9FED941B53EC112B21F047
:1027000097F9ECD2D5F8980101287FF460AE00204B
:102710001BF08EF800E039E085ED408B97ED320B31
:1027200053EC1A2B51EC100B21F0BEF921F0F8F804
:102730003A9097ED340B53EC1A2B51EC100B21F01F
:10274000B3F921F0EDF83B9097ED360B53EC1A2BD3
:1027500051EC100B21F0A8F921F0E2F83C90032194
:102760003AA81AF0D7FFF7EE000A9FED790A7149EF
:10277000A1F1E800FDF7D1FF29E697ED300B53EC0E
:102780001E2B51EC100B21F08DFAF5D3002043B035
:10279000BDEC108BBDE8F08370B56E4C0546D4F8E7
:1027A0000C0110B9284600F091F8D5F8B01044F6A5
:1027B000206081420ADAD4F8102111448142C4F821
:1027C00010114FF0000005DBC4F810012846BDE8E9
:1027D000704085E470BD04224FF4C871AFF2470029
:1027E0001AF05CBEAFF24F001BF016B9514810B59D
:1027F000E821E83803F0BEFDFFF759FC4FF4D4712F
:10280000544803F0B7FD534CB7EE000A04F590703E
:1028100084ED3A0A02F095FD0A20C4F87001B2EE88
:10282000000A84ED570A1E209FED4B0AC4F87C0174
:1028300084ED620A9FED490A84ED610A9FED480A22
:10284000002084ED630A10BD10B5FFF7CFFF00280C
:1028500005D1AFF27D00BDE810401AF0A7BE10BD53
:1028600010B5AFF2CB001BF0D7F8AFF29500BDE882
:1028700010401BF0F7B830B50022C2EBC20331F9AB
:10288000124030F91350AC420ADD02EB42040D88CD
:1028900020F8245000EB84044D8865808D88A58045
:1028A00000EB430331F91240B3F906309C4209DAD8
:1028B00002EB420300EB83030C88DC804C881C8114
:1028C0008C885C81521C032AD7DB30BD70B5214D4A
:1028D000D0F8AC200446EAB1D3170020192103F048
:1028E00075F945F8AC0F54F8AC2F0020D31705212B
:1028F00003F06CF9686022680020D317962103F07A
:1029000065F921F06AF8C5E90D01AC3D0120C5F873
:102910000C0170BD6FF00040C5F8AC009FED110BCD
:10292000C5F8B00085ED380BF0E700000AD7A370BA
:102930003D0AE73F38E30220000000000000103E9F
:102940000000000000000440333333333333C33F0F
:102950000000000008E50220CDCCCC3E3333333FED
:102960009A99193F0000C0FFFFFFDF4110B5FF49F2
:10297000C4074FF040434FF0804205D08B66CB66D2
:10298000C1E91C328A67CA67840709D5C1F80031DA
:10299000C1F80431C1E94232C1F81021C1F8142153
:1029A000400709D5C1F89831C1F89C31C1E96832B6
:1029B000C1F8A821C1F8AC2110BD2DE9F14F0020CC
:1029C00082B0824681460298806F00287ED0002225
:1029D0000020401C0428FCDB029800EBC203D3E972
:1029E0000010A1FB0167D3E9065400FB017701FB4E
:1029F0000077AB46AD1BCDE900670326A5FB06C8F3
:102A0000A64664EB070404FB0684002705FB074584
:102A1000DDE900671CEB06047D41A4FB016705FBB3
:102A2000017504FB0055D3E90C47341B65EB070522
:102A3000CDE900455D46A5FB05670324A6FB0458C8
:102A40000EFB0B770BFB0E7707FB04844FF0000C9B
:102A500006FB0C44D3E91263761B63EB04034C18AA
:102A6000A4FB017C40EB000505FB01C504FB005500
:102A7000A7FB014C05FB01C507FB0055A4FB017C2E
:102A800005FB01C504FB0054F6196341DDE900456F
:102A9000AD0045EA9475A400A4FB017C05FB01C1CF
:102AA00004FB0014F01B73EB040103D50023404228
:102AB00063EB0101BAEB000479EB010301DA824612
:102AC0008946521C032A83DB504600E016E0494643
:102AD00021F00EFB00EE900AA54890ED0E1A80EE54
:102AE000810A10EE100A21F081FBA04AD2F80C22D4
:102AF00003B09200BDE8F04F03F055B8002003B0DA
:102B00000146BDE8F08F2DE9F14F0020009A014603
:102B1000926FE2B300240022521C042AFCDB009ACC
:102B200002EBC405AA46D5E90029A2FB023CD5E97F
:102B300006769E46FB1A0325A3FB057809FB02CC0B
:102B400002FB09CB66EB0B0606FB05854FF0000C7C
:102B500003FB0C5617EB0E03A3FB027C46EB0B06A4
:102B600006FB02C203FB0923DAE90C25BA1AAB41C2
:102B700003D50025524265EB0303851A71EB03056B
:102B800001DA10461946641C032CC4DB00E015E092
:102B900021F0AEFA00EE900A754890ED0E1A80EE24
:102BA000810A10EE100A21F021FB704AD2F80C22A3
:102BB000BDE8F84F02EB420202F0F5BF00200146EB
:102BC000BDE8F88F2DE9FE43684D80460024D5F816
:102BD00010626F4605EBC4013246D1E9020102F0F2
:102BE000CFFF05EB8401B1F884100904401847F8C1
:102BF000240004F10104032CECDB5C48982108302C
:102C000003F0B8FB0120FFF7B1FE95F8E801019948
:102C1000042807D1D5F81802B0F5201F02DD0520E1
:102C200085F8E801524C0098636AC11A01D40E4637
:102C300000E01E1A0198A26A801A01D4074601E03A
:102C4000019FD71BBE4206DD002901D4084606E0DD
:102C50000098181A03E0002801D50198101A029A6A
:102C6000E16A521A01D4134601E0029BCB1A834257
:102C700005DB002A01D4104601E00298081AD8F8B2
:102C800024101AF0C6F9D5F81812814206DD032186
:102C900068461AF013FE02201AF062FE0098606285
:102CA0000198A0620298E062BDE8FE83304AC2E962
:102CB000020170472E4AC2E9060170472C4AC2E958
:102CC00004017047294AD2F8E0310360D2E9740266
:102CD000C1E900027047254AD2F8E0310360D2E929
:102CE0007602C1E9000270472DE9FE4781460020C7
:102CF000EA468A6F22B901EB800339F91020DA67BE
:102D000001EB800239F91030D46F1D1B4AF82050B6
:102D1000136E9D4200DD1566D36E9D4200DAD566C6
:102D20000123002422464FEAE578A3FB056704FB54
:102D3000057403FB0844334602EB420601EBC6066A
:102D400006EBC00CDCE90076FF186641CCE90076A2
:102D5000521C042AE9DB401C0328CADB886F401C94
:102D600088670120C1F89000BDE8FE87B0E6022028
:102D700010E9022030B5002302EB830550F8234010
:102D80005B1CEC66032BF7DBC2F88810916F79B1FE
:102D9000002102EB810450F82130E56F5B1B00D568
:102DA0005B42256E9D4200DA2366491C0329F0DB55
:102DB000906F401C90670120C2F8900030BD10B5A4
:102DC00000210B4600EB8102491CD46ED4671366C8
:102DD0000329F7DBD0F8881040F8783FC0E90513E5
:102DE00010BDD0E92210081A70470146D1E9180237
:102DF000824200DB1046896E814200DB0846704744
:102E00002DE9F0478046501E012686408946C2F1D2
:102E10002007404602F0C7FE04460D46404649469C
:102E20003A4602F0ADFE3A4602F0BDFEB04203DD86
:102E3000641C45F1000505E07142884202DA641E17
:102E400045F1FF3520462946BDE8F087F7490020C7
:102E5000086248628862C862086448648864C8641A
:102E6000086348638863C863086548658865C86502
:102E7000704730B5EE4AD2F8483223B1D2E99054C7
:102E80002D1A8C4101DAC2E990015B1CC2F848326C
:102E900030BD30B5E64AD2F8583223B1D2E9945465
:102EA0002D1A8C4101DAC2E994015B1CC2F8583238
:102EB00030BD30B5DE4AD2F828322BB1D2E9884590
:102EC000041B71EB050401DAC2E988015B1CC2F83E
:102ED000283230BD30B5D64AD2F838322BB1D2E9DB
:102EE0008C45041B71EB050401DAC2E98C015B1C03
:102EF000C2F8383230BD2DE9F0470246CC480125F2
:102F000008308046C36E016E046FC91A436E1B1BE6
:102F10008B4200DB1946836ED8F87400181A884279
:102F200000DB0146C14F6037F86B884204DA0024A9
:102F300000F010FA204687E7108E0124BC4EC00531
:102F40004FF000010ED5D6F880303068834209DB9F
:102F5000B2F87420D20506D5D6F8B021824201DB42
:102F6000052400E00C4674B3600719D5AF48C83893
:102F70008146FFF722FD000D40EA01300915C6E940
:102F80007601D7E904321B1A8A4102DA0025FFF7DD
:102F9000A1FF9821484603F0EDF90420FFF7E6FC75
:102FA000E0070ED04046FFF708FDC6E97C01D7E9EF
:102FB00006340246181A8C4103DA00251046FFF742
:102FC00078FF284640E7FFE702203DE71EB50446AC
:102FD00090F83000C0F38110032804D19449201DDB
:102FE0000831FFF781FE94F87400C0F381100328C4
:102FF00005D18E4904F14800C839FFF775FED4F8B1
:10300000B8008B4AC0F38113A0326946032B0FD05E
:10301000C0F3411003281AD1002004EB8003D3F839
:10302000A0309B1341F82030401C0328F5DB09E059
:10303000002004EB4003B3F98C3041F82030401CF1
:103040000328F6DB6846D4F8C010FFF793FE1EBDD8
:103050002DE9F04705460020296BCA056AD501F025
:103060005001402900D1012095F8741001F0500161
:10307000402900D1012095F8B8106D4C01F05001A5
:10308000402900D030B100F065F90020C4F8E0011B
:1030900084F8E801654ED4F80812E86A6036814287
:1030A00028D0C4F808020A28306B0CDA40002060EF
:1030B000716B00EE100A491CC4F80C12B8EEC00A7D
:1030C00013F0C5FB05E02060706BC4F80C0296EDB0
:1030D0000E0A84ED850AD4F80C02C0F11000C4F881
:1030E00010024FF48040C4F8180296F834101920EA
:1030F0008840F0632846FFF769FF94F8E811DFF88D
:10310000309105274FF0020809F1A009072911D2D3
:10311000DFE801F0041127305E7E8500D4F8E0017D
:10312000411CC4F8E0110A2804DB00F013F9012067
:1031300084F8E80186E0D4F89800012810D12846E8
:10314000FFF7D9FE10B1012803D004E084F8E8713C
:1031500001E084F8E8814846FFF731FEFFF776FE8C
:1031600070E0032084F8E8012846FFF72BFD00F00B
:10317000F1F867E02846FFF7BEFEE8B3012861D109
:10318000B5F8B8004FF00403C00515D54846FFF761
:103190002CFE0146C017C4E97410D6E902C2BCEB8C
:1031A0000101824102DA84F8E87108E04846FFF73D
:1031B00018FE316A884202D384F8E83124E0F4E949
:1031C0007601FFF766FED4E90601FFF752FE39E00B
:1031D000B5F8B800C0050BD54846FFF706FE014616
:1031E000C017C4E97410D6E90232591A824108DBCB
:1031F0002846FFF780FE00E003E010B1012803D06D
:1032000020E084F8E8711DE02846FFF7DBFCD6E7F4
:10321000062084F8E80101201AF0A2FB0DE0284600
:10322000FFF769FE012805D038B10BE0B0E80220B5
:10323000B0E6022084F8E88104E000F08BF848460C
:10324000FFF7BDFD0020FFE510B50021401000286C
:1032500002D001F10101F9DC4FF0010001F101019F
:1032600000FA01F0434C00EE100AC4E90C01B8EE7C
:10327000C00A13F0ECFA84ED0E0A94F83410192009
:103280008840E06310BD10B54FF418713A4803F060
:1032900071F84021374803F06DF80720FFF766FB0F
:1032A000344840F2DC510022C0E906121421C0E982
:1032B00002124FF41671C0E9041230492E4C01621B
:1032C0000120C4F8E4011920FFF7BEFF0020C4F874
:1032D000080210BD10B54FF41871274803F04AF8E2
:1032E0000720FFF743FB244801210022C0F8E41126
:1032F00080F8E811032101201AF028FB072264213D
:10330000AFF2B320BDE810401AF0C8B810B50120E4
:103310001AF026FBAFF2C720BDE810401AF07CBBC4
:1033200010B5FFF7B0FF002805D1AFF25700BDE898
:1033300010401AF03BB910BD10B5FFF7E7FFAFF230
:103340006B00BDE810401AF08DBB0B49D1E97C0140
:1033500070477047084810B59821083003F00AF804
:103360009821074803F006F8BDE810400520FFF754
:10337000FDBA000010E90220B0E602200008AF2FDD
:10338000E8E70220F0B516462DED028B85B01F460A
:103390000C4605463C22FE49A1F10C0002F083FFD9
:1033A000FB4950224C31A1F1100002F07CFFF8499A
:1033B00096E80D000C3901F13C0C8CE80D005CCC5A
:1033C00001F1980080E85C009FEDF28AD1F82401B9
:1033D000401CC1F82401062802DD0620C1F82401A2
:1033E000C0F106060C46A0351AE004EB06116A4649
:1033F0003846483119F069FE06EB460004EB8001BF
:103400006A46284619F04CF9F0EEC00AB0EEC81A28
:10341000F4EEC10AF1EE10FA01D2B0EE408A761C49
:10342000062EE2DB05B0B0EE480ABDEC028BF0BD23
:1034300070B514462DED048B0E46B0EE408A002583
:103440009FEDD59A416BF0EE498A002904DBD0F854
:10345000BC00032800D10125CD492422B431081F26
:1034600002F021FFCA480C38002380ED388A00EBB7
:1034700083015B1C91ED2F0A0A2B70EE288AF6DB84
:10348000B2EE040AC822C8EE800AC0ED390A9FEDE8
:10349000C31A322E1DDB9FEDC20AC0F81C21B6F5FF
:1034A0007A7FC8EE001A00EE104AB8EEC00A61EE4C
:1034B000801A81EE810A2FDB9FEDBA0AC8EE001A4E
:1034C00000EE104AB8EEC00A61EE801A81EE810A61
:1034D00022E041F2883194FBF1F14942D0F81C31ED
:1034E00001EB8101C918C0F81C1102D50021C0F8F8
:1034F0001C119FEDAD0AC8EE001A00EE104AB8EE9E
:10350000C00A61EE801A81EE810A29B9D0F828112B
:10351000012901D1B0EE490AD0F8201109B1B0EE6D
:10352000480AA2498C4201D1B0EE480AB5EEC00A61
:10353000F1EE10FA01D0C0ED3A0A90ED3A1A9C4B28
:1035400071EE600AF0EEE00A10EE901A994227DD63
:10355000D0ED2E0AF5EEC00AF1EE10FA20D1002DC2
:103560001ED0C0F81C21204620F037FA41EC190B80
:1035700018EE100A20F08EFD9FED8E1B53EC112BE0
:1035800020F03AF853EC192B20F08EFA9FED8B1BAC
:1035900053EC112B20F030F81FF048FF00EE100A1A
:1035A000BDEC048B70BD2DE9F04F04462DED048B6E
:1035B000A9B09FED799A4FF0000A754ECDF810A092
:1035C0000C3ECDF814A0CDF818A0D6F8201102209A
:1035D00003297DD000209FED7B8A20AD06EB800182
:1035E00091ED2A0A05EB8001401CB8EEC00A0428C0
:1035F00020EE080A81ED000AF0DB0FA819F0C8F9E7
:1036000024A819F029FA624B24AA9C330FA920465A
:103610002793FFF7B7FEF0EE408A04F1180019F087
:1036200079FA81096148D6F83021824200DB0246EE
:10363000B0EE680A2046FFF7FBFED6ED3B0AB34624
:103640000BA820EE200A86ED2E0A19F0A1F913A985
:103650000BA819F0B5FE4E480FAAF0300BA906468C
:1036600019F033FD31460BA819F00CFD00210DF1C6
:103670003C080DF14C090DF1100E002213461046C6
:1036800001EB410C0CEB000759F8276008EB8007B1
:10369000401C7F680328C6FB0723F3DB900F40EA3A
:1036A00083004EF82100491C0329E6DBDBF82001EA
:1036B0005E4600286AD05046CDF818A0404200EE81
:1036C000100AB8EEC00A20EE080A12F025FD00E04C
:1036D000A2E08DED000A8DED019A8DED029A06981B
:1036E000404200EE100AB8EEC00A20EE080A12F0BE
:1036F000A9FF8DED030A9DED060ADFED330AD6F82A
:103700003001B8EEC00A41F2883190FBF1F080EE52
:10371000201A00EE100AF8EEC01A81EE210AB0EE6F
:10372000001AC0EE011ABDEEE10A10EE101A4900AF
:1037300000EE101A0691B8EEC00A60EE200A00EE04
:10374000100AB8EEC00A20EE800ABDEEC00A8DED68
:10375000060AB8EEC00A20EE080A12F0DDFC8DED74
:10376000070A8DED089A8DED099A9DED060AB8EECF
:10377000C00A20EE080A12F065FF8DED0A0A1CAAA5
:10378000694620A819F0F9FC6A461FE04BE00000EA
:103790005CE90220002474490000000000409C45C0
:1037A00000004843000048420000C84340420F0068
:1037B0000E2DB23D00000000000079400000000026
:1037C0000088B34000008030E102374707A91CA8F9
:1037D00019F0D3FC6F46DFED958AD4F8BC000028C1
:1037E00013DD002007EB800191ED000A05EB80015D
:1037F00081ED000A20EE280A06EB8001401C042817
:10380000BDEEC00A81ED2A0AECDBD4F8BC00F6EE6E
:10381000009A03280CD108E0C6F8200129B0BDECBD
:10382000048BBDE8F08F069848E700F03DFEE0B35A
:1038300096ED2A0AB8EEC00A20EE080A8DED1C0AA1
:1038400096ED2B0AB8EEC00A20EE080A8DED1D0A8F
:1038500096ED2C0AB8EEC00A20EE080A8DED1E0A7D
:1038600096ED2D0AB8EEC00A20EE080A8DED1F0A6B
:10387000D6F820010028D1D096ED2E0A20EE290A94
:1038800012F04AFC20EE280ABDEEC00A86ED2A0A94
:10389000C6F8ACA0C6F8B0A096ED2E0A20EE290A14
:1038A00012F0D0FE20EE280A00E004E0BDEEC00ACF
:1038B00086ED2D0A2BE096ED2E0A20EE290A12F055
:1038C0002BFC8DED070A8DED089A8DED099A96ED8A
:1038D0002E0A20EE290A12F0B5FE8DED0A0A6A467C
:1038E00007A920A819F049FC684619F0F1FC00204E
:1038F00007EB800191ED000A06EB8001401C20EEF1
:10390000280A0428BDEEC00A81ED2A0AF0DBD4F8AB
:10391000C010279819F030FFD6F820010028AAD04F
:10392000401E79E770B590F8B810414ACC064FF0C8
:1039300000034FF0030101D4C2E94813B0F820415D
:10394000E40509D4048EE40503D5B0F87440E40519
:1039500002D4C2E948131AE0D2F8341139B1D0E9DF
:103960003013C91A4FF47A73B1FBF3F105E0D0F8C4
:10397000B01044F62064A14202DBC2F830110AE024
:10398000D2F82C512944C2F82C11A14201DA0020AE
:1039900070BDC2E94B31FFF706FEF8E710B54FF4F2
:1039A0009C71234802F0E6FC214C4FF0804000213E
:1039B000C4F8FC0044F8A80F1D48A83019F0DCFE3C
:1039C0004FF47A70B7EE000A606784ED110A10BDFB
:1039D000174880ED3B0A002070471549C1F82801BF
:1039E000002070471249C1F83401002070470422BA
:1039F0004FF41671AFF2D30019F050BDAFF2DB00F7
:103A00001AF00AB810B5FFF7C9FF09490020C1F83C
:103A10002801C1F83401AFF22900BDE8104019F0C7
:103A2000C5BDAFF235001AF01DB800000000804E91
:103A300050E902201FB501461022684602F0BCFB87
:103A4000F7489DE80E0080E80E00F6499DF80C004E
:103A500081F8B001002004B010BD1FB5F0490EC9B7
:103A60008DE80E00EF49102291F8B0118DF80C107E
:103A7000694602F0A1FB0020EDE72DE9F04F91B07F
:103A800000251821684602F075FC0024182106A8BC
:103A900002F070FCE348A046C14690F8C01101292D
:103AA0007ED1D0F8B8B1D0F8B4A10022C2EBC200E8
:103AB00000EB4001DB4800EB810E9EF850000F90B8
:103AC000002864D000215FE0DDE900076D1C5EF88E
:103AD00021300E93181847EBE376CDE900060EEB84
:103AE0008100EDB243690D93DDE9027C4FEAE37694
:103AF000DB1946EB0C06CDE90236836ADDE9047C6E
:103B0000DE170C93DB1946EB0C06CDE90436C06BCF
:103B10000E9BDDE9067C83FB0063360C46EA034618
:103B2000F6194CEB2343CDE906630D9BDDE9087CD8
:103B300083FB00634FEA164646EA0346F6194CEB50
:103B40002343CDE908630C9BDDE90A7C83FB00631A
:103B50004FEA164646EA0346F6194CEB2343CDE9F5
:103B60000A6380FB00634FEA164646EA034616EBFB
:103B7000080849EB23490444584501DA834602E02A
:103B8000504500DD8246491C0F9888429CDC521C3F
:103B9000052A8BDBA348AAEB0B01D0F8BC0100E09F
:103BA00056E0814254DBA5FB0823E0170026109065
:103BB00006FB083005FB0900CDE90C2084FB04203E
:103BC000110C41EA00410014CDE90E0106A800EBFA
:103BD000C601D1E90003A0FB05B203FB05220021C9
:103BE00000FB012C684600EBC601D1E90001A0FBF7
:103BF000043701FB0471109A00FB0210190C41EA12
:103C000000490CAA4FEA204A92E889000F9983EAFA
:103C1000070880EA010252EA080212D0421A63EB56
:103C20000703BBEB09006CEB0A0C4FEA0C4141EABD
:103C30001041000401F0CAFF7A4901EB8601C1F886
:103C4000A401761C032EC1DB7648012180F8B01157
:103C500011B00020BDE8F08FF8B5724D0E46044655
:103C6000D5E96D01091A052291FBF2F1301A90FB9A
:103C7000F1F0C0B28DF80000042801D92020F8BD71
:103C8000C0EBC00000EB400005EB800191F8500054
:103C9000052816D0421C81F850209DF80010C1EB79
:103CA000C10101EB410105EB810202EB8001CE6312
:103CB000236842F8203060684861A068886200206C
:103CC000F8BD01F14003181F1022194602F0EBFA6B
:103CD0009DF800001022C0EBC00000EB400005EB97
:103CE0008000011D02F0DFFA9DF800001022C0EBF9
:103CF000C00000EB400005EB800000F1180114301B
:103D000002F0D1FA9DF800001022C0EBC00000EBD9
:103D1000400005EB800000F12C01283002F0C3FACE
:103D20000420BAE730B585B0044603A9684618F008
:103D3000CBFE04A818F07AFF02282BD0D4F8E400B8
:103D40000399401A374991F8B02112B308B3D1F85A
:103D5000A421009C80FB0232150445EA1342224450
:103D60000092D1F8A821019C80FB0232150445EA9B
:103D7000134222440192D1F8AC11029A80FB011047
:103D8000030443EA1140104402900321684619F0ED
:103D900095FD0CE0606B032809D118F0A7FE30B147
:103DA00068460399FFF758FF08B9FFF766FE05B0AC
:103DB000002030BD10B54FF4E2711A4802F0DAFA73
:103DC00018481949C0F8B4114FF4AA01C0F8B81145
:103DD0004FF4A021C0F8BC11012180F8C0110020CF
:103DE00010BD1049C1F8B801002070470D49C1F855
:103DF000B401002070470B49C1F8BC010020704796
:103E000058B10849D1F8A4210260D1F8A821426034
:103E1000D1F8AC1181600020704705207047000088
:103E20002CEC022088EA02200000D8FF2420F5E7CD
:103E300020B12D4981F8C0010020EFE72420EDE7F3
:103E4000294B93F8B1010028E8D0D3E96D10401A4E
:103E5000052190FBF1F00020C0EBC00101EB410116
:103E600003EB810191F8502022B1002100E0491CB0
:103E70008A42FCDC401C0528EEDB0020CEE708224D
:103E800096211A4819F00ABB184819F0C5BD10B59B
:103E9000FFF790FF4FF49A7310221549154819F057
:103EA00051FB20B9AFF2290019F080FB08B10120C5
:103EB00010BD0D49012081F8B101002010BD10B5E1
:103EC000094C94F8B101002808D0084819F0A4FD65
:103ED000AFF2550019F0C6FD08B1012010BD002059
:103EE00084F8B10110BD000088EA0220253D0008D9
:103EF0005B3A0008353A0008002803DDFE4901223C
:103F0000C1E920020020704710B5B821FA4802F03C
:103F100031FA9FEDFA0AF84880ED030A9FEDF80A9E
:103F200080ED020A9FEDF70A4FF0804180ED000A14
:103F3000B3EE0E0A80ED010A41664FF4FA619FED7F
:103F4000F20AC16780ED270A002010BD70B5EA4C67
:103F5000002594ED001AB4EEC01AF1EE10FA17D352
:103F600094ED011AB4EEC01AF1EE10FA10DC2069DB
:103F7000012817D194ED030AB4EEE00AF1EE10FA2D
:103F800006D394ED020AB4EEE00AF1EE10FA09DD70
:103F9000606F20B9D848A16D183019F0EDFB0120F1
:103FA000C4E91D05D4E91E01884204DB606F0128C5
:103FB00000D1E565656770BD10B504462DED028B37
:103FC000B0EE408A18F0EEFCCB49002220B918EE82
:103FD000100ACE4B984202DD0A614A6102E008698C
:103FE000002808D1486920444861B0F5FA7F02DD15
:103FF0000120C1E90402BDEC028B10BDF0B58DB00B
:104000000D4614460646694619F0DAF909AA314602
:10401000284619F05AF82946304619F033F800219D
:10402000EC460DF1240E00231A46184601EB410719
:104030003D180EEB80065CF825507668401CC5FBE9
:1040400006320328F4DB980F40EA820044F821008E
:10405000491C0329E7DB0DB0F0BDA7490020C1F8DA
:104060008C00704710B590ED000AD0ED010AB8EE53
:10407000C00AB8EEE01AF8EEE00A20EE000A01EEFF
:10408000200AD0ED020AB8EEE01AF8EEE00A01EEDE
:10409000200A12F0DCFBDFED9E0A20EE200A10BDA4
:1040A00000229549012330B1012810D0C1F8983081
:1040B00041F88C2F31E081ED280A81ED290A9FED2E
:1040C000950A81ED2A0AE1E924328A607047D1ED30
:1040D000280A91ED271A70EE600AF0EEE00AF4EE7D
:1040E000C10AF1EE10FA16D2D1F89400401CC1F8C2
:1040F0009400D1ED290A312830EE800A81ED290A99
:10410000E4DD0220DFED840AC1F8900080EE201A81
:1041100081ED2A1A704741F8902F4A6070472DE9C7
:10412000F04798462DED088B8AB017468A4604461C
:104130009FED788A0025704E039504950595D6F875
:10414000880000287DD018F0DDFC10B103A818F01D
:10415000ADFCD6F880004FF00109002817DDC6F845
:10416000849018F0CFFC48B103A818F0D3FC800964
:10417000B0F5C87F02D2D6F8800004E0D6F88000FF
:10418000001BC6F88000002801DCC6F8845018F037
:104190009BFE002855D000209FED5D9A57F8201017
:1041A00000EE101A58F82010401CB8EEC00A032880
:1041B00060EE090A00EE101AB8EEC00A20EE800A7E
:1041C00000EE098AEADB3846FFF74CFFF0EE408A42
:1041D0004FF07E5788EE280AF7EE00AA10EE100A7C
:1041E000B84201DDB0EE6A0A10EE100ADFF82C8149
:1041F000BFEE00BA404501D9B0EE4B0A11F072FD96
:10420000D6F88C00B0EE40AA98B196ED000AB4EE54
:10421000E80AF1EE10FA0CDD96ED010AB4EEE80AB8
:10422000F1EE10FA05D2B0EE4A0AD6F89000FFF788
:1042300037FF684618F0E4FC2F490C22AC31684681
:1042400000E0E2E001F0F2FE18B9D6F8980001288B
:104250006BD129489DE80E00AC3080E80E00009834
:1042600018B9019808B90298F0B36846FFF7FAFE4A
:10427000B0EE408AB5EEC08AF1EE10FA55D0F2EEFB
:10428000049A38EE690A20EE000A12F0E0FA86ED90
:10429000010A38EE290A20EE000A12F0D8FA86ED5B
:1042A000000A9DED020AB8EEC00A60EE090AB0EEFF
:1042B000480A80EE808A18EE100AB84201DDB0EE9E
:1042C0006A8A18EE100A404501D9B0EE4B8AB0EE6A
:1042D000480A11F007FDD6ED270A30EE600A86ED98
:1042E000020AB0EE480A00E024E011F0FBFCD6ED33
:1042F000270A30EE200A14E04CEC02200000B44201
:104300000000B4C2000070427B142E3E00401C46E8
:10431000000080370000000000004842000080BF1D
:1043200003E086ED030AC6F88C50DFF88481F16D56
:1043300021B32FE01FED0D0A86ED000AB3EE0E0A41
:1043400086ED010AD6F89800012808D01FED140A5E
:1043500086ED020A1FED170A86ED030AE5E796EDE2
:104360002A0A96ED271A70EE410A30EE010AC6EDD0
:10437000020A86ED030AC6F89850D6E70027C6F869
:104380005C9006EB07104146183018F03DFB7F1C8F
:10439000042FF6DB464906AA0C310F465046FFF7BC
:1043A0002DFE3946504618F06DFE03A818F0B2FBFA
:1043B00000EE100ADFED3F0A2046B8EE400A20EE7C
:1043C000200AFFF7F9FDF0EE4A0AB0EE680AFFF79F
:1043D000BDFDD6E91E01884201DA2044B067706F46
:1043E00090B9306E20443066B0F57A7F0CDD3049EC
:1043F00030223039A1F11000356601F054FF2C480D
:104400004146103818F000FB706F0AB0BDEC088B05
:10441000BDE8F08770B588B0044604A818F01CFB0E
:10442000D4E93001451A684618F0B2FA064604ABE2
:1044300004F1A00269462846FFF771FE19F0ACF9B5
:1044400008B0304670BD04224FF49671AFF23B00C5
:1044500019F024B8AFF2430019F0DEBA10B5FFF737
:1044600053FD00280DD1124800215838C0F88C1097
:104470000121C0F88810AFF23100BDE8104019F0FA
:1044800095B810BD10B5AFF2730019F0C5FAAFF2D0
:104490007B00BDE8104019F0BFBA0549012058392A
:1044A000C1F88C000020704701485838406F7047B1
:1044B000A4EC02200000803CF0B51D462DED028BDF
:1044C00099B090ED000AD0ED010A1746B8EEC00A87
:1044D000B8EEE01AF8EEE00A0E4620EE000A0446B6
:1044E00001EE200AD0ED020AB8EEE01AF8EEE00A7A
:1044F00001EE200A12F0ABF9F0EEC00A10EE900ABD
:10450000B0F18D4F7EDDD6ED000AB8EEE01ADFED9A
:10451000FE0A21EE201A8DED041A96ED011AB8EE6E
:10452000C11A21EE201A8DED051A96ED021AB8EE89
:10453000C11A21EE201A8DED061A96ED031AB8EE77
:10454000C11A61EE200ACDED070A9FEDF08A10AA8C
:104550008DED0C8AD4ED000A0CA904A8F8EEE00A4F
:1045600080EE801A8DED0D1AD4ED010AF8EEE00A06
:1045700080EE801A8DED0E1AD4ED020AF8EEE00AF4
:1045800080EE801A8DED0F1A18F0F7FD14A904A81B
:1045900018F084FD6A4614A910A818F0EEFD9DEDF0
:1045A000021ADDED010ADA4921EE010A00EEA00A45
:1045B00010EE100A884202DA9FEDD60A11E010EEE2
:1045C000100AD549884202DA9FEDD40A09E010EEBC
:1045D000100AD349884202DAB5EE000A01E09FEDE5
:1045E000D10A01EE907AB8EEE12ADFEDCF2A8DED07
:1045F000088AC2EE221A21EE800A21EE001A8DED01
:10460000091A00E038E020EEC00A6A4604A98DEDE0
:104610000A0A8DED0B8A08A818F0AFFD6A4604A9B6
:10462000104618F00EFD684618F010FEDDED000A89
:104630009FEDBE0A60EE800AFDEEE00AC5ED000ABD
:10464000DDED010A60EE800AFDEEE00AC5ED010A2B
:10465000DDED020A60EE800AFDEEE00AC5ED020A19
:10466000DDED030A20EE800ABDEEC00A85ED030AE7
:1046700019B0BDEC028BF0BD96E80F0085E80F0085
:10468000F6E72DE9F0410C462DED068B054690ED41
:10469000000AD0ED010AB8EEC00AB8EEE01AF8EE52
:1046A000E00A20EE000A01EE200AD0ED020AB8EE80
:1046B000E01AF8EEE00A01EE200A12F0C8F810EE57
:1046C000100A4FF07E5800264FF0804740453FDDEE
:1046D000D5ED020AB7EE009AF8EEE00AC0EE808A45
:1046E00039EE680A9FED89AAB5EEC00AF1EE10FA1C
:1046F00001DCB0EE4A0AF6EE009A20EE290A12F02A
:10470000A6F8B0EE408A38EE890AB5EEC00AF1EE9E
:1047100010FA01DCB0EE4A0A20EE290A12F097F8EE
:10472000F0EE408A95ED000AB8EEC00A60EE000A8D
:1047300095ED010AB8EEC01AB8EEC00A41EE000AC3
:10474000B0EE600A12F083F810EE100A404503DC68
:10475000C4E90076A66025E0DFED740A28EEA01A11
:10476000BDEEC11A84ED001A95ED011AF8EEC11ADA
:1047700081EE801A21EE081A61EE200AFDEEE00AB1
:10478000C4ED010AD5ED000AF8EEE00A80EE801AC9
:1047900021EE080ADFED660A20EE200ABDEEC00A0F
:1047A00084ED020AE660BDEC068BBDE8F08170B5D1
:1047B00090ED000AD0ED010A0546B8EEC00AB8EE49
:1047C000E01AF8EEE00A0C4620EE000A01EE200A9C
:1047D000D0ED020AB8EEE01AF8EEE00A01EE200A87
:1047E000D0ED030AB8EEE01AF8EEE00A01EE200A76
:1047F000B5EEC00AF1EE10FA07D84FF08040206005
:1048000000206060A060C86070BD12F020F8B7EEB4
:10481000001AC1EE000A9FED450A20EE800AD5ED90
:10482000000AF8EEE00A60EE800AFDEEE00AC4ED50
:10483000000AD5ED010AF8EEE00A60EE800AFDEE0E
:10484000E00AC4ED010AD5ED020AF8EEE00A60EED6
:10485000800AFDEEE00AC4ED020AD5ED030AF8EE87
:10486000E00A20EE800ABDEEC00A84ED030A70BDA6
:1048700070B5044690F8300088B040067ED5A06937
:10488000002801DB014600E041424FF4803200265F
:10489000284D91420BDAE169002900DA4942914240
:1048A00005DA216A002900DA4942914267DB0028D3
:1048B00000DA40424FF4C80188420BDCE06900286E
:1048C00000DA4042884205DC206A002800DA4042D3
:1048D000884201DD032000E00220A863696BA06A22
:1048E000814242D0686394ED0A0A9FED131AF8EEF4
:1048F000C00A80EE810ADFED110A20EE200A10EED8
:10490000100A1FF0C7FB1BE0000080300000000011
:1049100017B75139A69BC43B0AD7233C8FC2753DBC
:10492000CDCC4C3ECDCCCC3E0014CD470000804ECB
:10493000000080CE04ED0220002474490000004EE7
:104940009FEDFA1B53EC112B1FF0AEF89FEDF91BF6
:1049500053EC112B1FF0A8F89FEDF81B53EC112B13
:104960001EF04AFE1EF0DCFF28630496296BA06946
:1049700018F04FFB0590296BE06901E022E023E08D
:1049800018F047FB0690296B206A18F042FB07904D
:104990006A4604A9EB4818F098FB0098E94A8001A0
:1049A0000090019869468001019002988001029070
:1049B000039880010390104618F031FBE149084646
:1049C000FFF7F5FE08B070BDAE63FBE770B50446B7
:1049D0002DED048B8EB0D0F82001410676D5D94D4F
:1049E000D4F81011D84B2A68891AD4F82C215A43CC
:1049F0008A4201DA032100E00221A963800504F55F
:104A0000887602D5CF493046B5E0002107A818F0D6
:104A10005BF8CC490C223C3107A801F007FB20B918
:104A2000D4F82801A96D88427ED020886B4680B2D8
:104A300007AA616A17F08AFE9DED000ADDED010A02
:104A4000B8EEC00AB8EEE01AF8EEE00A20EE000A6E
:104A500001EE200ADDED020AB8EEE01AF8EEE00AF7
:104A600001EE200A11F0F3FEB0EE408A9FEDB70A86
:104A700068EE000A9FEDB61A80EE810ADFEDB50AF6
:104A800020EE200AD4ED4A0AF8EEE00A60EE800A31
:104A90001FED571A80EE810AF6EE000A20EE209AEA
:104AA000B0EE490A11F038FBF0EE408AB0EE490A48
:104AB00011F0C8FD18EE100A4FF08041884206DA66
:104AC0000020C5E912102865686532E055E05FED09
:104AD000690A68EEA00AFDEEE00AC5ED120A5FED74
:104AE0006C0A20EE200ADDED000AF8EEE00A60EE26
:104AF000200A80EE881AFDEEC10AC5ED130ADDED2D
:104B0000010AF8EEE00A60EE200A80EE881AFDEE57
:104B1000C10AC5ED140ADDED020AF8EEE00A20EE46
:104B2000200AC0EE080A00E00DE0BDEEE00A85EDC7
:104B3000150A07AB93E8070005F13C0383E807007B
:104B4000D4F82801A8657F4903AA4831304618F0F7
:104B5000BCFA7C480AAA5C3003A9044618F0B5FAEE
:104B60002146304618F08EFA03AA0AA9754818F0B3
:104B7000ACFA744903A8FFF71AFE0EB0BDEC048B23
:104B800070BD1FB5044669466E4818F07BFA6D4A41
:104B900069462032204618F098FA6A491DCC103137
:104BA00081E81D001FBD2DE9F0470446654E90F8D1
:104BB000740006F15C0A06F12008012500F050019E
:104BC000103692B004F5887904F15C07402906D0CC
:104BD00094F8200100F0500040280DD01DE031462F
:104BE0003846FFF74EFDB4F82001C0050CD55146FC
:104BF000484618F047FA07E05146484618F042FA8E
:104C0000B4F87400C00508D569464E4818F03AFA61
:104C100042466946304618F058FAB4F82001C005FB
:104C2000204602D5FFF7D2FE01E0FFF721FE324613
:104C30004449404618F049FA94F8740040066FD58C
:104C4000208EB4F820110843C0056DD50FAA39464F
:104C5000304618F095FBD4E9172080FB0001C2FB19
:104C60000201626E374FC2FB02014FF08042801A90
:104C700071F1020014DB04A817F082FFDDE90420C3
:104C800080FB0001C2FB0201069AC2FB02014FF049
:104C90008042801A71F1020002DB0420B8630BE04D
:104CA000B86B042808D041F28832022806D00328C5
:104CB00004D0012852D009E0002507E0E16E91FB05
:104CC000F2F5012D00DA0125032800D0AD002248BD
:104CD00000244543109807948002294618F099F95A
:104CE00008900F9829464042800218F092F9CDE9C9
:104CF00009040BAA314607A818F0E7F932460BA9B8
:104D0000104618F08CF931460846FFF750FD694609
:104D10000C4818F0B7F942466946304618F0D5F904
:104D200012B00020BDE8F08720E00000112D4454AF
:104D3000FB2109400000000000007040000000005E
:104D40000080664004ED022071981C00DB0F494092
:104D50000000344300008037A69BC400E06E90FB47
:104D6000F2F0012800DA01204500AFE7334619468A
:104D70003846E26EFFF7A0FBC9E770B50446008E27
:104D8000C105D4F8200107D4B4F87410C90503D4C0
:104D9000C10501D4002070BDC0F30120032807D055
:104DA0002046FFF700FF2348A16B18F025FEF1E72E
:104DB00004F588711F482EC980E82E00F3E71E48CD
:104DC00018F02ABE1B4810B56C21103801F0D2FA39
:104DD00018484FF080411038016101600162C163E1
:104DE000C165002010BD184810B5082213A1006845
:104DF00001F01CF908B1322010BD1322BDE81040AB
:104E0000C8210D4818F04ABB10B5FFF7DBFF00289A
:104E100005D1AFF22D00BDE8104018F0C7BB10BDA2
:104E200010B5054818F0F8FDAFF24500BDE8104098
:104E300018F018BE14ED02207B4D0008654D504C53
:104E400020352E3100000000EC03002000209FEDF3
:104E5000FE0AFE4ADFEDFE0A02EB8001401C81EDF6
:104E6000080AC0B2C1ED0B0A0328F5D37047F74A10
:104E7000002002EB8001D1ED080A91ED2D0AF4EE3D
:104E8000C00AF1EE10FA01D281ED080AD1ED0B0A49
:104E9000F4EEC00AF1EE10FA01DD81ED0B0A401CC0
:104EA000C0B20328E5D370473EB50B46B0F84810B2
:104EB00009040091B0F84A10009A09040191B0F871
:104EC0004C1009040291E1494C6E121B0092019AA8
:104ED0008C6E121B0192029AC96E511A0291816E58
:104EE000B0F844006A4680B217F030FC3EBDF0B521
:104EF000D64F00242546D7F894208DB02E46012A9F
:104F000001D1C7F8946009A9FFF7CEFF05A817F0F3
:104F1000A3FD059909986022A0EBA130099006999C
:104F20000A98A0EBA1300A9007990B98A0EBA1304A
:104F3000C8490B90081F01F0B6F90DF1240CC548C3
:104F40009CE80E00143080E80E00684617F018FE4A
:104F5000C04960226C31081F01F0A5F9BD489DE8E9
:104F60000E00803080E80E0000210922D7F82C04C2
:104F7000401CC7F82C0401EB410007EB8000DDF872
:104F800000C0D0F84C33491C93FBF2F31C44D0F81A
:104F90005033092993FBF2F31D44D0F8543393FBAB
:104FA000F2F31E44D0F8B83393FBF2F3634400935A
:104FB000D0F8BC33DDF804C093FBF2F363440193F3
:104FC000D0F8C003029B90FBF2F018440290CDDBB6
:104FD000002C00DA6442002D00DA6D42002E00DA67
:104FE00076420098002800DA40420090019800289C
:104FF00000DA404201900298002800DA4042029014
:10500000009900208C4200DA012001998D4200DADB
:10501000401C02998E4200DA401CD7F82C14092952
:1050200000DB401C04280DD197F8240402280BD97A
:1050300001468648D7F82824643018F027FB012061
:1050400018F01EFB0DB0F0BD18F00CFBFAE72DE9CF
:10505000F0417E4D00272DED048B06463C4685F839
:1050600024749FED7D9B9FED7E8BC5F8287405EB26
:105070008400D5ED0F0A90ED330AB4EEE00AF1EEAC
:1050800010FA1EDB95ED140B53EC182B51EC100BA2
:105090001EF016FF41EC100B11F0E6F853EC192B43
:1050A00051EC100B1EF0C4FC0BD295F82404012126
:1050B000401C85F82404D5F82804A1400843C5F80D
:1050C0002804641CE4B2032CD1D395F82404B8B3AB
:1050D000002406EBC40090ED000B51EC100B1EF009
:1050E0001FFC05EB8401641CE4B24866032CF0D37A
:1050F000C5F82C74A868042802DA95F82404A8607E
:1051000095F8240403281BD15749E868884217DC26
:1051100095ED140B53EC182B51EC100B1EF0D0FE38
:1051200041EC100B11F0A0F853EC192B51EC100BC3
:105130001EF07EFC04D2A868032801D10420A860D8
:105140004A49286988421DDA4949E868884219DCD9
:1051500095ED140B53EC182B51EC100B1EF0B0FE18
:1051600041EC100B11F080F89FED421B51EC100B3D
:1051700053EC112B1EF05CFC04D2A868042801D16A
:105180000520A860BDEC048BBDE8F0812DE9F0415D
:105190002E4C0746D4F8A404012802D00025284646
:1051A000F2E73649F7EE000AA1F1E800B7EE000A8F
:1051B0000646FBF7B2FA254A3046503202F5AC718A
:1051C000FBF74DFD0500EAD06068401C606094ED7F
:1051D000140B51EC100B1EF0A3FBB96E17F019FF66
:1051E00000EE100ADFED260AB8EEC00A20EE200A13
:1051F00010EE100A1EF04EFFC4E9140194ED6A0B84
:1052000051EC100B1EF08CFBA06594ED6C0B51EC77
:10521000100B1EF085FBE06594ED6E0B51EC100B4E
:105220001EF07EFB206694ED680B9FED161B51EC83
:10523000100B53EC112B1EF035FDB0D231469FED13
:10524000130AF0EE400A23E000401CC670ED022075
:1052500000401C46C0F002209A9999999999B93F4B
:10526000000000000000F03FAE47E13D00007A433F
:10527000BC74933C9CC420B07268913F38EF02200C
:1052800000008037000000000070A740CDCCCC3E6D
:105290000846FBF742FA82E7D0ED030A90ED040AD4
:1052A00000210122F4EEC00A0223F1EE10FA12DD11
:1052B00090ED051AF4EEC10AF1EE10FA0BDDB4EE32
:1052C000C10A0164F1EE10FA02DBC0E91123704754
:1052D000C0E911327047B4EEE00AF1EE10FA12DDC7
:1052E00090ED051AB4EEC10AF1EE10FA0BDDF4EE02
:1052F000C10A0264F1EE10FA02DBC0E91113704733
:10530000C0E911317047F4EEC00A0364F1EE10FAFF
:1053100002DBC0E911127047C0E911217047002378
:1053200019469FEDFE0AC36400EB8102491C82ED21
:10533000000A82ED090A0329F6DB0121C0E91D13E9
:10534000704730B504461420A0650A202066002569
:1053500084F870502046FFF7E2FF656530BD70B5F8
:105360002DED048B86B06946FFF79EFD9FEDEC8B1B
:105370001FED3D9A00246E4603AD56F8240000EE62
:10538000100A05EB8400B8EEC00A20EE090A80ED91
:10539000000A20EE000A10EE100A1EF07BFE53EC0D
:1053A000182B1EF075F841EC180B641C032CE4DB81
:1053B000B0EE480AF0EE680A11F00CFADA4EB0EEE0
:1053C000408AF0EE608A002455F824001EF062FE48
:1053D00053EC182B1EF010F91EF028F800EE100AFE
:1053E00006EB840000F58060641CD0ED0C0A032CF1
:1053F00030EE200A80ED0C0AE6DBD6F88404401C6F
:10540000C6F884040120C6F8AC0406B0BDEC048BD9
:1054100070BD70B505462DED028B86B004AA03A9B8
:10542000684617F021FD9FEDBE8B00246E4606EB0B
:10543000840090ED000A20EE000A10EE100A1EF023
:1054400029FE53EC182B1EF023F841EC180B641CBA
:10545000032CECDBB0EE480AF0EE680A11F0BAF962
:10546000B0EE408AF0EE608A002456F824001EF068
:1054700011FE53EC182B1EF0BFF81DF0D7FF00EE05
:10548000100A05EB8400641CD0ED000A032C30EEFA
:10549000200A80ED000AE8DB686D401C6865012089
:1054A000E86706B0BDEC028B70BDF0B50446002184
:1054B000F7EE001A9FED992A94ED140A04EB81008F
:1054C000B8EEC01AD0ED000A80EE810AB5EEC00A2F
:1054D000F1EE10FA02DBB0EE401A01E0B1EE401A34
:1054E000D0ED060AF5EEC00AF1EE10FA01DAF1EE9F
:1054F000600A71EE600AC0ED0C0A80ED060A94EDB8
:105500000F1AD0ED092A71EE610A00EEA20AC0EE70
:10551000010AC0ED090AF5EEC00AF1EE10FA01DA4F
:10552000F1EE600AC0ED030A491C80ED002A032950
:10553000C2DB2046FFF7B0FEE06CB0F57A7F01DAFF
:10554000401CE06494F870700021052604230325B4
:105550000122206C062F09D2DFE807F00309102B87
:1055600052376267A267E16484F87020F0BDE06F93
:105570000128FBD1022084F870000DE004EB8000CC
:10558000D4ED190A90ED030AB4EEE00AF1EE10FA38
:1055900004DB84F8703031E0A167F0BDD4ED1A0A65
:1055A000B4EEE00AF1EE10FA22D934E06267A267A5
:1055B000F0BD04EB8000D4ED190A90ED030AB4EEBF
:1055C000E00AF1EE10FAE4DAF0BD04EB8000D4ED6D
:1055D0001A0A90ED030AB4EEE00AF1EE10FA07D9C8
:1055E000006B524EB04206D9216EE06C8842EBDB74
:1055F00084F87050DAE784F87030E1646167CBE7D3
:1056000004EB8000D4ED1B0A90ED030AB4EEE00A2F
:10561000F1EE10FAD8D884F87060E164C6E710B5EE
:10562000044600EE104AB8EEC00ADFED410A20EE53
:10563000200A9FED401AC0EE010AB6EE000A20EEE5
:10564000800A10EE100A1EF025FD41EC100B10F040
:10565000FFFC9FED391B51EC100B53EC112B1EF08E
:1056600023FA1EF05DF901462F48C0E9204110BD24
:105670002DE9F04F00242DED028B91B005460494E6
:1056800005940694C06E44F62061274E884206DBDE
:10569000D6F88010884210D0FFF7C1FF0DE0D6F891
:1056A00048231044C6F8480388427DDBE96E8142F6
:1056B00001D0FFF7B4FFC6F84843286BC6F8B00422
:1056C0002846FFF74CFE06F5906003C8814204DBD4
:1056D0001B48FFF7EAFEC6F88444D6F8A804012860
:1056E00002D12846FFF703FCD6F8A40401285BD1B9
:1056F00004A817F063FA9DED040ADDED050A20EE1B
:10570000000A00EEA00ADDED060A00EEA00A11F084
:105710009EF886ED030ADFED0B0A15E0000000009D
:10572000000000000000000070ED0220CDCC4CBD58
:10573000368D274000247449000000000000D0414D
:10574000A0F102200000804620EE200AC149A146B7
:10575000ADF82040BDEEC00A099110EE100AADF878
:105760001C00ADF81E4007A8FDF7BEFA684617F00A
:1057700065FA316F009817F04CFC0446716F019880
:1057800017F047FC0444B16F029817F042FC044440
:10579000F16F039817F03DFC04EB00089DE80F0043
:1057A00000240DF1340A00E0A2E006F170079FED3D
:1057B000AA8A87E80F000DF1280B05EB4407A96EB4
:1057C00037F8480F000417F024FC00EE100A4AF8DE
:1057D000240006EB8400B8EEC00A20EE080A80ED33
:1057E000050A388801044BF82410641CE4B2032C29
:1057F000E3D398480AA9E8380446FBF75EF8316815
:10580000D6F82803884273DB95ED390AD6ED360ABF
:10581000B8EEC00AF5EEC00A20EE080AF1EE10FA62
:1058200005D070EE600AF0EEE00AC6ED370A86EDAC
:10583000360AB068062818D2DFE800F00303030335
:105840000D249FED860AC82086ED0E0AB7EE000AE9
:1058500086ED0F0A08E09FED820A86ED0E0A9FEDA5
:10586000810A642086ED0F0A3064288EC0050998ED
:1058700012D4FDF748F91EF03BFC00EE100A5FED74
:10588000530A11E09FED780A86ED0E0A9FED770A24
:10589000322086ED0F0AE7E7FDF78FF81EF028FCAF
:1058A00000EE100ADFED720A982180EE201A86EDD4
:1058B000041A099800F05EFDD6F88410414543DAD9
:1058C00096ED040AB5EEC00AF1EE10FA3CDDD6ED15
:1058D0000E0AB4EEE00AF1EE10FA35D2316C7068BF
:1058E000884206DA2846FFF751FC002859D00CE020
:1058F00056E06049D6F8B000884206DB2846FFF73C
:1059000045FC00284DD0C6F80490002006EB80012D
:10591000401C91ED050AC0B281ED2D0A0328F5D394
:10592000FFF7A5FA002006EB8001401C91ED080A64
:10593000D1ED0B0AC0B2032830EE600A81ED330AC4
:10594000F1D34D48FFF783FB002006EB8001401C9C
:1059500091ED260AD1ED050AC0B2032830EE600AA7
:10596000B0EEC00A81ED290AEFD396ED290AD6EDF3
:105970002A0A002030EE200AD6ED2B0A30EE200A4B
:1059800086ED2C0A06EB8001401C91ED050AC0B2A1
:1059900081ED260A0328F5D3E821204600F0EAFC31
:1059A000002011B0BDEC028BBDE8F08F10B54FF4B4
:1059B0009761324800F0DEFC304C0A20206040073E
:1059C0002067FFF743FA04F58660FFF7BAFC20680A
:1059D000C4F880049FED2A0A04F580601E2180ED42
:1059E0001B0A9FED280AC4F88C1480ED260A9FED4F
:1059F000260A80ED250A9FED250A80ED270A192049
:105A0000FDF722FC002010BD012240F25231AFF21E
:105A10009F3017F043BDAFF2A73017F0FDBF10B5B0
:105A2000FFF7C4FF002805D1AFF22300BDE8104006
:105A300017F0BCBD10BD10B5AFF2CB3017F0ECFFC6
:105A4000AFF23B00BDE8104018F00CB80B4880687E
:105A50007047000020F00220000080370080BB4427
:105A6000000096439A99993F000070423333B33F48
:105A70000050C347CDCC4C3D18EF022070ED022002
:105A800000000042CDCCCC3ECDCC4C3F3333333F35
:105A9000704753EA020C00F069802DE9F04B4FF09B
:105AA0000006002B1FBFB3FA83F503FA05F424FAAE
:105AB00005F65E4012BF1643B2FA82F502FA05F40B
:105AC000C5F120051EBF22FA05FC44EA0C0420356E
:105AD00056EA044C4FEA144418BF641C4FF0000807
