:020000040800F2
:10000000D8FE022039030008897501087D1D01080A
:10001000416B0108F9B70008D9D5010800000000BC
:1000200000000000000000000000000011A4010812
:100030006DCA0008000000001704000871AC010838
:10004000730300087303000873030008E1940108B8
:1000500073030008730300087303000873030008A8
:100060007303000873030008730300087303000898
:100070007303000873030008730300087303000888
:100080007303000873030008730300087303000878
:100090007303000873030008730300087303000868
:1000A0007303000873030008730300087303000858
:1000B0007303000873030008730300087303000848
:1000C0007303000873030008730300087303000838
:1000D0007303000889BC010873030008A1BC010870
:1000E00073030008299201087303000873030008D2
:1000F0007303000873030008730300087303000808
:1001000073030008730300087303000873030008F7
:1001100073030008730300087303000873030008E7
:100120007303000879C6000873030008F9C60008C5
:1001300073030008730300087303000873030008C7
:10014000730300087303000873030008758901082E
:1001500079C70008730300087303000873030008DD
:100160007303000873030008730300087303000897
:100170007303000873030008E1C5000800000000D5
:100180007303000873030008730300087303000877
:100190007303000873030008730300087303000867
:1001A00073030008730300087303000800F002F8EB
:1001B00000F0B2F80AA090E8000C82448344AAF14F
:1001C0000107DA4501D100F0A7F8AFF2090EBAE84D
:1001D0000F0013F0010F18BFFB1A43F0010318477B
:1001E000D8590700F85907000A444FF0000C10F8DE
:1001F000013B13F0070408BF10F8014B1D1108BFA5
:1002000010F8015B641E05D010F8016B641E01F844
:10021000016BF9D113F0080F1EBF10F8014BAD1C94
:100220000C1B09D16D1E58BF01F801CBFAD505E0B2
:1002300014F8016B01F8016B6D1EF9D59142D6D30C
:10024000704700000023002400250026103A28BF34
:1002500078C1FBD8520728BF30C148BF0B60704738
:100260006E2908F0B181702908F0D58266290FF057
:1002700024A465290FF021A467290FF01EA4612989
:100280000FF01DA403681B0A28BF41F080016929F3
:1002900008F05E81642908F05B81752908F05881B7
:1002A0006F2908F06382782908F0A182E92908F013
:1002B000FD81E42908F0FA81F52908F0F781EF299A
:1002C00008F06082F82908F0A0820368DB0928BFE3
:1002D00041F08001632909F00A82732909F00F8235
:1002E000E32909F02D82F32909F0328200207047BA
:1002F0001FB54FF08CFB09F0ABFA04000020002181
:100300004EF038FC401C6060002000214EF01CFCC8
:10031000E0601FBD10B510BD09F0FCFC1146FFF7F1
:10032000E7FF36F051FD09F06DFF03B4FFF7F2FF70
:1003300003BC20F044FE000011488047DFF8440071
:10034000016841F470010160BFF34F8FDFF838009E
:10035000016821F040410160BFF36F8F0B480047F7
:10036000FEE7FEE7FEE7FEE7FEE7FEE7FEE7FEE765
:10037000FEE7FEE706480749074A084B70470000BA
:1003800095AC010888ED00E034EF00E0AD01000815
:10039000D8F80220D8FE0220D8FA0220D8FA02208B
:1003A000EFF3098141B1F1EE101A40F8041D20ED80
:1003B000200A29490A6810607047B0EC200A02C878
:1003C000E1EE101A25490A6810607047EFF31080BB
:1003D00072B6704780F31088704721484FF6FF715E
:1003E0000170002080F309881E48016881F30888A5
:1003F0001D48012101701D484FF08051016062B617
:10040000FEE71A484FF080510160704717484FF0DF
:1004100080510160704772B6EFF3098028B120382F
:1004200080E8F00F0C490968086000B51048804763
:100430005DF804EB0F4810490A7802700648074936
:100440000A680260106890E8F00F203080F3098895
:100450004EF0F40E62B67047CC010020D4010020AB
:1004600022ED00E008020020B301002004ED00E0CE
:10047000C9800108B0010020B101002081FB0020EB
:10048000704701464FF0000081EAE170A0EBE17097
:10049000704700002DE9F04F82B001904FF00074DA
:1004A0004FF000784FF000054FF0000952F804CBF0
:1004B00052F804EB0868CB6DC0FB0C45D1F8800006
:1004C000CEF1000EC3FB0E45D1F8DC30C0FB0C8929
:1004D000C3FB0E8952F804CB52F804EB48688B6DCD
:1004E000C0FB0C45D1F88400CEF1000EC3FB0E45D5
:1004F000D1F8D830C0FB0C89C3FB0E8952F804CB6D
:1005000052F804EB88684B6DC0FB0C45D1F88800AD
:10051000CEF1000EC3FB0E45D1F8D430C0FB0C89E0
:10052000C3FB0E8952F804CB52F804EBC8680B6D7C
:10053000C0FB0C45D1F88C00CEF1000EC3FB0E457C
:10054000D1F8D030C0FB0C89C3FB0E8952F804CB24
:1005500052F804EB0869CB6CC0FB0C45D1F8900055
:10056000CEF1000EC3FB0E45D1F8CC30C0FB0C8998
:10057000C3FB0E8952F804CB52F804EB48698B6C2C
:10058000C0FB0C45D1F89400CEF1000EC3FB0E4524
:10059000D1F8C830C0FB0C89C3FB0E8952F804CBDC
:1005A00052F804EB88694B6CC0FB0C45D1F89800FD
:1005B000CEF1000EC3FB0E45D1F8C430C0FB0C8950
:1005C000C3FB0E8952F804CB52F804EBC8690B6CDC
:1005D000C0FB0C45D1F89C00CEF1000EC3FB0E45CC
:1005E000D1F8C030C0FB0C89C3FB0E8901984FF4D1
:1005F000FE4E4EF0FF0E4FEA946444EA85144FEA33
:10060000E47CBCEBE43F18BF8CEA0E044FEA986828
:1006100048EA89184FEAE87CBCEBE83F18BF8CEA4F
:100620000E080480A0F8028002F5707201F5805176
:100630004FF000744FF000784FF000054FF00009C4
:1006400052F804CB0868D1F88030C0FB0C45C3FBDE
:100650000C8952F804CB4868D1F88430C0FB0C45B3
:10066000C3FB0C8952F804CB8868D1F88830C0FBF2
:100670000C45C3FB0C8952F804CBC868D1F88C3008
:10068000C0FB0C45C3FB0C8952F804CB0869D1F8B8
:100690009030C0FB0C45C3FB0C8952F804CB486971
:1006A000D1F89430C0FB0C45C3FB0C8952F804CB45
:1006B0008869D1F89830C0FB0C45C3FB0C8952F80F
:1006C00004CBC869D1F89C30C0FB0C45C3FB0C8936
:1006D00001984FF4FE4E4EF0FF0E4FEA946444EA48
:1006E00085144FEAE47CBCEBE43F18BF8CEA0E04AF
:1006F0004FEA986848EA89184FEAE87CBCEBE83F83
:1007000018BF8CEA0E08A0F84040A0F84280A2F57D
:100710007872A1F570614FF00F0C00F10400CDF874
:1007200000C001904FF000744FF000784FF0007659
:100730004FF0007A4FF000054FF000094FF000072E
:100740004FF0000B52F804CB52F804EB0868CB6D65
:10075000C0FB0C45C0FB0E67CEF1000EC3FB0C675F
:10076000C3FB0E45D1F8DC30D1F88000C3FB0E8905
:10077000C3FB0CABCEF1000EC0FB0C89C0FB0EAB73
:1007800052F804CB52F804EB48688B6DC0FB0C4563
:10079000C0FB0E67CEF1000EC3FB0C67C3FB0E451A
:1007A000D1F8D830D1F88400C3FB0E89C3FB0CAB61
:1007B000CEF1000EC0FB0C89C0FB0EAB52F804CB8F
:1007C00052F804EB88684B6DC0FB0C45C0FB0E670C
:1007D000CEF1000EC3FB0C67C3FB0E45D1F8D4303D
:1007E000D1F88800C3FB0E89C3FB0CABCEF1000E21
:1007F000C0FB0C89C0FB0EAB52F804CB52F804EBE3
:10080000C8680B6DC0FB0C45C0FB0E67CEF1000E37
:10081000C3FB0C67C3FB0E45D1F8D030D1F88C0078
:10082000C3FB0E89C3FB0CABCEF1000EC0FB0C89E1
:10083000C0FB0EAB52F804CB52F804EB0869CB6C4A
:10084000C0FB0C45C0FB0E67CEF1000EC3FB0C676E
:10085000C3FB0E45D1F8CC30D1F89000C3FB0E8914
:10086000C3FB0CABCEF1000EC0FB0C89C0FB0EAB82
:1008700052F804CB52F804EB48698B6CC0FB0C4572
:10088000C0FB0E67CEF1000EC3FB0C67C3FB0E4529
:10089000D1F8C830D1F89400C3FB0E89C3FB0CAB70
:1008A000CEF1000EC0FB0C89C0FB0EAB52F804CB9E
:1008B00052F804EB88694B6CC0FB0C45C0FB0E671B
:1008C000CEF1000EC3FB0C67C3FB0E45D1F8C4305C
:1008D000D1F89800C3FB0E89C3FB0CABCEF1000E20
:1008E000C0FB0C89C0FB0EAB52F804CB52F804EBF2
:1008F000C8690B6CC0FB0C45C0FB0E67CEF1000E47
:10090000C3FB0C67C3FB0E45D1F8C030D1F89C0087
:10091000C3FB0E89C3FB0CABCEF1000EC0FB0C89F0
:10092000C0FB0EAB01F5807101984FF4FE4E4EF006
:10093000FF0E4FEA946444EA85144FEAE47CBCEB72
:10094000E43F18BF8CEA0E044FEA986848EA891819
:100950004FEAE87CBCEBE83F18BF8CEA0E084FEA90
:10096000966646EA87164FEAE67CBCEBE63F18BF80
:100970008CEA0E064FEA9A6A4AEA8B1A4FEAEA7C38
:10098000BCEBEA3F18BF8CEA0E0ADDF800C000EBB2
:10099000CC0E2EF8026B2EF802AB20F8024B20F89A
:1009A000028BBCF1010C7FF4BAAE02B0BDE8F08F4F
:1009B0002DE9F04F82B001904FF000744FF0000528
:1009C00052F804CB52F804EB0868CB6DCEF1000E60
:1009D000C0FB0C45C3FB0E4552F804CB52F804EBA8
:1009E00048688B6DCEF1000EC0FB0C45C3FB0E4575
:1009F00052F804CB52F804EB88684B6DCEF1000E30
:100A0000C0FB0C45C3FB0E4552F804CB52F804EB77
:100A1000C8680B6DCEF1000EC0FB0C45C3FB0E4544
:100A200052F804CB52F804EB0869CB6CCEF1000EFF
:100A3000C0FB0C45C3FB0E4552F804CB52F804EB47
:100A400048698B6CCEF1000EC0FB0C45C3FB0E4514
:100A500052F804CB52F804EB88694B6CCEF1000ECF
:100A6000C0FB0C45C3FB0E4552F804CB52F804EB17
:100A7000C8690B6CCEF1000EC0FB0C45C3FB0E45E4
:100A800001984FF4FE4E4EF0FF0E4FEA946444EA94
:100A900085144FEAE47CBCEBE43F18BF8CEA0E04FB
:100AA000048002F5707201F580514FF000744FF030
:100AB000000552F804CB0868C0FB0C4552F804CB83
:100AC0004868C0FB0C4552F804CB8868C0FB0C4555
:100AD00052F804CBC868C0FB0C4552F804CB086937
:100AE000C0FB0C4552F804CB4869C0FB0C4552F8DA
:100AF00004CB8869C0FB0C4552F804CBC869C0FB25
:100B00000C4501984FF4FE4E4EF0FF0E4FEA9464F0
:100B100044EA85144FEAE47CBCEBE43F18BF8CEA5E
:100B20000E040484A2F57872A1F570614FF00F0CE9
:100B300000F10200CDF800C001904FF000744FF0BA
:100B400000764FF000054FF0000752F804CB52F842
:100B500004EB0868CB6DC0FB0C45C0FB0E67CEF103
:100B6000000EC3FB0E45C3FB0C6752F804CB52F8D2
:100B700004EB48688B6DC0FB0C45C0FB0E67CEF1E3
:100B8000000EC3FB0E45C3FB0C6752F804CB52F8B2
:100B900004EB88684B6DC0FB0C45C0FB0E67CEF1C3
:100BA000000EC3FB0E45C3FB0C6752F804CB52F892
:100BB00004EBC8680B6DC0FB0C45C0FB0E67CEF1A3
:100BC000000EC3FB0E45C3FB0C6752F804CB52F872
:100BD00004EB0869CB6CC0FB0C45C0FB0E67CEF183
:100BE000000EC3FB0E45C3FB0C6752F804CB52F852
:100BF00004EB48698B6CC0FB0C45C0FB0E67CEF163
:100C0000000EC3FB0E45C3FB0C6752F804CB52F831
:100C100004EB88694B6CC0FB0C45C0FB0E67CEF142
:100C2000000EC3FB0E45C3FB0C6752F804CB52F811
:100C300004EBC8690B6CC0FB0C45C0FB0E67CEF122
:100C4000000EC3FB0E45C3FB0C6701F580710198D4
:100C50004FF4FE4E4EF0FF0E4FEA946444EA8514C2
:100C60004FEAE47CBCEBE43F18BF8CEA0E044FEA89
:100C7000966646EA87164FEAE67CBCEBE63F18BF6D
:100C80008CEA0E06DDF800C000EB8C0E2EF8026B2D
:100C900020F8024BBCF1010C7FF44CAF02B0BDE870
:100CA000F08F00002DE9FE4F8446D0F800E0DCF81C
:100CB00004B00EF1BC0292E80C040CF11C0696E89C
:100CC000C003BBEB0A0ACEF8C4A0CEF8C8B00BFB39
:100CD00006F00AFB070003FB080002FB0900C8BF7F
:100CE0006FF0000AB8BF4FF0010ABBF1000FC8BF98
:100CF0006FF0000BB8BF4FF0010BCEF844A0CEF858
:100D000048B0DCF80C60DCF810700EF1980292E844
:100D10001C04C6EB4616A7EB661BCCF80C700CF156
:100D20003C0595E8E003BBEB0A0ACEF8A4A0CEF898
:100D3000A8B00BFB05F10AFB061104FB071103FB2E
:100D4000081102FB0911C8BF6FF0000AB8BF4FF0CD
:100D5000010ABBF1000FC8BF6FF0000BB8BF4FF026
:100D6000010BCEF824A0CEF828B0009A00EB610069
:100D7000DCF818401368C4EB441403EBA021CCF852
:100D8000041001EB6411CCF8181042F8041B009217
:100D9000002B39D00EF118021CCA1EDBA5EB0B0587
:100DA000A6EB0A06A9EB0209A8EB0308A7EB0407C8
:100DB0000CF13C0080E8E0030CF11C0191E83C00E0
:100DC0000EF13C0696E8C003A5EB0605A4EB07046C
:100DD000A3EB0803A2EB090214E05D4456449144DE
:100DE000984427440CF13C0080E8E0030CF11C011E
:100DF00091E83C000EF13C0696E8C00335443C44C3
:100E000043444A4481E83C00DCF808B00EF17C021F
:100E100092E80C040CF12C0696E8C003BBEB0A0A1E
:100E2000CEF884A0CEF888B00BFB06F00AFB0700D2
:100E300003FB080002FB0900C8BF6FF0000AB8BF3F
:100E40004FF0010ABBF1000FC8BF6FF0000BB8BF35
:100E50004FF0010BCEF834A0CEF838B0DCF81460B7
:100E6000DCF818700EF1580292E81C04C6EB461626
:100E7000A7EB661BCCF814700CF1500595E8E00365
:100E8000BBEB0A0ACEF864A0CEF868B00BFB05F104
:100E90000AFB061104FB071103FB081102FB0911F1
:100EA000C8BF6FF0000AB8BF4FF0010ABBF1000FD6
:100EB000C8BF6FF0000BB8BF4FF0010BCEF810A009
:100EC000CEF814B0019A00EB6100DCF81040136812
:100ED000C4EB441403EBA021CCF8081001EB64111F
:100EE000CCF8101042F8041B0192002B39D00EF1FF
:100EF00004021CCA1EDBA5EB0B05A6EB0A06A9EB38
:100F00000209A8EB0308A7EB04070CF1500080E8E6
:100F1000E0030CF12C0191E83C000EF12C0696E860
:100F2000C003A5EB0605A4EB0704A3EB0803A2EBA3
:100F3000090214E05D4456449144984427440CF15E
:100F4000500080E8E0030CF12C0191E83C000EF128
:100F50002C0696E8C00335443C4443444A4481E8A7
:100F60003C000EF1040E0CF1640BAEF5006A029821
:100F7000DA4509D0401E18BF02907FF498AECCF835
:100F800000E003B0BDE8F08FBEE8FF03ABE8FF036D
:100F9000BEE8FF03ABE8FF03BEE8FF03ABE8FF03D7
:100FA000BEE8FF03ABE8FF03BEE8FF03ABE8FF03C7
:100FB00002980CF1640E401E18BF02907FF477AEC9
:100FC000DDE72DE9F64F8446D0F800E0DCF804B008
:100FD0000EF1BC0292E80C040CF11C0595E8C0036C
:100FE000BBEB0A0ACEF8C4A0CEF8C8B00BFB06F0E3
:100FF0000AFB070003FB080002FB0900C8BF6FF0F3
:10100000000AB8BF4FF0010ABBF1000FC8BF6FF074
:10101000000BB8BF4FF0010BCEF844A0CEF848B09B
:10102000009ADCF818401368C4EB441403EBA021C9
:10103000CCF8041001EB6411CCF8181042F8041B32
:101040000092002B13D0DEF83C20DEF8403008DBA5
:10105000A6EB0B06A7EB0A07A9EB0209A8EB03080E
:1010600003E05E4457449144984485E8C0030EF180
:10107000040E0CF1640BAEF5006A0198DA4508D055
:10108000401E18BF0190A1D1CCF800E002B0BDE82D
:10109000F08FBEE8FF03ABE8FF03BEE8FF03ABE859
:1010A000FF03BEE8FF03ABE8FF03BEE8FF03ABE8C6
:1010B000FF03BEE8FF03ABE8FF0301980CF1640EE9
:1010C000401E18BF019081D1DEE7000010B5FF4837
:1010D000006820F011FFFE48006820F00DFFFD4879
:1010E000006820F009FFFC48006820F005FFFB487D
:1010F000006820F001FFFA48006820F0FDFEF94882
:10110000006820F0F9FE10BD10B500244FF4007007
:1011100020F0F6FEED4908600846006800B9012499
:101120004FF4007020F0ECFEE949086008460068C2
:1011300000B901244FF4007020F0E2FEE549086098
:101140000846006800B90124A02020F0D9FEE24939
:1011500008600846006800B90124402020F0D0FE55
:10116000DE4908600846006800B90124402020F0EC
:10117000C7FEDB4908600846006800B901244FF447
:10118000F87020F0BDFED74908600846006800B935
:1011900001240CB1FFF79AFF204610BD2DE9F0475E
:1011A00004460D461646701B00EBD07105EB610935
:1011B00054F8397004EBC90148684EF082FB804650
:1011C00054F8350044F8390004EBC500406804EBDE
:1011D000C9014860A94605F1010A1DE054F83A002A
:1011E00039464EF0ADFB15D854F83A0044F83900B2
:1011F00004EBCA00406804EBC901486009F1010929
:1012000054F8390044F83A0004EBC900406804EB94
:10121000CA0148600AF1010AB245DFDDA9EB050009
:10122000012805DDA9F1010229462046FFF7B6FF96
:10123000A6EB0900012805DD324609F1010120462F
:10124000FFF7ACFF44F8397040464EF041FB04EB29
:10125000C9014860BDE8F0872DE9F84F04460D4606
:1012600016461F464FF0000828E04FF0000920E026
:101270004FF0000BDA4612E00B9A0AFB029255F887
:1012800022100A9A08FB02A254F822004EF070FBCA
:10129000594600904EF0F7FA83460AF1010A0A987F
:1012A0008245E9DB0B9808FB009046F820B009F175
:1012B00001090B988145DBDB08F10108B845D4DB57
:1012C000BDE8F88F024612B909B900207047002A1C
:1012D00002DD09B90020F9E7002903DD8A4201DDBA
:1012E0000120F3E7002A03DD914201D10220EDE75E
:1012F000002A03DD8A4201DA0320E7E71AB9002950
:1013000001DD0420E2E7002A08DA101E01DB0346B3
:1013100000E043428B4201DA0520D7E7002A08DAD1
:10132000101E01DB034600E043428B4201D1062040
:10133000CCE7002A0ADA101E01DB034600E0434234
:101340008B4203DD002901DD0720BFE719B9002A20
:1013500001DA0820BAE7002903DA914201DD092009
:10136000B4E7002A03DA914201D10A20AEE7002A4D
:1013700003DA914201DA0B20A8E71AB9002901DA51
:101380000C20A3E700290ADA081E01DB034600E06F
:101390004342934203DD002A01DD0D2096E7002938
:1013A00008DA081E01DB034600E04342934201D104
:1013B0000E208BE7002908DA081E01DB034600E057
:1013C0004342934201DA0F2080E700207EE730B5E8
:1013D000034601B10AB9002030BD412901D0412A9C
:1013E00001D10020F8E7491E521E03EBC20000EBBA
:1013F000E100047801F007050120A840044201D073
:101400000120E9E70020E7E72DE9FE4F04460D46FD
:1014100016461F4600200190781C820000213248A9
:1014200020F072FD781C82000021304820F06CFD15
:101430004FF0000819E04FF0000912E004EBC8007B
:1014400000EBE900017809F0070201209040014219
:1014500005D04FF07E5101984EF015FA019009F138
:101460000109B145EADB08F10108A845E3DB38468C
:101470004EF02EFA8246014601984EF019FA01907C
:101480000120029049E04FF0000AD0463AE04FF0C8
:10149000000912E004EBC90000EBE800017808F055
:1014A000070201209040014205D04FF07E51504686
:1014B0004EF0E9F9824609F10109A945EADB0298F3
:1014C0004EF006FA0090019912E00000A4060020F8
:1014D000A8060020AC060020B0060020B4060020BC
:1014E000B8060020BC060020CCE70220E0E702207E
:1014F0004EF03EFA834651464EF022FA00D804E000
:1015000008F10108701E4045C1DC00BFFD4802998A
:1015100040F821800298401C0290781C0299814278
:10152000B1DB0120029035E04FF0000AD14626E001
:101530004FF0000812E004EBC90000EBE80001786E
:1015400008F0070201209040014205D04FF07E5183
:1015500050464EF098F9824608F10108B045EADBA2
:1015600002984EF0B5F9009001994EF001FA8346C9
:1015700051464EF0E5F900D804E009F10109681E72
:101580004845D5DC00BFE049029841F82090029818
:10159000401C0290781C02998142C5DB0020029019
:1015A00032E0029991FBF7F1D74A52F821200299D3
:1015B00091FBF7F1491CD44B53F82110501800EB64
:1015C000D0714910D14A1268029B42F82310029947
:1015D00091FBF7F207FB1211CA4A52F82120029937
:1015E00091FBF7F307FB1311491CC64B53F821106D
:1015F000501800EBD0714910C54A1268029B42F89E
:1016000023100298401C029007FB07F002998842C1
:10161000C7DCBDE8FE8F2DE9F34F8FB0402440209A
:101620000A901025AA000021B948006820F06CFC3F
:10163000AA000021B548006820F066FC042321467A
:101640000A9A0F98FFF7E0FEE2000021B148006817
:1016500020F05AFC00200B9060E3AC4801680B9826
:1016600051F820000290AA4801680B9851F8200018
:10167000019002980830402801DD402001E00298E6
:101680000830089001980830402801DD402001E032
:101690000198083006900298083801D5002001E032
:1016A0000298083809900198083801D5002001E017
:1016B00001980838079009980E9027E307980D9035
:1016C0001CE3DDE90D120F98FFF781FE8146DDE98D
:1016D0000D12491C0F98FFF77AFE022101FB0099B9
:1016E000DDE90D12891C0F98FFF771FE81440E9AF7
:1016F000921C0D990F98FFF76AFEA9EB00090E9A4C
:10170000921C0D99491C0F98FFF761FE022101FB05
:1017100010990E9A921C0D99891C0F98FFF757FE8D
:10172000A9EB000007B2DDE90D12891C0F98FFF745
:101730004EFE81460E9A521C0D99891C0F98FFF798
:1017400046FE022101FB00990E9A921C0D99891CFC
:101750000F98FFF73CFE8144DDE90D120F98FFF76B
:1017600036FEA9EB00090E9A521C0D990F98FFF74F
:101770002EFE022101FB10990E9A921C0D990F98D2
:10178000FFF725FEA9EB00000FFA80F8002F02DB1F
:10179000B8F1000F00DA00BF41463846FFF792FD6E
:1017A0000390039841100B9801FB05060398401C19
:1017B00040100B9900FB0510059002990E98401AF5
:1017C000083000EB0010019A0D99891A084408307E
:1017D000514951F820000490039810281CD2DFE8EA
:1017E00000F0081C4A629FB3F2F0EFEEEDECEBEA7A
:1017F000E9E838464EF06CF8824604994EF0B8F8A5
:1018000081464448006850F8261048464EF03BF8A0
:101810004049096841F826006CE2A7EB08004EF049
:1018200057F8824604994EF0A3F88146394800687B
:1018300050F8261048464EF026F83649096841F817
:10184000260040464EF044F8834634494EF090F866
:10185000824604994EF08CF881462E48026805981D
:1018600052F8201048464EF00EF82A490968059AA9
:1018700041F822003EE240464EF02AF883462749CE
:101880004EF076F8824604994EF072F8814621486F
:10189000006850F8261048464DF0F5FF1D490968CC
:1018A00041F8260026E238464EF012F883461B49DE
:1018B0004EF05EF8824604994EF05AF8814615487B
:1018C000006850F8261048464DF0DDFF11490968C0
:1018D00041F82600A8EB07004DF0FAFF8246049974
:1018E0004EF046F881460B480268059852F82010E1
:1018F00048464DF0C8FF07490A68059942F821009B
:10190000F8E10000CCE70220E0E70220B806002062
:10191000B4060020A8060020E0870608F704B53FBB
:1019200040464DF0D5FF824604994EF021F881469D
:10193000FE48006850F8261048464DF0A4FFFB49C9
:10194000096841F82600D5E107EB08004DF0C0FF1B
:10195000824604994EF00CF88146F448006850F82D
:10196000261048464DF08FFFF049096841F82600DF
:10197000B7F1000901DB494601E0C9F10001084661
:101980004DF0A6FFEA4900904DF0F2FF834604991E
:101990004DF0EEFF8246E5480068059A50F82210A7
:1019A00050464DF070FFE1490968059A41F8220060
:1019B000A0E166E14DE111E1F5E0BFE09FE069E003
:1019C0004DE018E0FFE740464DF082FF8346D849DE
:1019D0004DF0CEFF824604994DF0CAFF8146D348B0
:1019E000006850F8261048464DF04DFFCF49096871
:1019F00041F826007EE140464DF06AFF8346CC491F
:101A00004DF0B6FF824604994DF0B2FF8146C748BB
:101A1000006850F8261048464DF035FFC349096864
:101A200041F8260017EB080901D4494601E0C9F145
:101A3000000108464DF04CFF834604994DF098FF95
:101A40008246BA480068059A50F8221050464DF078
:101A50001AFFB6490968059A41F822004AE1B7F130
:101A6000000901DB494601E0C9F1000108464DF0DB
:101A70002FFF834604994DF07BFF8246AB480068F8
:101A800050F8261050464DF0FEFEA849096841F86E
:101A900026002FE1A8EB07004DF01AFF82460499BB
:101AA0004DF066FF8146A148006850F82610484670
:101AB0004DF0E9FE9D49096841F82600B8F100099A
:101AC00001DB494601E0C9F1000108464DF000FF85
:101AD000974900904DF04CFF834604994DF048FF24
:101AE000824692480068059A50F8221050464DF000
:101AF000CAFE8E490A68059942F82100FAE0B8F159
:101B0000000901DB494601E0C9F1000108464DF03A
:101B1000DFFE874900904DF02BFF834604994DF07E
:101B200027FF82468148006850F8261050464DF045
:101B3000AAFE7E49096841F82600DBE0B7F10009FA
:101B400001DB494601E0C9F1000108464DF0C0FE45
:101B5000774900904DF00CFF834604994DF008FF43
:101B600082467248006850F8261050464DF08BFEB1
:101B70006E49096841F82600A7EB08004DF0A8FE61
:101B8000824604994DF0F4FE814668480268059843
:101B900052F8201048464DF076FE64490A680599CF
:101BA00042F82100A6E0B8F1000901DB494601E056
:101BB000C9F1000108464DF08BFE834604994DF0B3
:101BC000D7FE82465948006850F8261050464DF01E
:101BD0005AFE5649096841F826008BE017EB0809C0
:101BE00001D4494601E0C9F1000108464DF070FEFC
:101BF000834604994DF0BCFE82464C48006850F87C
:101C0000261050464DF03FFE4849096841F826002D
:101C1000B7F1000901DB494601E0C9F100010846BE
:101C20004DF056FE424900904DF0A2FE83460499C5
:101C30004DF09EFE82463D480068059A50F82210FD
:101C400050464DF020FE39490A68059942F82100B6
:101C500050E038464DF03CFE834635494DF088FE55
:101C6000824604994DF084FE81463048006850F861
:101C7000261048464DF007FE2C49096841F8260019
:101C800038E0B8F1000901DB494601E0C9F1000183
:101C900008464DF01DFE264900904DF069FE834632
:101CA00004994DF065FE82462048006850F82610E1
:101CB00050464DF0E8FD1D49096841F8260017EB34
:101CC000080901D4494601E0C9F1000108464DF078
:101CD000FFFD834604994DF04BFE82461348006891
:101CE00050F8261050464DF0CEFD1049096841F8D5
:101CF000260000BF00BF0D98401C0D9006990D985E
:101D000088427FF7DEAC0E98401C0E9008990E9822
:101D100088427FF7D3AC0B98401C0B900B98A842DD
:101D20007FF49BAC00200B901FE00000A806002071
:101D3000F704B53F00200C9011E0DDE90B0101FB39
:101D40000506FF49096851F82600FE493AF0C8FA2D
:101D5000FD49096841F826000C98401C0C900C982D
:101D60000828EADB0B98401C0B900B981028E1DB4D
:101D700011B0BDE8F08F2DE9FF4F8BB004460D4642
:101D80001E46199F0020079090E2079805EB8000FF
:101D90000088ADF82800079805EB80004088ADF872
:101DA0002A000798401C05EB80000088ADF824004D
:101DB0000798401C05EB80004088ADF82600BDF96F
:101DC0002800BDF92410884272D1BDF92A0008907C
:101DD00067E0002E41D04FF0FF383AE04FF0FF307F
:101DE000069031E0089810EB08002AD4089800EB20
:101DF00008011898814224DABDF928000699401894
:101E00001FD4BDF9281006980844B84219DABDF964
:101E100028100698084405900898404404EBC00038
:101E2000059900EBE100007801F0070201219140E3
:101E300008430899414404EBC101059A01EBE20112
:101E400008700698401C069006980228CAD108F12E
:101E50000108B8F1020FC1D116E0BDF928000590C4
:101E6000089804EBC001059801EBE00000780599A3
:101E700001F00702012191400843089904EBC102D7
:101E8000059902EBE1010870BDF92600BDF92A10A1
:101E9000884203DD0898401C089002E00898401E24
:101EA0000890BDF926100898814292D1FBE1FFE726
:101EB000BDF92A00BDF92610884275D1BDF9280068
:101EC00008906AE0002E42D04FF0FF383BE04FF020
:101ED000FF30069032E00699089840182BD40699F6
:101EE000089808441899884225DABDF92A0010EBB1
:101EF000080020D4BDF92A004044B8421BDA0699F4
:101F0000089808440590BDF92A00404404EBC0013C
:101F1000059801EBE0000078059901F00702012126
:101F200091400843BDF92A10414404EBC1020599D0
:101F300002EBE10108700698401C06900698022802
:101F4000C9D108F10108B8F1020FC0D118E0089812
:101F50000590BDF92A0004EBC001059801EBE000F3
:101F60000178059800F00702012090400143C8B2B3
:101F7000BDF92A1004EBC101059A01EBE2010870DA
:101F8000BDF92400BDF92810884203DD0898401CE3
:101F9000089002E00898401E0890BDF924100898A7
:101FA00081428FD17FE1FFE7BDF92410BDF92820E0
:101FB000881A4DF08DFC8246BDF92610BDF92A2005
:101FC000881A4DF085FC834651464DF071FC8146E0
:101FD0004DF02EFCCDE9020121F00041CDE90001D8
:101FE0005AA00CC800984DF0F1F813D2BDF9241096
:101FF000BDF92820881A4DF06BFC8146BDF92610EA
:10200000BDF92A20881A4DF063FC824649464DF0FE
:102010004FFC12E0BDF92610BDF92A20881A4DF0B8
:1020200057FC8146BDF92410BDF92820881A4DF0CF
:102030004FFC824649464DF03BFC0490BDF92420FC
:10204000BDF92830D01ABDF92620BDF92A30D11AA1
:1020500001D40B4600E04B42002801DB024600E0C1
:10206000424293426BDA002008907EE008984DF0DF
:102070002FFC039004994DF07BFC83464DF021FC2E
:10208000BDF92A1000EB0109BDF92800089900EB01
:10209000010A002E3CD04FF0FF3835E04FF0FF3002
:1020A00006902CE019EB080026D409EB08001899DB
:1020B000884221DA06981AEB00001DD40698504495
:1020C000B84219DA0AF10100059009EB080004EBA7
:1020D000C000059900EBE1000178059800F00702C7
:1020E000012090400143C8B209EB080104EBC10193
:1020F000059A01EBE20108700698401C06900698CC
:102100000228CFD108F10108B8F1020FC6D113E0BF
:10211000CDF814A004EBC900DDF814A000EBEA0030
:1021200001780AF00702012090400143C8B204EB95
:10213000C90101EBEA010870BDF924000AE01EE0C4
:10214000A806002085EBD13EAC0600200000000070
:102150000000F03FBDF92810884203DD0898401CBC
:10216000089002E00898401E0890BDF92400BDF9CF
:102170002810401A089988427FF478AF92E0BDF9A0
:102180002420BDF92830D01ABDF92620BDF92A3007
:10219000D11A01D40B4600E04B42002801DB024675
:1021A00000E0424293427DDB0020089072E0BDF9DE
:1021B0002A10089801EB000908984DF089FB03905C
:1021C00004994DF0D5FB83464DF07BFBBDF92810FB
:1021D00000EB010A002E3CD04FF0FF3835E04FF005
:1021E000FF3006902CE019EB080026D409EB08011B
:1021F0001898814221DA06981AEB00001DD406983F
:102200005044B84219DA06985044059009EB08008A
:1022100004EBC000059900EBE1000178059800F09F
:102220000702012090400143C8B209EB080104EB0A
:10223000C101059A01EBE20108700698401C069066
:1022400006980228CFD108F10108B8F1020FC6D1D3
:1022500013E0CDF814A004EBC900DDF814A000EBE6
:10226000EA0001780AF00702012090400143C8B259
:1022700004EBC90101EBEA010870BDF92600BDF9C4
:102280002A10884203DD0898401C089002E0089854
:10229000401E0890BDF92600BDF92A10411A089881
:1022A000814284D100BF0798401C07900D98411EC1
:1022B000079881427FF469AD0FB0BDE8F08F2DE93A
:1022C000F04F099C15464FF0FF360F46B4464FF0CD
:1022D000000935E000EB890ABAF902A0BA4504DA30
:1022E00000EB890ABAF902A000E0BA46574600EBB3
:1022F000890ABAF900A0AA4504DA00EB890ABAF9FA
:1023000000A000E0AA46554600EB890ABAF902A0EF
:10231000E24504DD00EB890ABAF902A000E0E246DA
:10232000D44600EB890ABAF900A0B24504DD00EBFF
:10233000890ABAF900A000E0B246564609F101093F
:10234000DDF828A0D145C5DBACEB070A0AF1010A8C
:1023500093FBFAFA0AF1010EA6EB050A0AF1010A4B
:1023600094FBFAFA0AF101084FF000092BE000EBA8
:10237000890ABAF902A0AAEB070A0AFB03FAACEB36
:10238000070B0BF1010B9AFBFBFAF2440FFA8AFAE6
:1023900000EB890BABF802A000EB890ABAF900A0A8
:1023A000AAEB050A0AFB04FAA6EB050B0BF1010BDD
:1023B0009AFBFBFAC2440FFA8AFA00EB890BABF8DE
:1023C00000A009F10109DDF828A0D145CFDBBDE867
:1023D000F08F2DE9FF4784B014461D46BDF910006B
:1023E000BDF91410884223D1002619E0BDF8100071
:1023F000296804EB81010880BDF81200304400B266
:10240000296804EB810148802868401C2860BDF9D8
:102410001600BDF91210884201DD761C00E0761E20
:10242000BDF91600BDF91210401AB042DED1E9E044
:10243000BDF91200BDF91610884223D1002619E01B
:10244000BDF81200296804EB81014880BDF8100036
:10245000304400B2296804EB810108802868401CE0
:102460002860BDF91400BDF91010884201DD761C0A
:1024700000E0761EBDF91400BDF91010401AB042FC
:10248000DED1BFE0BDF91410BDF91020881A4DF05F
:102490001FFA8146BDF91610BDF91220881A4DF0B9
:1024A00017FA824649464DF003FA80464DF0C0F9CE
:1024B000CDE9020121F00041CDE90001AFF2743015
:1024C0000CC800984CF082FE13D2BDF91410BDF96F
:1024D0001020881A4DF0FCF98046BDF91610BDF9A0
:1024E0001220881A4DF0F4F9814641464DF0E0F98A
:1024F00012E0BDF91610BDF91220881A4DF0E8F966
:102500008046BDF91410BDF91020881A4DF0E0F98D
:10251000814641464DF0CCF90746BDF91420BDF97E
:102520001030D01ABDF91620BDF91230D11A01D4DD
:102530000B4600E04B42002801DB024600E042422D
:1025400093422FDC002625E0BDF81000304400B295
:10255000296804EB8101088030464DF0B9F98146C5
:1025600039464DF005FA80464DF0ABF9BDF8121032
:10257000084400B2296804EB810148802868401CA7
:102580002860BDF91400BDF91010884201DD761CE9
:1025900000E0761EBDF91400BDF91010401AB042DB
:1025A000D2D12EE0002625E0BDF81200304400B262
:1025B000296804EB8101488030464DF089F9814655
:1025C00039464DF0D5F980464DF07BF9BDF8101035
:1025D000084400B2296804EB810108802868401C87
:1025E0002860BDF91600BDF91210884201DD761C85
:1025F00000E0761EBDF91600BDF91210401AB04277
:10260000D2D100BF08B0BDE8F0872DE9F84F0446ED
:102610000D461646701E00EBD0714FEA6109A5EB1E
:1026200009000090CA46A8001FF06AFC8346AA0071
:102630002146584606F0C8FBB54205DB06EBD671CD
:102640004910B6EB410101D1BDE8F88F4F463CE09F
:10265000002004EB8701088004EB87014880CAF161
:1026600000081BE004EB8700008807EB08010BEB78
:1026700081010988084400B204EB8701088004EB5B
:102680008700408807EB08010BEB8101498808446B
:1026900000B204EB8701488008F10108D045E1DD74
:1026A00004EB8700B0F9000090FBF6F000B204EBF9
:1026B0008701088004EB8700B0F9020090FBF6F078
:1026C00000B204EB870148807F1C00988742BFDB83
:1026D00058461FF011FCB7E72DE9FF4F91B00446B3
:1026E0000D461E9E0327802010900F9040200E90D4
:1026F0000D9000200B900A908146802009900520C3
:10270000049029462046049AFFF77FFF4FF0010A04
:1027100029E004EB8A01B1F90010AAF1010204EBEF
:102720008202B2F90020881A01D4014600E0414239
:10273000089104EB8A01B1F90210AAF1010204EB3D
:102740008202B2F90220881A01D4014600E0414217
:102750000791DDE90710884201DB089800E007983F
:1027600081440AF1010AAA45D3DB4FEA89001FF030
:10277000C7FB80464FEA8902002140461FF0C4FB98
:102780004FF0000A15E00AF1010004EB8001042279
:1027900003A806F019FB04EB8A01042202A806F044
:1027A00013FB0AAB4246DDE90201FFF712FE0AF114
:1027B000010A681E5045E6D14FEA8900B0FBF7F0E8
:1027C00003901FF09DFB0C904FEA8900B0FBF7F0DF
:1027D0000246002103900C981FF096FB4FF0000A70
:1027E00013E008EB8A000088DDE90B2101EB820190
:1027F000088008EB8A004088DDE90B2101EB8201AB
:1028000048800B98401C0B90BA44CA45E9DB40460F
:102810001FF072FB0B9B0E9ACDE90023DDE90C0340
:10282000DDE90F12FFF74BFD4FF400720021FD4868
:1028300000681FF069FBDDE90D23CDE900230123CA
:10284000F848DDE90B210068FFF795FA0C981FF0B6
:1028500053FBF44809990068FEF7DDFE2823099A26
:10286000CDE900230123F048F0490268F0480068F0
:10287000FEF7F2FC1498012806D0022809D003289C
:102880000CD0042814D10EE0002006900A200590F8
:1028900012E00A200690242005900DE024200690E6
:1028A0003E20059008E0002006903E20059003E0C1
:1028B000002015B0BDE8F08F00BF4FF4F872002182
:1028C000DC4800681FF020FB4FF0000A40E04FF0AA
:1028D000000B30E0069A524402EB8202D64B03EB27
:1028E000421252F82B10D04A126852F82B004DF0C9
:1028F00098F80290069A524402EB8202CE4B03EB08
:10290000421252F82B10C84A126852F82B004DF0B0
:1029100088F8019002994DF02BF80390C5480068A3
:1029200050F83A1003984CF0AEFFC249096841F8DC
:102930003A000BF1010BBBF1280FCBD150464CF004
:10294000C7FFBC49096801EBCA0148600AF1010AE6
:10295000DDE90501401A5045B9D1DDE90501401A0C
:10296000421E0021B3480068FEF718FC4FF0000A31
:102970000EE0B049096801EBCA0148684CF0A1FFBC
:1029800006990844AD49085C06F80A000AF1010AF4
:1029900013988245EDDB002006F80A00307888E7BE
:1029A0002DE9F84F04460D4616461F46DDF82880EF
:1029B0004FF000094FF6FF7AD346012D02DCC846DE
:1029C000BDE8F88F4FF000091CE004EB8900B0F976
:1029D000001009F1010004EB8000B0F90000814211
:1029E0000BD104EB8900B0F9021009F1010004EBEE
:1029F0008000B0F90200814200D006E009F1010038
:102A00001FFA80F9681E4845DFDC00BF681E484594
:102A100000D1D5E74FF0000919E004EB8900B0F9C7
:102A20000000504504DA04EB890000881FFA80FAA0
:102A300004EB8900B0F90200584504DA04EB890080
:102A400040881FFA80FB09F101001FFA80F9A945AF
:102A5000E3DB4FF0000915E004EB89000088A0EBF0
:102A60000A0000B204EB8901088004EB8900408869
:102A7000A0EB0B0000B204EB8901488009F10100D2
:102A80001FFA80F9A945E7DB3B4632462946204636
:102A9000CDF80080FFF720FE92E72DE9F84F4FF0C8
:102AA0000009C3F800900124EBE0A4F1010900EB58
:102AB0008909B9F9005000EB8409B9F900A0CDF8F3
:102AC00000A0A4F1010900EB8909B9F9026000EB4B
:102AD0008409B9F90270DDF800A0BAEB050901D448
:102AE000CA4601E0C9F1000AD446B7EB060901D491
:102AF000CA4601E0C9F1000AD646F44559DD4FF057
:102B0000000853E0DDF80090A9450ADD05EB08094F
:102B10000FFA89F9D3F800A002EB8A0AAAF800900C
:102B200009E0A5EB08090FFA89F9D3F800A002EB38
:102B30008A0AAAF80090B7421ADDD3F800A002EB87
:102B40008A0ABAF900A0BAEB050901D4CA4601E025
:102B5000C9F1000A0AFB0EFA9AFBFCFAB2440FFA1A
:102B60008AFAD3F800B002EB8B0BABF802A01AE0A4
:102B7000D3F800A002EB8A0ABAF900A0BAEB050963
:102B800001D4CA4601E0C9F1000A0AFB0EFA9AFB19
:102B9000FCFAA6EB0A0A0FFA8AFAD3F800B002EBA5
:102BA0008B0BABF802A01B1D08F10108E045A9DB67
:102BB00066E04FF0000861E0B7420ADD06EB080965
:102BC0000FFA89F9D3F800A002EB8A0AAAF802905A
:102BD00009E0A6EB08090FFA89F9D3F800A002EB87
:102BE0008A0AAAF80290DDF80090A94528DDD3F8FA
:102BF00000A002EB8A0ABAF902A0BAEB060901D4D6
:102C0000CA4601E0C9F1000A0AFB0CFA9AFBFEFA77
:102C1000AA440FFA8AFAD3F800B002EB8B0BABF898
:102C200000A028E0A4060020B0060020A491060819
:102C3000AC060020BC060020A4E1060864080708D2
:102C4000D3F800A002EB8A0ABAF902A0BAEB06098F
:102C500001D4CA4601E0C9F1000A0AFB0CFA9AFB4A
:102C6000FEFAA5EB0A0A0FFA8AFAD3F800B002EBD3
:102C70008B0BABF800A01B1D08F10108F0459BDB96
:102C8000641C8C42FFF611AFBDE8F88FFE4880ED62
:102C90003A0A70472DE9F047DFF8EC9300262DED56
:102CA0000A8B0446B0EE408AF0EE608A88463546CC
:102CB0003746D9F8AC004CF05EFA53EC182B4CF0C8
:102CC00085FA6FD3D9F8B0004CF055FA53EC182BB5
:102CD0004CF0B6FBF5D3B4F90000B4F90610401A75
:102CE0004CF049FA53EC182B4CF070FA00D2012644
:102CF000B4F90E00B4F91410401A4CF03CFA53EC3D
:102D0000182B4CF063FA00D2761CB4F91C00B4F90D
:102D10002210401A4CF02FFA53EC182B4CF056FAB4
:102D200000D2761C9FEDD90B012E3BDC53EC102B0F
:102D300051EC180B4CF086FA8946064649EC180B04
:102D4000B4F90000B4F90610401A4CF014FA53EC30
:102D5000182B4CF075FB00D20125B4F90E00B4F924
:102D6000141049EC186B401A4CF005FA53EC182B70
:102D70004CF066FB00D26D1CB4F91C00B4F92210B3
:102D800049EC186B401A4CF0F6F953EC182B4CF048
:102D900057FB00D26D1C002D05DD0220BDEC0A8B17
:102DA000BDE8F08765E000269FEDBACB06EB46094B
:102DB00004EB8905B5F90A004CF0DDF998ED048BB8
:102DC00053EC182B4CF04AFC41EC190BB5F90400FC
:102DD0004CF0D1F953EC182B4CF040FC53EC192B70
:102DE0004CF030FA41EC190BB5F908004CF0C3F97E
:102DF00098ED028B53EC182B4CF030FC41EC1A0B85
:102E0000B5F902004CF0B7F953EC182B4CF026FC46
:102E100053EC1A2B4CF016FA41EC1A0BB5F90600DC
:102E20004CF0A9F998ED008B53EC182B4CF016FCE4
:102E300041EC1B0B34F929004CF09DF953EC182B95
:102E40004CF00CFC53EC1B2B4CF0FCF953EC1A2B04
:102E50004BF0E4FE53EC192B4BF0E0FE53EC1C2B33
:102E60004CF0B4F900D27F1C761C032E9EDB022F9F
:102E700001DA012092E7002090E788490A684B6850
:102E8000D00180EAD20080EA031048608B685203C8
:102E900080EAC30382EA5312520282EAD0208B6096
:102EA0000860704710B52DED048BF0EE408AFFF7F7
:102EB000E4FF00EE100AB8EE400ADFED790A20EEDA
:102EC000200A9FED789A20EE090A1BF079FAB0EEFD
:102ED000408AFFF7D2FF00EE100AB8EE400A20EE5B
:102EE000090AB5EEC00AF1EE10FA01D1B7EE000AF8
:102EF00010EE100A4CF09CFC41EC100B1BF07CFB1C
:102F00009FED691B51EC100B53EC112B4CF09AF90F
:102F10004BF052FE00EE100A1DF0AFF820EE280A2A
:102F200020EE080ABDEC048B10BD2DE9F0410546EA
:102F30002DED048BB0EE608AF0EE408A0F4618EE5D
:102F4000100A4CF075FC97ED301B53EC112B4CF034
:102F500079F941EC190B18EE900A4CF069FC95EDEB
:102F6000301B53EC112B4CF06DF953EC192B4BF03B
:102F700055FE0024C5E9300118EE100A4CF058FC4B
:102F800007EBC40898ED001B53EC112B4CF05AF9D9
:102F900041EC190B18EE900A4CF04AFC05EBC40604
:102FA00096ED001B53EC112B4CF04CF953EC192B04
:102FB0004BF034FEC6E9000118EE100A4CF038FC64
:102FC00098ED241B53EC112B4CF03CF941EC190B00
:102FD00018EE900A4CF02CFC96ED241B53EC112BB0
:102FE0004CF030F953EC192B4BF018FE641CC6E979
:102FF0002401062CC0DB002418EE100A4CF018FC4B
:1030000041EC100B07EBC40090ED121B51EC100BC0
:1030100053EC112B4CF016F941EC190B18EE900AF9
:103020004CF006FC05EBC40696ED121B53EC112B7D
:103030004CF008F953EC192B4BF0F0FD641CC6E979
:103040001201092CD8DB002418EE100A4CF0F0FB1A
:1030500041EC100B07EBC40090ED0C1B51EC100B76
:1030600053EC112B4CF0EEF841EC190B18EE900AD2
:103070004CF0DEFB05EBC40696ED0C1B53EC112B5C
:103080004CF0E0F814E00000C0EA0220000000006C
:10309000000004400000000000000000D0060020F6
:1030A000DB0FC9400000802F00000000000000C0BE
:1030B00053EC192B4BF0B2FD641CC6E90C01032C38
:1030C000C2DBBDEC048BBDE8F0812DE9F04F044676
:1030D0002DED068B83B00D4608684CF04CF841ECA2
:1030E0001A0B68684CF047F841EC190BA8684CF0D3
:1030F00042F841EC180B94ED300B9FEDFE1B51ECA8
:10310000100B53EC112B4BF089FDC4E9300194ED09
:103110000C0B53EC1A2B51EC100B4BF07FFDC4E958
:103120000C0194ED0E0B53EC192B51EC100B4BF0E2
:1031300075FDC4E90E0194ED100B53EC182B51EC06
:10314000100B4BF06BFDC4E9100153EC1A2B51EC42
:103150001A0B4CF077F8029194ED001B064653ECE5
:10316000112B4BF05BFDC4E9000153EC192B51EC22
:103170001A0B4CF067F8894649EC100B94ED021BD2
:10318000054653EC112B51EC100B4BF047FDC4E9F5
:10319000020153EC182B51EC1A0B4CF053F88B46F0
:1031A0004BEC100B94ED041B804653EC112B51ECAF
:1031B000100B4BF033FDC4E9040153EC192B51EC17
:1031C000190B4CF03FF8019194ED061B074653ECA8
:1031D000112B4BF023FDC4E9060153EC182B51ECE5
:1031E000190B4CF02FF8009194ED081B824653EC1C
:1031F000112B4BF013FDC4E9080153EC182B51ECD3
:10320000180B4CF01FF894ED0A1B53EC112B4BF0EC
:1032100005FDC4E90A01029953EC1A2B41EC106B2D
:1032200051EC100B4CF00EF894ED121B53EC112BDB
:103230004BF0F4FC49EC105BC4E9120153EC192B80
:1032400051EC100B4BF0FEFF94ED141B53EC112BC3
:103250004BF0E4FC4BEC108BC4E9140153EC182B3D
:1032600051EC100B4BF0EEFF94ED161B53EC112BB1
:103270004BF0D4FC49EC105BC4E9160153EC1A2B5B
:1032800051EC100B4BF0DEFF94ED181B53EC112B9F
:103290004BF0C4FCC4E91801019953EC192B41EC23
:1032A000107B51EC100B4BF0CDFF94ED1A1B53EC3F
:1032B000112B4BF0B3FCC4E91A010099554641ECBF
:1032C00010AB0E4653EC182B51EC100B4BF0BAFF21
:1032D00094ED1C1B53EC112B4BF0A0FCC4E91C011A
:1032E00053EC1A2B51EC180B4BF0ACFF53EC1A2B90
:1032F0004BF0A8FF94ED1E1B53EC112B4BF08EFCF2
:1033000046EC105BC4E91E0153EC192B51EC100B79
:103310004BF098FF94ED201B53EC112B4BF07EFCEF
:10332000C4E9200153EC182B51EC180B4BF08AFF29
:10333000894649EC100B074653EC182B51EC100B47
:103340004BF080FF94ED221B53EC112B4BF066FCED
:10335000C4E9220153EC1A2B51EC1A0B4BF072FF0B
:10336000884648EC100B054653EC1A2B51EC100B19
:103370004BF068FF53EC1A2B4BF064FF94ED241BC9
:1033800053EC112B4BF04AFCC4E9240153EC192BEC
:1033900051EC190B4BF056FF8A464AEC100B0646CF
:1033A00053EC192B51EC100B4BF04CFF53EC192B39
:1033B0004BF048FF94ED261B53EC112B4BF02EFCE9
:1033C00049EC107BC4E9260153EC182B51EC100B8F
:1033D0004BF038FF53EC182B4BF034FF94ED281BC7
:1033E00053EC112B4BF01AFC48EC105BC4E928019C
:1033F00053EC192B51EC100B4BF024FF53EC192B11
:103400004BF020FF94ED2A1B53EC112B4BF006FCE4
:1034100048EC105BC4E92A0153EC182B51EC100B5B
:103420004BF010FF53EC182B4BF00CFF94ED2C1BC2
:1034300053EC112B4BF0F2FB4AEC106BC4E92C015E
:1034400053EC182B51EC100B4BF0FCFE53EC182BEB
:103450004BF0F8FE94ED2E1B53EC112B4BF0DEFBE2
:10346000C4E92E0103B0BDEC068BBDE8F08F2DE959
:10347000F04F93462DED108B0D46044693B090ED22
:103480000CEB53EC1E2B51EC1E0B4BF0DBFE94EDC2
:10349000000B41EC190B8DED080B94ED308B53ECC8
:1034A000102B51EC180B4BF0CDFE53EC192B4CF0BC
:1034B000D5F894ED0EDB41EC1F0B53EC1D2B51ECBA
:1034C0001D0B4BF0BFFE94ED060B41EC190B8DED7F
:1034D000060B53EC102B51EC180B4BF0B3FE53ECD6
:1034E000192B4CF0BBF841EC100B8DED040B94ED57
:1034F00010CB03E0000000000000F03F53EC1C2B59
:1035000051EC1C0B4BF09EFE94ED0A0B41EC190B99
:103510008DED020B53EC102B51EC180B4BF092FE7F
:1035200053EC192B4CF09AF841EC110B53EC1D2B7A
:103530008DED001B51EC1E0B4BF084FE94ED020B45
:1035400041EC190B53EC102B51EC180B4BF07AFE9D
:1035500053EC192B4CF082F841EC1B0B53EC1C2B59
:1035600051EC1E0B4BF06EFE94ED040B41EC190B6D
:1035700053EC102B51EC180B4BF064FE53EC192B51
:103580004CF06CF841EC1A0B53EC1C2B51EC1D0B5E
:103590004BF058FE94ED080B41EC190B53EC102B3B
:1035A00051EC180B4BF04EFE53EC192B4CF056F827
:1035B0009DED020B41EC190B53EC102B51EC1E0B43
:1035C0004BF040FE41EC110B51EC180B8DED101B34
:1035D00094ED160B53EC102B4BF034FE41EC110B19
:1035E00051EC1E0B8DED0E1B9DED060B53EC102BBD
:1035F0004BF028FE41EC110B51EC180B8DED0C1B20
:1036000094ED140B53EC102B4BF01CFE41EC110B02
:1036100051EC1E0B8DED0A1B9DED080B53EC102B8E
:103620004BF010FE94ED120B41EC1E0B53EC102BE3
:1036300051EC180B4BF006FE53EC1E2B4CF00EF821
:103640009DED0A1B53EC112B4BF0E8FA9DED0C1B82
:1036500053EC112B4CF002F89DED0E1B53EC112B8B
:103660004BF0DCFA9DED101B53EC112B4BF0F6FFE9
:103670009FEDFE1B53EC112B4BF0E4FD9DED020B77
:1036800041EC1E0B53EC102B51EC1D0B4BF0DAFDF3
:1036900041EC110B51EC180B8DED101B94ED1C0B34
:1036A00053EC102B4BF0CEFD41EC110B51EC1D0BEC
:1036B0008DED0E1B9DED060B53EC102B4BF0C2FD58
:1036C00041EC110B51EC180B8DED0C1B94ED1A0B0A
:1036D00053EC102B4BF0B6FD41EC110B51EC1D0BD4
:1036E0008DED0A1B9DED080B53EC102B4BF0AAFD42
:1036F00094ED180B41EC1D0B53EC102B51EC180BF7
:103700004BF0A0FD53EC1D2B4BF0A8FF9DED0A1BC9
:1037100053EC112B4BF082FA9DED0C1B53EC112B4B
:103720004BF09CFF9DED0E1B53EC112B4BF076FAEA
:103730009DED101B53EC112B4BF090FF9FEDCB1B1D
:1037400053EC112B4BF07EFD9DED020B41EC1D0B5C
:1037500053EC102B51EC1C0B4BF074FD41EC110B96
:1037600051EC180B8DED021B94ED220B53EC102B3A
:103770004BF068FD41EC110B51EC1C0B8DED0A1B5D
:103780009DED060B53EC102B4BF05CFD41EC110B47
:1037900051EC180B8DED0C1B94ED200B53EC102B02
:1037A0004BF050FD41EC110B51EC1C0B8DED061B49
:1037B0009DED080B53EC102B4BF044FD94ED1E0BCC
:1037C00041EC1C0B53EC102B51EC180B4BF03AFD59
:1037D00053EC1C2B4BF042FF9DED061B53EC112BC1
:1037E0004BF01CFA9DED0C1B53EC112B4BF036FFEC
:1037F0009DED0A1B53EC112B4BF010FA9DED021BB3
:1038000053EC112B4BF02AFF9FED981B53EC112B1F
:103810004BF018FD9DED040B41EC180B53EC102BF5
:1038200051EC1F0B4BF00EFD10919DED001B8246DD
:1038300053EC112B4BF006FD41EC110B53EC192B03
:103840008DED0A1B51EC1F0B4BF0FCFC53EC192BBC
:103850004BF0F8FC41EC110B53EC1A2B8DED081BCF
:103860009DED040B51EC100B4BF0ECFC814653EC3E
:103870001A2B11914BF0E6FC41EC110B8DED061B60
:103880009FED7C0B51EC1B0B53EC102B4BF0DAFC37
:1038900053EC1A2B4BF0D6FC53EC192B4BF0D2FC0B
:1038A0009DED001B41EC1C0B53EC1B2B51EC110B41
:1038B0004BF0C8FC074653EC1B2B02914BF0C2FCAB
:1038C00053EC1C2B4BF0CAFE9DED061B53EC112B49
:1038D0004BF0A4F99DED081B53EC112B4BF09EF916
:1038E0009DED0A1B53EC112B4BF0B8FE41EC1C0B69
:1038F0009FED620B53EC102B4BF0A4FB7DD053ECEF
:10390000192B51EC1B0B4BF09DFC53EC182B4BF07F
:1039100099FC41EC110B53EC1D2B8DED0E1B029904
:1039200041EC107B51EC100B4BF08CFC41EC110B7B
:103930008DED0C1B9DED000B53EC102B9DED040B3E
:1039400051EC100B4BF07EFC53EC1E2B4BF07AFC31
:1039500041EC110B53EC192B8DED081B51EC190B9D
:103960004BF070FC53EC1E2B4BF06CFC41EC110B3C
:1039700053EC1D2B8DED0A1B51EC190B4BF062FC27
:1039800041EC110B53EC182B8DED061B9DED040B38
:1039900051EC100B4BF056FC9DED061B53EC112B1C
:1039A0004BF05CFE53EC1A2B4BF04CFC9DED0A1BCC
:1039B00053EC112B4BF032F99DED081B53EC112BFE
:1039C0004BF04CFE9DED0C1B53EC112B4BF026F9EC
:1039D0009DED0E1B53EC112B4BF040FE41EC100BF8
:1039E00053EC1A2B8DED060B51EC1B0B4BF02AFC04
:1039F0008846064648EC100B00E065E153EC182BB6
:103A000051EC100B4BF01EFC41EC110B53EC1E2B38
:103A10008DED041B029941EC107B51EC100B4BF027
:103A200011FC41EC110B51EC1F0B8DED021B9DEDB8
:103A3000000B53EC102B4BF005FC53EC1D2B4BF003
:103A400001FC41EC110B53EC1A2B8DED081B51ECD2
:103A50001A0B4BF0F7FB53EC1D2B4BF0F3FB41EC37
:103A6000110B53EC1E2B8DED001B0BE00000000032
:103A70000000E03F000000000000004000000000E7
:103A80000000000051EC1A0B4BF0DCFB41EC1A0B70
:103A900053EC182B51EC1F0B4BF0D4FB53EC1A2BAF
:103AA0004BF0DCFD53EC192B4BF0CCFB9DED001BD8
:103AB00053EC112B4BF0B2F89DED081B53EC112B7E
:103AC0004BF0CCFD9DED021B53EC112B4BF0A6F8F7
:103AD0009DED041B53EC112B4BF0C0FD41EC100B82
:103AE00053EC1D2B8DED040B48EC106B51EC100BBF
:103AF0004BF0A8FB41EC110B53EC1E2B8DED001B82
:103B0000119941EC109B51EC100B4BF09BFB41ECDD
:103B1000110B53EC182B8DED021B109941EC10ABDF
:103B200051EC100B4BF08EFB41EC1A0B53EC1B2BA2
:103B300051EC1B0B4BF086FB53EC182B4BF082FB2C
:103B400041EC180B53EC1E2B51EC1B0B4BF07AFB8A
:103B500041EC1B0B53EC1D2B51EC1F0B4BF072FB7C
:103B600053EC1B2B4BF07AFD53EC192B4BF06AFBFB
:103B700053EC182B4BF052F853EC1A2B4BF06EFD14
:103B80009DED021B53EC112B4BF048F89DED001BF3
:103B900053EC112B4BF062FD9DED060B41EC190B24
:103BA00053EC1C2B51EC100B4BF0F4F841EC180BC0
:103BB00053EC1C2B85ED008B9DED040B51EC100B91
:103BC0004BF0E8F841EC1A0B53EC1C2B85ED02ABE3
:103BD00051EC190B4BF0DEF841EC190B85ED049B11
:103BE00094ED100B53EC102B4BF02CFB94ED0E0BC3
:103BF00041EC1B0B53EC102B51EC1A0B4BF022FB3E
:103C000094ED0C0B41EC1C0B53EC102B51EC180BEE
:103C10004BF018FB53EC1C2B4BF000F853EC1B2B18
:103C20004AF0FCFF1FED6D1B53EC112B4BF00AFB10
:103C300094ED061B94ED000B41EC1B0B53EC112B88
:103C400051EC100B4AF0EAFF94ED0A1B53EC112BD8
:103C50004AF0E4FF53EC1B2B4BF000FD94ED301BBE
:103C600053EC112B4BF096F841EC1B0B53EC192B3A
:103C700051EC190B4BF0E6FA41EC190B53EC1A2BF3
:103C800051EC1A0B4BF0DEFA41EC1A0B53EC182BEB
:103C900051EC180B4BF0D6FA53EC1A2B4AF0BEFF3E
:103CA00053EC192B4AF0BAFF53EC1B2B4AF0B6FF2A
:103CB00041EC100B1CF0A4F98BED000B012013B0AC
:103CC000BDEC108BBDE8F08F0020F8E72DE9F04F38
:103CD0000D462DED108B04468BB091ED00AB53ECEF
:103CE0001A2B51EC1A0B4BF0ADFA94ED0CCB53ECB4
:103CF0001C2B4BF0A7FA53EC1C2B4BF0A3FA94EDC2
:103D000030FB41EC180B53EC1A2B51EC1F0B4BF012
:103D100099FA8B464BEC100B074653EC1A2B51ECDF
:103D2000100B4BF08FFA94ED00EB53EC1E2B4BF085
:103D300089FA53EC182B4BF091FC41EC190B53EC26
:103D40001E2B51EC1A0B4BF07DFA53EC1C2B4BF055
:103D500079FA4BEC107B94ED121B41EC180B53ECF1
:103D6000112B51EC100B4BF06DFA53EC192B4BF05F
:103D70009DFB53EC182B4AF051FF41EC1B0B1FED40
:103D8000C30B51EC1A0B53EC102B4BF05BFA89462A
:103D900049EC100B95ED029B064653EC192B51ECA8
:103DA000100B4BF04FFA53EC1C2B4BF04BFA94EDED
:103DB0000EDB53EC1D2B4BF045FA41EC180B1FEDBD
:103DC000D30B51EC1F0B53EC102B4BF03BFA8246FC
:103DD00053EC1A2B06914BF035FA53EC192B4BF0A0
:103DE00031FA94ED021B53EC112B4BF02BFA53ECF0
:103DF0001B2B4AF013FF53EC182B4BF02FFC41EC1C
:103E0000180B53EC1C2B51EC1A0B4BF01BFA0491C2
:103E100094ED06BB804653EC1B2B4BF013FA41ECA0
:103E2000110B4BEC107B8DED001B94ED141B51EC32
:103E3000100B53EC112B4BF005FA53EC182B4BF0F5
:103E400035FB9DED001B53EC112B4AF0E7FE41ECD6
:103E5000110B49EC106B8DED001B95ED048B51ECB3
:103E6000100B53EC182B4BF0EDF953EC1C2B4BF0D3
:103E7000E9F994ED10CB53EC1C2B4BF0E3F941EC3A
:103E8000110B53EC1A2B8DED021B069941EC10AB74
:103E900051EC100B4BF0D6F953EC182B4BF0D2F938
:103EA00094ED041B53EC112B4BF0CCF99DED001B52
:103EB00053EC112B4AF0B2FE9DED021B53EC112B7B
:103EC0004BF0CCFB41EC100B8DED000B049994ED05
:103ED0000AAB41EC108B53EC1A2B51EC100B4BF04E
:103EE000B1F941EC110B4BEC107B8DED021B94ED05
:103EF000161B51EC100B53EC112B4BF0A3F99DED5D
:103F0000001B53EC112B4BF0D1FA9DED021B53EC2F
:103F1000112B4AF083FE41EC110B8DED001B9FED40
:103F2000FE0B51EC1E0B53EC102B4BF08BF953ECAA
:103F30001E2B4BF087F941EC110B8DED021B9FED11
:103F4000F60B51EC1F0B53EC102B4BF07BF905914A
:103F500094ED241B814653EC112B4BF073F99DED2E
:103F6000001B53EC112B4AF059FE9DED021B53EC44
:103F7000112B4BF073FB41EC110B53EC1E2B8DED11
:103F8000001B51EC190B4BF05DF953EC1D2B4BF062
:103F900059F941EC110B53EC192B8DED081B51EC29
:103FA0001F0B4BF04FF9039194ED181B064653EC91
:103FB000112B4BF047F99DED001B53EC112B4BF0EF
:103FC00075FA9DED081B53EC112B4AF027FE41ECCE
:103FD000110B8DED001B9FEDD20B51EC1E0B53EC22
:103FE000102B4BF02FF98B464BEC100B054653EC86
:103FF0001B2B51EC100B4BF025F941EC110B8DED07
:10400000081B9FEDC70B51EC1F0B53EC102B4BF013
:1040100019F9049194ED2A1B804653EC112B4BF0B7
:1040200011F99DED001B53EC112B4AF0F7FD9DEDAE
:10403000081B53EC112B4BF011FB41EC110B53EC13
:104040001E2B8DED001B51EC180B4BF0FBF853ECC5
:104050001C2B4BF0F7F841EC1E0B53EC182B51ECDA
:104060001F0B4BF0EFF8029194ED1E1B074653EC2B
:10407000112B4BF0E7F89DED001B53EC112B4BF08F
:1040800015FA53EC1E2B4AF0C9FD4BEC105B41ECCA
:104090001F0B53EC1A2B51EC100B4BF0D3F841ECE7
:1040A0001E0B049994ED2C1B41EC108B53EC112B3F
:1040B00051EC100B4BF0C6F853EC1F2B4AF0AEFD41
:1040C00053EC1E2B4BF0CAFA41EC1F0B53EC192B8F
:1040D00051EC190B4BF0B6F853EC1D2B4BF0B2F82A
:1040E00053EC1D2B4BF0AEF841EC1E0B039953EC37
:1040F000192B41EC106B51EC100B4BF0A3F853EC67
:104100001B2B4BF09FF853EC1F2B4AF087FD53EC11
:104110001E2B4BF0A3FA41EC1F0B53EC1B2B51EC65
:10412000190B4BF08FF853EC1D2B4BF08BF841EC37
:104130001E0B039994ED1A1B41EC106B53EC112BE1
:1041400051EC100B4BF07EF853EC1F2B4BF0AEF9FB
:1041500053EC1E2B4AF062FD41EC1F0B9FED720BDE
:1041600051EC190B53EC102B4BF06CF853EC182B53
:104170004BF068F853EC1D2B4BF064F853EC1C2B00
:104180004BF060F841EC1E0B069953EC192B41ECF7
:1041900010AB51EC100B4BF055F853EC182B4BF0C7
:1041A00051F894ED081B53EC112B4BF04BF853ECEA
:1041B0001F2B4AF033FD53EC1E2B4BF04FFA41EC12
:1041C0001E0B53EC1D2B51EC190B4BF03BF853EC31
:1041D0001A2B4BF037F841EC190B039994ED1C1B8B
:1041E00041EC106B53EC112B51EC100B4BF02AF8F7
:1041F00053EC1E2B4BF05AF953EC192B4AF00EFDE1
:1042000041EC1D0B9FED44EB51EC1B0B53EC1E2BB3
:104210004BF018F853EC1B2B4BF014F841EC190B36
:10422000059994ED261B41EC109B53EC112B51EC9E
:10423000100B4BF007F853EC1D2B4AF0EFFC53EC3E
:10424000192B4BF00BFA41EC1D0B53EC1B2B51ECD3
:10425000180B4AF0F7FF53EC1C2B4AF0F3FF41EC2C
:10426000190B029994ED201B41EC107B53EC112BA0
:1042700051EC100B4AF0E6FF53EC1D2B4BF016F9F6
:1042800053EC192B4AF0CAFC9FED250B41EC190B9E
:1042900053EC102B51EC1B0B4AF0D4FF53EC1A2BB0
:1042A0004AF0D0FF41EC1B0B049994ED2E1B41EC1E
:1042B000108B53EC112B51EC100B4AF0C3FF53EC55
:1042C000192B4AF0ABFC53EC1B2B4BF0C7F941EC1C
:1042D0001B0B53EC182B51EC180B4AF0B3FF53ECAB
:1042E0001C2B4AF0AFFF53EC1C2B4AF0ABFF41EC08
:1042F000190B029953EC182B41EC107B51EC100B6D
:104300004AF0A0FF53EC1A2B4AF09CFF53EC1B2BF6
:104310004AF084FC0CE00000000000000000D03FE8
:10432000000000000000E03F00000000000000402E
:1043300053EC192B4BF092F941EC190B53EC1A2B5F
:1043400051EC180B4AF07EFF53EC1C2B4AF07AFF1D
:1043500041EC180B029994ED221B41EC107B53ECBD
:10436000112B51EC100B4AF06DFF53EC192B4BF055
:104370009DF853EC182B4AF051FC41EC180B53EC10
:104380001E2B51EC1A0B4AF05DFF53EC1A2B4AF02E
:1043900059FF41EC190B059994ED281B41EC109B3A
:1043A00053EC112B51EC100B4AF04CFF53EC182B33
:1043B0004AF034FC53EC192B4BF050F941EC100B44
:1043C0000BB07DE430B50446B0F88C0089B0000431
:1043D0000690B4F88E000D4600040790B4F89000E3
:1043E00088340004089002A82FF00EFF0299069866
:1043F0002B46401A06900399079806AA401A079080
:1044000004990898401A08902088616A80B22FF0B9
:10441000A7FD09B030BDF0B50D462DED048B87B07A
:104420006946FFF7CFFF9FEDFE8B00246F469FED9F
:10443000FE9A03AE57F8240000EE100A06EB840043
:10444000B8EEC00A20EE090A80ED000A20EE000A4C
:1044500010EE100A4BF0ECF953EC182B4AF0DEFB8F
:1044600041EC180B641C032CE4DBB0EE480AF0EEC0
:10447000680A1BF0C5FDB0EE408AF0EE608A0024A9
:1044800056F824004BF0D4F953EC182B4AF082FC78
:104490004AF092FB00EE100A05EB8400641CD0ED9C
:1044A000000A032C30EE200A80ED000AE8DB686D7C
:1044B000401C686530F012F9E86707B0BDEC048B6A
:1044C000F0BD2DE9F04104462FF03AFF40BB2FF03C
:1044D000C7FE042824D0D54920460E46FFF79BFF8F
:1044E000D34DD5E95C01814205DB304603F0E5FBA5
:1044F0000020C5F87401208E4FF00406C00515D5C4
:1045000004F118002FF010FF8009B0F5C87F0AD21F
:10451000D5F8B800002850DD401EC5F8B8004AE0C4
:104520000120BDE8F081C5F8B86044E0D4F8A010DF
:10453000D5F81401081A01D4034600E04342BB4AEF
:104540004FF4A02C583A634505DDD4E9290353659F
:10455000C2E913102FE00312D4F8A470D5F81801A3
:104560005B43381A01D4864601E0C0F1000EE645EF
:1045700005DDD4F8A800D164C2E914701BE0001274
:1045800000FB0033D4F8A800D5F81C11401A01D460
:10459000014600E0414261450DDC001200FB0030A5
:1045A000B0F5403FB4DBA034C5F8B86094E80B0028
:1045B0004C3282E80B000020B3E70220B1E72DE97E
:1045C000F04F9B4C2DED028B93B0D4F8A81090EDDA
:1045D000000B04EBC10181ED000BD4F8A810491CBD
:1045E000C4F8A81090ED020B04EBC10181ED000BA3
:1045F000D4F8A810491CC4F8A81090ED040B04EBE3
:10460000C10080ED000BD4F8A800401CC4F8A8003D
:10461000152802DB0020C4F8A800182284490CA841
:1046200004F059FC1822824904A804F054FC012625
:104630000DF1300A0DF1100BA146002406EB4608DF
:1046400008EB040109EBC1050AEBC40795ED001B5B
:1046500097ED000B53EC112B51EC100B4AF0F0FED0
:1046600003D295ED000B87ED000B0BEBC40795ED26
:10467000001B97ED000B53EC112B51EC100B4AF083
:10468000A5FD03D295ED000B87ED000B641C032CF8
:10469000D6DB761C072ED0DB9DED0C1B9DED040BAD
:1046A00053EC112B51EC100B4AF0D8FF9DED0E1B73
:1046B0009DED060B41EC180B53EC112B51EC100B3C
:1046C0004AF0CCFF53EC182B4AF080FD0BD39DED44
:1046D0000E1B9DED060B53EC112B51EC100B4AF009
:1046E000BDFF41EC180B9DED101B9DED080B53EC2D
:1046F000112B51EC100B4AF0B1FF53EC182B4AF080
:1047000065FD0BD39DED101B9DED080B53EC112B9C
:1047100051EC100B4AF0A2FF41EC180B13B0B0EEB5
:10472000480AF0EE680ABDEC028BBDE8F08F10B5C8
:1047300004462DED068B9CB0002155200E91CDE94D
:104740000F1011909FED3B8B0AA82FF02BFD12A9A3
:104750000AA830F0ABF816AA0EA912A830F0C9F8D2
:104760006A460AA916A830F0C4F80198B2EE059A74
:1047700000F5967001900298B0EE490A00F5967027
:104780000290039800F596700390FEF78BFBBDEE48
:10479000C00A019910EE100AB0EE490A08440190CF
:1047A000FEF780FBBDEEC00A029810EE101AB0EEC4
:1047B000490A08440290FEF775FBBDEEC00A039952
:1047C00010EE100A08440390204601A9FEF77DFC74
:1047D00094ED300B9FED191B51EC100B53EC112B8A
:1047E0004AF02EFE5DD21AAA04A92046FEF73FFE2B
:1047F00060B39DED080B9FED138B51EC100B53EC48
:10480000182B4AF02BFF41EC100B53EC102B4AF005
:1048100019FD41EC190B9DED060B53EC182B16E01E
:10482000000000000000000000008037E0EB0220E4
:10483000C0EA02200000000000408F40000000009D
:10484000000034400000000000C0724029E051EC3C
:10485000100B4AF003FF41EC100B53EC102B4AF005
:10486000F1FC9DED040B41EC1A0B53EC182B51ECB1
:10487000100B4AF0F3FE41EC100B53EC102B4AF0F6
:10488000E1FC53EC1A2B4AF0C9F953EC192B4AF00E
:10489000C5F941EC100B1BF0B3FBB0EE408AF0EE13
:1048A000608A9FEDFD0B51EC180B53EC102B4AF076
:1048B00071FA1CB041EC100BBDEC068B10BD10B5AD
:1048C000E821F74804F0A0FBF648F74920F8BC1FA0
:1048D0004A0CC280C181828281834284F048E821EF
:1048E000E83004F091FBEF490020C1F8B40010BD9E
:1048F0002DE9F043EB4D04462DED108BC3B0006B5A
:10490000C5F8A0012046FFF7DCFD00287ED1D5F8D0
:10491000941105F1BC08012911D1B4F98C003D9026
:10492000B4F98E003E90B4F990003F903DA9DC4868
:10493000FEF7CBFB04F18C01404600F0A4FB1FED19
:1049400048DB9FEDDABB9FEDDBCB9FEDDCAB9FED52
:10495000DDEBD34ED5F80801E83E002802DD401E0D
:10496000C5F8080196ED300B53EC1D2B51EC100BE4
:104970004AF066FD7DD2CA49E822E839684604F06B
:10498000AAFAC7483DA9E838FEF79FFBC44940AAE8
:1049900020390F46A1F1C800FEF769FD00287BD041
:1049A000BF483946E838FFF791F9B0EE408AF0EE9B
:1049B000608A95ED400B51EC180B53EC102B4AF02C
:1049C0004DFE96ED300B41EC190B53EC1B2B51ECCB
:1049D000100B4AF043FE41EC100B51EC190B53EC59
:1049E000102B4AF0D7F941EC100B1BF009FB96EDA8
:1049F00030FBB0EE409AF0EE609A53EC1B2B51EC7A
:104A00001F0B4AF02BFE53EC1F2B00E0E9E04AF0AD
:104A100019FC41EC1F0B53EC1C2B51EC180B4AF00A
:104A200011FC53EC1F2B4AF0B5F941EC100B1BF0B5
:104A3000E7FAD5F8E8004AF0FBFE95ED381B53EC99
:104A4000112B4AF0FFFB53EC192B4AF0BFFB03D3A9
:104A5000D5F80801002826DD9148E8226946E838A3
:104A600004F039FAD5F8E8004AF0E2FE95ED381B7B
:104A700001E010E010E053EC112B4AF0E3FB53ECA3
:104A8000192B4AF0A3FB5CD24FF4FA7001F03CFE04
:104A90000A20C5F8080154E08148E8226946E83850
:104AA00004F019FA4DE0D5F89801012849D1D5F85C
:104AB000B400401CC5F8B400002030F0CDFA96EDEB
:104AC000320B53EC1A2B51EC100B4AF0BBFB4AF0A3
:104AD000F5FA3A9096ED340B53EC1A2B51EC100B7F
:104AE0004AF0B0FB4AF0EAFA3B9096ED360B53ECF5
:104AF0001A2B51EC100B4AF0A5FB4AF0DFFA3C9060
:104B000003213AA830F01AFA96ED300B53EC1E2B25
:104B100051EC100B4AF094FC11D29FED6C0A6049E5
:104B2000E839F0EE400A0846FEF7FFF95C483946DE
:104B3000E838FFF7CBF8B0EE408AF0EE608A85EDFA
:104B4000408B208E564FC0050CD5B4F87400C005BC
:104B500008D507F1E800FFF7EAFDB0EE408AF0EE75
:104B6000608A01E09FED4C8B97ED300B1FEDCD1B64
:104B700051EC100B53EC112B4AF028FB31D3484970
:104B800040AAC83189464648FEF771FC00287CD00F
:104B9000D4F8AC004AF0EFFA41EC100B53EC102BB8
:104BA0009FED4B0B51EC100B4AF0F4F841EC1F0B4E
:104BB0004846FFF704FDB0EE409AF0EE609A53ECE1
:104BC0001F2B51EC190B4AF03BFC0BD29FED420B13
:104BD00051EC180B53EC102B4AF0F8FA02D2FFF705
:104BE0006EFEDBE153EC1F2B51EC190B4AF0EEFA91
:104BF00051D251EC180B9FED3A9B53EC192B4AF014
:104C0000E5FAF5D297ED300B9FED371B51EC100B09
:104C100053EC112B4AF014FCEAD296ED300B53EC16
:104C20001D2B51EC100B4AF00DFA7CD149461C4863
:104C3000FFF74CF8B0EE408AF0EE608A85ED408BCD
:104C400097ED309B53EC1B2B51EC190B4AF006FDF2
:104C500053EC192B4AF0F6FA41EC190B53EC1C2BD0
:104C600051EC180B4AF0EEFA53EC192B4AF092F87B
:104C700041EC100B1BF0C4F9B0EE408AF0EE608AF4
:104C8000D5F8E8004AF0D4FD00E088E195ED381B46
:104C900053EC112B2CE078E10000000000000840EC
:104CA000F0E80220C0EA02200080FFFF00000000C0
:104CB0000000F03F00000000000000400000000085
:104CC0000000F0400000000000409F406666E63EA5
:104CD0009A9999999999A941000000000000F83F1C
:104CE00000000000000010400000000000003E40F6
:104CF0004AF0A8FA53EC182B4AF068FAFFF46FAFA9
:104D00009DED400B49464046FDF7C4FF02283FF4A5
:104D100066AF00287ED1D5F898010128FAD100208D
:104D200030F09AF900E02FE097ED320B53EC1A2B9C
:104D300051EC100B4AF086FA4AF0C0F93A9097ED20
:104D4000340B53EC1A2B51EC100B4AF07BFA4AF05F
:104D5000B5F93B9097ED360B53EC1A2B51EC100B39
:104D60004AF070FA4AF0AAF93C9003213AA830F0D0
:104D7000E5F8012030F00EF9192000900190029022
:104D8000684630F0FFF8F6E0D5F8B4004AF0F3F9E1
:104D900097ED301B53EC112B49F0FCFF9FEDE71B07
:104DA00053EC112B4AF04CFBA8D34946E548FEF7DB
:104DB0008DFF97ED30DBB0EE408AF0EE608A53EC69
:104DC0001B2B51EC1D0B4AF049FC53EC1D2B4AF0F8
:104DD00039FA41EC1B0B53EC1C2B51EC180B4AF02D
:104DE00031FA53EC1B2B49F0D5FF41EC100B1BF0B3
:104DF00007F9B0EE40BAF0EE60BAD5F8E8004AF034
:104E000017FD95ED381B53EC112B4AF01BFA53ECB0
:104E10001B2B00E087E04AF0D9F9C5D39DED400B8C
:104E200049464046FDF736FF00287CD196ED361BFB
:104E300097ED360B53EC112B51EC100B4AF00EFC96
:104E400041EC100B53EC102B4AF0FCF996ED341B9F
:104E500097ED340B41EC1B0B53EC112B51EC100B69
:104E60004AF0FCFB41EC100B53EC102B4AF0EAF932
:104E700096ED321B97ED320B41EC1C0B53EC112BD2
:104E800051EC100B4AF0EAFB41EC100B53EC102BE9
:104E90004AF0D8F953EC1C2B49F0C0FE53EC1B2B05
:104EA00049F0BCFE41EC100B1BF0AAF8B0EE40BA82
:104EB000F0EE60BAD4F8AC004AF05DF953EC1B2B6D
:104EC0004AF0C0F99FEDA01B53EC112B4AF0BAF940
:104ED00041EC1B0B53EC192B4AF0B2FA1AD39FED9D
:104EE0009C0B51EC1B0B53EC102B4AF0A9FABFF4AE
:104EF00076AED5F8B4004AF03EF997ED301B53EC8E
:104F0000112B49F047FF9FED941B53EC112B4AF0F6
:104F10005DF9ECD2D5F8980101287FF460AE00204D
:104F200030F09AF800E039E085ED408B97ED320BD8
:104F300053EC1A2B51EC100B4AF084F94AF0BEF8EE
:104F40003A9097ED340B53EC1A2B51EC100B4AF0BE
:104F500079F94AF0B3F83B9097ED360B53EC1A2BE6
:104F600051EC100B4AF06EF94AF0A8F83C9003217E
:104F70003AA82FF0E3FFF7EE000A9FED790A714996
:104F8000A1F1E800FDF7D1FF29E697ED300B53ECD6
:104F90001E2B51EC100B4AF053FAF5D3002043B00E
:104FA000BDEC108BBDE8F08370B56E4C0546D4F8AF
:104FB0000C0110B9284600F091F8D5F8B01044F66D
:104FC000206081420ADAD4F8102111448142C4F8E9
:104FD00010114FF0000005DBC4F810012846BDE8B1
:104FE000704085E470BD04224FF4C871AFF24700F1
:104FF0002FF068BEAFF24F0030F02CB9514810B519
:10500000E821E83804F000F8FFF759FC4FF4D471B8
:10501000544803F0F9FF534CB7EE000A04F59070C2
:1050200084ED3A0A02F095FD0A20C4F87001B2EE50
:10503000000A84ED570A1E209FED4B0AC4F87C013C
:1050400084ED620A9FED490A84ED610A9FED480AEA
:10505000002084ED630A10BD10B5FFF7CFFF0028D4
:1050600005D1AFF27D00BDE810402FF0B3BE10BDFA
:1050700010B5AFF2CB0030F0EDF8AFF29500BDE81F
:10508000104030F00DB930B50022C2EBC20331F947
:10509000124030F91350AC420ADD02EB42040D8895
:1050A00020F8245000EB84044D8865808D88A5800D
:1050B00000EB430331F91240B3F906309C4209DAA0
:1050C00002EB420300EB83030C88DC804C881C81DC
:1050D0008C885C81521C032AD7DB30BD70B5214D12
:1050E000D0F8AC200446EAB1D3170020192103F010
:1050F00075F945F8AC0F54F8AC2F0020D3170521F3
:1051000003F06CF9686022680020D317962103F041
:1051100065F94AF030F8C5E90D01AC3D0120C5F84C
:105120000C0170BD6FF00040C5F8AC009FED110B95
:10513000C5F8B00085ED380BF0E700000AD7A37082
:105140003D0AE73FF0E80220000000000000103EAA
:105150000000000000000440333333333333C33FD7
:1051600000000000C0EA0220CDCCCC3E3333333FF8
:105170009A99193F0000C0FFFFFFDF4110B5FF49BA
:10518000C4074FF040434FF0804205D08B66CB669A
:10519000C1E91C328A67CA67840709D5C1F80031A2
:1051A000C1F80431C1E94232C1F81021C1F814211B
:1051B000400709D5C1F89831C1F89C31C1E968327E
:1051C000C1F8A821C1F8AC2110BD2DE9F14F002094
:1051D00082B0824681460298806F00287ED00022ED
:1051E0000020401C0428FCDB029800EBC203D3E93A
:1051F0000010A1FB0167D3E9065400FB017701FB16
:105200000077AB46AD1BCDE900670326A5FB06C8BA
:10521000A64664EB070404FB0684002705FB07454C
:10522000DDE900671CEB06047D41A4FB016705FB7B
:10523000017504FB0055D3E90C47341B65EB0705EA
:10524000CDE900455D46A5FB05670324A6FB045890
:105250000EFB0B770BFB0E7707FB04844FF0000C63
:1052600006FB0C44D3E91263761B63EB04034C1872
:10527000A4FB017C40EB000505FB01C504FB0055C8
:10528000A7FB014C05FB01C507FB0055A4FB017CF6
:1052900005FB01C504FB0054F6196341DDE9004537
:1052A000AD0045EA9475A400A4FB017C05FB01C197
:1052B00004FB0014F01B73EB040103D500234042F0
:1052C00063EB0101BAEB000479EB010301DA8246DA
:1052D0008946521C032A83DB504600E016E049460B
:1052E0004AF000FB00EE900AA54890ED0E1A80EE01
:1052F000810A10EE100A4AF09DFBA04AD2F80C2257
:1053000003B09200BDE8F04F03F055B8002003B0A1
:105310000146BDE8F08F2DE9F14F0020009A0146CB
:10532000926FE2B300240022521C042AFCDB009A94
:1053300002EBC405AA46D5E90029A2FB023CD5E947
:1053400006769E46FB1A0325A3FB057809FB02CCD3
:1053500002FB09CB66EB0B0606FB05854FF0000C44
:1053600003FB0C5617EB0E03A3FB027C46EB0B066C
:1053700006FB02C203FB0923DAE90C25BA1AAB418A
:1053800003D50025524265EB0303851A71EB030533
:1053900001DA10461946641C032CC4DB00E015E05A
:1053A0004AF0A0FA00EE900A754890ED0E1A80EED1
:1053B000810A10EE100A4AF03DFB704AD2F80C2226
:1053C000BDE8F84F02EB420202F0F5BF00200146B3
:1053D000BDE8F88F2DE9FE43684D80460024D5F8DE
:1053E00010626F4605EBC4013246D1E9020102F0BA
:1053F000CFFF05EB8401B1F884100904401847F889
:10540000240004F10104032CECDB5C4898210830F3
:1054100003F0FAFD0120FFF7B1FE95F8E8010199CC
:10542000042807D1D5F81802B0F5201F02DD0520A9
:1054300085F8E801524C0098636AC11A01D40E46FF
:1054400000E01E1A0198A26A801A01D4074601E002
:10545000019FD71BBE4206DD002901D4084606E0A5
:105460000098181A03E0002801D50198101A029A32
:10547000E16A521A01D4134601E0029BCB1A83421F
:1054800005DB002A01D4104601E00298081AD8F87A
:1054900024102FF0D2F9D5F81812814206DD03212D
:1054A00068462FF01FFE02202FF06EFE009860620B
:1054B0000198A0620298E062BDE8FE83304AC2E92A
:1054C000020170472E4AC2E9060170472C4AC2E920
:1054D00004017047294AD2F8E0310360D2E974022E
:1054E000C1E900027047254AD2F8E0310360D2E9F1
:1054F0007602C1E9000270472DE9FE47814600208F
:10550000EA468A6F22B901EB800339F91020DA6785
:1055100001EB800239F91030D46F1D1B4AF820507E
:10552000136E9D4200DD1566D36E9D4200DAD5668E
:105530000123002422464FEAE578A3FB056704FB1C
:10554000057403FB0844334602EB420601EBC60632
:1055500006EBC00CDCE90076FF186641CCE900766A
:10556000521C042AE9DB401C0328CADB886F401C5C
:1055700088670120C1F89000BDE8FE8768EC022032
:10558000C8EE022030B5002302EB830550F823401B
:105590005B1CEC66032BF7DBC2F88810916F79B1C6
:1055A000002102EB810450F82130E56F5B1B00D530
:1055B0005B42256E9D4200DA2366491C0329F0DB1D
:1055C000906F401C90670120C2F8900030BD10B56C
:1055D00000210B4600EB8102491CD46ED467136690
:1055E0000329F7DBD0F8881040F8783FC0E90513AD
:1055F00010BDD0E92210081A70470146D1E91802FF
:10560000824200DB1046896E814200DB084670470B
:105610002DE9F0478046501E012686408946C2F19A
:105620002007404602F0C7FE04460D464046494664
:105630003A4602F0ADFE3A4602F0BDFEB04203DD4E
:10564000641C45F1000505E07142884202DA641EDF
:1056500045F1FF3520462946BDE8F087F74900208F
:10566000086248628862C862086448648864C864E2
:10567000086348638863C863086548658865C865CA
:10568000704730B5EE4AD2F8483223B1D2E990548F
:105690002D1A8C4101DAC2E990015B1CC2F8483234
:1056A00030BD30B5E64AD2F8583223B1D2E994542D
:1056B0002D1A8C4101DAC2E994015B1CC2F8583200
:1056C00030BD30B5DE4AD2F828322BB1D2E9884558
:1056D000041B71EB050401DAC2E988015B1CC2F806
:1056E000283230BD30B5D64AD2F838322BB1D2E9A3
:1056F0008C45041B71EB050401DAC2E98C015B1CCB
:10570000C2F8383230BD2DE9F0470246CC480125B9
:1057100008308046C36E016E046FC91A436E1B1BAE
:105720008B4200DB1946836ED8F87400181A884241
:1057300000DB0146C14F6037F86B884204DA002471
:1057400000F010FA204687E7108E0124BC4EC005F9
:105750004FF000010ED5D6F880303068834209DB67
:10576000B2F87420D20506D5D6F8B021824201DB0A
:10577000052400E00C4674B3600719D5AF48C8385B
:105780008146FFF722FD000D40EA01300915C6E908
:105790007601D7E904321B1A8A4102DA0025FFF7A5
:1057A000A1FF9821484603F02FFC0420FFF7E6FCF8
:1057B000E0070ED04046FFF708FDC6E97C01D7E9B7
:1057C00006340246181A8C4103DA00251046FFF70A
:1057D00078FF284640E7FFE702203DE71EB5044674
:1057E00090F83000C0F38110032804D19449201DA3
:1057F0000831FFF781FE94F87400C0F3811003288C
:1058000005D18E4904F14800C839FFF775FED4F878
:10581000B8008B4AC0F38113A0326946032B0FD026
:10582000C0F3411003281AD1002004EB8003D3F801
:10583000A0309B1341F82030401C0328F5DB09E021
:10584000002004EB4003B3F98C3041F82030401CB9
:105850000328F6DB6846D4F8C010FFF793FE1EBDA0
:105860002DE9F04705460020296BCA056AD501F0ED
:105870005001402900D1012095F8741001F0500129
:10588000402900D1012095F8B8106D4C01F050016D
:10589000402900D030B100F065F90020C4F8E001E3
:1058A00084F8E801654ED4F80812E86A603681424F
:1058B00028D0C4F808020A28306B0CDA40002060B7
:1058C000716B00EE100A491CC4F80C12B8EEC00A45
:1058D0001AF0D3FB05E02060706BC4F80C0296ED63
:1058E0000E0A84ED850AD4F80C02C0F11000C4F849
:1058F00010024FF48040C4F8180296F834101920B2
:105900008840F0632846FFF769FF94F8E811DFF854
:10591000309105274FF0020809F1A009072911D29B
:10592000DFE801F0041127305E7E8500D4F8E00145
:10593000411CC4F8E0110A2804DB00F013F901202F
:1059400084F8E80186E0D4F89800012810D12846B0
:10595000FFF7D9FE10B1012803D004E084F8E87104
:1059600001E084F8E8814846FFF731FEFFF776FE54
:1059700070E0032084F8E8012846FFF72BFD00F0D3
:10598000F1F867E02846FFF7BEFEE8B3012861D1D1
:10599000B5F8B8004FF00403C00515D54846FFF729
:1059A0002CFE0146C017C4E97410D6E902C2BCEB54
:1059B0000101824102DA84F8E87108E04846FFF705
:1059C00018FE316A884202D384F8E83124E0F4E911
:1059D0007601FFF766FED4E90601FFF752FE39E0D3
:1059E000B5F8B800C0050BD54846FFF706FE0146DE
:1059F000C017C4E97410D6E90232591A824108DB93
:105A00002846FFF780FE00E003E010B1012803D034
:105A100020E084F8E8711DE02846FFF7DBFCD6E7BC
:105A2000062084F8E80101202FF0AEFB0DE02846A7
:105A3000FFF769FE012805D038B10BE068EE0220BF
:105A400068EC022084F8E88104E000F08BF8484616
:105A5000FFF7BDFD0020FFE510B500214010002834
:105A600002D001F10101F9DC4FF0010001F1010167
:105A700000FA01F0434C00EE100AC4E90C01B8EE44
:105A8000C00A1AF0FAFA84ED0E0A94F834101920BC
:105A90008840E06310BD10B54FF418713A4803F028
:105AA000B3FA4021374803F0AFFA0720FFF766FB4F
:105AB000344840F2DC510022C0E906121421C0E94A
:105AC00002124FF41671C0E9041230492E4C0162E3
:105AD0000120C4F8E4011920FFF7BEFF0020C4F83C
