:020000040800F2
:100000007815022049030008C990010899350108B4
:10001000558601085DBE0008D531020800000000C9
:1000200000000000000000000000000019CC0108E2
:1000300055D10008000000000F04000875D4010825
:10004000730300087303000873030008D5B10108A7
:1000500073030008730300087303000873030008A8
:100060007303000873030008730300087303000898
:100070007303000873030008730300087303000888
:100080007303000873030008730300087303000878
:100090007303000873030008730300087303000868
:1000A0007303000873030008730300087303000858
:1000B000EDD40108F9D401087303000873030008A4
:1000C0007303000873030008730300087303000838
:1000D00073030008B9E7010873030008D1E70108BA
:1000E0007303000819AF01087303000873030008C5
:1000F00099D501087303000873030008730300080F
:10010000730300087303000805D501087303000892
:10011000730300087303000811D5010855D50108C1
:10012000730300080DCD0008730300088DCD00088F
:1001300073030008730300087303000873030008C7
:1001400073030008730300087303000849A501083E
:100150000DCE000873030008730300087303000842
:100160007303000873030008730300087303000897
:10017000730300087303000875CC0008000000003A
:100180007303000873030008730300087303000877
:100190007303000873030008730300087303000867
:1001A00073030008730300087303000800F002F8EB
:1001B00000F0B2F80AA090E8000C82448344AAF14F
:1001C0000107DA4501D100F0A7F8AFF2090EBAE84D
:1001D0000F0013F0010F18BFFB1A43F0010318477B
:1001E00008050900280509000A444FF0000C10F822
:1001F000013B13F0070408BF10F8014B1D1108BFA5
:1002000010F8015B641E05D010F8016B641E01F844
:10021000016BF9D113F0080F1EBF10F8014BAD1C94
:100220000C1B09D16D1E58BF01F801CBFAD505E0B2
:1002300014F8016B01F8016B6D1EF9D59142D6D30C
:10024000704700000023002400250026103A28BF34
:1002500078C1FBD8520728BF30C148BF0B60704738
:100260006E2908F0AD81702908F0D182662927F047
:1002700066A7652927F063A7672927F060A761298A
:1002800027F05FA703681B0A28BF41F08001692996
:1002900008F05A81642908F05781752908F05481C3
:1002A0006F2908F05F82782908F09D82E92908F01B
:1002B000F981E42908F0F681F52908F0F381EF29A6
:1002C00008F05C82F82908F09C820368DB0928BFEB
:1002D00041F08001632909F06C83732909F071836F
:1002E000E32909F08F83F32909F0948300207047F4
:1002F0001FB567F0CEFE09F051FC0400002000217C
:1003000066F034FF401C60600020002166F018FF9A
:10031000E0601FBD10B510BD0AF03CF81146FFF7B4
:10032000E7FF48F01FFF0AF0ADFA03B4FFF7F2FF52
:1003300003BC26F078FD000030BF72B6704762B68D
:10034000704780F3088870470D48016841F47001D8
:1003500001600C48016821F0404101600A480047F3
:10036000FEE7FEE7FEE7FEE7FEE7FEE7FEE7FEE765
:10037000FEE7FEE705480649044A064B70470000C1
:1003800088ED00E034EF00E0AD01000878110220B4
:100390007815022078110220EFF3098141B1F1EEC6
:1003A000101A40F8041D20ED200A29490A6810603F
:1003B0007047B0EC200A02C8E1EE101A25490A681D
:1003C00010607047EFF3108072B6704780F31088AA
:1003D000704721484FF6FF710170002080F30988B3
:1003E0001E48016881F308881D48012101701D48DD
:1003F0004FF08051016062B6FEE71A484FF080511D
:100400000160704717484FF080510160704772B625
:10041000EFF3098028B1203880E8F00F0C49096813
:10042000086000B5104880475DF804EB0F4810499C
:100430000A780270064807490A680260106890E866
:10044000F00F203080F309884EF0F40E62B670474A
:10045000700200207802002022ED00E0AC020020B3
:100460005702002004ED00E0A59C01085402002082
:100470005502002081FB0020704701464FF000002C
:1004800081EAE170A0EBE170704700002DE9F04FC8
:1004900082B001904FF000744FF000784FF00005EB
:1004A0004FF0000952F804CB52F804EB0868CB6D0A
:1004B000C0FB0C45D1F88000CEF1000EC3FB0E4509
:1004C000D1F8DC30C0FB0C89C3FB0E8952F804CB99
:1004D00052F804EB48688B6DC0FB0C45D1F88400E2
:1004E000CEF1000EC3FB0E45D1F8D830C0FB0C890D
:1004F000C3FB0E8952F804CB52F804EB88684B6DAD
:10050000C0FB0C45D1F88800CEF1000EC3FB0E45B0
:10051000D1F8D430C0FB0C89C3FB0E8952F804CB50
:1005200052F804EBC8680B6DC0FB0C45D1F88C0089
:10053000CEF1000EC3FB0E45D1F8D030C0FB0C89C4
:10054000C3FB0E8952F804CB52F804EB0869CB6C5C
:10055000C0FB0C45D1F89000CEF1000EC3FB0E4558
:10056000D1F8CC30C0FB0C89C3FB0E8952F804CB08
:1005700052F804EB48698B6CC0FB0C45D1F8940031
:10058000CEF1000EC3FB0E45D1F8C830C0FB0C897C
:10059000C3FB0E8952F804CB52F804EB88694B6C0C
:1005A000C0FB0C45D1F89800CEF1000EC3FB0E4500
:1005B000D1F8C430C0FB0C89C3FB0E8952F804CBC0
:1005C00052F804EBC8690B6CC0FB0C45D1F89C00D9
:1005D000CEF1000EC3FB0E45D1F8C030C0FB0C8934
:1005E000C3FB0E8901984FF4FE4E4EF0FF0E4FEA0A
:1005F000946444EA85144FEAE47CBCEBE43F18BF02
:100600008CEA0E044FEA986848EA89184FEAE87CB9
:10061000BCEBE83F18BF8CEA0E080480A0F802800B
:1006200002F5707201F580514FF000744FF00078C0
:100630004FF000054FF0000952F804CB0868D1F8DC
:100640008030C0FB0C45C3FB0C8952F804CB4868D2
:10065000D1F88430C0FB0C45C3FB0C8952F804CBA5
:100660008868D1F88830C0FB0C45C3FB0C8952F870
:1006700004CBC868D1F88C30C0FB0C45C3FB0C8997
:1006800052F804CB0869D1F89030C0FB0C45C3FB8D
:100690000C8952F804CB4869D1F89430C0FB0C4562
:1006A000C3FB0C8952F804CB8869D1F89830C0FBA1
:1006B0000C45C3FB0C8952F804CBC869D1F89C30B7
:1006C000C0FB0C45C3FB0C8901984FF4FE4E4EF065
:1006D000FF0E4FEA946444EA85144FEAE47CBCEBD5
:1006E000E43F18BF8CEA0E044FEA986848EA89187C
:1006F0004FEAE87CBCEBE83F18BF8CEA0E08A0F894
:100700004040A0F84280A2F57872A1F570614FF0E8
:100710000F0C00F10400CDF800C001904FF0007400
:100720004FF000784FF000764FF0007A4FF0000560
:100730004FF000094FF000074FF0000B52F804CBC8
:1007400052F804EB0868CB6DC0FB0C45C0FB0E678C
:10075000CEF1000EC3FB0C67C3FB0E45D1F8DC30B5
:10076000D1F88000C3FB0E89C3FB0CABCEF1000EA9
:10077000C0FB0C89C0FB0EAB52F804CB52F804EB63
:1007800048688B6DC0FB0C45C0FB0E67CEF1000EB8
:10079000C3FB0C67C3FB0E45D1F8D830D1F88400F9
:1007A000C3FB0E89C3FB0CABCEF1000EC0FB0C8962
:1007B000C0FB0EAB52F804CB52F804EB88684B6DCB
:1007C000C0FB0C45C0FB0E67CEF1000EC3FB0C67EF
:1007D000C3FB0E45D1F8D430D1F88800C3FB0E8995
:1007E000C3FB0CABCEF1000EC0FB0C89C0FB0EAB03
:1007F00052F804CB52F804EBC8680B6DC0FB0C45F3
:10080000C0FB0E67CEF1000EC3FB0C67C3FB0E45A9
:10081000D1F8D030D1F88C00C3FB0E89C3FB0CABF0
:10082000CEF1000EC0FB0C89C0FB0EAB52F804CB1E
:1008300052F804EB0869CB6CC0FB0C45C0FB0E679B
:10084000CEF1000EC3FB0C67C3FB0E45D1F8CC30D4
:10085000D1F89000C3FB0E89C3FB0CABCEF1000EA8
:10086000C0FB0C89C0FB0EAB52F804CB52F804EB72
:1008700048698B6CC0FB0C45C0FB0E67CEF1000EC7
:10088000C3FB0C67C3FB0E45D1F8C830D1F8940008
:10089000C3FB0E89C3FB0CABCEF1000EC0FB0C8971
:1008A000C0FB0EAB52F804CB52F804EB88694B6CDA
:1008B000C0FB0C45C0FB0E67CEF1000EC3FB0C67FE
:1008C000C3FB0E45D1F8C430D1F89800C3FB0E89A4
:1008D000C3FB0CABCEF1000EC0FB0C89C0FB0EAB12
:1008E00052F804CB52F804EBC8690B6CC0FB0C4502
:1008F000C0FB0E67CEF1000EC3FB0C67C3FB0E45B9
:10090000D1F8C030D1F89C00C3FB0E89C3FB0CABFF
:10091000CEF1000EC0FB0C89C0FB0EAB01F580715F
:1009200001984FF4FE4E4EF0FF0E4FEA946444EAF5
:1009300085144FEAE47CBCEBE43F18BF8CEA0E045C
:100940004FEA986848EA89184FEAE87CBCEBE83F30
:1009500018BF8CEA0E084FEA966646EA87164FEAF9
:10096000E67CBCEBE63F18BF8CEA0E064FEA9A6ABB
:100970004AEA8B1A4FEAEA7CBCEBEA3F18BF8CEAE2
:100980000E0ADDF800C000EBCC0E2EF8026B2EF83C
:1009900002AB20F8024B20F8028BBCF1010C7FF473
:1009A000BAAE02B0BDE8F08F2DE9F04F82B00190F1
:1009B0004FF000744FF0000552F804CB52F804EBEE
:1009C0000868CB6DCEF1000EC0FB0C45C3FB0E4595
:1009D00052F804CB52F804EB48688B6DCEF1000E50
:1009E000C0FB0C45C3FB0E4552F804CB52F804EB98
:1009F00088684B6DCEF1000EC0FB0C45C3FB0E4565
:100A000052F804CB52F804EBC8680B6DCEF1000E1F
:100A1000C0FB0C45C3FB0E4552F804CB52F804EB67
:100A20000869CB6CCEF1000EC0FB0C45C3FB0E4534
:100A300052F804CB52F804EB48698B6CCEF1000EEF
:100A4000C0FB0C45C3FB0E4552F804CB52F804EB37
:100A500088694B6CCEF1000EC0FB0C45C3FB0E4504
:100A600052F804CB52F804EBC8690B6CCEF1000EBF
:100A7000C0FB0C45C3FB0E4501984FF4FE4E4EF0F3
:100A8000FF0E4FEA946444EA85144FEAE47CBCEB21
:100A9000E43F18BF8CEA0E04048002F5707201F581
:100AA00080514FF000744FF0000552F804CB0868F5
:100AB000C0FB0C4552F804CB4868C0FB0C4552F80B
:100AC00004CB8868C0FB0C4552F804CBC868C0FB57
:100AD0000C4552F804CB0869C0FB0C4552F804CB16
:100AE0004869C0FB0C4552F804CB8869C0FB0C4533
:100AF00052F804CBC869C0FB0C4501984FF4FE4E78
:100B00004EF0FF0E4FEA946444EA85144FEAE47C09
:100B1000BCEBE43F18BF8CEA0E040484A2F57872A3
:100B2000A1F570614FF00F0C00F10200CDF800C08C
:100B300001904FF000744FF000764FF000054FF039
:100B4000000752F804CB52F804EB0868CB6DC0FBE9
:100B50000C45C0FB0E67CEF1000EC3FB0E45C3FB78
:100B60000C6752F804CB52F804EB48688B6DC0FB5D
:100B70000C45C0FB0E67CEF1000EC3FB0E45C3FB58
:100B80000C6752F804CB52F804EB88684B6DC0FB3D
:100B90000C45C0FB0E67CEF1000EC3FB0E45C3FB38
:100BA0000C6752F804CB52F804EBC8680B6DC0FB1D
:100BB0000C45C0FB0E67CEF1000EC3FB0E45C3FB18
:100BC0000C6752F804CB52F804EB0869CB6CC0FBFD
:100BD0000C45C0FB0E67CEF1000EC3FB0E45C3FBF8
:100BE0000C6752F804CB52F804EB48698B6CC0FBDD
:100BF0000C45C0FB0E67CEF1000EC3FB0E45C3FBD8
:100C00000C6752F804CB52F804EB88694B6CC0FBBC
:100C10000C45C0FB0E67CEF1000EC3FB0E45C3FBB7
:100C20000C6752F804CB52F804EBC8690B6CC0FB9C
:100C30000C45C0FB0E67CEF1000EC3FB0E45C3FB97
:100C40000C6701F5807101984FF4FE4E4EF0FF0ED7
:100C50004FEA946444EA85144FEAE47CBCEBE43F39
:100C600018BF8CEA0E044FEA966646EA87164FEAEA
:100C7000E67CBCEBE63F18BF8CEA0E06DDF800C050
:100C800000EB8C0E2EF8026B20F8024BBCF1010C2D
:100C90007FF44CAF02B0BDE8F08F00002DE9FE4FAD
:100CA0008446D0F800E0DCF804B00EF1BC0292E813
:100CB0000C040CF11C0696E8C003BBEB0A0ACEF844
:100CC000C4A0CEF8C8B00BFB06F00AFB070003FB7C
:100CD000080002FB0900C8BF6FF0000AB8BF4FF060
:100CE000010ABBF1000FC8BF6FF0000BB8BF4FF097
:100CF000010BCEF844A0CEF848B0DCF80C60DCF86C
:100D000010700EF1980292E81C04C6EB4616A7EB91
:100D1000661BCCF80C700CF13C0595E8E003BBEBCE
:100D20000A0ACEF8A4A0CEF8A8B00BFB05F10AFB86
:100D3000061104FB071103FB081102FB0911C8BFD0
:100D40006FF0000AB8BF4FF0010ABBF1000FC8BF37
:100D50006FF0000BB8BF4FF0010BCEF824A0CEF817
:100D600028B0009A00EB6100DCF818401368C4EB6F
:100D7000441403EBA021CCF8041001EB6411CCF86F
:100D8000181042F8041B0092002B39D00EF1180203
:100D90001CCA1EDBA5EB0B05A6EB0A06A9EB020994
:100DA000A8EB0308A7EB04070CF13C0080E8E00384
:100DB0000CF11C0191E83C000EF13C0696E8C003E2
:100DC000A5EB0605A4EB0704A3EB0803A2EB0902BD
:100DD00014E05D4456449144984427440CF13C008F
:100DE00080E8E0030CF11C0191E83C000EF13C06A8
:100DF00096E8C00335443C4443444A4481E83C00FF
:100E0000DCF808B00EF17C0292E80C040CF12C0620
:100E100096E8C003BBEB0A0ACEF884A0CEF888B0EF
:100E20000BFB06F00AFB070003FB080002FB0900AE
:100E3000C8BF6FF0000AB8BF4FF0010ABBF1000F46
:100E4000C8BF6FF0000BB8BF4FF0010BCEF834A055
:100E5000CEF838B0DCF81460DCF818700EF15802E7
:100E600092E81C04C6EB4616A7EB661BCCF8147080
:100E70000CF1500595E8E003BBEB0A0ACEF864A03C
:100E8000CEF868B00BFB05F10AFB061104FB071155
:100E900003FB081102FB0911C8BF6FF0000AB8BFBD
:100EA0004FF0010ABBF1000FC8BF6FF0000BB8BFD5
:100EB0004FF0010BCEF810A0CEF814B0019A00EB61
:100EC0006100DCF810401368C4EB441403EBA0216C
:100ED000CCF8081001EB6411CCF8101042F8041B98
:100EE0000192002B39D00EF104021CCA1EDBA5EBC7
:100EF0000B05A6EB0A06A9EB0209A8EB0308A7EB72
:100F000004070CF1500080E8E0030CF12C0191E89B
:100F10003C000EF12C0696E8C003A5EB0605A4EBF9
:100F20000704A3EB0803A2EB090214E05D44564456
:100F30009144984427440CF1500080E8E0030CF100
:100F40002C0191E83C000EF12C0696E8C0033544D4
:100F50003C4443444A4481E83C000EF1040E0CF149
:100F6000640BAEF5006A0298DA4509D0401E18BF3E
:100F700002907FF498AECCF800E003B0BDE8F08FAB
:100F8000BEE8FF03ABE8FF03BEE8FF03ABE8FF03E7
:100F9000BEE8FF03ABE8FF03BEE8FF03ABE8FF03D7
:100FA000BEE8FF03ABE8FF0302980CF1640E401E9D
:100FB00018BF02907FF477AEDDE72DE9F64F844647
:100FC000D0F800E0DCF804B00EF1BC0292E80C04AA
:100FD0000CF11C0595E8C003BBEB0A0ACEF8C4A0CF
:100FE000CEF8C8B00BFB06F00AFB070003FB0800B5
:100FF00002FB0900C8BF6FF0000AB8BF4FF0010A3A
:10100000BBF1000FC8BF6FF0000BB8BF4FF0010B72
:10101000CEF844A0CEF848B0009ADCF81840136827
:10102000C4EB441403EBA021CCF8041001EB6411D1
:10103000CCF8181042F8041B0092002B13D0DEF8F5
:101040003C20DEF8403008DBA6EB0B06A7EB0A07D6
:10105000A9EB0209A8EB030803E05E44574491445E
:10106000984485E8C0030EF1040E0CF1640BAEF554
:10107000006A0198DA4508D0401E18BF0190A1D13E
:10108000CCF800E002B0BDE8F08FBEE8FF03ABE8AB
:10109000FF03BEE8FF03ABE8FF03BEE8FF03ABE8D6
:1010A000FF03BEE8FF03ABE8FF03BEE8FF03ABE8C6
:1010B000FF0301980CF1640E401E18BF019081D10E
:1010C000DEE7000010B5FF48006826F051FFFE483B
:1010D000006826F04DFFFD48006826F049FFFC48F7
:1010E000006826F045FFFB48006826F041FFFA48FB
:1010F000006826F03DFFF948006826F039FF10BD72
:1011000010B500244FF4007026F036FFED4908605A
:101110000846006800B901244FF4007026F02CFF47
:10112000E94908600846006800B901244FF40070DE
:1011300026F022FFE54908600846006800B901244E
:10114000A02026F019FFE24908600846006800B9AF
:101150000124402026F010FFDE49086008460068A0
:1011600000B90124402026F007FFDB49086008464B
:10117000006800B901244FF4F87026F0FDFED7494D
:1011800008600846006800B901240CB1FFF79AFF17
:10119000204610BD2DE9F04704460D461646701B4B
:1011A00000EBD07105EB610954F8397004EBC9010B
:1011B000486866F0C8FE804654F8350044F83900A7
:1011C00004EBC500406804EBC9014860A94605F17D
:1011D000010A1DE054F83A00394666F0F3FE15D8CE
:1011E00054F83A0044F8390004EBCA00406804EBB4
:1011F000C901486009F1010954F8390044F83A007E
:1012000004EBC900406804EBCA0148600AF1010A16
:10121000B245DFDDA9EB0500012805DDA9F10102DA
:1012200029462046FFF7B6FFA6EB0900012805DD99
:10123000324609F101012046FFF7ACFF44F839704E
:10124000404666F087FE04EBC9014860BDE8F087C0
:101250002DE9F84F04460D4616461F464FF000088C
:1012600028E04FF0000920E04FF0000BDA4612E0D2
:101270000B9A0AFB029255F822100A9A08FB02A266
:1012800054F8220066F0B6FE5946009066F03DFE26
:1012900083460AF1010A0A988245E9DB0B9808FBAC
:1012A000009046F820B009F101090B988145DBDB7D
:1012B00008F10108B845D4DBBDE8F88F024612B941
:1012C00009B900207047002A02DD09B90020F9E7BA
:1012D000002903DD8A4201DD0120F3E7002A03DD56
:1012E000914201D10220EDE7002A03DD8A4201DAB2
:1012F0000320E7E71AB9002901DD0420E2E7002A0C
:1013000008DA101E01DB034600E043428B4201DA9B
:101310000520D7E7002A08DA101E01DB034600E0AB
:1013200043428B4201D10620CCE7002A0ADA101E84
:1013300001DB034600E043428B4203DD002901DD6F
:101340000720BFE719B9002A01DA0820BAE7002907
:1013500003DA914201DD0920B4E7002A03DA914261
:1013600001D10A20AEE7002A03DA914201DA0B200C
:10137000A8E71AB9002901DA0C20A3E700290ADA44
:10138000081E01DB034600E04342934203DD002ACE
:1013900001DD0D2096E7002908DA081E01DB03466F
:1013A00000E04342934201D10E208BE7002908DA86
:1013B000081E01DB034600E04342934201DA0F209E
:1013C00080E700207EE730B5034601B10AB900206E
:1013D00030BD412901D0412A01D10020F8E7491E42
:1013E000521E03EBC20000EBE100047801F0070598
:1013F0000120A840044201D00120E9E70020E7E7EE
:101400002DE9FE4F04460D4616461F46002001906A
:10141000781C82000021324826F0B2FD781C820040
:101420000021304826F0ACFD4FF0000819E04FF0E5
:10143000000912E004EBC80000EBE900017809F0B4
:10144000070201209040014205D04FF07E510198E3
:1014500066F05BFD019009F10109B145EADB08F195
:101460000108A845E3DB384666F074FD8246014674
:10147000019866F05FFD01900120029049E04FF075
:10148000000AD0463AE04FF0000912E004EBC90030
:1014900000EBE800017808F00702012090400142CB
:1014A00005D04FF07E51504666F02FFD824609F17F
:1014B0000109A945EADB029866F04CFD009001990C
:1014C00012E00000580800205C080020600800209E
:1014D00064080020680800206C08002070080020C4
:1014E0006C0002208000022066F084FD8346514695
:1014F00066F068FD00D804E008F10108701E404560
:10150000C1DC00BFFD48029940F821800298401CD0
:101510000290781C02998142B1DB0120029035E0F3
:101520004FF0000AD14626E04FF0000812E004EB2D
:10153000C90000EBE800017808F0070201209040A4
:10154000014205D04FF07E51504666F0DEFC8246E7
:1015500008F10108B045EADB029866F0FBFC009058
:10156000019966F047FD8346514666F02BFD00D891
:1015700004E009F10109681E4845D5DC00BFE049D7
:10158000029841F820900298401C0290781C029921
:101590008142C5DB0020029032E0029991FBF7F115
:1015A000D74A52F82120029991FBF7F1491CD44BFC
:1015B00053F82110501800EBD0714910D14A12682D
:1015C000029B42F82310029991FBF7F207FB1211DC
:1015D000CA4A52F82120029991FBF7F307FB131135
:1015E000491CC64B53F82110501800EBD07149101C
:1015F000C54A1268029B42F823100298401C0290D0
:1016000007FB07F002998842C7DCBDE8FE8F2DE991
:10161000F34F8FB0402440200A901025AA000021EB
:10162000B948006826F0ACFCAA000021B548006863
:1016300026F0A6FC042321460A9A0F98FFF7E0FE45
:10164000E2000021B148006826F09AFC00200B90CF
:1016500060E3AC4801680B9851F820000290AA485A
:1016600001680B9851F8200001900298083040283A
:1016700001DD402001E00298083008900198083010
:10168000402801DD402001E00198083006900298D2
:10169000083801D5002001E0029808380990019827
:1016A000083801D5002001E0019808380790099812
:1016B0000E9027E307980D901CE3DDE90D120F98BB
:1016C000FFF781FE8146DDE90D12491C0F98FFF7F7
:1016D0007AFE022101FB0099DDE90D12891C0F98A9
:1016E000FFF771FE81440E9A921C0D990F98FFF737
:1016F0006AFEA9EB00090E9A921C0D99491C0F98DD
:10170000FFF761FE022101FB10990E9A921C0D99C0
:10171000891C0F98FFF757FEA9EB000007B2DDE91F
:101720000D12891C0F98FFF74EFE81460E9A521C2F
:101730000D99891C0F98FFF746FE022101FB0099C5
:101740000E9A921C0D99891C0F98FFF73CFE81445C
:10175000DDE90D120F98FFF736FEA9EB00090E9A8E
:10176000521C0D990F98FFF72EFE022101FB1099D4
:101770000E9A921C0D990F98FFF725FEA9EB000019
:101780000FFA80F8002F02DBB8F1000F00DA00BF7B
:1017900041463846FFF792FD0390039841100B989D
:1017A00001FB05060398401C40100B9900FB051037
:1017B000059002990E98401A083000EB0010019A2B
:1017C0000D99891A08440830514951F820000490B5
:1017D000039810281CD2DFE800F0081C4A629FB36F
:1017E000F2F0EFEEEDECEBEAE9E8384666F0B2FB3A
:1017F0008246049966F0FEFB81464448006850F832
:101800002610484666F081FB4049096841F82600E9
:101810006CE2A7EB080066F09DFB8246049966F037
:10182000E9FB81463948006850F82610484666F0C2
:101830006CFB3649096841F82600404666F08AFB91
:101840008346344966F0D6FB8246049966F0D2FBA3
:1018500081462E480268059852F82010484666F0E6
:1018600054FB2A490968059A41F822003EE24046A5
:1018700066F070FB8346274966F0BCFB82460499FC
:1018800066F0B8FB81462148006850F826104846AB
:1018900066F03BFB1D49096841F8260026E2384600
:1018A00066F058FB83461B4966F0A4FB8246049908
:1018B00066F0A0FB81461548006850F8261048469F
:1018C00066F023FB1149096841F82600A8EB0700E0
:1018D00066F040FB8246049966F08CFB81460B481B
:1018E0000268059852F82010484666F00EFB07493A
:1018F0000A68059942F82100F8E100006C00022016
:10190000800002206C080020680800205C0800208D
:10191000301D0808F704B53F404666F01BFB8246C1
:10192000049966F067FB8146FE48006850F826106F
:10193000484666F0EAFAFB49096841F82600D5E115
:1019400007EB080066F006FB8246049966F052FB3E
:101950008146F448006850F82610484666F0D5FAEB
:10196000F049096841F82600B7F1000901DB494652
:1019700001E0C9F10001084666F0ECFAEA4900907E
:1019800066F038FB8346049966F034FB8246E548EE
:101990000068059A50F82210504666F0B6FAE14900
:1019A0000968059A41F82200A0E166E14DE111E1E4
:1019B000F5E0BFE09FE069E04DE018E0FFE740465A
:1019C00066F0C8FA8346D84966F014FB824604994B
:1019D00066F010FB8146D348006850F82610484650
:1019E00066F093FACF49096841F826007EE1404647
:1019F00066F0B0FA8346CC4966F0FCFA8246049958
:101A000066F0F8FA8146C748006850F82610484644
:101A100066F07BFAC349096841F8260017EB08090C
:101A200001D4494601E0C9F10001084666F092FA86
:101A30008346049966F0DEFA8246BA480068059A41
:101A400050F82210504666F060FAB6490968059AC7
:101A500041F822004AE1B7F1000901DB494601E003
:101A6000C9F10001084666F075FA8346049966F0EC
:101A7000C1FA8246AB48006850F82610504666F01E
:101A800044FAA849096841F826002FE1A8EB0700AD
:101A900066F060FA8246049966F0ACFA8146A14885
:101AA000006850F82610484666F02FFA9D490968EC
:101AB00041F82600B8F1000901DB494601E0C9F10F
:101AC0000001084666F046FA9749009066F092FADF
:101AD0008346049966F08EFA824692480068059A19
:101AE00050F82210504666F010FA8E490A6805999F
:101AF00042F82100FAE0B8F1000901DB494601E0B3
:101B0000C9F10001084666F025FA8749009066F0A1
:101B100071FA8346049966F06DFA8246814800683E
:101B200050F82610504666F0F0F97E49096841F8F1
:101B30002600DBE0B7F1000901DB494601E0C9F10D
:101B40000001084666F006FA7749009066F052FAFE
:101B50008346049966F04EFA82467248006850F84F
:101B60002610504666F0D1F96E49096841F8260002
:101B7000A7EB080066F0EEF98246049966F03AFA9F
:101B8000814668480268059852F82010484666F079
:101B9000BCF964490A68059942F82100A6E0B8F149
:101BA000000901DB494601E0C9F10001084666F081
:101BB000D1F98346049966F01DFA824659480068B7
:101BC00050F82610504666F0A0F95649096841F8C9
:101BD00026008BE017EB080901D4494601E0C9F162
:101BE0000001084666F0B6F98346049966F002FAE9
:101BF00082464C48006850F82610504666F085F939
:101C00004849096841F82600B7F1000901DB494657
:101C100001E0C9F10001084666F09CF942490090D4
:101C200066F0E8F98346049966F0E4F982463D4897
:101C30000068059A50F82210504666F066F9394956
:101C40000A68059942F8210050E0384666F082F9AA
:101C50008346354966F0CEF98246049966F0CAF9A2
:101C600081463048006850F82610484666F04DF925
:101C70002C49096841F8260038E0B8F1000901DB79
:101C8000494601E0C9F10001084666F063F92649BA
:101C9000009066F0AFF98346049966F0ABF982468E
:101CA0002048006850F82610504666F02EF91D496D
:101CB000096841F8260017EB080901D4494601E0FC
:101CC000C9F10001084666F045F98346049966F0BB
:101CD00091F982461348006850F82610504666F085
:101CE00014F91049096841F8260000BF00BF0D989B
:101CF000401C0D9006990D9888427FF7DEAC0E9837
:101D0000401C0E9008990E9888427FF7D3AC0B9830
:101D1000401C0B900B98A8427FF49BAC00200B90CA
:101D20001FE000005C080020F704B53F00200C9085
:101D300011E0DDE90B0101FB0506FF49096851F8D7
:101D40002600FE494DF0C4FCFD49096841F8260013
:101D50000C98401C0C900C980828EADB0B98401C4F
:101D60000B900B981028E1DB11B0BDE8F08F2DE946
:101D7000FF4F8BB004460D461E46199F002007906A
:101D800090E2079805EB80000088ADF828000798DE
:101D900005EB80004088ADF82A000798401C05EB51
:101DA00080000088ADF824000798401C05EB8000F7
:101DB0004088ADF82600BDF92800BDF924108842FE
:101DC00072D1BDF92A00089067E0002E41D04FF093
:101DD000FF383AE04FF0FF30069031E0089810EB02
:101DE00008002AD4089800EB08011898814224DAE8
:101DF000BDF92800069940181FD4BDF9281006988F
:101E00000844B84219DABDF928100698084405902C
:101E10000898404404EBC000059900EBE10000780D
:101E200001F007020121914008430899414404EB65
:101E3000C101059A01EBE20108700698401C06906A
:101E400006980228CAD108F10108B8F1020FC1D1E1
:101E500016E0BDF928000590089804EBC00105982C
:101E600001EBE0000078059901F0070201219140A3
:101E70000843089904EBC102059902EBE1010870DF
:101E8000BDF92600BDF92A10884203DD0898401CE0
:101E9000089002E00898401E0890BDF926100898A6
:101EA000814292D1FBE1FFE7BDF92A00BDF926107E
:101EB000884275D1BDF9280008906AE0002E42D012
:101EC0004FF0FF383BE04FF0FF30069032E00699CC
:101ED000089840182BD40699089808441899884205
:101EE00025DABDF92A0010EB080020D4BDF92A003C
:101EF0004044B8421BDA0699089808440590BDF999
:101F00002A00404404EBC001059801EBE000007892
:101F1000059901F00702012191400843BDF92A10FB
:101F2000414404EBC102059902EBE10108700698F7
:101F3000401C069006980228C9D108F10108B8F1A2
:101F4000020FC0D118E008980590BDF92A0004EBF3
:101F5000C001059801EBE0000178059800F0070248
:101F6000012090400143C8B2BDF92A1004EBC10121
:101F7000059A01EBE2010870BDF92400BDF92810B3
:101F8000884203DD0898401C089002E00898401E33
:101F90000890BDF92410089881428FD17FE1FFE7B6
:101FA000BDF92410BDF92820881A65F0D3FF8246B8
:101FB000BDF92610BDF92A20881A65F0CBFF8346AB
:101FC000514665F0B7FF814665F074FFCDE9020127
:101FD00021F00041CDE900015AA00CC8009865F03D
:101FE00037FC13D2BDF92410BDF92820881A65F0FA
:101FF000B1FF8146BDF92610BDF92A20881A65F087
:10200000A9FF8246494665F095FF12E0BDF926100A
:10201000BDF92A20881A65F09DFF8146BDF924107C
:10202000BDF92820881A65F095FF8246494665F07B
:1020300081FF0490BDF92420BDF92830D01ABDF9E4
:102040002620BDF92A30D11A01D40B4600E04B42BC
:10205000002801DB024600E0424293426BDA002096
:1020600008907EE0089865F075FF0390049965F08C
:10207000C1FF834665F067FFBDF92A1000EB010937
:10208000BDF92800089900EB010A002E3CD04FF062
:10209000FF3835E04FF0FF3006902CE019EB0800D8
:1020A00026D409EB08001899884221DA06981AEB21
:1020B00000001DD406985044B84219DA0AF1010014
:1020C000059009EB080004EBC000059900EBE10066
:1020D0000178059800F00702012090400143C8B242
:1020E00009EB080104EBC101059A01EBE20108705C
:1020F0000698401C069006980228CFD108F10108E6
:10210000B8F1020FC6D113E0CDF814A004EBC9005A
:10211000DDF814A000EBEA0001780AF007020120C4
:1021200090400143C8B204EBC90101EBEA01087019
:10213000BDF924000AE01EE05C08002085EBD13EDA
:1021400060080020000000000000F03FBDF92810EA
:10215000884203DD0898401C089002E00898401E61
:102160000890BDF92400BDF92810401A089988424A
:102170007FF478AF92E0BDF92420BDF92830D01A61
:10218000BDF92620BDF92A30D11A01D40B4600E052
:102190004B42002801DB024600E0424293427DDBD5
:1021A0000020089072E0BDF92A10089801EB0009A0
:1021B000089865F0CFFE0390049965F01BFF8346F5
:1021C00065F0C1FEBDF9281000EB010A002E3CD0DD
:1021D0004FF0FF3835E04FF0FF3006902CE019EB60
:1021E000080026D409EB08011898814221DA0698E4
:1021F0001AEB00001DD406985044B84219DA06982C
:102200005044059009EB080004EBC000059900EB71
:10221000E1000178059800F0070201209040014399
:10222000C8B209EB080104EBC101059A01EBE20118
:1022300008700698401C069006980228CFD108F135
:102240000108B8F1020FC6D113E0CDF814A004EBD9
:10225000C900DDF814A000EBEA0001780AF00702DB
:10226000012090400143C8B204EBC90101EBEA012F
:102270000870BDF92600BDF92A10884203DD0898D0
:10228000401C089002E00898401E0890BDF9260006
:10229000BDF92A10411A0898814284D100BF0798DD
:1022A000401C07900D98411E079881427FF469AD4C
:1022B0000FB0BDE8F08F2DE9F04F099C15464FF0A7
:1022C000FF360F46B4464FF0000935E000EB890AAF
:1022D000BAF902A0BA4504DA00EB890ABAF902A0F9
:1022E00000E0BA46574600EB890ABAF900A0AA45B1
:1022F00004DA00EB890ABAF900A000E0AA465546C4
:1023000000EB890ABAF902A0E24504DD00EB890A74
:10231000BAF902A000E0E246D44600EB890ABAF915
:1023200000A0B24504DD00EB890ABAF900A000E084
:10233000B246564609F10109DDF828A0D145C5DBB2
:10234000ACEB070A0AF1010A93FBFAFA0AF1010E53
:10235000A6EB050A0AF1010A94FBFAFA0AF1010850
:102360004FF000092BE000EB890ABAF902A0AAEBB2
:10237000070A0AFB03FAACEB070B0BF1010B9AFB04
:10238000FBFAF2440FFA8AFA00EB890BABF802A0D1
:1023900000EB890ABAF900A0AAEB050A0AFB04FAC5
:1023A000A6EB050B0BF1010B9AFBFBFAC2440FFAEB
:1023B0008AFA00EB890BABF800A009F10109DDF8FE
:1023C00028A0D145CFDBBDE8F08F2DE9FF4784B0D1
:1023D00014461D46BDF91000BDF91410884223D1E2
:1023E000002619E0BDF81000296804EB810108807F
:1023F000BDF81200304400B2296804EB8101488026
:102400002868401C2860BDF91600BDF912108842EA
:1024100001DD761C00E0761EBDF91600BDF9121034
:10242000401AB042DED1E9E0BDF91200BDF9161044
:10243000884223D1002619E0BDF81200296804EB78
:1024400081014880BDF81000304400B2296804EBD7
:10245000810108802868401C2860BDF91400BDF97E
:102460001010884201DD761C00E0761EBDF91400D4
:10247000BDF91010401AB042DED1BFE0BDF9141012
:10248000BDF91020881A65F065FD8146BDF916106A
:10249000BDF91220881A65F05DFD8246494665F057
:1024A00049FD804665F006FDCDE9020121F00041BD
:1024B000CDE90001AFF274300CC8009865F0C8F99E
:1024C00013D2BDF91410BDF91020881A65F042FD31
:1024D0008046BDF91610BDF91220881A65F03AFD44
:1024E0008146414665F026FD12E0BDF91610BDF9A2
:1024F0001220881A65F02EFD8046BDF91410BDF932
:102500001020881A65F026FD8146414665F012FDCF
:102510000746BDF91420BDF91030D01ABDF91620B8
:10252000BDF91230D11A01D40B4600E04B4200280D
:1025300001DB024600E0424293422FDC002625E008
:10254000BDF81000304400B2296804EB8101088016
:10255000304665F0FFFC8146394665F04BFD80460C
:1025600065F0F1FCBDF81210084400B2296804EBD4
:10257000810148802868401C2860BDF91400BDF91D
:102580001010884201DD761C00E0761EBDF91400B3
:10259000BDF91010401AB042D2D12EE0002625E03D
:1025A000BDF81200304400B2296804EB8101488074
:1025B000304665F0CFFC8146394665F01BFD80460C
:1025C00065F0C1FCBDF81010084400B2296804EBA6
:1025D000810108802868401C2860BDF91600BDF9FB
:1025E0001210884201DD761C00E0761EBDF916004F
:1025F000BDF91210401AB042D2D100BF08B0BDE8F8
:10260000F0872DE9F84F04460D461646701E00EB84
:10261000D0714FEA6109A5EB09000090CA46A800F5
:1026200025F0AAFC8346AA002146584606F0FCFC89
:10263000B54205DB06EBD6714910B6EB410101D17D
:10264000BDE8F88F4F463CE0002004EB870108808E
:1026500004EB87014880CAF100081BE004EB870007
:10266000008807EB08010BEB81010988084400B2E0
:1026700004EB8701088004EB8700408807EB080122
:102680000BEB81014988084400B204EB87014880C4
:1026900008F10108D045E1DD04EB8700B0F9000046
:1026A00090FBF6F000B204EB8701088004EB870092
:1026B000B0F9020090FBF6F000B204EB870148800D
:1026C0007F1C00988742BFDB584625F051FCB7E7D6
:1026D0002DE9FF4F91B004460D461E9E0327802032
:1026E00010900F9040200E900D9000200B900A90BB
:1026F0008146802009900520049029462046049AAE
:10270000FFF77FFF4FF0010A29E004EB8A01B1F9DE
:102710000010AAF1010204EB8202B2F90020881A2B
:1027200001D4014600E04142089104EB8A01B1F96D
:102730000210AAF1010204EB8202B2F90220881A07
:1027400001D4014600E041420791DDE907108842CB
:1027500001DB089800E0079881440AF1010AAA45C4
:10276000D3DB4FEA890025F007FC80464FEA890257
:102770000021404625F004FC4FF0000A15E00AF164
:10278000010004EB8001042203A806F04DFC04EBD9
:102790008A01042202A806F047FC0AAB4246DDE9A2
:1027A0000201FFF712FE0AF1010A681E5045E6D148
:1027B0004FEA8900B0FBF7F0039025F0DDFB0C90A9
:1027C0004FEA8900B0FBF7F00246002103900C9815
:1027D00025F0D6FB4FF0000A13E008EB8A000088D2
:1027E000DDE90B2101EB8201088008EB8A004088BB
:1027F000DDE90B2101EB820148800B98401C0B9016
:10280000BA44CA45E9DB404625F0B2FB0B9B0E9A61
:10281000CDE90023DDE90C03DDE90F12FFF74BFDE5
:102820004FF400720021FD48006825F0A9FBDDE9A6
:102830000D23CDE900230123F848DDE90B210068D1
:10284000FFF795FA0C9825F093FBF4480999006876
:10285000FEF7DDFE2823099ACDE900230123F04885
:10286000F0490268F0480068FEF7F2FC149801286D
:1028700006D0022809D003280CD0042814D10EE079
:10288000002006900A20059012E00A2006902420DD
:1028900005900DE0242006903E20059008E00020E1
:1028A00006903E20059003E0002015B0BDE8F08FB3
:1028B00000BF4FF4F8720021DC48006825F060FB8F
:1028C0004FF0000A40E04FF0000B30E0069A52440F
:1028D00002EB8202D64B03EB421252F82B10D04A85
:1028E000126852F82B0065F0DEFB0290069A524403
:1028F00002EB8202CE4B03EB421252F82B10C84A75
:10290000126852F82B0065F0CEFB0190029965F039
:1029100071FB0390C548006850F83A10039865F0C1
:10292000F4FAC249096841F83A000BF1010BBBF116
:10293000280FCBD1504665F00DFBBC49096801EB6F
:10294000CA0148600AF1010ADDE90501401A504553
:10295000B9D1DDE90501401A421E0021B3480068E3
:10296000FEF718FC4FF0000A0EE0B049096801EBD1
:10297000CA01486865F0E7FA06990844AD49085C61
:1029800006F80A000AF1010A13988245EDDB0020DF
:1029900006F80A00307888E72DE9F84F04460D461E
:1029A00016461F46DDF828804FF000094FF6FF7AE3
:1029B000D346012D02DCC846BDE8F88F4FF0000970
:1029C0001CE004EB8900B0F9001009F1010004EBF0
:1029D0008000B0F9000081420BD104EB8900B0F90E
:1029E000021009F1010004EB8000B0F902008142FD
:1029F00000D006E009F101001FFA80F9681E484581
:102A0000DFDC00BF681E484500D1D5E74FF0000964
:102A100019E004EB8900B0F90000504504DA04EB3A
:102A2000890000881FFA80FA04EB8900B0F90200DF
:102A3000584504DA04EB890040881FFA80FB09F14D
:102A400001001FFA80F9A945E3DB4FF0000915E00A
:102A500004EB89000088A0EB0A0000B204EB8901B6
:102A6000088004EB89004088A0EB0B0000B204EB67
:102A70008901488009F101001FFA80F9A945E7DBC7
:102A80003B46324629462046CDF80080FFF720FE1F
:102A900092E72DE9F84F4FF00009C3F800900124A8
:102AA000EBE0A4F1010900EB8909B9F9005000EB52
:102AB0008409B9F900A0CDF800A0A4F1010900EB48
:102AC0008909B9F9026000EB8409B9F90270DDF8EF
:102AD00000A0BAEB050901D4CA4601E0C9F1000A19
:102AE000D446B7EB060901D4CA4601E0C9F1000A91
:102AF000D646F44559DD4FF0000853E0DDF800906C
:102B0000A9450ADD05EB08090FFA89F9D3F800A0F9
:102B100002EB8A0AAAF8009009E0A5EB08090FFA6F
:102B200089F9D3F800A002EB8A0AAAF80090B7420C
:102B30001ADDD3F800A002EB8A0ABAF900A0BAEBBA
:102B4000050901D4CA4601E0C9F1000A0AFB0EFAE0
:102B50009AFBFCFAB2440FFA8AFAD3F800B002EBFF
:102B60008B0BABF802A01AE0D3F800A002EB8A0AA4
:102B7000BAF900A0BAEB050901D4CA4601E0C9F1CF
:102B8000000A0AFB0EFA9AFBFCFAA6EB0A0A0FFAF5
:102B90008AFAD3F800B002EB8B0BABF802A01B1D36
:102BA00008F10108E045A9DB66E04FF0000861E0AC
:102BB000B7420ADD06EB08090FFA89F9D3F800A03D
:102BC00002EB8A0AAAF8029009E0A6EB08090FFABC
:102BD00089F9D3F800A002EB8A0AAAF80290DDF87E
:102BE0000090A94528DDD3F800A002EB8A0ABAF9C3
:102BF00002A0BAEB060901D4CA4601E0C9F1000AF5
:102C00000AFB0CFA9AFBFEFAAA440FFA8AFAD3F8E6
:102C100000B002EB8B0BABF800A028E058080020B6
:102C200064080020F42608086008002070080020CE
:102C3000F4760808B49D0808D3F800A002EB8A0ACD
:102C4000BAF902A0BAEB060901D4CA4601E0C9F1FB
:102C5000000A0AFB0CFA9AFBFEFAA5EB0A0A0FFA25
:102C60008AFAD3F800B002EB8B0BABF800A01B1D67
:102C700008F10108F0459BDB641C8C42FFF611AFA4
:102C8000BDE8F88FFE4880ED3A0A70472DE9F0471D
:102C9000DFF8EC9300262DED0A8B0446B0EE408A57
:102CA000F0EE608A884635463746D9F8AC0064F0C5
:102CB0005EFD53EC182B64F0CBFD6FD3D9F8B00058
:102CC00064F055FD53EC182B64F0FCFEF5D3B4F919
:102CD0000000B4F90610401A64F049FD53EC182BBB
:102CE00064F0B6FD00D20126B4F90E00B4F9141058
:102CF000401A64F03CFD53EC182B64F0A9FD00D29F
:102D0000761CB4F91C00B4F92210401A64F02FFDAF
:102D100053EC182B64F09CFD00D2761C9FEDD90B70
:102D2000012E3BDC53EC102B51EC180B64F0CCFD66
:102D30008946064649EC180BB4F90000B4F90610B0
:102D4000401A64F014FD53EC182B64F0BBFE00D263
:102D50000125B4F90E00B4F9141049EC186B401AAF
:102D600064F005FD53EC182B64F0ACFE00D26D1C32
:102D7000B4F91C00B4F9221049EC186B401A64F045
:102D8000F6FC53EC182B64F09DFE00D26D1C002D58
:102D900005DD0220BDEC0A8BBDE8F08765E000266A
:102DA0009FEDBACB06EB460904EB8905B5F90A009D
:102DB00064F0DDFC98ED048B53EC182B64F090FF6D
:102DC00041EC190BB5F9040064F0D1FC53EC182B5D
:102DD00064F086FF53EC192B64F076FD41EC190B7F
:102DE000B5F9080064F0C3FC98ED028B53EC182B86
:102DF00064F076FF41EC1A0BB5F9020064F0B7FC01
:102E000053EC182B64F06CFF53EC1A2B64F05CFD50
:102E100041EC1A0BB5F9060064F0A9FC98ED008BA3
:102E200053EC182B64F05CFF41EC1B0B34F92900C8
:102E300064F09DFC53EC182B64F052FF53EC1B2BF9
:102E400064F042FD53EC1A2B64F0E4F953EC192BB7
:102E500064F0E0F953EC1C2B64F0FAFC00D27F1C08
:102E6000761C032E9EDB022F01DA012092E7002060
:102E700090E788490A684B68D00180EAD20080EA6E
:102E8000031048608B68520380EAC30382EA53123E
:102E9000520282EAD0208B600860704710B52DED99
:102EA000048BF0EE408AFFF7E4FF00EE100AB8EE64
:102EB000400ADFED790A20EE200A9FED789A20EE95
:102EC000090A21F0B1F9B0EE408AFFF7D2FF00EE17
:102ED000100AB8EE400A20EE090AB5EEC00AF1EE7B
:102EE00010FA01D1B7EE000A10EE100A64F0E2FF0A
:102EF00041EC100B21F0B4FA9FED691B51EC100B63
:102F000053EC112B64F0E0FC64F052F900EE100A6F
:102F100022F0E7FF20EE280A20EE080ABDEC048B21
:102F200010BD2DE9F04105462DED048BB0EE608A11
:102F3000F0EE408A0F4618EE100A64F0BBFF97EDE2
:102F4000301B53EC112B64F0BFFC41EC190B18EE55
:102F5000900A64F0AFFF95ED301B53EC112B64F039
:102F6000B3FC53EC192B64F055F90024C5E930018A
:102F700018EE100A64F09EFF07EBC40898ED001BE2
:102F800053EC112B64F0A0FC41EC190B18EE900AE5
:102F900064F090FF05EBC40696ED001B53EC112B7B
:102FA00064F092FC53EC192B64F034F9C6E900018B
:102FB00018EE100A64F07EFF98ED241B53EC112BE1
:102FC00064F082FC41EC190B18EE900A64F072FF79
:102FD00096ED241B53EC112B64F076FC53EC192B6B
:102FE00064F018F9641CC6E92401062CC0DB002437
:102FF00018EE100A64F05EFF41EC100B07EBC40002
:1030000090ED121B51EC100B53EC112B64F05CFC97
:1030100041EC190B18EE900A64F04CFF05EBC40666
:1030200096ED121B53EC112B64F04EFC53EC192B54
:1030300064F0F0F8641CC6E91201092CD8DB002406
:1030400018EE100A64F036FF41EC100B07EBC400D9
:1030500090ED0C1B51EC100B53EC112B64F034FC75
:1030600041EC190B18EE900A64F024FF05EBC4063E
:1030700096ED0C1B53EC112B64F026FC14E00000C1
:103080006003022000000000000004400000000077
:103090000000000084080020DB0FC9400000802FE2
:1030A00000000000000000C053EC192B64F0B2F8DF
:1030B000641CC6E90C01032CC2DBBDEC048BBDE82B
:1030C000F0812DE9F04F04462DED068B83B00D46BF
:1030D000086864F04CFB41EC1A0B686864F047FB2D
:1030E00041EC190BA86864F042FB41EC180B94ED1D
:1030F000300B9FEDFE1B51EC100B53EC112B64F0C9
:1031000089F8C4E9300194ED0C0B53EC1A2B51EC07
:10311000100B64F07FF8C4E90C0194ED0E0B53EC36
:10312000192B51EC100B64F075F8C4E90E0194ED05
:10313000100B53EC182B51EC100B64F06BF8C4E936
:10314000100153EC1A2B51EC1A0B64F0BDFB0291E9
:1031500094ED001B064653EC112B64F05BF8C4E9B8
:10316000000153EC192B51EC1A0B64F0ADFB8946AE
:1031700049EC100B94ED021B054653EC112B51EC5E
:10318000100B64F047F8C4E9020153EC182B51EC22
:103190001A0B64F099FB8B464BEC100B94ED041B5F
:1031A000804653EC112B51EC100B64F033F8C4E95A
:1031B000040153EC192B51EC190B64F085FB0191C0
:1031C00094ED061B074653EC112B64F023F8C4E979
:1031D000060153EC182B51EC190B64F075FB0091B0
:1031E00094ED081B824653EC112B64F013F8C4E9EC
:1031F000080153EC182B51EC180B64F065FB94EDAF
:103200000A1B53EC112B64F005F8C4E90A0102997A
:1032100053EC1A2B41EC106B51EC100B64F054FB87
:1032200094ED121B53EC112B63F0F4FF49EC105B8F
:10323000C4E9120153EC192B51EC100B64F044FB60
:1032400094ED141B53EC112B63F0E4FF4BEC108B4B
:10325000C4E9140153EC182B51EC100B64F034FB4F
:1032600094ED161B53EC112B63F0D4FF49EC105B6B
:10327000C4E9160153EC1A2B51EC100B64F024FB3B
:1032800094ED181B53EC112B63F0C4FFC4E9180133
:10329000019953EC192B41EC107B51EC100B64F0AD
:1032A00013FB94ED1A1B53EC112B63F0B3FFC4E92D
:1032B0001A010099554641EC10AB0E4653EC182B01
:1032C00051EC100B64F000FB94ED1C1B53EC112B24
:1032D00063F0A0FFC4E91C0153EC1A2B51EC180B4E
:1032E00064F0F2FA53EC1A2B64F0EEFA94ED1E1B24
:1032F00053EC112B63F08EFF46EC105BC4E91E010A
:1033000053EC192B51EC100B64F0DEFA94ED201BFA
:1033100053EC112B63F07EFFC4E9200153EC182B12
:1033200051EC180B64F0D0FA894649EC100B0746B3
:1033300053EC182B51EC100B64F0C6FA94ED221BE1
:1033400053EC112B63F066FFC4E9220153EC1A2BF6
:1033500051EC1A0B64F0B8FA884648EC100B05469D
:1033600053EC1A2B51EC100B64F0AEFA53EC1A2B01
:1033700064F0AAFA94ED241B53EC112B63F04AFF7E
:10338000C4E9240153EC192B51EC190B64F09CFA9D
:103390008A464AEC100B064653EC192B51EC100BE5
:1033A00064F092FA53EC192B64F08EFA94ED261B1C
:1033B00053EC112B63F02EFF49EC107BC4E926017E
:1033C00053EC182B51EC100B64F07EFA53EC182BD5
:1033D00064F07AFA94ED281B53EC112B63F01AFF7A
:1033E00048EC105BC4E9280153EC192B51EC100B8D
:1033F00064F06AFA53EC192B64F066FA94ED2A1B18
:1034000053EC112B63F006FF48EC105BC4E92A0172
:1034100053EC182B51EC100B64F056FA53EC182BAC
:1034200064F052FA94ED2C1B53EC112B63F0F2FE76
:103430004AEC106BC4E92C0153EC182B51EC100B27
:1034400064F042FA53EC182B64F03EFA94ED2E1B14
:1034500053EC112B63F0DEFEC4E92E0103B0BDEC8A
:10346000068BBDE8F08F2DE9F04F93462DED108BC4
:103470000D46044693B090ED0CEB53EC1E2B51EC33
:103480001E0B64F021FA94ED000B41EC190B8DED4D
:10349000080B94ED308B53EC102B51EC180B64F0AF
:1034A00013FA53EC192B64F01BFC94ED0EDB41EC8A
:1034B0001F0B53EC1D2B51EC1D0B64F005FA94ED22
:1034C000060B41EC190B8DED060B53EC102B51EC58
:1034D000180B64F0F9F953EC192B64F001FC41EC82
:1034E000100B8DED040B94ED10CB03E000000000F9
:1034F0000000F03F53EC1C2B51EC1C0B64F0E4F982
:1035000094ED0A0B41EC190B8DED020B53EC102BD3
:1035100051EC180B64F0D8F953EC192B64F0E0FB74
:1035200041EC110B53EC1D2B8DED001B51EC1E0BD0
:1035300064F0CAF994ED020B41EC190B53EC102B1B
:1035400051EC180B64F0C0F953EC192B64F0C8FB74
:1035500041EC1B0B53EC1C2B51EC1E0B64F0B4F92B
:1035600094ED040B41EC190B53EC102B51EC180BA0
:1035700064F0AAF953EC192B64F0B2FB41EC1A0B7E
:1035800053EC1C2B51EC1D0B64F09EF994ED080BD1
:1035900041EC190B53EC102B51EC180B64F094F91F
:1035A00053EC192B64F09CFB9DED020B41EC190BC5
:1035B00053EC102B51EC1E0B64F086F941EC110B0F
:1035C00051EC180B8DED101B94ED160B53EC102BDA
:1035D00064F07AF941EC110B51EC1E0B8DED0E1BD2
:1035E0009DED060B53EC102B64F06EF941EC110BC2
:1035F00051EC180B8DED0C1B94ED140B53EC102BB0
:1036000064F062F941EC110B51EC1E0B8DED0A1BBD
:103610009DED080B53EC102B64F056F994ED120B52
:1036200041EC1E0B53EC102B51EC180B64F04CF9D1
:1036300053EC1E2B64F054FB9DED0A1B53EC112B35
:1036400063F0E8FD9DED0C1B53EC112B64F048FB7F
:103650009DED0E1B53EC112B63F0DCFD9DED101B5B
:1036600053EC112B64F03CFB9FEDFE1B53EC112B34
:1036700064F02AF99DED020B41EC1E0B53EC102B6C
:1036800051EC1D0B64F020F941EC110B51EC180BBF
:103690008DED101B94ED1C0B53EC102B64F014F902
:1036A00041EC110B51EC1D0B8DED0E1B9DED060B2E
:1036B00053EC102B64F008F941EC110B51EC180B92
:1036C0008DED0C1B94ED1A0B53EC102B64F0FCF8F1
:1036D00041EC110B51EC1D0B8DED0A1B9DED080B00
:1036E00053EC102B64F0F0F894ED180B41EC1D0B2B
:1036F00053EC102B51EC180B64F0E6F853EC1D2B37
:1037000064F0EEFA9DED0A1B53EC112B63F082FD81
:103710009DED0C1B53EC112B64F0E2FA9DED0E1B9A
:1037200053EC112B63F076FD9DED101B53EC112B28
:1037300064F0D6FA9FEDCB1B53EC112B64F0C4F868
:103740009DED020B41EC1D0B53EC102B51EC1C0BAF
:1037500064F0BAF841EC110B51EC180B8DED021B23
:1037600094ED220B53EC102B64F0AEF841EC110BEE
:1037700051EC1C0B8DED0A1B9DED060B53EC102B31
:1037800064F0A2F841EC110B51EC180B8DED0C1B01
:1037900094ED200B53EC102B64F096F841EC110BD8
:1037A00051EC1C0B8DED061B9DED080B53EC102B03
:1037B00064F08AF894ED1E0B41EC1C0B53EC102BBB
:1037C00051EC180B64F080F853EC1C2B64F088FA71
:1037D0009DED061B53EC112B63F01CFD9DED0C1BA6
:1037E00053EC112B64F07CFA9DED0A1B53EC112B6A
:1037F00063F010FD9DED021B53EC112B64F070FA89
:103800009FED981B53EC112B64F05EF89DED040BBB
:1038100041EC180B53EC102B51EC1F0B64F054F8D7
:1038200010919DED001B824653EC112B64F04CF877
:1038300041EC110B53EC192B8DED0A1B51EC1F0BB6
:1038400064F042F853EC192B64F03EF841EC110B94
:1038500053EC1A2B8DED081B9DED040B51EC100B56
:1038600064F032F8814653EC1A2B119164F02CF875
:1038700041EC110B8DED061B9FED7C0B51EC1B0BEE
:1038800053EC102B64F020F853EC1A2B64F01CF866
:1038900053EC192B64F018F89DED001B41EC1C0B48
:1038A00053EC1B2B51EC110B64F00EF8074653EC54
:1038B0001B2B029164F008F853EC1C2B64F010FAF7
:1038C0009DED061B53EC112B63F0A4FC9DED081B32
:1038D00053EC112B63F09EFC9DED0A1B53EC112B56
:1038E00064F0FEF941EC1C0B9FED620B53EC102BC6
:1038F00063F0A4FE7DD053EC192B51EC1B0B63F04D
:10390000E3FF53EC182B63F0DFFF41EC110B53EC9A
:103910001D2B8DED0E1B029941EC107B51EC100B11
:1039200063F0D2FF41EC110B8DED0C1B9DED000BF4
:1039300053EC102B9DED040B51EC100B63F0C4FF06
:1039400053EC1E2B63F0C0FF41EC110B53EC192B11
:103950008DED081B51EC190B63F0B6FF53EC1E2BD9
:1039600063F0B2FF41EC110B53EC1D2B8DED0A1BE4
:1039700051EC190B63F0A8FF41EC110B53EC182B21
:103980008DED061B9DED040B51EC100B63F09CFFBD
:103990009DED061B53EC112B64F0A2F953EC1A2B8E
:1039A00063F092FF9DED0A1B53EC112B63F032FC88
:1039B0009DED081B53EC112B64F092F99DED0C1B4F
:1039C00053EC112B63F026FC9DED0E1B53EC112BD9
:1039D00064F086F941EC100B53EC1A2B8DED060BBD
:1039E00051EC1B0B63F070FF8846064648EC100B49
:1039F00000E065E153EC182B51EC100B63F064FF11
:103A000041EC110B53EC1E2B8DED041B029941EC84
:103A1000107B51EC100B63F057FF41EC110B51EC94
:103A20001F0B8DED021B9DED000B53EC102B63F073
:103A30004BFF53EC1D2B63F047FF41EC110B53EC94
:103A40001A2B8DED081B51EC1A0B63F03DFF53EC64
:103A50001D2B63F039FF41EC110B53EC1E2B8DED48
:103A6000001B0BE0000000000000E03F0000000031
:103A700000000040000000000000000051EC1A0BA4
:103A800063F022FF41EC1A0B53EC182B51EC1F0B87
:103A900063F01AFF53EC1A2B64F022F953EC192B44
:103AA00063F012FF9DED001B53EC112B63F0B2FB92
:103AB0009DED081B53EC112B64F012F99DED021BD8
:103AC00053EC112B63F0A6FB9DED041B53EC112B63
:103AD00064F006F941EC100B53EC1D2B8DED040B3B
:103AE00048EC106B51EC100B63F0EEFE41EC110B47
:103AF00053EC1E2B8DED001B119941EC109B51ECEA
:103B0000100B63F0E1FE41EC110B53EC182B8DED23
:103B1000021B109941EC10AB51EC100B63F0D4FE7A
:103B200041EC1A0B53EC1B2B51EC1B0B63F0CCFE3E
:103B300053EC182B63F0C8FE41EC180B53EC1E2B12
:103B400051EC1B0B63F0C0FE41EC1B0B53EC1D2B27
:103B500051EC1F0B63F0B8FE53EC1B2B64F0C0F864
:103B600053EC192B63F0B0FE53EC182B63F052FBAF
:103B700053EC1A2B64F0B4F89DED021B53EC112B9F
:103B800063F048FB9DED001B53EC112B64F0A8F88B
:103B90009DED060B41EC190B53EC1C2B51EC100B5B
:103BA00063F0F4FB41EC180B53EC1C2B85ED008B00
:103BB0009DED040B51EC100B63F0E8FB41EC1A0B8C
:103BC00053EC1C2B85ED02AB51EC190B63F0DEFBC3
:103BD00041EC190B85ED049B94ED100B53EC102B6D
:103BE00063F072FE94ED0E0B41EC1B0B53EC102BAB
:103BF00051EC1A0B63F068FE94ED0C0B41EC1C0BBE
:103C000053EC102B51EC180B63F05EFE53EC1C2BA5
:103C100063F000FB53EC1B2B63F0FCFA1FED6D1BF4
:103C200053EC112B63F050FE94ED061B94ED000B4A
:103C300041EC1B0B53EC112B51EC100B63F0EAFA27
:103C400094ED0A1B53EC112B63F0E4FA53EC1B2B9D
:103C500064F046F894ED301B53EC112B63F096FBA7
:103C600041EC1B0B53EC192B51EC190B63F02CFEA0
:103C700041EC190B53EC1A2B51EC1A0B63F024FE98
:103C800041EC1A0B53EC182B51EC180B63F01CFE93
:103C900053EC1A2B63F0BEFA53EC192B63F0BAFA0B
:103CA00053EC1B2B63F0B6FA41EC100B22F0DCF85E
:103CB0008BED000B012013B0BDEC108BBDE8F08F35
:103CC0000020F8E72DE9F04F0D462DED108B04464E
:103CD0008BB091ED00AB53EC1A2B51EC1A0B63F047
:103CE000F3FD94ED0CCB53EC1C2B63F0EDFD53EC8A
:103CF0001C2B63F0E9FD94ED30FB41EC180B53EC09
:103D00001A2B51EC1F0B63F0DFFD8B464BEC100BB5
:103D1000074653EC1A2B51EC100B63F0D5FD94EDD4
:103D200000EB53EC1E2B63F0CFFD53EC182B63F02C
:103D3000D7FF41EC190B53EC1E2B51EC1A0B63F01F
:103D4000C3FD53EC1C2B63F0BFFD4BEC107B94EDDB
:103D5000121B41EC180B53EC112B51EC100B63F0C0
:103D6000B3FD53EC192B63F0E3FE53EC182B63F017
:103D700051FA41EC1B0B1FEDC30B51EC1A0B53EC2A
:103D8000102B63F0A1FD894649EC100B95ED029BC9
:103D9000064653EC192B51EC100B63F095FD53ECD8
:103DA0001C2B63F091FD94ED0EDB53EC1D2B63F0A7
:103DB0008BFD41EC180B1FEDD30B51EC1F0B53EC9B
:103DC000102B63F081FD824653EC1A2B069163F0B1
:103DD0007BFD53EC192B63F077FD94ED021B53EC44
:103DE000112B63F071FD53EC1B2B63F013FA53ECB2
:103DF000182B63F075FF41EC180B53EC1C2B51ECA6
:103E00001A0B63F061FD049194ED06BB804653EC00
:103E10001B2B63F059FD41EC110B4BEC107B8DED2E
:103E2000001B94ED141B51EC100B53EC112B63F0A1
:103E30004BFD53EC182B63F07BFE9DED001B53EC08
:103E4000112B63F0E7F941EC110B49EC106B8DED90
:103E5000001B95ED048B51EC100B53EC182B63F009
:103E600033FD53EC1C2B63F02FFD94ED10CB53EC82
:103E70001C2B63F029FD41EC110B53EC1A2B8DED3B
:103E8000021B069941EC10AB51EC100B63F01CFDCA
:103E900053EC182B63F018FD94ED041B53EC112B1D
:103EA00063F012FD9DED001B53EC112B63F0B2F992
:103EB0009DED021B53EC112B63F012FF41EC100B34
:103EC0008DED000B049994ED0AAB41EC108B53EC93
:103ED0001A2B51EC100B63F0F7FC41EC110B4BEC7F
:103EE000107B8DED021B94ED161B51EC100B53EC67
:103EF000112B63F0E9FC9DED001B53EC112B63F0DB
:103F000017FE9DED021B53EC112B63F083F941EC7E
:103F1000110B8DED001B9FEDFE0B51EC1E0B53ECB6
:103F2000102B63F0D1FC53EC1E2B63F0CDFC41EC65
:103F3000110B8DED021B9FEDF60B51EC1F0B53EC9B
:103F4000102B63F0C1FC059194ED241B814653ECCA
:103F5000112B63F0B9FC9DED001B53EC112B63F0AA
:103F600059F99DED021B53EC112B63F0B9FE41ECA6
:103F7000110B53EC1E2B8DED001B51EC190B63F054
:103F8000A3FC53EC1D2B63F09FFC41EC110B53EC95
:103F9000192B8DED081B51EC1F0B63F095FC039161
:103FA00094ED181B064653EC112B63F08DFC9DED30
:103FB000001B53EC112B63F0BBFD9DED081B53EC74
:103FC000112B63F027F941EC110B8DED001B9FEDD8
:103FD000D20B51EC1E0B53EC102B63F075FC8B468F
:103FE0004BEC100B054653EC1B2B51EC100B63F004
:103FF0006BFC41EC110B8DED081B9FEDC70B51ECD9
:104000001F0B53EC102B63F05FFC049194ED2A1B03
:10401000804653EC112B63F057FC9DED001B53ECD5
:10402000112B63F0F7F89DED081B53EC112B63F097
:1040300057FE41EC110B53EC1E2B8DED001B51EC88
:10404000180B63F041FC53EC1C2B63F03DFC41EC7E
:104050001E0B53EC182B51EC1F0B63F035FC029137
:1040600094ED1E1B074653EC112B63F02DFC9DEDC8
:10407000001B53EC112B63F05BFD53EC1E2B63F024
:10408000C9F84BEC105B41EC1F0B53EC1A2B51ECB5
:10409000100B63F019FC41EC1E0B049994ED2C1BE2
:1040A00041EC108B53EC112B51EC100B63F00CFC1A
:1040B00053EC1F2B63F0AEF853EC1E2B63F010FE95
:1040C00041EC1F0B53EC192B51EC190B63F0FCFB6B
:1040D00053EC1D2B63F0F8FB53EC1D2B63F0F4FB4A
:1040E00041EC1E0B039953EC192B41EC106B51EC76
:1040F000100B63F0E9FB53EC1B2B63F0E5FB53EC77
:104100001F2B63F087F853EC1E2B63F0E9FD41ECA5
:104110001F0B53EC1B2B51EC190B63F0D5FB53EC2D
:104120001D2B63F0D1FB41EC1E0B039994ED1A1B80
:1041300041EC106B53EC112B51EC100B63F0C4FBF2
:1041400053EC1F2B63F0F4FC53EC1E2B63F062F86E
:1041500041EC1F0B9FED720B51EC190B53EC102B24
:1041600063F0B2FB53EC182B63F0AEFB53EC1D2B4A
:1041700063F0AAFB53EC1C2B63F0A6FB41EC1E0B77
:10418000069953EC192B41EC10AB51EC100B63F07A
:104190009BFB53EC182B63F097FB94ED081B53EC3F
:1041A000112B63F091FB53EC1F2B63F033F853ECAE
:1041B0001E2B63F095FD41EC1E0B53EC1D2B51ECB7
:1041C000190B63F081FB53EC1A2B63F07DFB41EC80
:1041D000190B039994ED1C1B41EC106B53EC112B44
:1041E00051EC100B63F070FB53EC1E2B63F0A0FC42
:1041F00053EC192B63F00EF841EC1D0B9FED44EBD3
:1042000051EC1B0B53EC1E2B63F05EFB53EC1B2B92
:1042100063F05AFB41EC190B059994ED261B41EC18
:10422000109B53EC112B51EC100B63F04DFB53EC36
:104230001D2B62F0EFFF53EC192B63F051FD41ECA5
:104240001D0B53EC1B2B51EC180B63F03DFB53EC97
:104250001C2B63F039FB41EC190B029994ED201BE8
:1042600041EC107B53EC112B51EC100B63F02CFB49
:1042700053EC1D2B63F05CFC53EC192B62F0CAFF6E
:104280009FED250B41EC190B53EC102B51EC1B0B44
:1042900063F01AFB53EC1A2B63F016FB41EC1B0B7B
:1042A000049994ED2E1B41EC108B53EC112B51EC27
:1042B000100B63F009FB53EC192B62F0ABFF53ECCE
:1042C0001B2B63F00DFD41EC1B0B53EC182B51EC39
:1042D000180B63F0F9FA53EC1C2B63F0F5FA53EC6E
:1042E0001C2B63F0F1FA41EC190B029953EC182BDB
:1042F00041EC107B51EC100B63F0E6FA53EC1A2BF7
:1043000063F0E2FA53EC1B2B62F084FF0CE0000038
:10431000000000000000D03F000000000000E03F6F
:10432000000000000000004053EC192B63F0D8FCA3
:1043300041EC190B53EC1A2B51EC180B63F0C4FA37
:1043400053EC1C2B63F0C0FA41EC180B029994ED6E
:10435000221B41EC107B53EC112B51EC100B63F042
:10436000B3FA53EC192B63F0E3FB53EC182B62F018
:1043700051FF41EC180B53EC1E2B51EC1A0B63F060
:10438000A3FA53EC1A2B63F09FFA41EC190B059931
:1043900094ED281B41EC109B53EC112B51EC100BAE
:1043A00063F092FA53EC182B62F034FF53EC192BA4
:1043B00063F096FC41EC100B0BB07DE430B5044685
:1043C000B0F88C0089B000040690B4F88E000D4659
:1043D00000040790B4F8900088340004089002A804
:1043E0003BF08AF9029906982B46401A06900399E9
:1043F000079806AA401A079004990898401A08904E
:104400002088616A80B23BF023F809B030BDF0B576
:104410000D462DED048B87B06946FFF7CFFF9FED6A
:10442000FE8B00246F469FEDFE9A03AE57F82400E2
:1044300000EE100A06EB8400B8EEC00A20EE090A6E
:1044400080ED000A20EE000A10EE100A63F032FD43
:1044500053EC182B62F0DEFE41EC180B641C032CAD
:10446000E4DBB0EE480AF0EE680A21F0FDFCB0EEA5
:10447000408AF0EE608A002456F8240063F01AFDAA
:1044800053EC182B62F082FF62F092FE00EE100AED
:1044900005EB8400641CD0ED000A032C30EE200AEA
:1044A00080ED000AE8DB686D401C68653BF08EFB20
:1044B000E86707B0BDEC048BF0BD2DE9F041044680
:1044C0003BF0B8F940BB3BF043F9042824D0D54970
:1044D00020460E46FFF79BFFD34DD5E95C01814294
:1044E00005DB304603F0E5FB0020C5F87401208EA3
:1044F0004FF00406C00515D504F118003BF08CF907
:104500008009B0F5C87F0AD2D5F8B800002850DD80
:10451000401EC5F8B8004AE00120BDE8F081C5F8AA
:10452000B86044E0D4F8A010D5F81401081A01D4FA
:10453000034600E04342BB4A4FF4A02C583A63457F
:1045400005DDD4E929035365C2E913102FE00312F6
:10455000D4F8A470D5F818015B43381A01D4864604
:1045600001E0C0F1000EE64505DDD4F8A800D164F5
:10457000C2E914701BE0001200FB0033D4F8A8005D
:10458000D5F81C11401A01D4014600E041426145B2
:104590000DDC001200FB0030B0F5403FB4DBA0346E
:1045A000C5F8B86094E80B004C3282E80B0000209C
:1045B000B3E70220B1E72DE9F04F9B4C2DED028BC4
:1045C00093B0D4F8A81090ED000B04EBC10181ED7D
:1045D000000BD4F8A810491CC4F8A81090ED020BE9
:1045E00004EBC10181ED000BD4F8A810491CC4F8FC
:1045F000A81090ED040B04EBC10080ED000BD4F883
:10460000A800401CC4F8A800152802DB0020C4F84C
:10461000A800182284490CA804F08DFD18228249B4
:1046200004A804F088FD01260DF1300A0DF1100BED
:10463000A146002406EB460808EB040109EBC1057E
:104640000AEBC40795ED001B97ED000B53EC112B03
:1046500051EC100B63F036FA03D295ED000B87EDA9
:10466000000B0BEBC40795ED001B97ED000B53EC13
:10467000112B51EC100B63F0EBF803D295ED000B0E
:1046800087ED000B641C032CD6DB761C072ED0DBD9
:104690009DED0C1B9DED040B53EC112B51EC100BFD
:1046A00063F01EFB9DED0E1B9DED060B41EC180B00
:1046B00053EC112B51EC100B63F012FB53EC182B45
:1046C00063F0C6F80BD39DED0E1B9DED060B53EC6E
:1046D000112B51EC100B63F003FB41EC180B9DED1B
:1046E000101B9DED080B53EC112B51EC100B63F0DC
:1046F000F7FA53EC182B63F0ABF80BD39DED101BBE
:104700009DED080B53EC112B51EC100B63F0E8FA04
:1047100041EC180B13B0B0EE480AF0EE680ABDEC9D
:10472000028BBDE8F08F10B504462DED068B9CB0D2
:10473000002155200E91CDE90F1011909FED3B8B7C
:104740000AA83AF0A7FF12A90AA83BF027FB16AA6D
:104750000EA912A83BF045FB6A460AA916A83BF031
:1047600040FB0198B2EE059A00F596700190029810
:10477000B0EE490A00F596700290039800F5967025
:104780000390FEF78BFBBDEEC00A019910EE100AF4
:10479000B0EE490A08440190FEF780FBBDEEC00A66
:1047A000029810EE101AB0EE490A08440290FEF783
:1047B00075FBBDEEC00A039910EE100A0844039081
:1047C000204601A9FEF77DFC94ED300B9FED191BEF
:1047D00051EC100B53EC112B63F074F95DD21AAA53
:1047E00004A92046FEF73FFE60B39DED080B9FED48
:1047F000138B51EC100B53EC182B63F071FA41EC56
:10480000100B53EC102B63F05FF841EC190B9DED8E
:10481000060B53EC182B16E000000000000000000F
:1048200000008037800402206003022000000000A6
:1048300000408F40000000000000344000000000F5
:1048400000C0724029E051EC100B63F049FA41ECD2
:10485000100B53EC102B63F037F89DED040B41EC7B
:104860001A0B53EC182B51EC100B63F039FA41EC96
:10487000100B53EC102B63F027F853EC1A2B62F05B
:10488000C9FC53EC192B62F0C5FC41EC100B21F074
:10489000EBFAB0EE408AF0EE608A9FEDFD0B51EC32
:1048A000180B53EC102B62F071FD1CB041EC100B97
:1048B000BDEC068B10BD10B5E821F74804F0D4FC20
:1048C000F648F74920F8BC1F4A0CC280C181828299
:1048D00081834284F048E821E83004F0C5FCEF49C8
:1048E0000020C1F8B40010BD2DE9F043EB4D0446A3
:1048F0002DED108BC3B0006BC5F8A0012046FFF76B
:10490000DCFD00287ED1D5F8941105F1BC08012901
:1049100011D1B4F98C003D90B4F98E003E90B4F9F9
:1049200090003F903DA9DC48FEF7CBFB04F18C01E1
:10493000404600F0A4FB1FED48DB9FEDDABB9FED86
:10494000DBCB9FEDDCAB9FEDDDEBD34ED5F8080163
:10495000E83E002802DD401EC5F8080196ED300B48
:1049600053EC1D2B51EC100B63F0ACF87DD2CA490F
:10497000E822E839684604F0DEFBC7483DA9E8387C
:10498000FEF79FFBC44940AA20390F46A1F1C80099
:10499000FEF769FD00287BD0BF483946E838FFF7AD
:1049A00091F9B0EE408AF0EE608A95ED400B51EC43
:1049B000180B53EC102B63F093F996ED300B41EC90
:1049C000190B53EC1B2B51EC100B63F089F941ECE4
:1049D000100B51EC190B53EC102B62F0D7FC41EC8F
:1049E000100B21F041FA96ED30FBB0EE409AF0EE5C
:1049F000609A53EC1B2B51EC1F0B63F071F953ECD5
:104A00001F2B00E0E9E062F05FFF41EC1F0B53EC6D
:104A10001C2B51EC180B62F057FF53EC1F2B62F06C
:104A2000B5FC41EC100B21F01FFAD5F8E80063F05B
:104A300041FA95ED381B53EC112B62F045FF53EC16
:104A4000192B62F005FF03D3D5F80801002826DDF5
:104A50009148E8226946E83804F06DFBD5F8E80093
:104A600063F028FA95ED381B01E010E010E053ECFC
:104A7000112B62F029FF53EC192B62F0E9FE5CD296
:104A80004FF4FA7001F03CFE0A20C5F8080154E02A
:104A90008148E8226946E83804F04DFB4DE0D5F83E
:104AA0009801012849D1D5F8B400401CC5F8B400DC
:104AB00000203BF049FD96ED320B53EC1A2B51ECE4
:104AC000100B62F001FF62F0F5FD3A9096ED340BA9
:104AD00053EC1A2B51EC100B62F0F6FE62F0EAFD7B
:104AE0003B9096ED360B53EC1A2B51EC100B62F009
:104AF000EBFE62F0DFFD3C9003213AA83BF096FC10
:104B000096ED300B53EC1E2B51EC100B62F0DAFFDC
:104B100011D29FED6C0A6049E839F0EE400A084670
:104B2000FEF7FFF95C483946E838FFF7CBF8B0EEFE
:104B3000408AF0EE608A85ED408B208E564FC0058E
:104B40000CD5B4F87400C00508D507F1E800FFF7EC
:104B5000EAFDB0EE408AF0EE608A01E09FED4C8BFA
:104B600097ED300B1FEDCD1B51EC100B53EC112BBF
:104B700062F06EFE31D3484940AAC83189464648A2
:104B8000FEF771FC00287CD0D4F8AC0062F0EFFD99
:104B900041EC100B53EC102B9FED4B0B51EC100B19
:104BA00062F0F4FB41EC1F0B4846FFF704FDB0EE4A
:104BB000409AF0EE609A53EC1F2B51EC190B62F007
:104BC00081FF0BD29FED420B51EC180B53EC102BD5
:104BD00062F03EFE02D2FFF76EFEDBE153EC1F2BCC
:104BE00051EC190B62F034FE51D251EC180B9FEDD1
:104BF0003A9B53EC192B62F02BFEF5D297ED300B5C
:104C00009FED371B51EC100B53EC112B62F05AFF48
:104C1000EAD296ED300B53EC1D2B51EC100B62F0E9
:104C20000DFD7CD149461C48FFF74CF8B0EE408A98
:104C3000F0EE608A85ED408B97ED309B53EC1B2B9B
:104C400051EC190B63F04CF853EC192B62F03CFE5D
:104C500041EC190B53EC1C2B51EC180B62F034FE99
:104C600053EC192B62F092FB41EC100B21F0FCF895
:104C7000B0EE408AF0EE608AD5F8E80063F01AF9E9
:104C800000E088E195ED381B53EC112B2CE078E126
:104C90000000000000000840900102206003022094
:104CA0000080FFFF000000000000F03F0000000057
:104CB00000000040000000000000F0400000000084
:104CC00000409F406666E63E9A9999999999A94154
:104CD000000000000000F83F00000000000010404D
:104CE0000000000000003E4062F0EEFD53EC182B87
:104CF00062F0AEFDFFF46FAF9DED400B49464046BC
:104D0000FDF7C4FF02283FF466AF00287ED1D5F836
:104D100098010128FAD100203BF016FC00E02FE0BA
:104D200097ED320B53EC1A2B51EC100B62F0CCFDCB
:104D300062F0C0FC3A9097ED340B53EC1A2B51EC17
:104D4000100B62F0C1FD62F0B5FC3B9097ED360BA5
:104D500053EC1A2B51EC100B62F0B6FD62F0AAFC7A
:104D60003C9003213AA83BF061FB01203BF08AFB19
:104D7000192000900190029068463BF07BFBF6E022
:104D8000D5F8B40062F0F3FC97ED301B53EC112B17
:104D900062F0FCFA9FEDE71B53EC112B62F092FEE0
:104DA000A8D34946E548FEF78DFF97ED30DBB0EE1E
:104DB000408AF0EE608A53EC1B2B51EC1D0B62F025
:104DC0008FFF53EC1D2B62F07FFD41EC1B0B53EC6E
:104DD0001C2B51EC180B62F077FD53EC1B2B62F08F
:104DE000D5FA41EC100B21F03FF8B0EE40BAF0EEEE
:104DF00060BAD5F8E80063F05DF895ED381B53EC28
:104E0000112B62F061FD53EC1B2B00E087E062F098
:104E10001FFDC5D39DED400B49464046FDF736FFCB
:104E200000287CD196ED361B97ED360B53EC112BF9
:104E300051EC100B62F054FF41EC100B53EC102BB3
:104E400062F042FD96ED341B97ED340B41EC1B0BE9
:104E500053EC112B51EC100B62F042FF41EC100BA4
:104E600053EC102B62F030FD96ED321B97ED320BB8
:104E700041EC1C0B53EC112B51EC100B62F030FF8A
:104E800041EC100B53EC102B62F01EFD53EC1C2B6D
:104E900062F0C0F953EC1B2B62F0BCF941EC100B33
:104EA00020F0E2FFB0EE40BAF0EE60BAD4F8AC0009
:104EB00062F05DFC53EC1B2B62F006FD9FEDA01B26
:104EC00053EC112B62F000FD41EC1B0B53EC192B42
:104ED00062F0F8FD1AD39FED9C0B51EC1B0B53ECC9
:104EE000102B62F0EFFDBFF476AED5F8B40062F09F
:104EF0003EFC97ED301B53EC112B62F047FA9FED0F
:104F0000941B53EC112B62F0A3FCECD2D5F8980162
:104F100001287FF460AE00203BF016FB00E039E092
:104F200085ED408B97ED320B53EC1A2B51EC100BA7
:104F300062F0CAFC62F0BEFB3A9097ED340B53EC82
:104F40001A2B51EC100B62F0BFFC62F0B3FB3B90EC
:104F500097ED360B53EC1A2B51EC100B62F0B4FCAE
:104F600062F0A8FB3C9003213AA83BF05FFAF7EE11
:104F7000000A9FED790A7149A1F1E800FDF7D1FF20
:104F800029E697ED300B53EC1E2B51EC100B62F021
:104F900099FDF5D3002043B0BDEC108BBDE8F08344
:104FA00070B56E4C0546D4F80C0110B9284600F0D7
:104FB00091F8D5F8B01044F6206081420ADAD4F8AE
:104FC000102111448142C4F810114FF0000005DB9C
:104FD000C4F810012846BDE8704085E470BD042285
:104FE0004FF4C871AFF247003BF0E2B8AFF24F00A8
:104FF0003BF0A8BB514810B5E821E83804F034F97B
:10500000FFF759FC4FF4D471544804F02DF9534C78
:10501000B7EE000A04F5907084ED3A0A02F095FDAF
:105020000A20C4F87001B2EE000A84ED570A1E206F
:105030009FED4B0AC4F87C0184ED620A9FED490A9A
:1050400084ED610A9FED480A002084ED630A10BDDB
:1050500010B5FFF7CFFF002805D1AFF27D00BDE806
:1050600010403BF02DB910BD10B5AFF2CB003BF0B6
:1050700069FBAFF29500BDE810403BF089BB30B54D
:105080000022C2EBC20331F9124030F91350AC4296
:105090000ADD02EB42040D8820F8245000EB840462
:1050A0004D8865808D88A58000EB430331F912405F
:1050B000B3F906309C4209DA02EB420300EB8303AA
:1050C0000C88DC804C881C818C885C81521C032AF3
:1050D000D7DB30BD70B5214DD0F8AC200446EAB125
:1050E000D3170020192103F075F945F8AC0F54F8D7
:1050F000AC2F0020D317052103F06CF968602268FB
:105100000020D317962103F065F962F030FBC5E962
:105110000D01AC3D0120C5F80C0170BD6FF00040E1
:10512000C5F8AC009FED110BC5F8B00085ED380B4C
:10513000F0E700000AD7A3703D0AE73F9001022084
:10514000000000000000103E0000000000000440CD
:10515000333333333333C33F000000006003022096
:10516000CDCCCC3E3333333F9A99193F0000C0FF7A
:10517000FFFFDF4110B5FF49C4074FF040434FF038
:10518000804205D08B66CB66C1E91C328A67CA674C
:10519000840709D5C1F80031C1F80431C1E94232B0
:1051A000C1F81021C1F81421400709D5C1F8983180
:1051B000C1F89C31C1E96832C1F8A821C1F8AC211D
:1051C00010BD2DE9F14F002082B082468146029841
:1051D000806F00287ED000220020401C0428FCDBC9
:1051E000029800EBC203D3E90010A1FB0167D3E9E9
:1051F000065400FB017701FB0077AB46AD1BCDE900
:1052000000670326A5FB06C8A64664EB070404FB5B
:105210000684002705FB0745DDE900671CEB060453
:105220007D41A4FB016705FB017504FB0055D3E933
:105230000C47341B65EB0705CDE900455D46A5FB32
:1052400005670324A6FB04580EFB0B770BFB0E77B8
:1052500007FB04844FF0000C06FB0C44D3E91263F7
:10526000761B63EB04034C18A4FB017C40EB0005A8
:1052700005FB01C504FB0055A7FB014C05FB01C55F
:1052800007FB0055A4FB017C05FB01C504FB005492
:10529000F6196341DDE90045AD0045EA9475A400C7
:1052A000A4FB017C05FB01C104FB0014F01B73EBA4
:1052B000040103D50023404263EB0101BAEB000473
:1052C00079EB010301DA82468946521C032A83DB0B
:1052D000504600E016E0494662F046FE00EE900AB5
:1052E000A54890ED0E1A80EE810A10EE100A62F0C9
:1052F000E3FEA04AD2F80C2203B09200BDE8F04FC2
:1053000003F055B8002003B00146BDE8F08F2DE949
:10531000F14F0020009A0146926FE2B30024002270
:10532000521C042AFCDB009A02EBC405AA46D5E90C
:105330000029A2FB023CD5E906769E46FB1A03250E
:10534000A3FB057809FB02CC02FB09CB66EB0B063D
:1053500006FB05854FF0000C03FB0C5617EB0E0304
:10536000A3FB027C46EB0B0606FB02C203FB0923F0
:10537000DAE90C25BA1AAB4103D50025524265EB98
:105380000303851A71EB030501DA10461946641C04
:10539000032CC4DB00E015E062F0E6FD00EE900AAD
:1053A000754890ED0E1A80EE810A10EE100A62F038
:1053B00083FE704AD2F80C22BDE8F84F02EB42029D
:1053C00002F0F5BF00200146BDE8F88F2DE9FE434D
:1053D000684D80460024D5F810626F4605EBC40185
:1053E0003246D1E9020102F0CFFF05EB8401B1F8AA
:1053F00084100904401847F8240004F10104032C28
:10540000ECDB5C489821083003F02EFF0120FFF709
:10541000B1FE95F8E8010199042807D1D5F81802E2
:10542000B0F5201F02DD052085F8E801524C0098F8
:10543000636AC11A01D40E4600E01E1A0198A26ADE
:10544000801A01D4074601E0019FD71BBE4206DD4A
:10545000002901D4084606E00098181A03E0002845
:1054600001D50198101A029AE16A521A01D4134622
:1054700001E0029BCB1A834205DB002A01D41046CF
:1054800001E00298081AD8F824103AF04EFCD5F83A
:105490001812814206DD032168463BF09BF802208A
:1054A0003BF0EAF8009860620198A0620298E0621E
:1054B000BDE8FE83304AC2E9020170472E4AC2E9C4
:1054C000060170472C4AC2E904017047294AD2F804
:1054D000E0310360D2E97402C1E900027047254A55
:1054E000D2F8E0310360D2E97602C1E900027047E8
:1054F0002DE9FE4781460020EA468A6F22B901EB7A
:10550000800339F91020DA6701EB800239F9103095
:10551000D46F1D1B4AF82050136E9D4200DD1566A6
:10552000D36E9D4200DAD5660123002422464FEA5D
:10553000E578A3FB056704FB057403FB08443346C9
:1055400002EB420601EBC60606EBC00CDCE9007676
:10555000FF186641CCE90076521C042AE9DB401CA6
:105560000328CADB886F401C88670120C1F89000BF
:10557000BDE8FE87080502206807022030B5002339
:1055800002EB830550F823405B1CEC66032BF7DB32
:10559000C2F88810916F79B1002102EB810450F8B4
:1055A0002130E56F5B1B00D55B42256E9D4200DA22
:1055B0002366491C0329F0DB906F401C9067012093
:1055C000C2F8900030BD10B500210B4600EB8102FF
:1055D000491CD46ED46713660329F7DBD0F8881012
:1055E00040F8783FC0E9051310BDD0E92210081A31
:1055F00070470146D1E91802824200DB1046896EED
:10560000814200DB084670472DE9F0478046501E76
:10561000012686408946C2F12007404602F0C7FEB7
:1056200004460D46404649463A4602F0ADFE3A462B
:1056300002F0BDFEB04203DD641C45F1000505E04B
:105640007142884202DA641E45F1FF352046294640
:10565000BDE8F087F7490020086248628862C862A6
:10566000086448648864C864086348638863C863DE
:10567000086548658865C865704730B5EE4AD2F858
:10568000483223B1D2E990542D1A8C4101DAC2E993
:1056900090015B1CC2F8483230BD30B5E64AD2F802
:1056A000583223B1D2E994542D1A8C4101DAC2E95F
:1056B00094015B1CC2F8583230BD30B5DE4AD2F8D6
:1056C00028322BB1D2E98845041B71EB050401DABD
:1056D000C2E988015B1CC2F8283230BD30B5D64A19
:1056E000D2F838322BB1D2E98C45041B71EB05049A
:1056F00001DAC2E98C015B1CC2F8383230BD2DE9F9
:10570000F0470246CC48012508308046C36E016E42
:10571000046FC91A436E1B1B8B4200DB1946836E54
:10572000D8F87400181A884200DB0146C14F603770
:10573000F86B884204DA002400F010FA204687E76C
:10574000108E0124BC4EC0054FF000010ED5D6F8D6
:1057500080303068834209DBB2F87420D20506D568
:10576000D6F8B021824201DB052400E00C4674B378
:10577000600719D5AF48C8388146FFF722FD000DF4
:1057800040EA01300915C6E97601D7E904321B1A4F
:105790008A4102DA0025FFF7A1FF9821484603F06D
:1057A00063FD0420FFF7E6FCE0070ED04046FFF75C
:1057B00008FDC6E97C01D7E906340246181A8C4177
:1057C00003DA00251046FFF778FF284640E7FFE799
:1057D00002203DE71EB5044690F83000C0F381106A
:1057E000032804D19449201D0831FFF781FE94F865
:1057F0007400C0F38110032805D18E4904F14800DC
:10580000C839FFF775FED4F8B8008B4AC0F381138E
:10581000A0326946032B0FD0C0F3411003281AD1E0
:10582000002004EB8003D3F8A0309B1341F8203014
:10583000401C0328F5DB09E0002004EB4003B3F92A
:105840008C3041F82030401C0328F6DB6846D4F841
:10585000C010FFF793FE1EBD2DE9F047054600205E
:10586000296BCA056AD501F05001402900D10120F9
:1058700095F8741001F05001402900D1012095F8ED
:10588000B8106D4C01F05001402900D030B100F04B
:1058900065F90020C4F8E00184F8E801654ED4F809
:1058A0000812E86A6036814228D0C4F808020A2843
:1058B000306B0CDA40002060716B00EE100A491C5E
:1058C000C4F80C12B8EEC00A20F00BFB05E0206013
:1058D000706BC4F80C0296ED0E0A84ED850AD4F8BC
:1058E0000C02C0F11000C4F810024FF48040C4F85C
:1058F000180296F8341019208840F0632846FFF704
:1059000069FF94F8E811DFF8309105274FF002089D
:1059100009F1A009072911D2DFE801F004112730AD
:105920005E7E8500D4F8E001411CC4F8E0110A282D
:1059300004DB00F013F9012084F8E80186E0D4F8D4
:105940009800012810D12846FFF7D9FE10B1012890
:1059500003D004E084F8E87101E084F8E881484667
:10596000FFF731FEFFF776FE70E0032084F8E801D0
:105970002846FFF72BFD00F0F1F867E02846FFF717
:10598000BEFEE8B3012861D1B5F8B8004FF00403BA
:10599000C00515D54846FFF72CFE0146C017C4E9DF
:1059A0007410D6E902C2BCEB0101824102DA84F82C
:1059B000E87108E04846FFF718FE316A884202D3D2
:1059C00084F8E83124E0F4E97601FFF766FED4E9D3
:1059D0000601FFF752FE39E0B5F8B800C0050BD557
:1059E0004846FFF706FE0146C017C4E97410D6E921
:1059F0000232591A824108DB2846FFF780FE00E098
:105A000003E010B1012803D020E084F8E8711DE024
:105A10002846FFF7DBFCD6E7062084F8E8010120E2
:105A20003AF02AFE0DE02846FFF769FE012805D06E
:105A300038B10BE0080702200805022084F8E8814D
:105A400004E000F08BF84846FFF7BDFD0020FFE5BD
:105A500010B500214010002802D001F10101F9DC4D
:105A60004FF0010001F1010100FA01F0434C00EE9A
:105A7000100AC4E90C01B8EEC00A20F032FA84ED35
:105A80000E0A94F8341019208840E06310BD10B558
:105A90004FF418713A4803F0E7FB4021374803F010
:105AA000E3FB0720FFF766FB344840F2DC5100229D
:105AB000C0E906121421C0E902124FF41671C0E9C0
:105AC000041230492E4C01620120C4F8E40119206F
:105AD000FFF7BEFF0020C4F8080210BD10B54FF458
